:020000040800F2
:1000000038070020D501000837140008BB1300088A
:10001000351400080F05000809180008000000004A
:100020000000000000000000000000004F16000863
:1000300011050008000000003914000851160008DE
:10004000EF010008EF010008EF010008EF010008D0
:10005000EF010008EF010008EF010008EF010008C0
:10006000EF010008EF010008EF010008EF010008B0
:10007000EF010008EF010008EF010008EF010008A0
:10008000EF010008EF010008EF010008EF01000890
:10009000EF010008EF010008EF010008EF01000880
:1000A000EF010008EF010008EF010008EF01000870
:1000B000EF010008EF010008EF010008EF01000860
:1000C000EF010008EF010008EF010008EF01000850
:1000D000EF010008EF010008EF010008EF01000840
:1000E000EF010008EF010008EF010008EF01000830
:1000F000EF010008EF010008EF010008EF01000820
:10010000EF010008EF010008EF010008EF0100080F
:10011000EF010008EF010008EF010008EF010008FF
:10012000EF010008EF010008EF010008EF010008EF
:1001300000F002F800F03FF80AA090E8000C8244BA
:100140008344AAF10107DA4501D100F034F8AFF297
:10015000090EBAE80F0013F0010F18BFFB1A43F0A5
:1001600001031847A8170000C8170000103A24BF61
:1001700078C878C1FAD8520724BF30C830C144BF0C
:1001800004680C607047000000230024002500264E
:10019000103A28BF78C1FBD8520728BF30C148BFEA
:1001A0000B607047642900F07D80002070471FB508
:1001B0001FBD10B510BD00F070F91146FFF7F7FF35
:1001C00001F034FB00F08EF903B4FFF7F2FF03BC3B
:1001D00000F096F90948804709480047FEE7FEE726
:1001E000FEE7FEE7FEE7FEE7FEE7FEE7FEE7FEE7E7
:1001F00004480549054A064B70470000D51600081B
:1002000031010008380100203807002038030020A1
:10021000380300200FB41CB5074B06AA7B4469467F
:100220000090059800F021F90020694600F030F9AF
:100230001CBC5DF814FB0000710200002DE9F041C8
:100240000E460446002020622046E168884730B30D
:10025000252805D0D4E901219047206A401CF2E707
:10026000E168204600278847050018D0A5F1410025
:10027000192802D820354FF4006732462946204617
:100280002760FFF78FFF40B1012804D0F61D26F04C
:1002900007060836D8E7361DD6E72846DAE7206A8B
:1002A000BDE8F0812DE9F04106460024106875296B
:1002B000314616A510D0AFF30080002802DA404284
:1002C00013A507E031688A0701D512A502E04907A6
:1002D00004D511A5012401E0AFF3008000210A221A
:1002E00006F1240709E0B0FBF2FCB0FBF2F302FBDD
:1002F0001C00303078541846491C0028F3D123469E
:100300002A463046BDE8F04100F051B80000000038
:100310002D0000002B0000002000000010B5431C41
:1003200002E010F8011B71B18107FAD14FF00132E0
:1003300002C88C1A8C4314EAC211F9D0C01A0A06FA
:1003400003D0C01E10BDC01A10BD0A0401D0801E0B
:1003500010BD0902FCD0401E10BD4FF0000200B5D8
:10036000134694469646203922BFA0E80C50A0E8D8
:100370000C50B1F12001BFF4F7AF090728BFA0E886
:100380000C5048BF0CC05DF804EB890028BF40F852
:10039000042B08BF704748BF20F8022B11F0804F94
:1003A00018BF00F8012B70477047704770472DE960
:1003B000F0470D4699469246044600F1240801682C
:1003C000880604D5E06921F01001216000E00120D9
:1003D000A84201DD471B00E00027A1697A1902EB62
:1003E0000900081AA0612078C00602D42046AFF3A5
:1003F0000080002608E0D4E901211AF806009047A1
:10040000206A401C761C20624E45F4DB2078C00632
:100410000AD52046AFF3008006E0D4E90121302060
:100420009047206A401C2062381EA7F10107F4DCC7
:1004300007E0D4E9012118F805009047206A401C24
:100440002062281EA5F10105F3DC2046AFF30080F1
:100450002078000602D50220BDE8F0870120FBE7E6
:1004600001694A1C02610878704700B58FB0CDE978
:1004700001310021059105497944CDE90310114668
:100480006846FFF7DBFE0FB000BD0000E5FFFFFF91
:100490000A6802F8010B0A607047754600F02CF8F4
:1004A000AE4605006946534620F00700854618B061
:1004B00020B5FFF79DFEBDE820404FF000064FF04D
:1004C00000074FF000084FF0000B21F00701AC4689
:1004D000ACE8C009ACE8C009ACE8C009ACE8C009A8
:1004E0008D46704710B50446AFF300802046BDE846
:1004F0001040FFF769BE000000487047D40000209C
:1005000001491820ABBEFEE7260002007047FEE757
:100510007047000070B5044600F00AF90546601CFB
:1005200002D004480078044400F002F9401BA042C5
:10053000FAD370BD040000202DE9F84FDFF8C89110
:100540000024A9F1040B23460F2709F1040AABF19B
:10055000040ED1E00125A54006EA0502AA4276D1A3
:10056000DFF8A8C14E68A6EB0C0866452BD00DDC61
:10057000032E34D005DC36B3012E19D0022E2FD134
:100580001BE0112E16D0122E2AD119E0B8F5881FC3
:1005900019D006DCB8F5803F15D0B8F5801F1FD103
:1005A00011E0B8F5001F0ED0B8F5041F18D10AE00D
:1005B000CB6815E0CB681B1D12E0CB6808330FE059
:1005C000CB680C330CE08B682BB1012B4FF0080388
:1005D00003D0456104E0042302E0056100E000234C
:1005E000FF2A01D8064601E000F104064FEA84051F
:1005F00001D9A5F12005D6F8008007FA05FC28EA04
:100600000C0803FA05F548EA0508C6F800804D68AD
:10061000ED0070D53E4DAE6946F00106AE61AD69A4
:1006200024F0030605F0010500953A4D06EB050C94
:10063000DCF80850A607360F07FA06F825EA080581
:10064000DFF8D480404503D14FF0000825E052E0A8
:10065000DFF8C880404502D14FF001081DE0DFF807
:10066000C080404502D14FF0020816E0DFF8B480A8
:10067000404502D14FF003080FE0DFF8AC80404561
:1006800002D14FF0040808E0DFF8A080404502D115
:100690004FF0050801E04FF0060808FA06F848EAAE
:1006A0000508CCF808804D68D9F80060ED024D4689
:1006B00001D5164300E096432E604D68DAF80060DD
:1006C000AD02554601D5164300E096432E604D68B5
:1006D000DBF80060AD035D4601D5164300E09643AC
:1006E0002E604D68DEF80060ED03754601D51643B7
:1006F00000E096432E60641C0A681646E2407FF4D0
:1007000029AFBDE8F88F0000080401400000111077
:10071000001002400000014000080140000C0140B0
:10072000001001400014014000180140001C01406D
:10073000014880687047000004000020024881687A
:10074000027811448160704704000020074810B50A
:10075000016841F010010160032000F067F80F20EC
:1007600000F006F800F024F8002010BD0020024040
:1007700070B50D4D04464FF47A712878B1FBF0F056
:100780000A490968B1FBF0F000F04BFD48B9102CA4
:1007900007D200222146501E00F028F800206C608D
:1007A00070BD012070BD000004000020100000207A
:1007B0000C4808B5816941F001018161816901F04E
:1007C00001010091C16941F08051C161C06900F02F
:1007D000805000900448416821F0E06141F0806160
:1007E000416008BD0010024000000140F0B40E4B13
:1007F0001B680C46C3F30223C3F10705042D00D97F
:100800000425191D072901D2002300E0DB1E012663
:1008100006FA05F1491E214099409E40761E164079
:100820003143F0BC00F0F1BF0CED00E0064900F0F0
:10083000070208684FF6FF03184040EA0220034A07
:1008400010430860704700000CED00E00000FA055E
:10085000014901200862704700000E4210B50146B0
:100860000020284C04292FD00BDC012930D002298C
:1008700029D100F06BF96168C1F38131491C49004D
:100880001FE0082920D010291DD161682268D201FB
:1008900019D51D48C1F38342C903805C0AD561683C
:1008A000194AC1F34041921E515C184AB2FBF1F162
:1008B000484301E0164948436168490203D44000B7
:1008C0000321B0FBF1F010BDBDE8104000F04EB9BF
:1008D000226AC2F30121012903D1920701D5C8037D
:1008E00010BD022905D1626A920702D549F640403F
:1008F00010BD0329FCD121688903F9D54FF22440AA
:1009000010BD000000100240E418000800127A0038
:1009100000093D002DE9F84305460078354CC00735
:1009200054D0E0690026C00008D4E06940F080504F
:10093000E061E069012600F0805000902E480168D7
:10094000C90512D40168804641F480710160FFF747
:10095000EFFE074605E000BFFFF7EAFEC01B642874
:1009600023D8D8F80000C005F6D5206A10F44070EE
:1009700021D0A98801F4407181421CD0206A1F490E
:10098000012220F440700A6000220A602062C00741
:1009900011D0FFF7CDFE074641F2883808E000BFCE
:1009A000FFF7C6FEC11B414502D90320BDE8F8830D
:1009B000206A8007F4D5206A696820F440700843F3
:1009C00020621EB1E06920F08050E0612878800745
:1009D00005D56068A96820F4404008436060287825
:1009E000C00605D56068696920F48000084360602E
:1009F0000020DBE70010024000700040400442424B
:100A00002DE9F0470F46050061D0434E306800F0F5
:100A10000700B84209D2306820F007003843306040
:100A2000306800F00700B84251D128683B4C81077C
:100A300012D5400703D5606840F4E0606060287814
:100A4000000703D5606840F4605060606068A96882
:100A500020F0F000084360602878C00728D068685C
:100A6000012810D02168022810D0890700292EDA29
:100A7000616821F0030101436160FFF759FE804680
:100A800041F288390DE021688903EFE78901EDE73C
:100A9000FFF74EFEA0EB0801494502D90320BDE84F
:100AA000F0876068696800F00C00B0EB810FEFD14F
:100AB000306800F00700B8420BD9306820F007001A
:100AC00038433060306800F00700B84201D00120A0
:100AD000E5E72878400705D56068E96820F4E0601C
:100AE000084360602878000706D56068296920F40B
:100AF000605040EAC100606000F038F86168084A60
:100B0000C1F30311515CC8400649086006480068FB
:100B1000FFF72EFE0020C2E7002002400010024036
:100B2000F4180008100000200800002004480549BF
:100B300000684968044AC1F30221515CC84070470B
:100B40001000002000100240041900080448054964
:100B500000684968044AC1F3C221515CC84070472B
:100B60001000002000100240041900080E4A5168CD
:100B70000E4801F00C03042B11D0082B0FD10C48A8
:100B8000C1F38343C903C05C0AD55168084AC1F365
:100B90004041921E515C054A5043B0FBF1F0704752
:100BA00004494843704700000010024000127A00D8
:100BB000D218000800093D002DE9F84F040070D05C
:100BC0002078C04DC00749D06868C0F38100012873
:100BD00007D06868C0F38100022809D16868C003A3
:100BE00006D52868800339D560680028E7D035E04D
:100BF0006068B0F5803F0BD010B1B0F5A02F11D0D8
:100C0000286820F480302860286820F4802002E0E2
:100C1000286840F480302860606890B1FFF788FD54
:100C200006460AE0286840F480202860F0E700BF0C
:100C3000FFF77EFD801B642873D828688003F7D5F2
:100C40000CE0FFF775FD064605E000BFFFF770FDFD
:100C5000801B6428F0D828688003F7D420789A4E47
:100C600080074FF001094FF0000839D5686810F08F
:100C70000C0F07D06868C0F38100022809D16868AA
:100C8000C00306D42868800714D52069012808D13C
:100C900010E02069B0B1C6F80090FFF749FD0746A3
:100CA00005E00AE1FFF744FDC01B0228C4D828680C
:100CB0008007F7D52868616920F0F80040EAC10094
:100CC00028600DE0C6F80080FFF732FD074604E01B
:100CD000FFF72EFDC01B022823D828688007F7D411
:100CE000207800072CD57948A169D9B1C0F80090C7
:100CF000FFF71EFD074604E0FFF71AFDC01B0228A0
:100D00000FD8686A8007F7D571484FF4FA51006828
:100D1000B0FBF1F0009000BF0098411E0091FAD2A4
:100D20000EE080E0C0F80080FFF702FD074604E017
:100D3000FFF7FEFCC01B022875D8686A8007F7D44D
:100D40002078400760D5E8690027C00008D4E8692A
:100D500040F08050E861E869012700F08050009081
:100D60005C480168C90513D40168834641F4807169
:100D70000160FFF7DDFC824606E000BFFFF7D8FC0C
:100D8000A0EB0A0064284ED8DBF80000C005F5D5BA
:100D9000E06801280AD008B1052813D0286A20F09D
:100DA00001002862286A20F0040002E0286A40F06E
:100DB00001002862E06841F2883B98B1FFF7B8FC77
:100DC00082460BE0286A40F004002862EEE700BF8C
:100DD000FFF7AEFCA0EB0A0159455AD8286A8007F4
:100DE000F6D50CE0FFF7A4FC824605E0FFF7A0FC77
:100DF000A0EB0A0159454CD8286A8007F6D41FB1E8
:100E0000E86920F08050E861E06988B36968C1F35F
:100E10008101022944D00228C6F8608004D0FFF77F
:100E200087FC044638E034E0FFF782FC074604E024
:100E3000FFF77EFCC01B02282BD828688001F7D45E
:100E4000206AB0F5803F05D16868A16820F40030C1
:100E500008436860D4E908010843696821F4741103
:100E600008436860C6F86090FFF762FC044606E03D
:100E700025E000BFFFF75CFC001B022809D82868AA
:100E80008001F7D51BE000BFFFF752FC001B0228D2
:100E900002D90320BDE8F88F28688001F4D40EE061
:100EA0000128F7D06868226A00F48031914204D1A9
:100EB000616A00F47010884201D00120EAE7002046
:100EC000E8E7000000100240000042428004424275
:100ED00010000020007000402DE9F04791460C46BC
:100EE0005FEA00084AD084B3D8F8000040684007A1
:100EF00044D4404600F048FB4FF461620546B0FB25
:100F0000F2F1B0FBF2F302FB13503C23B0FBF3F021
:100F1000B5FBF2F6607002FB1650B0FBF3F203FB78
:100F20001200A070182931D31820B1FBF0F7B1FBE3
:100F3000F0F200FB12102070404600F01EFB411C36
:100F400004D0A84202D9461B02E017E04FF0FF365A
:100F5000A7EB071000EB4000C0EB001005EBC0153D
:100F60002946404600F05FFB40B9701C01D0711962
:100F700000E03146404600F042FB10B10120BDE8E0
:100F8000F0873946404600F06CFA00E02170B9F174
:100F9000000F0BD0207800F059FA2070607800F034
:100FA00055FA6070A07800F051FAA0700020E6E7D2
:100FB00070B5040003D0607C002610B105E001206C
:100FC00070BD2674204600F03DF802206074204673
:100FD00000F00AF9042550BB204600F099FA30BB16
:100FE0002068416821F007014160A06820B11448E1
:100FF000016821F0010101601148001F0168A26829
:1010000021F46071114301606068411C04D101202A
:10101000FFF724FC58B1401E2268C0F303419160E1
:10102000216880B2C860204600F08CFA08B165746F
:10103000C5E7E67301206073A0736074002070BD83
:10104000306C004008B50068084988420DD1FFF7B0
:10105000FFFB0748C16941F00061C161C0690549F2
:1010600000F0006000900120086008BD00280040EA
:10107000001002403C0442422DE9F0410D460400BC
:101080003BD0C5B3207C01283AD04FF0010884F84A
:10109000108002206074E87872B300F0CEF9E0733B
:1010A000687800F0CAF96073A87800F0C6F9A073F8
:1010B000C2B2617BE07B00F077FA20732870204693
:1010C00000F062FA4FF46161B0FBF1F100251829DC
:1010D0002DD91822B1FBF2F1A1EB011101EB410175
:1010E000C1EB011100EBC1163146204600F09BFA1E
:1010F0000427C8B90BE000E004E00120BDE8F0815E
:101100000220FBE7E07368786073A878CFE7204699
:1011100000F033FA411C0AD0B04208D2064901441B
:10112000204600F06CFA10B167742574E5E784F886
:10113000118025740020E1E7805101002DE9F04184
:101140000D46040024D01DB3207C012823D04FF08D
:10115000010884F81080022060742878EAB100F059
:101160006CF94FF4616100FB01F6687800F065F9F5
:10117000C0EB001006EB8006A87800F05EF9351889
:101180002946204600F04FFA0026042710BB0FE046
:101190000120BDE8F0810220FBE74FF46161484384
:1011A0006978C1EB011100EB8100A9784518E7E7E8
:1011B0002068416821F005014160204600F0DDF91A
:1011C000411C0AD0A84208D206490144204600F03A
:1011D00016FA10B167742674DAE784F81180267461
:1011E0000020D6E78051010070B504000AD02068C5
:1011F000416821F008014160FFF79AFA05464FF473
:101200007A7608E0012070BDFFF792FA401BB042E9
:1012100001D9032070BD206840680007F4D5002084
:1012200070BD10B5401EB0F1807F01D3012010BD0C
:101230004FF0E02460610F21601700F0E6FA002013
:10124000A06107202061002010BD70B5040004D00B
:1012500094F84100002510B106E0012070BD84F82B
:101260004050204600F024F8242084F841002068F3
:10127000C16821F40051C160204600F02DFA2068B9
:10128000016921F4904101612068416921F02A013E
:1012900041612068C16841F40051C160656420204B
:1012A00084F8410084F842006563002070BD0000AE
:1012B00030B585B000240094019402940394006832
:1012C0001449884224D11448816941F480418161E4
:1012D000816901F480410491816941F004018161D7
:1012E00080690E4D00F0040004904FF400700090EF
:1012F000022001900320039069462846FFF71CF95D
:101300002815CDE90004694628460294FFF714F930
:1013100005B030BD00380140001002400008014017
:101320002DE9F843044690F841001F4616460D4645
:10133000202802D00220BDE8F8837DB176B10020DC
:101340006064212084F84100FFF7F2F9A68480460A
:10135000E684A068B0F5805F02D003E00120EAE7F0
:10136000206910B12E4600250EE000260CE08021F9
:10137000204600F00DFAA0B9AEB116F8010B2168B5
:101380004860E08C401EE084E08C43464FF0000251
:1013900000970028EBD14FF04001204600F0F8F90B
:1013A00030B10320C7E735F8020BC0F30800E6E7C9
:1013B000202084F841000020BDE7FEE71CB5002096
:1013C000019000901A48194901604FF0FF314160C7
:1013D0004FF480718160FFF7EBFD08B172B6FEE754
:1013E00017208DF804003B208DF805008DF80600CD
:1013F000002201A90E48FFF7A1FE08B172B6FEE770
:1014000002208DF8000003208DF801001A208DF8CD
:10141000020018208DF80300002269460448FFF7F7
:101420002BFE002801D072B6FEE71CBD002800404C
:1014300014000020FEE7FEE77047010901EB81017F
:1014400000F00F0000EB4100C0B27047002102E045
:101450000A38C0B2491C0A28FAD2090740EA1160CA
:1014600070472DE9F04104460025C07B627BA37BD9
:1014700042E0012A16D0032A14D0052A12D0072AE6
:1014800010D0082A0ED00A2A0CD00C2A0AD0042A1E
:1014900010D0062A0ED0092A0CD00B2A0AD0022A14
:1014A0000DD028E01F2B0CD30C2A05D101221346A6
:1014B000401C20E01E2B04D30123521C1BE01C2BDC
:1014C00002D203F1010316E011D183B29E0710D1BD
:1014D0006426B3FBF6F706FB173636B94FF4C87629
:1014E000B3FBF6F706FB17331BB91D2303E01D2BD7
:1014F00001D1032201236D1C8D42BAD3D1B2E07316
:101500006173DAB2A27300F04FF82073BDE8F08186
:1015100070B50446FFF70CF905464FF47A7606E0FD
:10152000FFF706F9401BB04201D9032070BD2068C7
:1015300040688006F4D52068416841F010014160A0
:10154000002070BD70B504460068416821F01001AC
:101550004160FFF7EDF805464FF47A7607E000BFEB
:10156000FFF7E6F8401BB04201D9032070BD2068A8
:1015700040688006F4D5002070BD0168086A496A99
:1015800089B241EA00407047006881698AB2C16946
:101590008BB2816989B28A4203D0C06961F31F406E
:1015A000704743EA02407047F0B56424C1EBC103C1
:1015B0000927A500072603EB01130329B3FBF7F165
:1015C00000F5FA60114401440AD2401EB0FBF4F267
:1015D00001EB9001B0FBF5F0891A0844001D08E00A
:1015E000B0FBF4F201EB9001B0FBF5F0891A08446E
:1015F000801CB0FBF6F106FB1100C0B2F0BD70B567
:101600000D4606460024FFF783FF48B93168280CD1
:1016100008623168A8B248623046FFF793FF00B114
:101620000124204670BD70B50D4606460024FFF724
:101630006FFF48B93168280C88613168A8B2C86169
:101640003046FFF77FFF00B10124204670BD704790
:10165000FFF774B870B596B028216846FEF77DFE96
:1016600014210AA8FEF779FE18210FA8FEF775FECF
:101670000920012400904FF4803000250494069442
:10168000CDE901050226CDE907604FF4E01009908D
:101690006846FFF791FA08B172B6FEE70F20CDE970
:1016A0000A064FF48060CDE90C5002210AA80E957D
:1016B000FFF7A6F908B172B6FEE74FF40070CDE966
:1016C0000F400FA8FFF726F9002801D072B6FEE7F9
:1016D00016B070BD7047000070B50446006801691F
:1016E000E26821F44051114301612169A068084377
:1016F000616908432168CA6841F20C639A43024356
:10170000CA6020684169A26921F4407111434161B6
:101710001E492068884202D1FFF718FA01E0FFF75E
:1017200005FA00EBC00101EB001260686421800043
:10173000B2FBF0F3B3FBF1F36FF018067343B2FBA7
:10174000F0F5B2FBF0F605EB8305322303EB05154C
:10175000B5FBF1F5B6FBF1F605F0F00505EB061566
:10176000B2FBF0F6B2FBF0F0B0FBF1F06FF0180254
:10177000504306EB800003EB0010B0FBF1F0216852
:1017800000F00F002844886070BD00000038014060
:101790002DE9F041984617460E460446069D27E07F
:1017A000681C25D02DB1FEF7C3FFA0EB0800A842AE
:1017B0001ED920680C3050E8001F21F4D07140E899
:1017C0000012002AF5D12068143050E8001F21F0E3
:1017D000010140E80012002AF5D1202084F84100E0
:1017E00084F84200002084F840000320BDE8F08126
:1017F0002068006836EA000004D00020B842CFD04C
:101800000020F3E70120F9E7FEE70907090E0028A9
:1018100004DB00F1E02080F80014704700F00F00B6
:1018200000F1E02080F8141D7047000008B5FEF7B5
:101830008DFFFFF70FFF1F48816941F004018161AF
:10184000806900F004000090FFF7B8FD1B481A49BA
:101850000C2201604FF4E131416000218160C160E0
:10186000C0E904128161C161FFF7EFFC08B172B6F3
:10187000FEE7134C4FF47A751048002210491438D3
:10188000FFF72AFBA07800900C48637822780DA11E
:101890004830FEF7BFFC09484830FEF73FFD0749D6
:1018A00082B2322348310548FFF73AFD2846FEF759
:1018B00031FEE1E70010024000380140280000201E
:1018C0000000002025642C25642C25640A000000FB
:1018D000010202030405060708090A0B0C0D0E0F8E
:1018E0001010010202030405060708090A0B0C0D7B
:1018F0000E0F1010000000000000000001020304A1
:101900000607080900000000010203042C19000862
:1019100000000020140000006C01000840190008BD
:1019200014000020240700008801000800000000C7
:101930000100000010000000000000000024F4007E
:0400000508000131BD
:00000001FF
