:020000040800F2
:10000000A8040020F10100085B1700089512000801
:1000100059170008FD0200089B1F0008000000009F
:10002000000000000000000000000000731A00083B
:10003000FF020008000000005D170008751A0008A4
:100040000B0200080B0200080B0200080B0200085C
:100050000B0200080B0200080B0200080B0200084C
:100060000B0200080B0200080B0200080B0200083C
:100070000B0200080B0200080B0200080B0200082C
:100080000B020008000000000B0200080B02000831
:100090000B0200080B0200080B0200080B0200080C
:1000A0000B0200080B0200080B0200080B020008FC
:1000B0000B0200080B0200080B0200080B020008EC
:1000C0000B0200080B0200080B0200080B020008DC
:1000D0000B0200080B0200080B0200080B020008CC
:1000E0000B0200080B0200080B0200080B020008BC
:1000F0000B0200080B0200080B02000800000000C1
:10010000000000000B020008000000000B020008C5
:100110000B020008000000000B0200080B020008A0
:100120000B0200080B0200080B0200080B0200087B
:100130000B02000800000000000000000B02000895
:100140000B0200080B020008000000000000000085
:10015000000000000000000000000000000000009F
:100160000000000000000000000000000B0200087A
:100170000B0200080000000000000000000000006A
:10018000000000000B02000800000000000000005A
:10019000000000000000000000000000000000005F
:1001A00000000000000000000B0200080B02000825
:1001B0000B0200080B0200080B0200080000000000
:1001C000000000000B02000800000000000000001A
:1001D0000B0200080B020008DFF810D000F07CF8DA
:1001E00000480047DD1F0008AFF30080A80400208E
:1001F0000648804706480047FEE7FEE7FEE7FEE7C1
:10020000FEE7FEE7FEE7FEE7FEE7FEE7E51A000889
:10021000D90100082DE9F05F0546002092469B4673
:1002200088460646814640241BE02846414647460C
:10023000224600F041F853465A46C01A914110D365
:1002400011461846224600F028F82D1A67EB0108DF
:100250004F4622460120002100F01FF817EB00094D
:100260004E41201EA4F10104DFDC484631462A46F7
:100270004346BDE8F09FD2B201E000F8012B491ED1
:10028000FBD270470022F6E710B513460A46044633
:100290001946FFF7F0FF204610BD202A04DB203A64
:1002A00000FA02F1002070479140C2F1200320FAC9
:1002B00003F3194390407047202A04DB203A21FAC7
:1002C00002F00021704721FA02F3D040C2F120026F
:1002D0009140084319467047064C074D06E0E06818
:1002E00040F0010394E8070098471034AC42F6D37D
:1002F000FFF776FF5C3200087C320008FEE77047AB
:10030000002240F6B83306E00021491C89B2994228
:10031000FBD3521C92B28242F6D3704772B6FEE70C
:1003200070B5044600F040F90546601C02D0044850
:100330004068044400F038F9401BA042FAD370BD75
:10034000000000202DE9F04FDFF820920023012665
:100350000324A9F1040B85B00F2709F1040AABF1BE
:10036000040EFAE006FA03F52A407CD091F804C0A6
:100370000CF0030CBCF1010F02D0BCF1020F26D12E
:10038000D0F808C0CDF800C04FEA430C04FA0CF8CE
:10039000CDF810C0DDF800C02CEA080CCDF800C084
:1003A000D1F80C80DDF810C008FA0CF8DDF800C0B8
:1003B00048EA0C08C0F80880D0F804C02CEA050C04
:1003C0000D79C5F300159D4045EA0C0545600D7992
:1003D000ED43AD070ED0C5684FEA430804FA08FCA8
:1003E00025EA0C05D1F808C00CFA08FC4CEA050C0B
:1003F000C0F80CC00D7905F00305022D16D1DD08FB
:1004000000EB850CCDF808C0DCF820805D074FEAD2
:10041000D56C07FA0CF528EA05080D6905FA0CF504
:10042000DDF808C045EA0805CCF8205005684FEA19
:10043000430CCDF808C004FA0CFC25EA0C0591F831
:1004400004C00CF00308DDF808C008FA0CF848EA0C
:100450000508C0F800804D6815F4403F7CD0444D3D
:10046000D5F860C000E077E04CF0010CC5F860C042
:100470002D6E23F0030C05F0010500953D4D6544FC
:100480000295AD684FEA837C4FEA1C7807FA08FCB6
:1004900025EA0C05B0F1904F06D0DFF8DCC06045CE
:1004A00005D14FF0010C20E04FF0000C1DE0DFF80B
:1004B000CCC0604502D14FF0020C16E0DFF8C0C09E
:1004C000604502D14FF0030C0FE0DFF8B8C0604583
:1004D00002D14FF0040C08E0DFF8ACC0604502D157
:1004E0004FF0050C01E04FF0060C0CFA08FC4CEA4A
:1004F000050C029DC5F808C0D9F80050CC46D1F8CB
:10050000048095435FEAC82800D51543CCF8005015
:10051000DAF80050D446D1F8048095435FEA882881
:1005200000D51543CCF80050DBF80050DC46D1F87C
:10053000048095435FEA883800D51543CCF8005015
:10054000DEF80050F446D1F8048095435FEAC838DD
:1005500000D51543CCF800505B1C0A6832FA03F54D
:100560007FF400AF05B0BDE8F08F00000804014043
:10057000001002400000014000040048000800484C
:10058000000C00480010004800140048426921EAAD
:1005900002030A4043EA0241816170470AB1816166
:1005A0007047816270470000014880687047000012
:1005B0000000002002488168426811448160704751
:1005C0000000002010B50024032000F065F80F2083
:1005D00000F008F808B1012401E000F025F82046F9
:1005E00010BD000070B50E4E05460024706898B12D
:1005F0004FF47A71B1FBF0F00A490968B1FBF0F0F1
:1006000000F056FD40B9102D06D200222946501E9A
:1006100000F022F8356000E00124204670BD0000A3
:10062000000000200C0000200A4882B0016E41F05A
:1006300001010166016E01F001010091816D41F03F
:1006400080518165806D00F08050009002B000F014
:1006500093B8000000100240F0B40E4B1B680C462B
:10066000C3F30223C3F10705042D00D90425191D86
:10067000072901D2002300E0DB1E012606FA05F15E
:10068000491E214099409E40761E16403143F0BCE1
:1006900001F084BC0CED00E0064900F00702086898
:1006A0004FF6FF03184040EA0220034A1043086057
:1006B000704700000CED00E00000FA052B492C4BC0
:1006C0000A6832214A432B4940B1B0F5007F0868DF
:1006D00029D020F4C06040F480602CE00868C0F3AA
:1006E0004120022804D051F8800F20F4807022E0CD
:1006F000D1F8800020F48070C1F88000086820F4F0
:10070000C06040F400700860B2FBF3F0401C00E0F1
:10071000401E4A69520501D50028F9D148694005B3
:100720000AD503207047C0F34120022806D051F8B3
:10073000800F40F48070086000207047D1F880007E
:1007400040F48070C1F88000086820F4C06040F474
:1007500000700860B2FBF3F0401C00E0401E4A69E4
:100760005205DBD50028F9D1D8E700000C000020A5
:1007700040420F00007000400248816841F480410F
:1007800081607047007000402DE9F843044600681E
:1007900000269D4D00035ED5A86D0027C00008D43B
:1007A000A86D40F08050A865A86D012700F080502A
:1007B0000090DFF85892D9F8001041F48071C9F820
:1007C0000010FFF7F1FE804606E000BFFFF7ECFEE9
:1007D000A0EB080002282BD8D9F80000C005F5D5F9
:1007E000D5F8900010F4407014D0216C814211D0E3
:1007F000D5F89000D5F8901020F4407041F4803185
:10080000C5F89010D5F8901021F48031C5F89010FB
:10081000C5F89000C00711D0FFF7C6FE804641F230
:10082000883907E0FFF7C0FEA0EB0801494501D970
:1008300003260BE0D5F890008007F3D5D5F890009B
:10084000216C20F440700843C5F890001FB1A86DDA
:1008500020F08050A8652078C00707D0D5F8880020
:10086000616820F003000843C5F8880020788007FD
:1008700007D5D5F88800A16820F00C000843C5F81A
:1008800088002078400707D5D5F88800E16820F077
:1008900030000843C5F888002078000707D5D5F850
:1008A0008800216920F0C0000843C5F8880020783E
:1008B000800607D5D5F88800616920F440600843B8
:1008C000C5F888002078400607D5D5F88800A169CA
:1008D00020F440500843C5F888002078000607D56A
:1008E000D5F88800E16920F440400843C5F8880045
:1008F0002088C00507D5D5F88800216A20F440304B
:100900000843C5F888002088800507D5D5F88800F9
:10091000616A20F440200843C5F88800208840051B
:100920000FD5D5F88800A16A20F440100843C5F817
:100930008800A06AB0F5801F03D1E86840F48010F9
:10094000E860208800050FD5D5F88800E16A20F41A
:1009500040000843C5F88800E06AB0F5800F03D175
:10096000E86840F48010E8602088C0040FD5D5F80E
:100970008800216B20F040700843C5F88800206B88
:10098000B0F1807F03D1E86840F48010E8602088EF
:100990004FF0006180040ED5D5F88800626B20F01E
:1009A00040601043C5F88800606B884203D1E86856
:1009B00040F48010E860208840040ED5D5F8880007
:1009C000A26B20F040601043C5F88800A06B8842FD
:1009D00003D1E86840F48010E860208800040FD557
:1009E000D5F88800E16B20F040500843C5F8880036
:1009F000E06BB0F1805F03D1E86840F48030E860DC
:100A00003046BDE8F883000000100240007000404E
:100A10002DE9F0470E4605004FF0000725D0DFF81E
:100A2000AC81D8F8000000F00F00B0420CD2D8F82A
:100A3000001021F00F013143C8F80010D8F8000071
:100A400000F00F00B04210D12968614CC80741F294
:100A5000883A5AD06868DFF87C91032808D00228C9
:100A600020682DD0400500282CDB0120BDE8F08750
:100A700020688001F9D5E06800F00302E068C0F367
:100A80000310401C032A19D0534A00BFB2FBF0F0F8
:100A9000E268C2F306225043E268C2F34162521C8C
:100AA0005200B0FBF2F0484517D9A06810F0F00FE3
:100AB0000CD0880711D5A86840B10EE0474AE5E799
:100AC0008003D0E700F0B6F8484506D9A06820F0CA
:100AD000F00040F08000A0608027A068696820F0E6
:100AE00003000843A060FFF75FFD814606E000BFFA
:100AF000FFF75AFDA0EB090151453AD8A068696893
:100B000000F00C00B0EB810FF2D12868810714D5FA
:100B1000400703D5A06840F4E060A0602878000793
:100B200005D5A06820F4605040F4E060A060A068A3
:100B3000A96820F0F000084304E0802F03D1A068EA
:100B400020F0F000A060D8F80010404601F00F013E
:100B5000B14216D9016821F00F0131430160FFF75E
:100B600023FD074607E000BFFFF71EFDC11B5145EF
:100B700001D903207AE7D8F8000000F00F00B04256
:100B8000F2D12878400705D5A068E96820F4E06034
:100B90000843A0602878000706D5A068296920F4DA
:100BA000605040EAC100A06000F044F8A1680C4A1F
:100BB000C1F30311515C01F01F01C84009490860ED
:100BC00009480068BDE8F047FFF70CBD002002406F
:100BD0000010024000B4C4040024F40000366E018A
:100BE000742000080C000020000000200548064981
:100BF00000688968054AC1F30221515C01F01F01B8
:100C0000C84070470C0000200010024084200008FB
:100C10000548064900688968054AC1F3C221515C4C
:100C200001F01F01C84070470C0000200010024076
:100C300084200008184910B58868C0F3810217485D
:100C4000012A0BD08A68164BC2F38102022A06D011
:100C50008A68C2F38102032A03D0002010BD18461F
:100C600010BDCA6802F00304CA68C2F30312521C22
:100C7000032C02D0B0FBF2F001E0B3FBF2F0CA6843
:100C8000C968C2F306225043C1F34161491C4900BF
:100C9000B0FBF1F010BD0000001002400024F40091
:100CA00000366E012DE9F84304007AD02078FA4D21
:100CB000C00747D0A868E96800F00C0001F0030104
:100CC0000C2802D0082817D001E0032914D060684E
:100CD000B0F5803F17D0B0F5A02F286817D020F4CA
:100CE00080302860286820F4802028606068E0B1A7
:100CF000FFF75AFC064614E02868800322D5606896
:100D00000028D2D01EE0286840F48030EDE740F49F
:100D100080202860F7E700BFFFF746FC801B6428AF
:100D200070D828688003F7D50CE0FFF73DFC064635
:100D300005E000BFFFF738FC801B6428F0D8286866
:100D40008003F7D4207880074CD5A868E96800F0C4
:100D50000C0001F003010C2802D004280DD001E0A2
:100D600002290AD0E068002828682BD040F480705F
:100D70002860FFF719FC064619E02868400502D5EF
:100D8000E068002891D06868217C20F0FE4040EAAD
:100D900001606860C1480068FFF724FC002800D1AA
:100DA00020E076E1FFF700FC801B0228B8D8286815
:100DB0004005F7D56868217C20F0FE4040EA0160DC
:100DC00068600FE020F480702860FFF7EDFB0646B6
:100DD00005E000BFFFF7E8FB801B0228A0D82868C9
:100DE0004005F7D42078000729D560690028D5F898
:100DF000940013D040F00100C5F89400FFF7D4FB35
:100E0000064606E090E000BFFFF7CEFB801B0228FD
:100E100086D8D5F894008007F6D510E020F00100C0
:100E2000C5F89400FFF7C0FB064604E0FFF7BCFBE3
:100E3000801B022878D8D5F894008007F6D4207853
:100E4000400761D5A86D0026C00008D4A86D40F009
:100E50008050A865A86D012600F080500090904851
:100E60000168C90511D40168804641F480710160B0
:100E7000FFF79AFB074604E0FFF796FBC01B02282A
:100E800052D8D8F80000C005F6D5A068012815D0C2
:100E90000528D5F8900016D020F00100C5F8900084
:100EA000D5F8900020F00400C5F89000A06841F249
:100EB0008838B8B1FFF778FB07460EE0D5F8900008
:100EC00040F00100F0E740F00400C5F89000F5E7BD
:100ED000FFF76AFBC11B414526D8D5F89000800773
:100EE000F6D50CE0FFF760FB074604E0FFF75CFB7C
:100EF000C11B414518D8D5F890008007F6D41EB123
:100F0000A86D20F08050A8652078800629D5A069BA
:100F10000028D5F8980013D040F00100C5F89800DB
:100F2000FFF742FB064606E077E000BFFFF73CFB19
:100F3000801B022877D8D5F898008007F6D510E0F6
:100F400020F00100C5F89800FFF72EFB064604E0EC
:100F5000FFF72AFB801B022865D8D5F89800800788
:100F6000F6D4E069F0B3A968C1F38101032961D027
:100F70000228286820F0807028600BD0E86820F0F4
:100F80000300E860E86847490840E860FFF70CFBA9
:100F900004464BE0FFF708FB064604E0FFF704FBBE
:100FA000801B02283FD828688001F7D4F4E90801A3
:100FB0006FF00F0202EB01110843218A5204490825
:100FC00002EB4151A26841EA02210843217D4FF022
:100FD0007E42490802EB41610843217B40EAC1603F
:100FE000E96800E062E0304A11400843E8602868A0
:100FF00040F080702860E86840F08070E860FFF79B
:10100000D3FA044605E000BFFFF7CEFA001B022822
:1010100009D828688001F7D548E004E0FFF7C4FA52
:10102000001B022802D90320BDE8F883286880014C
:10103000F4D43BE00128F7D0E868226A00F003010D
:10104000914226D1616A00F0F00209011039914203
:101050001FD1A26A00F4FE41B1EB022F19D194F81E
:101060002C2000F07841B1EBC26F12D1218E00F438
:10107000C00249084905A1F50011914209D194F82F
:10108000341000F0C06049084906A1F100718142A6
:101090000CD00120C8E70000001002400000002032
:1010A00000700040FFFFEEFE0C809F010020BBE7B8
:1010B00010B5401EB0F1807F01D3012010BD4FF06C
:1010C000E02460610F21601700F068FF0020A0613C
:1010D00007202061002010BD90F88010012918D051
:1010E000012180F880102421C0F8841050F8641B7E
:1010F0000A680B6823F001030B6022F00051002204
:10110000026050F8643C19602021016202771046A9
:1011100070470220704770B5044690F8800001289F
:101120001DD0012084F880002420C4F884002068A9
:101130000568026822F0010202602068826822F0DD
:1011400060620A438260204600F0D4FC206805609B
:101150002020C4F88400002084F8800070BD0220A4
:1011600070BD70B5044690F8800001281DD00120A4
:1011700084F880002420C4F8840020680568026890
:1011800022F0010202602068826822F060420A4375
:101190008260204600F0AEFC206805602020C4F884
:1011A0008400002084F8800070BD022070BD10B55E
:1011B000040003D0D4F8840010B107E0012010BD72
:1011C000002084F88000204600F026F82420C4F88F
:1011D00084002068016821F001010160204600F0D0
:1011E0003FFD0128EBD0A06A10B1204600F0A4FC1E
:1011F0002068416821F4904141602068816821F0B5
:101200002A0181602068016841F0010101602046E7
:10121000BDE8104000F0F4BC10B598B004461421AD
:1012200011A8FFF72FF844216846FFF72BF817495C
:101230002068884228D101200024CDE900046846B6
:10124000FFF7A2FA08B1FFF769F81148016E41F4FF
:1012500080410166016E01F480411691C16C41F03C
:101260000101C164C06C11A900F0010016904FF497
:10127000C06011900220CDE912040720CDE914408E
:101280004FF09040FFF75EF818B010BD00380140F5
:1012900000100240FEE7000000B585B0142168464A
:1012A000FEF7F0FF4FF6FF70009000200321CDE91C
:1012B0000201019069460248FFF744F805B000BDFD
:1012C0000008004800B585B014216846FEF7DAFF33
:1012D0004FF6FF7000900120019003200390002042
:1012E000029069460248FFF72DF805B000BD0000E6
:1012F0000008004870B5002406462146204600F04C
:1013000003F900F041F94FF49635304600F010F93A
:10131000641CAC42F9D370BD30B587B01421684667
:10132000FEF7B0FF1E48C16C41F00401C164C16CFE
:1013300001F004010591C16C41F00101C164C16C6F
:1013400001F001010591C16C41F00201C164C06C62
:10135000012500F0020005904FF44870CDE900052A
:1013600000240394694602940E48FEF7EBFF28021E
:1013700003940090CDE901544FF090446946204613
:10138000FEF7E0FFFFF79EFFA06940F48070A061C8
:1013900004481830016841F40871016007B030BD9D
:1013A0000010024000040048203AD2B2034B02EB86
:1013B000420203EB021200F019B800008C20000872
:1013C000F0B50E460746002540F23F1407E02146DF
:1013D0003846FFF7E9FF103C6D1CA4B2761C32784A
:1013E000002A01D0142DF2D3F0BD00002DE9F04702
:1013F00091468A460026044600F086F8DFF84080D1
:10140000012700BF00F0C0F85FF0000539F81600B2
:1014100007FA05F10842404601D1408800E0008803
:1014200000F086F86D1C102DF0D3641CE4B2514618
:10143000204600F069F8761C182EE3D3BDE8F0874B
:101440001000002010B5FFF767FF002000F014F82F
:10145000084CA080A088A0F50241303906D000F0E9
:1014600007FA002000F008F8A08010BD00F077F91E
:10147000F7E700001000002070B51D490A6842F42B
:1014800000720A600A6842F480720A60184C103CCC
:10149000226842F020022260164A1060086840F07C
:1014A0002000086000BF00BF00BF206840F020009F
:1014B0002060206840F480702060FFF7EDFE4FF060
:1014C0009041886A40F48070886200BF00BF00BF0E
:1014D0000848001F006885B2886940F48070886100
:1014E000FFF7F0FE206840F400702060284670BDD1
:1014F000280400481408004801B5BDF8000001495F
:10150000488008BD1000002010B50C460146202080
:1015100000F068F82146BDE81040212000F062B8D4
:1015200001B5BDF800000149088008BD1000002089
:10153000134A116841F400711160114910390B68A8
:1015400043F480730B600B6843F020030B600D4B7A
:101550001860106840F02000106000BF00BF00BF9E
:10156000086840F020000860086840F48070086057
:1015700000BF00BF00BF086840F4007008607047FB
:1015800028040048140800481449086840F4007012
:101590000860086840F480700860104810380268DD
:1015A00042F0200202600E4B22221A600A6842F0CA
:1015B00020020A6000BF00BF00BF016841F02001A7
:1015C0000160016841F48071016000BF00BF00BF8D
:1015D000016841F400710160704700002804004870
:1015E00014080048184B10B51A6842F400721A60CB
:1015F0001A6842F480721A60134A103A146844F070
:1016000020041460114C2060186840F0200018601D
:1016100000BF00BF00BF106840F0200010601068DD
:1016200040F4807010602160186840F0200018605D
:1016300000BF00BF00BF106840F0200010601068BD
:1016400040F48070106010BD280400481408004861
:10165000F0B587B014216846FEF714FE2148C16C2E
:1016600041F00401C164C16C01F004010591C16C39
:1016700041F02001C164C16C01F020010591C16CF1
:1016800041F00101C164C16C01F001010591C16C1F
:1016900041F00801C164C06C134E00F008004FF423
:1016A0007F440590012221463046FEF777FF0F4F19
:1016B000002204213846FEF771FF0125CDE90045DF
:1016C00000240294694630460394FEF73BFE042052
:1016D0000090CDE90154694638460394FEF732FE86
:1016E00007B0F0BD0010024000080048000C0048A0
:1016F000184810B5164901604FF4E13141600021EE
:1017000081600C22C160C0E904128161C161016283
:1017100041628162FFF74BFD08B1FEF7FFFD00213A
:101720000C48FFF71EFD08B1FEF7F8FD002109483F
:10173000FFF7F1FC08B1FEF7F1FD0648FFF7CCFC1E
:10174000002803D0BDE81040FEF7E8BD10BD000042
:101750000038014018000020FEE7FEE7704730B572
:1017600001210020FFF73EFF4FF47A70FEF7C8FD1D
:1017700000210120FFF736FF41F290711020FFF7A2
:1017800031FF4FF41C516020FFF72CFF0121612035
:10179000FFF728FF02214620FFF724FF48F210013F
:1017A0001320FFF71FFF48F2FE011220FFF71AFF78
:1017B0004FF4A0610220FFF715FF41F23001032032
:1017C000FFF710FF40F2033421463020FFF70AFFF5
:1017D00021463120FFF706FF21463220FFF702FFA6
:1017E000E51E29463320FFF7FDFE03213420FFF7D5
:1017F000F9FE21463520FFF7F5FE14213620FFF7CC
:10180000F1FE21463720FFF7EDFE21463820FFF795
:10181000E9FE21463920FFF7E5FE29463A20FFF789
:10182000E1FE03213B20FFF7DDFE21463C20FFF7D0
:10183000D9FE4FF4A0513D20FFF7D4FE4FF40071C4
:101840009220FFF7CFFE21469320FFF7CBFE40F614
:101850000D019020FFF7C6FE41F218010320FFF7AB
:10186000C1FEBDE8304040F273110720FFF7BABE59
:1018700010B543F20801E320FFF7B4FE1221E72080
:10188000FFF7B0FE41F23121EF20FFF7ABFE002160
:101890000120FFF7A7FE4FF4E0610220FFF7A2FE50
:1018A00041F230010320FFF79DFE00210420FFF7E5
:1018B00099FE40F207210820FFF794FE002109203D
:1018C000FFF790FE00210A20FFF78CFE00210C207C
:1018D000FFF788FE00210D20FFF784FE00210F2076
:1018E000FFF780FE00211020FFF77CFE072111206A
:1018F000FFF778FE00211220FFF774FE002113206D
:10190000FFF770FEC820FEF70BFD41F2906110203A
:10191000FFF768FE40F227211120FFF763FE322017
:10192000FEF7FEFC1D211220FFF75CFE3220FEF7C1
:10193000F7FC4FF400611320FFF754FE1421292017
:10194000FFF750FE0B212B20FFF74CFE3220FEF755
:10195000E7FC00212020FFF745FE00212120FFF7B2
:1019600041FE07213020FFF73DFE40F20771312094
:10197000FFF738FE06213220FFF734FE40F20471F3
:101980003520FFF72FFE41F604713620FFF72AFEBF
:1019900004213720FFF726FE00213820FFF722FE22
:1019A00040F206713920FFF71DFE40F201713C2024
:1019B000FFF718FE0F213D20FFF714FE00215020F5
:1019C000FFF710FEEF215120FFF70CFE00215220FF
:1019D000FFF708FE40F23F115320FFF703FE4FF4DC
:1019E0001C516020FFF7FEFD01216120FFF7FAFD89
:1019F00000216A20FFF7F6FD00218020FFF7F2FDAD
:101A000000218120FFF7EEFD00218220FFF7EAFD93
:101A100000218320FFF7E6FD00218420FFF7E2FD8F
:101A200000218520FFF7DEFD10219020FFF7DAFD71
:101A300000219220FFF7D6FD03219320FFF7D2FD6E
:101A40004FF488719520FFF7CDFD00219720FFF717
:101A5000C9FD00219820FFF7C5FD41F218010320C0
:101A6000FFF7C0FDBDE8104040F273110720FFF7FB
:101A7000B9BD7047FEF79EBD00B593B038216846EA
:101A8000FEF700FC14210EA8FEF7FCFB4FF40070DB
:101A9000FEF714FE0220C1010391402104910121AF
:101AA000CDE9080100900A21CDE90A1007900C90B9
:101AB0000D906846FFF7F6F808B172B6FEE70F2002
:101AC0000E9003200F900020109011901290022190
:101AD0000EA8FEF79DFF002801D072B6FEE713B0F6
:101AE00000BD00000248016841F4700101607047C8
:101AF00088ED00E030B5416EB9B102689168926836
:101B0000C1F342610B4B520F9C5CE50003F10804EA
:101B1000A25CB5FBF2F2A0F86A205A5C615CD200CC
:101B2000B2FBF1F1A0F8681030BD0121A0F86A10F5
:101B3000F8E700006420000890F82810C90706D0D4
:101B400001684A68C36A22F400321A434A6090F876
:101B50002810890706D501684A68036B22F4803291
:101B60001A434A6090F82810490706D501684A6868
:101B7000436B22F480221A434A6090F82810090728
:101B800006D501684A68836B22F400421A434A6012
:101B900090F82810C90606D501688A68C36B22F43C
:101BA00080521A438A6090F82810890606D5016889
:101BB0008A68036C22F400521A438A6090F8281055
:101BC000490611D501684A68436C22F480121A4311
:101BD0004A60416CB1F5801F06D101684A68836C88
:101BE00022F4C0021A434A6090F82810090606D56C
:101BF00001684A68C06C22F4002202434A607047C0
:101C0000F8B500260446C0F88C60FEF7CDFC05460A
:101C1000206800686FF07E47000708D52B46002239
:101C20004FF400112046009700F054F960B9206885
:101C3000006840070AD52B4600224FF48001204659
:101C4000009700F047F908B10320F8BD2020C4F840
:101C50008400C4F8880044F86C6F00202675F8BD35
:101C60002DE9F0410446016880682269E369104368
:101C7000626900251A431043DFF82CC20A688B4BB7
:101C80001A4002430A6020684168E26821F440512A
:101C9000114341602168A069614501D0226A104367
:101CA0008A68834B1A4002438A602068C16A626A6C
:101CB00021F00F011143C1627E4923687E488B42A7
:101CC0000DD1D0F8880010F0030006D0012855D0BF
:101CD000022842D003283FD152E001203DE077495D
:101CE0008B420BD1D0F8880010F00C0035D00428BE
:101CF00033D0082840D00C282ED141E070498B42C7
:101D00000BD1D0F8880010F0300026D0102835D044
:101D1000202831D030281FD132E06A498B420BD1C4
:101D2000D0F8880010F0C00017D0402826D08028B6
:101D300022D0C02810D123E063450DD1D0F888000F
:101D400010F4406009D0B0F5806F17D0B0F5006F87
:101D500012D0B0F5406F13D010205B495B4F0026C6
:101D60004FF4004263453BD160B1022813D00428F0
:101D70000BD0082872D10DE00220EEE70420ECE73A
:101D80000820EAE7FEF732FF01E0FEF753FF01000B
:101D900001D17CE01146606A37F810206768B1FB1A
:101DA000F2F007EB4703834270D8B0EB073F6DD8E2
:101DB000002308461946FEF72DFA090241EA106190
:101DC00002027808101871413A460023FEF722FA01
:101DD0003F4AA0F54071914258D82168C86056E04A
:101DE000E3694FF6EF7893422CD109284ED2DFE811
:101DF00000F00508114D0D4D4D4D1000FEF7F6FE9B
:101E000001E0FEF705FF010004D140E0FEF712FFFC
:101E1000F9E71146606A37F81000B1FBF0F04100B5
:101E2000606801EB5001B1FBF0F0A0F110014145F9
:101E30002CD84FF6F0710140C0F3420001432068F6
:101E4000C16024E0092821D2DFE800F00509122052
:101E50000E2020201100FEF7C9FE02E016E0FEF77A
:101E6000D7FE010004D112E0FEF7E4FEF9E71146C7
:101E7000606A37F81000B1FBF0F1606801EB5001C7
:101E8000B1FBF0F0A0F1100141450AD90125012074
:101E9000A4F86A0024F8680F2846A660E660BDE84A
:101EA000F08180B299E7000000800040F369FFCF25
:101EB000FFF4FF11003801400010024000440040D0
:101EC00000480040004C00400024F4004C20000872
:101ED000FFFC0F002DE9F0479A4617460E460446D0
:101EE0004FF000094FF02008089D4AE0681C48D0D8
:101EF000FEF75AFBA0EB0A00A8422AD84DB320688F
:101F0000016849073DD5C069C043000539D421683F
:101F10004FF400600862206850E8001F21F4D0717F
:101F200040E80012002AF6D12068083050E8001F6F
:101F300021F0010140E80012002AF5D144F8848F15
:101F4000C4F80480C4F8088004F8049C0320BDE8A9
:101F5000F087216851E8000F20F4D07041E80002BA
:101F6000002AF6D12068083050E8001F21F0010156
:101F700040E80012002AF5D144F8848FC4F80480A8
:101F8000E2E72068C06936EA000004D00020B842C9
:101F9000ACD00020DBE70120F9E7FEE70907090ED6
:101FA000002804DB00F1E02080F80014704700F006
:101FB0000F0000F1E02080F8141D704702E008C80F
:101FC000121F08C1002AFAD170477047002001E0B3
:101FD00001C1121F002AFBD170470000FEF7F2FA80
:101FE000FFF74AFDFFF734FBFFF782FBFFF72AFA02
:101FF0000020FFF77FF94FF6FF70FFF791FA0020FE
:10200000FFF77AFA0DA11820FFF7DAF90D4E0E4C02
:102010004FF47F454FF4FA7729463046FEF7B6FA7B
:10202000012204212046FEF7B9FA002204212046AD
:10203000FEF7B4FA3846FEF773F9EDE748454C4C25
:102040004F00000000080048000C0048010002009A
:102050000400060008000A000C00100020004000E8
:1020600080000001010101030701000008040204CF
:10207000080101010000000000000000010203044B
:102080000607080900000000010203040000000028
:102090000000000000000000000000000000000040
:1020A0000000000000000000000000000000000030
:1020B000000000000000000000000000000080019F
:1020C0008001800180018001800180018001800108
:1020D00080018001800180010000000080018001FA
:1020E00000000000000000000000000000000000F0
:1020F000CC00CC00CC00CC00CC00CC000000000018
:1021000000000000000000000000000000000000CF
:1021100000000000000000000000000000000000BF
:102120000000000000000000600C600C600C300635
:102130003006FE1FFE1F300638071803FE1FFE1F65
:10214000180318038C018C018C0100000000800032
:10215000E003F80F9C0E8C1C8C188C009800F80182
:10216000E007800E801C8C188C189C18B80CF00F9F
:10217000E00380008000000000000000000000007C
:1021800000000E181B0C110C11061106110311038F
:102190009B018E01C038C06C6044604430443044C0
:1021A0001844186C0C380000000000000000E0012A
:1021B000F0033807180618063003F001F000F800A5
:1021C0009C310E33061E061C061C063FFC73F021D4
:1021D00000000000000000000000000000000000FF
:1021E0000C000C000C000C000C000C0000000000A7
:1021F00000000000000000000000000000000000DF
:1022000000000000000000000000000000000002CC
:1022100000038001C000C00060006000300030009A
:1022200030003000300030003000300060006000CE
:10223000C000C00080010003000200000000200078
:102240006000C0008001800100030003000600065A
:102250000006000600060006000600060003000354
:1022600080018001C000600020000000000000002C
:102270000000000000000000C000C000D806F80701
:10228000E0013003380700000000000000000000FB
:10229000000000000000000000000000000000003E
:1022A000000000000000000080018001800180012A
:1022B0008001FC3FFC3F80018001800180018001A2
:1022C000000000000000000000000000000000000E
:1022D00000000000000000000000000000000000FE
:1022E000000000000000000000000000000080016D
:1022F00080010001000180000000000000000000DB
:1023000000000000000000000000000000000000CD
:1023100000000000E007E0070000000000000000EF
:1023200000000000000000000000000000000000AD
:10233000000000000000000000000000000000009D
:102340000000000000000000000000000000C000CD
:10235000C000000000000000000000000000000CB1
:10236000000C0006000600060003000300038003C3
:10237000800180018001C000C000C00060006000DA
:102380000000000000000000000000000000E0036A
:10239000F007380E180C0C180C180C180C180C1828
:1023A0000C180C180C180C18180C380EF007E00359
:1023B000000000000000000000000000000000011C
:1023C0008001C001F0019801880180018001800135
:1023D00080018001800180018001800180018001F5
:1023E0000000000000000000000000000000E0030A
:1023F000F80F180C0C180C1800180018000C000628
:1024000000038001C000600030001800FC1FFC1FAA
:102410000000000000000000000000000000E001DB
:10242000F807180E0C0C0C0C000C0006C003C007BB
:10243000000C001800180C180C18180CF807E00312
:102440000000000000000000000000000000000C80
:10245000000E000F000F800DC00C600C600C300CE3
:10246000180C0C0CFC3FFC3F000C000C000C000C8A
:102470000000000000000000000000000000F80F55
:10248000F80F180018000C00EC03FC071C0E001CD1
:102490000018001800180C181C0C180EF807E003A0
:1024A0000000000000000000000000000000C00765
:1024B000F00F381C181818000C00CC03EC0F3C0E61
:1024C0001C1C0C180C180C18181C380EF007E00314
:1024D0000000000000000000000000000000FC1FE1
:1024E000FC1F000C00060006000380038001C001F1
:1024F000C000E0006000600070003000300030007C
:102500000000000000000000000000000000E003E8
:10251000F007380E180C180C180C3806F007F007E6
:10252000180C0C180C180C180C18380CF80FE003C9
:102530000000000000000000000000000000E003B8
:10254000F007380E1C0C0C180C180C181C1C381E2C
:10255000F81BE0190018000C000C1C0EF807F00125
:10256000000000000000000000000000000000006B
:102570000000000000000000800180010000000059
:102580000000000000000000000000008001800149
:10259000000000000000000000000000000000003B
:1025A0000000000000000000800180010000000029
:1025B0000000000000000000000000008001800119
:1025C0000001000180000000000000000000000089
:1025D0000000000000000000000000000010001CCF
:1025E000800FE003F8001800F800E003800F001CE3
:1025F00000100000000000000000000000000000CB
:10260000000000000000000000000000F81F0000B3
:1026100000000000F81F00000000000000000000A3
:1026200000000000000000000000000000000000AA
:10263000000000000000000000000000080038005A
:10264000F001C007001F0018001FC007F00138008C
:102650000800000000000000000000000000E0038F
:10266000F80F180C0C180C180018000C00060003CA
:102670008001C000C000C00000000000C000C00019
:10268000000000000000000000000000000000004A
:10269000E00718180420C229224A114409440944B9
:1026A000094409221113E20C024004201818E00723
:1026B0000000000000000000000000000000800397
:1026C0008003C006C006C006600C600C30183018CD
:1026D0003018F83FF83F1C700C600C6006C006C054
:1026E0000000000000000000000000000000FC03EB
:1026F000FC0F0C0C0C180C180C180C0CFC07FC0F25
:102700000C180C300C300C300C300C18FC1FFC0773
:102710000000000000000000000000000000C007F2
:10272000F01F38381C300C700660060006000600EA
:1027300006000600060006600C701C30F01FE00763
:102740000000000000000000000000000000FE0388
:10275000FE0F060E06180618063006300630063044
:1027600006300630063006180618060EFE0FFE0369
:102770000000000000000000000000000000FC3F1E
:10278000FC3F0C000C000C000C000C00FC1FFC1F9C
:102790000C000C000C000C000C000C00FC3FFC3F7B
:1027A0000000000000000000000000000000F83FF2
:1027B000F83F18001800180018001800F81FF81F3C
:1027C0001800180018001800180018001800180049
:1027D0000000000000000000000000000000E00F0A
:1027E000F83F3C780E6006E007C00300030003FEDC
:1027F00003FE03C007C006C00EC03CF0F83FE00F68
:1028000000000000000000000000000000000C308C
:102810000C300C300C300C300C300C30FC3FFC3FDA
:102820000C300C300C300C300C300C300C300C30C8
:102830000000000000000000000000000000800117
:102840008001800180018001800180018001800180
:102850008001800180018001800180018001800170
:102860000000000000000000000000000000000662
:102870000006000600060006000600060006000628
:10288000000600060006180618063807F003E001E7
:102890000000000000000000000000000000063002
:1028A0000618060C060606038601C60066007600BA
:1028B000DE008E0106030606060C061806300660CA
:1028C00000000000000000000000000000001800F0
:1028D0001800180018001800180018001800180038
:1028E000180018001800180018001800F81FF81F2A
:1028F00000000000000000000000000000000EE0EA
:102900001EF01EF01EF036D836D836D836D866CC33
:1029100066CC66CCC6C6C6C6C6C6C6C686C386C391
:1029200000000000000000000000000000000C306B
:102930001C303C303C306C306C30CC30CC308C3186
:102940000C330C330C360C360C3C0C3C0C380C3075
:102950000000000000000000000000000000E00790
:10296000F81F1C380E70066003C003C003C003C00C
:1029700003C003C003C006600E701C38F81FE007D8
:102980000000000000000000000000000000FC0F3C
:10299000FC1F0C380C300C300C300C300C18FC1FA9
:1029A000FC070C000C000C000C000C000C000C00D0
:1029B0000000000000000000000000000000E00730
:1029C000F81F1C380E70066003E003C003C003C08C
:1029D00003C003C007E006630E3F1C3CF83FE0F76E
:1029E00000C0000000000000000000000000FE0F1A
:1029F000FE1F06380630063006300638FE1FFE077A
:102A000006030606060C0618061806300630066091
:102A10000000000000000000000000000000E003D3
:102A2000F80F1C0C0C180C180C001C00F803E00F1D
:102A3000001E0038063006300E301C1CF80FE00770
:102A40000000000000000000000000000000FE7F09
:102A5000FE7F800180018001800180018001800172
:102A6000800180018001800180018001800180015E
:102A700000000000000000000000000000000C301A
:102A80000C300C300C300C300C300C300C300C3066
:102A90000C300C300C300C300C301818F81FE007DC
:102AA00000000000000000000000000000000360C3
:102AB0000630063006300C180C180C18180C180CC0
:102AC000380E30063006700760036003C001C00195
:102AD0000000000000000000000000000000036093
:102AE000C361C361C361663366336633663366337D
:102AF00066336C1B6C1B6C1B2C1A3C1E380E380E7C
:102B000000000000000000000000000000000FE0D6
:102B10000C7018303018700C600EC00780038003F2
:102B2000C003E006700C301C18180C300E6007E073
:102B3000000000000000000000000000000003C0D2
:102B400006600C301C383818300C6006E007C003F3
:102B5000800180018001800180018001800180016D
:102B60000000000000000000000000000000FC7FEA
:102B7000FC7F006000300018000C0006000380019C
:102B8000C0006000300018000C000600FE7FFE7FD1
:102B90000000000000000000000000000000E00352
:102BA000E0036000600060006000600060006000A2
:102BB0006000600060006000600060006000600015
:102BC000600060006000E003E003000000003000EF
:102BD0003000600060006000C000C000C000C001A4
:102BE000800180018001000300030003000600064D
:102BF0000000000000000000000000000000E003F2
:102C0000E0030003000300030003000300030003CC
:102C1000000300030003000300030003000300039C
:102C2000000300030003E003E003000000000000D5
:102C3000C001C00160036003600330063006180C59
:102C4000180C000000000000000000000000000060
:102C50000000000000000000000000000000000074
:102C60000000000000000000000000000000000064
:102C70000000000000000000000000000000FFFF56
:102C8000FFFF0000000000000000000000000C003A
:102C90000C000C000C000C000C00000000000000F8
:102CA0000000000000000000000000000000000024
:102CB0000000000000000000000000000000000014
:102CC0000000000000000000F003F8071C0C0C0CD2
:102CD000000FF00FF80C0C0C0C0C1C0FF80FF01878
:102CE00000000000000000000000000000001800CC
:102CF0001800180018001800D803F80F380C18181E
:102D000018181818181818181818380CF80FD803AD
:102D100000000000000000000000000000000000B3
:102D20000000000000000000C003F007300E180C87
:102D30001800180018001800180C300EF007C00317
:102D4000000000000000000000000000000000186B
:102D50000018001800180018C01BF01F301C1818AD
:102D600018181818181818181818301CF01FC01B3D
:102D70000000000000000000000000000000000053
:102D80000000000000000000C003F00F300C181815
:102D9000F81FF81F180018003818301CF00FC00773
:102DA0000000000000000000000000000000800F94
:102DB000C00FC000C000C000F007F007C000C00096
:102DC000C000C000C000C000C000C000C000C00003
:102DD00000000000000000000000000000000000F3
:102DE0000000000000000000E00DF80F180E0C0CB1
:102DF0000C0C0C0C0C0C0C0C0C0C180EF80FE00D41
:102E0000000C0C0C1C06F807F00100000000180074
:102E10001800180018001800D807F80F381C1818E8
:102E20001818181818181818181818181818181822
:102E30000000000000000000000000000000C000D2
:102E4000C000000000000000C000C000C000C000C2
:102E5000C000C000C000C000C000C000C000C00072
:102E60000000000000000000000000000000C000A2
:102E7000C000000000000000C000C000C000C00092
:102E8000C000C000C000C000C000C000C000C00042
:102E9000C000C000C000F8007800000000000C0076
:102EA0000C000C000C000C000C0C0C060C038C012C
:102EB000CC006C00FC009C018C030C030C060C0C79
:102EC0000000000000000000000000000000C00042
:102ED000C000C000C000C000C000C000C000C000F2
:102EE000C000C000C000C000C000C000C000C000E2
:102EF00000000000000000000000000000000000D2
:102F000000000000000000007C3CFF7EC7E383C19E
:102F100083C183C183C183C183C183C183C183C191
:102F200000000000000000000000000000000000A1
:102F300000000000000000009807F80F381C181867
:102F40001818181818181818181818181818181801
:102F50000000000000000000000000000000000071
:102F60000000000000000000C003F00F300C181833
:102F700018181818181818181818300CF00FC00363
:102F80000000000000000000000000000000000041
:102F90000000000000000000D803F80F380C1818DB
:102FA00018181818181818181818380CF80FD8030B
:102FB0001800180018001800180000000000000099
:102FC0000000000000000000C01BF01F301C18189B
:102FD00018181818181818181818301CF01FC01BCB
:102FE0000018001800180018001800000000000069
:102FF0000000000000000000B007F0037000300087
:103000003000300030003000300030003000300040
:1030100000000000000000000000000000000000B0
:103020000000000000000000E003F003380E180C60
:103030003800F003C007000C180C380EF007E0034E
:103040000000000000000000000000000000000080
:103050008000C000C000C000F007F007C000C00042
:10306000C000C000C000C000C000C000C007800792
:103070000000000000000000000000000000000050
:103080000000000000000000181818181818181880
:1030900018181818181818181818381CF01FE019E4
:1030A0000000000000000000000000000000000020
:1030B00000000000000000000C18180C180C180C80
:1030C000300630063006600360036003C001C001B3
:1030D00000000000000000000000000000000000F0
:1030E0000000000000000000C141C141C3616363F2
:1030F000636363633636363636361C1C1C1C1C1C58
:1031000000000000000000000000000000000000BF
:1031100000000000000000001C38381C300C600665
:1031200060036003600360036006300C381C1C38C9
:10313000000000000000000000000000000000008F
:10314000000000000000000018303018301870181F
:10315000600C600CE00CC006C00680038003800396
:1031600080018001C001F00070000000000000003C
:103170000000000000000000FC1FFC1F000C000607
:1031800000038001C000600030001800FC1FFC1F1D
:10319000000000000000000000000000000000032C
:1031A0008001C000C000C000C000C000C0006000BE
:1031B0006000300060004000C000C000C000C000DF
:1031C000C000C0008001000300000000000080017A
:1031D00080018001800180018001800180018001E7
:1031E00080018001800180018001800180018001D7
:1031F00080018001800180018001000000006000EA
:10320000C000C001800180018001800180010003B5
:10321000000300060003000180018001800180019D
:1032200080018001C000600000000000000000007C
:10323000000000000000000000000000F010F81F77
:10324000080F000000000000000000000000000067
:103250000000000000000000000000007C320008B8
:103260000000002018000000BC1F00089432000875
:103270001800002090040000CC1F0008100000007F
:1032800001000000000000000024F4000000FFFF27
:04329000000000003A
:04000005080001D915
:00000001FF
