:020000040800F2
:1000000020210020C90100080F1D0008491B00081D
:100010000D1D0008530300087B3D00080000000090
:100020000000000000000000000000004121000866
:10003000D904000800000000E1200008FD230008AA
:10004000E3010008E3010008E3010008E301000800
:10005000E3010008E3200008E3010008E3010008D1
:10006000E3010008E3010008E3010008E3010008E0
:10007000E3010008E3010008E3010008E3010008D0
:10008000E3010008E3010008E3010008E3010008C0
:10009000053D0008E3010008E3010008E301000852
:1000A000E3010008E3010008E3010008E3010008A0
:1000B000E3010008E301000800000000E30100087C
:1000C000E30100080000000000000000E301000858
:1000D00000000000E3010008E30100080000000048
:1000E000E3010008E3010008E301000800F002F862
:1000F00000F05AF80AA090E8000C82448344AAF168
:100100000107DA4501D100F04FF8AFF2090EBAE865
:100110000F0013F0010F18BFFB1A43F0010318473B
:10012000B0530000D05300000A444FF0000C10F808
:10013000013B13F0070408BF10F8014B1D1108BF65
:1001400010F8015B641E05D010F8016B641E01F805
:10015000016BF9D113F0080F1EBF10F8014BAD1C55
:100160000C1B09D16D1E58BF01F801CBFAD505E073
:1001700014F8016B01F8016B6D1EF9D59142D6D3CD
:10018000704700000023002400250026103A28BFF5
:1001900078C1FBD8520728BF30C148BF0B607047F9
:1001A0001FB51FBD10B510BD00F09EF81146FFF73A
:1001B000F7FF03F0E1FF00F0BCF803B4FFF7F2FF34
:1001C00003BC00F0BFF80000094880470948004719
:1001D000FEE7FEE7FEE7FEE7FEE7FEE7FEE7FEE7F7
:1001E000FEE7FEE704480549054A064B7047000054
:1001F00077240008ED0000082019002020210020AD
:10020000201D0020201D002010B5203AC0F00B80DA
:10021000B1E81850203AA0E81850B1E81850A0E80A
:100220001850BFF4F5AF5FEA027C24BFB1E8185064
:10023000A0E8185044BF18C918C0BDE810405FEAD4
:10024000827C24BF51F8043B40F8043B08BF704750
:10025000D20728BF31F8023B48BF11F8012B28BF55
:1002600020F8023B48BF00F8012B70474FF0000216
:1002700000B5134694469646203922BFA0E80C509C
:10028000A0E80C50B1F12001BFF4F7AF090728BF77
:10029000A0E80C5048BF0CC05DF804EB890028BFF3
:1002A00040F8042B08BF704748BF20F8022B11F01C
:1002B000804F18BF00F8012B704770477047704798
:1002C00010B500F009F8006810BD10B5044600F044
:1002D00003F8046010BD000000487047BC180020FF
:1002E00000487047BC1800207546FFF7F9FFAE467E
:1002F00005006946534620F00700854618B020B532
:10030000FFF770FFBDE820404FF000064FF00007F8
:100310004FF000084FF0000B21F00701AC46ACE8AD
:10032000C009ACE8C009ACE8C009ACE8C0098D461A
:10033000704710B50446AFF300802046BDE810407A
:10034000FFF73BBF01491820ABBEFEE726000200C5
:100350007047FEE7002070470020704710B500226C
:100360000449054802F0B4FA0449034802F0AAFA25
:10037000002010BDAC0F0020E8060020AC0B0020D0
:1003800010B50146034802F09DFA024802F07EFAD9
:10039000002010BDE80600202DE9FF4F97B014465D
:1003A0001D4681F0004004F0EBFC06460F46204657
:1003B00004F0E6FC8046894685F0004004F0E0FC4D
:1003C0000D4687F0004104460F91B3463D4A3E4B2F
:1003D0004046494604F0EAFBCDE90C014FF0FF32FC
:1003E0004046494604F0CDFF8146384A384B0391D8
:1003F00004F0B6F9CDE90401824688464FF0FF3299
:100400003046394604F0BDFF064652464346019148
:1004100003F056FFCDE908014F4630462B4A2C4BDE
:10042000DDF80CA0019904F09BF93A46534604F01C
:10043000BDFB244A244B04F0B9FBCDE90601DDE9FC
:1004400004210B463046019904F0B0FB8A46049023
:1004500030461E4A1F4BDDF80C80019904F080F9EC
:1004600043463A4604F0A2FB164A174B04F09EFBA3
:10047000DDE90C2380460F46CDE9004558460F992B
:1004800001F0C6FE03F0EAFE8146CDE90045DDE954
:100490000801DDE9062301F0BBFE03F0DFFE06469E
:1004A00042463B46CDE900455146049801F0B0FE76
:1004B00003F0D4FE179AC2F80090C2E901601BB0A5
:1004C000BDE8F08FD70DDFA8763C3240AA4C58E843
:1004D0007AB6FB3F7AB6FBBF704772B6FEE7000004
:1004E00070B5044600F0F4F80546601C02D00448DC
:1004F0000078044400F0ECF8401BA042FAD370BD31
:100500006C0000202DE9F84FDFF89C910024A9F140
:10051000040B23460F2709F1040AABF1040EBBE0DC
:100520000125A5402A40AA4276D1DFF880C14E6855
:10053000A6EB0C0866452BD00DDC032E34D005DC71
:1005400036B3012E19D0022E2FD11BE0112E16D05A
:10055000122E2AD119E0B8F5881F19D006DCB8F59B
:10056000803F15D0B8F5801F1FD111E0B8F5001FEE
:100570000ED0B8F5041F18D10AE0CB6815E0CB689F
:100580001B1D12E0CB6808330FE0CB680C330CE086
:100590008B682BB1012B4FF0080303D0456104E0B9
:1005A000042302E0056100E00023FF2A01D806468B
:1005B00001E000F104064FEA840501D9A5F1200508
:1005C000D6F8008007FA05FC28EA0C0803FA05F5BE
:1005D00048EA0508C6F800804D68ED005BD5344D4B
:1005E000AE6946F00106AE61AD6924F0030605F080
:1005F000010500952F4D06EB050CDCF80850A60709
:10060000360F07FA06F825EA0805DFF8AC80404502
:1006100003D14FF0000810E03DE0DFF8A080404536
:1006200002D14FF0010808E0DFF89480404502D184
:100630004FF0020801E04FF0030808FA06F848EA14
:100640000508CCF808804D68D9F80060ED024D46E9
:1006500001D5164300E096432E604D68DAF800603D
:10066000AD02554601D5164300E096432E604D6815
:10067000DBF80060AD035D4601D5164300E096430C
:100680002E604D68DEF80060ED03754601D5164317
:1006900000E096432E60641C0A6832FA04F57FF489
:1006A0003FAFBDE8F88F00000804014000001110C2
:1006B000001002400000014000080140000C014011
:1006C000001001400AB1016170470904FBE7000016
:1006D00001488068704700006C0000200248816873
:1006E00002781144816070476C000020074810B503
:1006F000016841F010010160032000F07DF80F2037
:1007000000F006F800F024F8002010BD00200240A0
:1007100070B50D4D04464FF47A712878B1FBF0F0B6
:100720000A490968B1FBF0F001F016F848B9102C3D
:1007300007D200222146501E00F03EF800206C60D7
:1007400070BD012070BD00006C000020780000200A
:10075000104808B5816941F001018161816901F0AA
:1007600001010091C16941F08051C161C06900225D
:1007700000F0805000901146052000F01DF8052083
:1007800000F00CF80448416821F0E06141F000718C
:10079000416008BD0010024000000140002809DB54
:1007A00000F01F02012191404009800000F1E0208B
:1007B000C0F8001170470000F0B40E4B1B680C46E7
:1007C000C3F30223C3F10705042D00D90425191D25
:1007D000072901D2002300E0DB1E012606FA05F1FD
:1007E000491E214099409E40761E16403143F0BC80
:1007F00003F0D8BA0CED00E0064900F007020868E3
:100800004FF6FF03184040EA0220034A10430860F5
:10081000704700000CED00E00000FA0510B50C0672
:1008200007D501F0070101EB810100EBC100283081
:1008300005E001EB810100EBC10000F5B47099B255
:1008400032B1012202730181190C4181002010BDD7
:1008500000220273C180F9E7704701EB810200EBCF
:10086000C202D0F8EC02D26B02F01BBA01EB81029B
:1008700000EBC202D0F8EC02D2F87C2102F074BA8C
:1008800070B504460B0601F0070000EB800104EB95
:10089000C1014FF001024FF0000503D581F8292076
:1008A000283103E081F8695101F5B471087094F8BA
:1008B000A802012808D084F8A822206802F0B6FE19
:1008C00084F8A852002070BD022070BD70B50446A7
:1008D00001F00F006268904201D9012070BD0B0643
:1008E00001F0070000EB800104EBC1014FF00102B1
:1008F0004FF0000503D581F82920283103E081F865
:10090000695101F5B4718D70087094F8A80201283E
:1009100008D084F8A822206802F025FF84F8A852A5
:10092000002070BD022070BD2DE9F05F04685FEA11
:10093000424C0B788D69B4F850C04FF000064BF66E
:100940008F7948F2800A48F68F7B48F2C00E4FF448
:1009500080672AD54FF0020808EBC308C44407EBB0
:100960004C07E45BC4F30904A54203D32D1B8D613E
:1009700001D00BE08E61066836F8235005EA0905C0
:1009800085F4005545EA0A0526F82350520609D594
:100990000D78036833F8252002EA0B0242EA0E02C2
:1009A00023F8252084B30A8929E04FF0060808EBD4
:1009B000C308C44407EB4C07E45BC4F30904A54235
:1009C00003D32D1B8D6101D00BE08E61066836F8D4
:1009D000235005EA090585F4005545EA0A0526F87D
:1009E0002350520609D40B78056835F8232002EA13
:1009F0000B0242EA0E0225F823202CB14A894969EC
:100A00000068234603F088F92046BDE8F09F2DE9F1
:100A1000F05F054600680C465FEA426C16468B693B
:100A20002278B0F850C048F68F774CF280094FF426
:100A3000004B4FF6FF7E4FF4806A4FF0000172D5F5
:100A40004FF0020808EBC208E0440AEB480C30F80B
:100A50000C00C0F30900834211D91B1AA3610FD007
:100A6000730407D52E6836F822303B4043EA090369
:100A700026F8223094F82420012A47D052E1A161BF
:100A8000607810B1012813D01AE02868B0F850300F
:100A9000184400EB0210B0F80424C2F30902A0F8D5
:100AA0000424B0F8042442F40042A0F8042407E02F
:100AB0002868B0F85030184400EB0210A0F8041475
:100AC0006278286812B1012A11D018E0B0F85010ED
:100AD0000844217800EB0110B0F80C14C1F30901AF
:100AE000A0F80C14B0F80C1441F4004105E0B0F883
:100AF00050201044227800EB0210A0F80C1421784A
:100B00002846FFF7AAFE700472D40BE16269024422
:100B10006261E2690244E2612369226A9A4203D374
:100B20001846111A04E03EE084F824100AB1104679
:100B30002162617811B1012929D031E02968B1F829
:100B400050201144227801EB0211B1F80424C2F3C1
:100B50000902A1F8042401F204413E2807D9420900
:100B6000C30600D1521E0B884BEA822207E048B12F
:100B70004208C30700D0521C0B880EEA822213439E
:100B80000B800DE00A8842F400420A8008E02968E0
:100B9000B1F850201144227801EB0211A1F80404AD
:100BA00083B22289BAE04FF0060808EBC208E0449D
:100BB0000AEB480C30F80C00C0F30900834211D353
:100BC0001B1AA3610FD0730407D42E6836F82230A5
:100BD0003B4043EA090326F8223094F82420012AF6
:100BE00051D09FE0A161607818B1012814D01BE0BA
:100BF0003FE02868B0F85030184400EB0210B0F81D
:100C00000424C2F30902A0F80424B0F8042442F436
:100C10000042A0F8042407E02868B0F850301844D7
:100C200000EB0210A0F804146278286812B1012ABF
:100C300011D018E0B0F850100844217800EB0110F2
:100C4000B0F80C14C1F30901A0F80C14B0F80C149E
:100C500041F4004105E0B0F850201044227800EB48
:100C60000210A0F80C1421782846FFF7F6FD700456
:100C700058D42278296831F82200384040EA090027
:100C800021F822004EE0626902446261E269024496
:100C9000E2612369226A9A4203D31846111A21623B
:100CA00004E00AB11046216284F8241062782968B1
:100CB00012B1012A28D02FE0B1F850201144227837
:100CC00001EB0211B1F80C24C2F30902A1F80C24C3
:100CD00001F20C413E2807D94209C30600D1521E39
:100CE0000B884BEA822207E048B14208C30700D0D4
:100CF000521C0B880EEA822213430B800CE00A88F8
:100D000042F400420A8007E0B1F8502011442278F2
:100D100001EB0211A1F80C04628983B261692868B1
:100D200003F018F82278296831F8220048F6BF73DA
:100D3000184080F0300048F28003184321F8220068
:100D40000020BDE8F09F01F0070101EB810100EBFD
:100D5000C100D0F8840170472DE9F04104460F0628
:100D600001F0070000EB800104EBC1014FF0010628
:100D70004FF0000503D581F82960283103E081F8A0
:100D8000695101F5B471022B08700A61CB7000D172
:100D90000D7194F8A802012809D084F8A86220688F
:100DA00002F0F4FA284684F8A852BDE8F081022047
:100DB000FBE710B501F0070404EB840100EBC1016F
:100DC000C1E95F230022C1F8842181F8692181F8FB
:100DD0006841006801F5B47102F01AFD002010BDF1
:100DE00070B504460D4601F007006168884201D9DC
:100DF000012070BD29064FF000064FF0010207D513
:100E000000EB800104EBC10181F82920283107E0C3
:100E100005EB850104EBC10181F8696101F5B4714D
:100E20008A70087094F8A802012807D084F8A822D4
:100E3000206802F0D4FC680702D006E0022070BDF2
:100E400004F52C71206802F08CFC84F8A862002064
:100E500070BD10B501F0070404EB840100EBC10183
:100E6000C1E90F23012281F84C208B6400234B64DD
:100E700081F8292001F8284F006802F0C9FC002001
:100E800010BD00001FB50446006802F041FF0104D8
:100E900003D5204600F03CFF1FBD41050DD520685D
:100EA00030F8441F21F480610180204600F010F9E1
:100EB0000021204600F027F91FBD410405D5206818
:100EC00030F8441F21F4804174E0810405D5206886
:100ED00030F8441F21F400516CE0C10414D520689F
:100EE00030F8401F21F004010180206830F8401FD5
:100EF00021F008010180204600F0FDF8206830F85C
:100F0000441F21F4805155E0010540D5D4F800205C
:100F10000020694632F8203021F81030401CC0B261
:100F20000828F7D332F8400F40F001001080206805
:100F300030F8402F22F0010202802068B0F84420EF
:100F40005205FBD530F8442F22F480620280002045
:100F5000236831F8102023F82020401CC0B2082854
:100F6000F6D3206830F8401F41F008010180206866
:100F700030F8441F21F400610180206830F8401FE0
:100F800041F004010180204600F0F2F81FBD810508
:100F900009D5206830F8441F21F4007101802046F3
:100FA00000F0ADF81FBDC005FCD5206830F8441F27
:100FB00021F4807101801FBD2DE9F04186B004004D
:100FC00004D094F8A902002520B108E0012006B061
:100FD000BDE8F08184F8A852204600F05BF80320B9
:100FE00084F8A902206802F0B5FB04F11001142274
:100FF00088466846FFF708F994E80F0002F014FBF2
:101000000227D0BB0021206802F09CFE00200126B0
:101010000EE000BF00EB800104EBC10181F8296004
:1010200001F8280F401CCD700D614D61C0B28D617B
:1010300061688142EED8002012E000BF00EB800121
:1010400004EBC10181F8695181F8680181F86B51A5
:10105000C1F87851C1F87C51401CC0B2C1F8805130
:1010600061688142EAD8142241466846FFF7CCF80D
:1010700094E80F0002F065FB10B184F8A972A5E7AF
:1010800084F8245084F8A962206802F058FB0020FC
:101090009DE7000008B500680B49884212D10B4853
:1010A000C16941F40001C161C069002200F400007F
:1010B000009011461420FFF77FFBBDE80840142084
:1010C000FFF76CBB08BD0000005C00400010024050
:1010D00070B5044680680125022801D0FFF7FDF9AC
:1010E0002946D4F8EC0201F028FFD4F8EC02BDE860
:1010F000704001F0E4BED0F8EC0201F008BFD0F877
:10110000EC0201F00EBF10B5044690F8A8020128C9
:101110000BD0012084F8A80284F82410206802F083
:1011200013FE002084F8A80210BD022010BDD0F8E4
:10113000EC2200F52C71104601F00BBF10B50446EF
:1011400090F8A802012810D0012084F8A802206895
:1011500002F0CFFD01212046FFF77EFB206802F060
:10116000ECFA002084F8A80210BD022010BD000097
:1011700010B50446D0F8EC0201F02AFFA06900285F
:1011800004D00348016841F00601016010BD000071
:1011900010ED00E02DE9F84305460078354CC00716
:1011A00054D0E0690026C00008D4E06940F08050C7
:1011B000E061E069012600F0805000902E4801684F
:1011C000C90512D40168804641F480710160FFF7BF
:1011D0007FFA074605E000BFFFF77AFAC01B6428D4
:1011E00023D8D8F80000C005F6D5206A10F4407066
:1011F00021D0A98801F4407181421CD0206A1F4986
:10120000012220F440700A6000220A602062C007B8
:1012100011D0FFF75DFA074641F2883808E000BFB9
:10122000FFF756FAC11B414502D90320BDE8F883F8
:10123000206A8007F4D5206A696820F4407008436A
:1012400020621EB1E06920F08050E06128788007BC
:1012500005D56068A96820F440400843606028789C
:10126000C00605D56068E96820F480000843606026
:101270000020DBE7001002400070004040044242C2
:101280002DE9F0470F46050061D0434E306800F06D
:101290000700B84209D2306820F0070038433060B8
:1012A000306800F00700B84251D128683B4C8107F4
:1012B00012D5400703D5606840F4E060606028788C
:1012C000000703D5606840F4605060606068A968FA
:1012D00020F0F000084360602878C00728D06868D4
:1012E000012810D02168022810D0890700292EDAA1
:1012F000616821F0030101436160FFF7E9F980466D
:1013000041F288390DE021688903EFE78901EDE7B3
:10131000FFF7DEF9A0EB0801494502D90320BDE83B
:10132000F0876068696800F00C00B0EB810FEFD1C6
:10133000306800F00700B8420BD9306820F0070091
:1013400038433060306800F00700B84201D0012017
:10135000E5E72878400705D56068E96820F4E06093
:10136000084360602878000706D56068296920F482
:10137000605040EAC100606000F038F86168084AD7
:10138000C1F30311515CC840064908600648006873
:10139000FFF7BEF90020C2E7002002400010024023
:1013A00020540008780000207000002004480549FF
:1013B00000684968044AC1F30221515CC840704783
:1013C000780000200010024030540008044805490D
:1013D00000684968044AC1F3C221515CC8407047A3
:1013E0007800002000100240305400080E4A516876
:1013F0000E4801F00C03042B11D0082B0FD10C4820
:10140000C1F38343C903C05C0AD55168084AC1F3DC
:101410004041921E515C054A5043B0FBF1F07047C9
:1014200004494843704700000010024000127A004F
:101430001054000800093D002DE9F84F040070D059
:101440002078C04DC00749D06868C0F381000128EA
:1014500007D06868C0F38100022809D16868C0031A
:1014600006D52868800339D560680028E7D035E0C4
:101470006068B0F5803F0BD010B1B0F5A02F11D04F
:10148000286820F480302860286820F4802002E05A
:10149000286840F480302860606890B1FFF718F940
:1014A00006460AE0286840F480202860F0E700BF84
:1014B000FFF70EF9801B642873D828688003F7D5DE
:1014C0000CE0FFF705F9064605E000BFFFF700F95D
:1014D000801B6428F0D828688003F7D420789A4EBF
:1014E00080074FF001094FF0000839D5686810F007
:1014F0000C0F07D06868C0F38100022809D1686822
:10150000C00306D42868800714D52069012808D1B3
:1015100010E02069B0B1C6F80090FFF7D9F807468F
:1015200005E00AE1FFF7D4F8C01B0228C4D82868F8
:101530008007F7D52868616920F0F80040EAC1000B
:1015400028600DE0C6F80080FFF7C2F8074604E007
:10155000FFF7BEF8C01B022823D828688007F7D4FD
:10156000207800072CD57948A169D9B1C0F800903E
:10157000FFF7AEF8074604E0FFF7AAF8C01B022801
:101580000FD8686A8007F7D571484FF4FA510068A0
:10159000B0FBF1F0009000BF0098411E0091FAD21C
:1015A0000EE080E0C0F80080FFF792F8074604E004
:1015B000FFF78EF8C01B022875D8686A8007F7D439
:1015C0002078400760D5E8690027C00008D4E869A2
:1015D00040F08050E861E869012700F080500090F9
:1015E0005C480168C90513D40168834641F48071E1
:1015F0000160FFF76DF8824606E000BFFFF768F86C
:10160000A0EB0A0064284ED8DBF80000C005F5D531
:10161000E06801280AD008B1052813D0286A20F014
:1016200001002862286A20F0040002E0286A40F0E5
:1016300001002862E06841F2883B98B1FFF748F862
:1016400082460BE0286A40F004002862EEE700BF03
:10165000FFF73EF8A0EB0A0159455AD8286A8007DF
:10166000F6D50CE0FFF734F8824605E0FFF730F8D6
:10167000A0EB0A0159454CD8286A8007F6D41FB15F
:10168000E86920F08050E861E06988B36968C1F3D7
:101690008101022944D00228C6F8608004D0FFF7F7
:1016A00017F8044638E034E0FFF712F8074604E084
:1016B000FFF70EF8C01B02282BD828688001F7D44A
:1016C000206AB0F5803F05D16868A16820F4003039
:1016D00008436860D4E908010843696821F474117B
:1016E00008436860C6F86090FEF7F2FF044606E023
:1016F00025E000BFFEF7ECFF001B022809D8286890
:101700008001F7D51BE000BFFEF7E2FF001B0228B7
:1017100002D90320BDE8F88F28688001F4D40EE0D8
:101720000128F7D06868226A00F48031914204D120
:10173000616A00F47010884201D00120EAE70020BD
:10174000E8E70000001002400000424280044242EC
:10175000780000200070004010B5401EB0F1807F7E
:1017600001D3012010BD4FF0E02460610F2160170C
:1017700002F018FB0020A06107202061002010BDAE
:1017800010B590F83C20012A22D0012280F83C209C
:10179000CA688C6822F4407222434C6822F480624A
:1017A00022430C6822F4006222430C6922F4805226
:1017B00022434C6922F400522243C969002322F4D7
:1017C00080420A4301684A6480F83C30002010BD22
:1017D000022010BD70B590F83C20012A23D00124CE
:1017E00080F83C40022280F83D2003685A689D68DA
:1017F00022F070060A6832435A600C4B02689A4223
:1018000005D0B2F1804F02D0094B9A4204D1496809
:1018100025F080031943916080F83D40002180F855
:101820003C10084670BD022070BD0000002C014035
:101830000004004000B585B00021009101910291A3
:10184000039100680B49884212D10B48816941F02D
:10185000040181618069694600F0040004904FF43E
:10186000E06000900220019003900448FEF74AFED9
:1018700005B000BD002C01400010024000080140EE
:1018800070B5044690F83C0000260D4601280FD0A4
:10189000012084F83C006AB1042A1DD0082A2FD008
:1018A0000C2A3FD00126002084F83C00304670BD51
:1018B000022070BD206800F01BFE2068816941F0A5
:1018C000080181612068816921F00401816120683B
:1018D00081692A69114311E0206800F031FE206817
:1018E000816941F4006181612068816921F480612E
:1018F0008161206881692A6941EA02218161D2E718
:10190000206800F049FE2068C16941F00801C1610A
:101910002068C16921F00401C1612068C1692A6998
:10192000114311E0206800F063FE2068C16941F4B2
:101930000061C1612068C16921F48061C1612068D2
:10194000C1692A6941EA0221C161ACE710B504000E
:1019500003D094F83D0010B107E0012010BD002035
:1019600084F83C00204600F01FF8022084F83D0077
:10197000211D206800F080FD012084F8460084F8D5
:101980003E0084F83F0084F8400084F8410084F869
:10199000420084F8430084F8440084F8450084F849
:1019A0003D00002010BD000008B5006806498842CF
:1019B00008D10648816941F400618161806900F4C1
:1019C0000060009008BD0000002C014000100240A3
:1019D00010B50446022249B104290ED0082913D0BB
:1019E00094F84100012816D0012010BD94F83E0063
:1019F0000128F9D184F83E200FE094F83F00012837
:101A0000F2D184F83F2008E094F840000128EBD19F
:101A100084F8402001E084F841200122206800F091
:101A200059FD0E492068884203D1426C42F40042BD
:101A300042642068884205D0B0F1804F02D0084946
:101A4000884204D1816801F00701062903D00168AA
:101A500041F001010160002010BD0000002C014098
:101A60000004004070B5040004D094F84100002543
:101A700010B106E0012070BD84F84050204600F00F
:101A800023F8242084F841002068C16821F4005123
:101A9000C160204600F0CEFD2068016921F490412C
:101AA00001612068416921F02A0141612068C16813
:101AB00041F40051C1606564202084F8410084F83D
:101AC00042006563002070BD30B585B000240094ED
:101AD0000194029403940068174988422AD1174858
:101AE000816941F480418161816901F480410491FF
:101AF000816941F0080181618069114D00F00800A1
:101B00000490402000900220019003200390694639
:101B10002846FEF7F7FC8020CDE9000469462846F8
:101B20000294FEF7EFFC0748416841F0E06141F0A4
:101B30000401416005B030BD003801400010024092
:101B4000000C014000000140FEE70000F0B500235A
:101B50000A24302537261F4611E000BFB4EB107F62
:101B600002D905EB107C01E006EB107C01F813C0F4
:101B700001EB430C00015B1C8CF80170DBB293425B
:101B8000ECD3F0BD0D4808B5816941F020018161B9
:101B9000816901F020010091816941F004018161B6
:101BA000816901F004010091816941F008018161BE
:101BB000806900F00800009008BD0000001002409D
:101BC00010B592B000240F941C2168461094FEF7C3
:101BD0004DFB202107A8FEF749FB28482649016054
:101BE0004721C0E9011440F69F71C0E90314446124
:101BF0008461FFF7ABFE08B1FEF76FFC0F940FA9ED
:101C00001E481094FFF7E6FD08B1FEF766FC602061
:101C1000CDE90004029403940494059400226946DB
:101C200016480694FFF72CFE08B1FEF756FC042276
:101C300069461248FFF724FE08B1FEF74EFC082261
:101C400069460E48FFF71CFE08B1FEF746FC0794F4
:101C5000089409944FF400500A94CDE90B4007A969
:101C600006480E94FFF78CFD08B1FEF736FC0348DA
:101C7000FFF7E0FD12B010BD002C014090010020E4
:101C80000C4810B50A4901604FF4E1314160002170
:101C900081600C22C160C0E904128161C161FFF75B
:101CA000E1FE002803D0BDE81040FEF716BC10BDD1
:101CB00000380140D801002010B500220F4910481B
:101CC00000F0C8FF08B1FEF708FC0E490C4801F00F
:101CD000A5F908B1FEF701FC0B49094800F0EAFD3F
:101CE00008B1FEF7FAFB064801F0EEF9002803D030
:101CF000BDE81040FEF7F1BB10BD00000C00002055
:101D0000E8060020580100205C000020FEE7FEE706
:101D10002DE9F84F044640F68F7B48F60F794FF4D3
:101D200080684FF0000AC0E1B0F8441011F00F05D0
:101D300039D030F8256031047ED530F8251001EA1D
:101D40000B0141F0800120F8251005EB850004EB24
:101D5000C00797F8740107F5B47700286DD0F878BC
:101D600002286BD03978226832F8210048F68F7348
:101D7000184048F2C003184322F82100397820683F
:101D800030F82120B0F8503052047DD5022202EB09
:101D9000C1015A1808EB4201415A8905890D009189
:101DA00073D03A89DFE0C9062DD4018801EA090120
:101DB00041F400410180206804F12805B0F850305A
:101DC0002978022202EBC1015A1808EB4201405A5D
:101DD000C0F309006064E16B0844E0630021204621
:101DE000FEF73BFD94F8240000289CD0A869002849
:101DF00099D194F82400216840F08000A1F84C00AB
:101E000084F824A051E1018804F5B4750A0521D5B0
:101E1000B0F850202B78062101EBC3010A4408EBEF
:101E20004201405A04F52C71C0F30903EB61EA88C2
:101E3000206801F071FF02E0B0E070E080E020680F
:101E4000018801EA0B0141F0800101802046FFF783
:101E50006EF92AE10904D5D5018801EA0B0141F0A8
:101E6000800101802068B0F850202B78062101EB1A
:101E7000C3010A4408EB4201405A83059B0DEB6104
:101E800010D0696971B101E061E05FE0EA88206823
:101E900001F042FFE9696869084468610021204651
:101EA000FEF7E4FC216808880205ABD4C0F30130DA
:101EB0000328A7D0B1F850000844B0F80C14C1F3BF
:101EC0000901A0F80C142A6900F20C403E2A09D935
:101ED0005109D20600D1491E02884FF4004343EA5B
:101EE000812109E0B2B15108D20700D0491C028813
:101EF0004FF6FF7303EA81210A43028021680888B4
:101F00004BF68F72104080F4405048F2800210432C
:101F10000880CAE0018841F400410180EEE72068B2
:101F2000B0F850203B78062101EBC3010A4408EBCE
:101F30004201415A8905890D009118D0FA8812E0B2
:101F4000324639462046FEF7EFFC00900FE00622AD
:101F500002EBC1015A1808EB4201415A8905890D6B
:101F6000009104D07A897969009B01F0D5FEF86967
:101F700000990844F8617969009808447861B86963
:101F800018B139690098814204D939782046FEF7A2
:101F90006DFC03E03946206801F03AFC30062FD58D
:101FA00005EB850004EBC001206830F8252002EA2B
:101FB000090242F4004220F8252091F82B00283134
:101FC00001281ED0F0056CD42068B0F850300D7890
:101FD000022202EBC5021A4408EB4202805A8A69C7
:101FE000C0F30900824255D9121A8A6154D04A6955
:101FF00002444A61CA691044C861206801F008FCC3
:1020000053E0C1F818A0087B524608B3700620D5EB
:10201000487810B1012812D03AE02068B0F850207A
:1020200010440A7800EB0210B0F80424C2F309024D
:10203000A0F80424B0F8042442F4004206E020682A
:10204000B0F8503018440B7800EB0310A0F80424CB
:102050001EE04B78206813B1012B11D018E0B0F8C6
:10206000502010440A7800EB0210B0F80C24C2F3A0
:102070000902A0F80C24B0F80C2442F4004205E058
:10208000B0F8503018440B7800EB0310A0F80C2483
:10209000097802E0C1F818A0E9B22046FEF7DDFB9E
:1020A00003E032462046FEF7B2FC2068B0F8441048
:1020B00009043FF539AE0020BDE8F88F10B50021C6
:1020C0000648FFF785FC04210448FFF781FCBDE8C2
:1020D000104008210148FFF77BBC00009001002060
:1020E00070477047AFF300802DE9FC41124ECDE9F7
:1020F00000120C4615460746034696E8070001F015
:10210000EDFF3760C6E9014501F0CCFF0B4D00241F
:1021100004EB440005EB800155F820008A6849680B
:1021200000F010F80A20FEF7DBF9641C64B2332CCF
:10213000EEDBBDE8FC8100000000002084040020EC
:10214000704700002DE9F05F8A469346284902F067
:1021500043FE284D294603F06DF8274E314602F024
:1021600093FF264F394602F099FEDFF894804146EE
:1021700002F032FE4FF07E59494603F05BF802F060
:102180004FFF204C00B2216848631F49504602F0BF
:1021900023FE294603F04EF8314602F075FF39461A
:1021A00002F07CFE414602F017FE494603F042F879
:1021B00002F036FF216800B288631449584602F0E5
:1021C0000BFE294603F036F8314602F05DFF394632
:1021D00002F064FE414602F0FFFD494603F02AF892
:1021E00002F01EFF216800B2C863BDE8F09F000046
:1021F000000060C10000B4C20000FA440000344393
:102200000000FA4390010020000098C1000090C136
:102210002DE9F04F8BB01646DDE91445834688461C
:102220001F4601222046294603F0ABF88246894624
:1022300022462B461046194602F092FACDE90110CB
:1022400032463B461046194602F08AFACDE905109F
:102250005A4643461046194602F082FADDE9053235
:1022600002F02EF8DDE9013202F02AF80022574B85
:1022700002F026F80022564B02F098FC554A564BC5
:1022800002F094FC52464B4602F0D6F832463B46EA
:10229000524E534F81468A463046394602F086FCFC
:1022A00022462B4602F0C8F804460D4632463B460D
:1022B00002F056FA4A46534602F002F802460B462E
:1022C00002F04EFADFF81CB106460F4600225B46CC
:1022D0002046294602F044FA22462B4602F040FAF4
:1022E00000225B4601F0ECFF00225B4602F038FA68
:1022F00032463B4602F05AFC002206460F46134681
:1023000002F0F2F904D2384900200BB0BDE8F08F9A
:1023100022462B461046194602F022FA0022334B81
:1023200001F0CEFF80468B463046394601F04CFF27
:1023300007460E4622462B464846514602F010FA02
:10234000264A274B02F040FB3A46334602F02EFC69
:1023500042465B4602F070F806460F4622462B4680
:1023600002F0FEF94A46534601F0AAFF04460D4624
:1023700032463B4619481A4902F018FC02460B4601
:10238000204685F0004102F057F801F07BFDDFF8B0
:1023900060800022434602F0E3F9164A164B02F031
:1023A0004BF804460D460D4A0D4B3046394602F0B7
:1023B000D5FA07D2002243462046294601F080FF85
:1023C00004460D46204629469FE700000062C940AA
:1023D0008084CE40476E6085EE968840FFA8D38506
:1023E000170D3CC000805C4000C056C00000F03FAC
:1023F000008066404AD8124DFB210940FEF76EB9B5
:1024000030B593B028216846FDF730FF14210AA8A3
:10241000FDF72CFF002401200F9410941194010467
:1024200012948DE8130004904FF4E010CDE90810E9
:10243000022507956846FEF7FFFF08B172B6FEE772
:102440000F20CDE90A054FF48060CDE90C40022150
:102450000AA80E94FEF714FF08B172B6FEE710202A
:102460000F9012940FA8FEF795FE002801D072B6C7
:10247000FEE713B030BD704770B50268134B144CC3
:102480004FF08046984203D0B04201D0A04203D121
:1024900022F070054A682A43984203D0B04201D026
:1024A000A04203D122F44074CA6822434C6922F04E
:1024B0008002224302608A68C2620A68826298428D
:1024C00001D1096901630121416170BD002C014006
:1024D0000004004010B501F01F030121046A994077
:1024E0008C430462016A9A401143016210BD0000EE
:1024F00030B5036A026A22F001020262426884690E
:1025000024F073050C682C4323F002058B682B43E1
:102510000A4DA8420BD123F00805CB6822F4407283
:102520002B434D6923F0040315438A692A43426013
:10253000846149684163036230BD0000002C0140A2
:1025400030B5026A036A23F01003036243688469AA
:102550000D6824F4E64444EA05248D6822F0200244
:1025600042EA05120B4DA8420ED1CD6822F080023E
:1025700042EA05124D6923F4406343EA85038D69FD
:1025800022F0400243EA8503436084614968816325
:10259000026230BD002C014030B5036A026A22F4A9
:1025A000807202624268C46923F4007324F07305E8
:1025B0000C682C438D6843EA05230C4DA8420ED1CC
:1025C000CD6823F4006343EA05234D6922F44052A9
:1025D00042EA05128D6923F4806342EA05124260E3
:1025E000C4614968C163036230BD0000002C014032
:1025F00030B5046A026A22F4805202624268C369FA
:102600000D6823F4E64343EA05238D6824F400545F
:1026100044EA0534064DA84204D14D6922F48042B3
:1026200042EA85124260C36149680164046230BDB8
:10263000002C014070B5044600680169E26821F48D
:102640004051114301612169A06808436169084351
:102650002168CA6841F20C639A430243CA60206849
:102660004169A26921F44071114341611E4920680A
:10267000884202D1FEF7AAFE01E0FEF797FE00EBCA
:10268000C00101EB0012606864218000B2FBF0F32E
:10269000B3FBF1F36FF018067343B2FBF0F5B2FB36
:1026A000F0F605EB8305322303EB0515B5FBF1F5D9
:1026B000B6FBF1F605F0F00505EB0615B2FBF0F6FA
:1026C000B2FBF0F0B0FBF1F06FF01802504306EBF4
:1026D000800003EB0010B0FBF1F0216800F00F0068
:1026E0002844886070BD0000003801402DE9F041A9
:1026F000D0F8C032D0F8B822CAB101EB810500EBA6
:1027000085040026E7693FB103EBC5039B6BB7FB6C
:10271000F3F503FB157323B1C2F814620020BDE882
:10272000F08100231A46E66100F05BFCF6E7022028
:10273000F5E770B50546D0F8B84200F056FBC4F88E
:102740000C02D5F8B80248B1D5F8BC12D4F804028E
:10275000CA6804F503719047002070BD022070BD67
:1027600070B504460026812100F092FA002501216F
:102770002046E56200F08CFA82212046C4F86C51B4
:1027800000F086FA2564D4F8B80248B1D4F8BC0247
:1027900004F52E7440688047206800F0F2FD256043
:1027A000304670BD10B5D0E9AE4159B194F8000281
:1027B000FF2807D08B6894F8012221469847FF2014
:1027C00084F80002002010BD0A21018000487047F3
:1027D000800000204321018000487047D000002085
:1027E00043210180004870478C0000204321018074
:1027F00000487047140100202DE9F04104460026EE
:10280000007C4FF40077012590B340230222812100
:10281000204600F03FFB4023E562022201212046D2
:1028200000F038FB0823032282212046C4F86C51B3
:1028300000F030FB4FF40770256400F0A3FDC4F8EE
:10284000B802F8B10546D4F8BC0200688047002001
:10285000C5F81402C5F81802207CD5F8042298B1F6
:1028600040230121204600F021FB3046BDE8F081E5
:10287000FFE73B4602228121204600F00BFB3B464E
:10288000E562CAE70126F0E73B46EAE710B5D0F873
:10289000B81269B1027C002AD1F8042205D0402385
:1028A000012100F003FB002010BD4FF40073F7E797
:1028B000022010BD02460220002902D00020C2F8EA
:1028C000BC127047D0F8B802C0F80412002070475C
:1028D000D0F8B802C0F81022C0F8081200207047E3
:1028E0002DE9FC410546D0F8B87200208DF80000B3
:1028F000ADF80400064608780C4610F0600121D0BF
:1029000020293BD1E288AAB10006607807D5D5F826
:10291000BC128B6839469847E288394626E087F82A
:102920000002A07987F80102E2883946284600F0C3
:102930004FF828E0D5F8BC12607800228B68214659
:10294000984720E0607820B10A2809D00B2815D1DB
:1029500010E095F89C02032810D1022201A905E09D
:1029600095F89C02032809D101226946284600F007
:1029700049F808E095F89C02032804D0214628462F
:1029800000F01BF802263046BDE8FC8110B5D0F8F7
:10299000B42252689047002010BD134610B50A4675
:1029A000002100F083FA002010BD134610B50A463E
:1029B000002100F016FB002010BD10B50446802158
:1029C00000F0F4FA2046BDE81040002100F0EEBA15
:1029D00010B50323C0F85C21C0F89432C0F8602120
:1029E00013460A46002100F061FA002010BD10B520
:1029F00005210023C0F894121A46194600F056FA31
:102A0000002010BD10B50223C261C0F894320262EA
:102A100013460A46002100F0E4FA002010BD10B56C
:102A200004210023C0F894121A46194600F0D9FA7E
:102A3000002010BD10B50A46024903A000F0DAF8E4
:102A4000004810BDAC09002043444320436F6E662C
:102A50006967000012200880004870472C000020A1
:102A600010B50A46024903A000F0C4F8004810BDA2
:102A7000AC09002043444320496E7465726661636B
:102A800065000000042008800048704728000020EE
:102A900010B50A46024903A000F0ACF8004810BD8A
:102AA000AC09002053544D6963726F656C656374A3
:102AB000726F6E696373000010B50A46024903A085
:102AC00000F098F8004810BDAC09002053544D3375
:102AD00032205669727475616C20436F6D506F724D
:102AE0007400000010B51A200880401809D0082290
:102AF0000549FFF72BF80449042210312046FFF75F
:102B000025F80148801E10BD42000020F8B504469B
:102B10000020ADF8000048880D46010A082948D277
:102B2000DFE801F04704091747473C45D4F8B012E5
:102B3000207C0A6819E0207C02260028D4F8B40220
:102B400005D0C16A68468847014646703EE0816A02
:102B5000F8E7C0B206282CD2DFE800F0030A101410
:102B6000181CD4F8B002426805E0694690471CE0A2
:102B7000D4F8B0028268E2B1207CF6E7D4F8B00263
:102B8000C268F8E7D4F8B0020269F4E7D4F8B002FA
:102B90004269F0E7D4F8B0028269ECE7207C40B9E2
:102BA000D4F8B402416B6846884701460EE0207CA9
:102BB00020B129462046FFF700FFF8BDD4F8B40243
:102BC000016B68468847014607204870BDF8000041
:102BD00048B1EA8852B1824200D90246ADF80020DD
:102BE0002046FFF70FFFE8880028E6D12046FFF7D0
:102BF00016FFF8BD70B5002300281ED0044600253E
:102C000002E06D1CEDB2641C2678002EF9D102247E
:102C100004EB450414801278CA545B1C0322CA5486
:102C200000245B1C06E0CA545B1CDAB28C54521CB4
:102C3000D3B2401C0278002AF5D170BD01004FF0DC
:102C4000000004D0012901D0022901D002207047E0
:102C50000120704710B580B1D0F8B43213B1002311
:102C6000C0F8B43209B1C0F8B012012180F89C124A
:102C7000027000F0BFF8002010BD022010BD10B59A
:102C8000D0F8C002FDF722FEBDE81040FFF7D6BF26
:102C900010B5D0F8C002FDF7F3FDBDE81040FFF716
:102CA000CDBF2DE9F0411746044651B1D4F8B40226
:102CB00042691AB194F89C02032851D00220BDE861
:102CC000F081D4F89432002504F11400022B03D0D3
:102CD000042B3AD0C3B33CE0D0E903639E4207D94A
:102CE000F11AC1608AB239462046FFF75EFE12E053
:102CF0008068B0FBF3F103FB110199B9984211D33D
:102D0000D4F8981288420DD2002211462046FFF7CF
:102D10004CFEC4F8985200231A461946204600F08B
:102D2000C5F816E0D4F8B402C16829B194F89C0241
:102D3000032801D1204688478021204600F036F93B
:102D40002046FFF754FE04E0FFE78021204600F014
:102D50002DF994F8A002012804D184F8A05201E0D2
:102D6000204690470020AAE770B51546044649B1B1
:102D7000D4F8B40282691AB194F89C02032830D0C6
:102D8000022070BDD4F8941204F5AA70032902D071
:102D900005291ED027E0D0E903218A420BD9531A16
:102DA000C3600846834200D303469AB229462046B0
:102DB000FFF7F3FD17E0D4F8B402016929B194F8E4
:102DC0009C02032801D1204688472046FFF727FEB2
:102DD00009E000200146C4F89402204600F0E6F81D
:102DE00001E020469047002070BDD0F8C002FDF7FA
:102DF000AABF000010B504461C481D49C0F8EC42AB
:102E0000C4F8C002016008214160022181600021F4
:102E10008161C1610162FEF7CFF808B1FDF75DFB8A
:102E20000022D4F8C0021823114604F53074FDF7CF
:102E3000F5FC5823002280212068FDF7EFFCC02319
:102E4000002281212068FDF7E9FC4FF488730022FD
:102E500001212068FDF7E2FC4FF4807300228221FB
:102E60002068FDF7DBFC002010BD0000CC15002021
:102E7000005C00400A0601F07F01D0F8C00201EBBF
:102E8000810100EBC10002D590F82A00704790F84C
:102E90006A01704710B51C461346D0F8C00222469E
:102EA000FDF75AFFBDE81040FFF7C8BE10B5D0F8D7
:102EB000C002FDF77EFFBDE81040FFF7BFBE70B552
:102EC0000022044640231146FFF7E4FF4026012577
:102ED000C4F864613346002280212046C4F858516A
:102EE000FFF7D8FF6662A56184F89C520020C4F801
:102EF00094026060C4F8A402D4F8B80228B1D4F8EF
:102F0000B4020021426820469047002070BD90F82E
:102F10009C12042903D190F89D1280F89C12002085
:102F2000704710B590F89C12032904D1D0F8B41260
:102F3000C96901B18847002010BD017400207047A5
:102F400010B5D0F8C002FEF7DEF8BDE81040FFF77C
:102F500075BE70B5044600F52A70054600F04AF8C3
:102F60000120C4F89402B4F8AE02C4F8980294F8B0
:102F7000A80210F01F010AD001290DD0022910D09B
:102F800000F08001204600F011F8002070BD2946B5
:102F9000204600F09EF8F8E72946204600F0CAF9DE
:102FA000F3E72946204600F01DF9EEE710B5D0F80A
:102FB000C002FDF715FFBDE81040FFF73FBE10B59A
:102FC000D0F8C002FEF7BAF8BDE81040FFF736BEF1
:102FD00090F89C1280F89D12042180F89C12002029
:102FE000704710B5D0F8C002FDF733FFBDE81040C0
:102FF000FFF724BE0A7802704A7842708A78CB784C
:1030000002EB032242800A794B7902EB0322828091
:103010008A79C97902EB0121C180704702460020FC
:1030200011B1C2F8B41270470220704710B5D0F841
:10303000B42202241AB11268904700B90024204635
:1030400010BD000070B50E461E4D897804462970EB
:10305000012931D894F89C0202280BD003280FD004
:1030600031462046FFF7A9FC29782046BDE870408C
:10307000FFF78CBCD9B10320616084F89C0209E0A1
:1030800071B16068884212D0C1B22046FFF77EFC61
:10309000297861602046FFF7C9FF02280CD006E0BE
:1030A000022084F89C0220466160FFF76FFC2046F6
:1030B000BDE87040FFF7B3BC31462046BDE8704024
:1030C000FFF77BBC7C00002010B5FFF778FF0020E5
:1030D00010BD2DE9F0410A78002612F0600208D0F8
:1030E000202A01D0402A70D1D0F8B42292689047AB
:1030F0006DE04B78002201250A2B66D2DFE803F051
:10310000405D6557650805652C29FFF7FFFC5EE00B
:1031100004468888D8B9C888C8B94888802816D293
:1031200000F07F0794F89C02032810D084F89E7268
:1031300039462046FFF704FF2046FFF770FC1FB119
:10314000022084F89C0242E084F89C523FE0204632
:103150003BE0FFF777FF3AE0CB88012B35D190F8C1
:103160009C32012B04D0022B02D0032B2DD104E082
:103170008260012200F1080116E00122011D13E026
:1031800090F89C22012A03D0022A01D0032A1CD1E4
:10319000CA88022A19D1C560D0F8A41209B1032146
:1031A000C160022200F10C01FFF72CFC0FE04988FE
:1031B00001290CD1C0F8A45211E090F89C32012BE7
:1031C00008D0022B06D0032B04D0FFF7F6FB3046C5
:1031D000BDE8F08149880129F9D1C0F8A422FFF7A0
:1031E0001EFCF4E72DE9F0410A460446107800275A
:1031F000097910F060030AD0202B01D0402B50D168
:10320000D4F8B40211468368204698478FE0C0F393
:103210004110012806D05078D0B301282AD00328C5
:103220003FD107E0D4F8B402114683682046BDE8D8
:10323000F041184794F89C02022802D0032872D16A
:103240000AE071B380296ED02046FFF7AFFE8021DF
:103250002046FFF7ABFE6AE0508838B931B18029CB
:1032600004D0D08810B92046FFF7A0FE2046FFF713
:10327000D6FB5CE094F89C020228E2D0032852D1ED
:10328000508898BB4806F1D02046FFF7F8FCEDE7E0
:10329000FFE794F89C020026022803D0032842D1BD
:1032A00012E040E009B180293DD1080601F07F001D
:1032B00000EB800004EB800101D5143101E001F541
:1032C000AA7102220E602AE0080601F00F0000EB4E
:1032D000800004EB80000AD5806920B301F07F00F4
:1032E00000EB800004EB800514350BE01FE0D0F804
:1032F0005801C0B101F07F0000EB800004EB8005B5
:1033000005F5AA7541B1802906D02046FFF7B2FD28
:1033100010B10120286000E02E60022229462046DC
:10332000FFF770FB03E011462046FFF746FB3846E7
:10333000BDE8F08170B5054608780C4610F06000D5
:1033400003D0202801D0402816D195F89C020128EE
:1033500003D0022801D003280ED1207901280BD8F0
:10336000D5F8B402826828469047E188014306D127
:103370002846FFF754FB02E02846FFF71EFB00201B
:1033800070BD704700487047AC1300202DE9F0472E
:103390000C78002630F8243048F68F121340CA7893
:1033A000002A78D0012A7CD0022A02D0032A75D0C4
:1033B000012648F28002134320F824300D7830F8BB
:1033C000253048F68F7423402B43134320F82530D3
:1033D0000D7B48F2C00948F6BF734CF2800A4BF6E9
:1033E0008F77EDB3CD7891F800C0022D30F82C50D6
:1033F0007DD048F68F6805EA0805154320F82C5063
:10340000B0F8505091F800C0054405EB0C15B1F828
:1034100008C02CF0010CA5F800C4B0F8505091F889
:1034200000C0054405EB0C15B1F80AC02CF0010CE6
:10343000A5F808C44D78002D7ED00D7830F825C051
:103440005FEA4C4C07D530F825C00CEA040C4CEA76
:103450000A0C20F825C091F800C030F82C5000E08C
:1034600022E06D0606D530F82C50254045EA0905C6
:1034700020F82C50CC780D78012C30F8254004EA47
:1034800003047CD084F02003134320F82530C1E0EE
:1034900001E006E002E043F400738AE743F4C0630E
:1034A00087E743F4806384E74D784DB3B0F850501C
:1034B0000F78054405EB0715CF8827F00107A5F81D
:1034C00000740F7830F827506D0606D530F8275075
:1034D000254045EA090520F82750CC78012C07D073
:1034E0000C7830F82410194081F0200104E064E0E9
:1034F0000C7830F824101940114320F8241090E083
:10350000B0F850300D78034403EB0513CD8825F057
:103510000105A3F80854B0F850300D78034403EBCC
:103520000513B3F80C54C5F30905A3F80C540D6941
:1035300003F20C433E2D00E045E00BD94FEA551C49
:10354000ED0601D1ACF1010C1D884FF4004848EAAA
:103550008C2C0BE035B34FEA550CED0701D00CF184
:10356000010C1D884FF6FF7808EA8C2C45EA0C0503
:103570001D800D7830F825305B0408D500E046E06A
:1035800030F82530234043EA0A0320F82530097833
:1035900061B130F821303B4083F40053134320F8ED
:1035A00021303EE01D8845F40045E1E701883940BF
:1035B00081F440511143018033E0254048F28018E6
:1035C00045EA08051AE791F800C030F82C506D0460
:1035D00006D530F82C50254045EA0A0520F82C5035
:1035E00091F800C030F82C506D0606D530F82C50FC
:1035F000254045EA090520F82C500D7830F8254083
:103600003C4084F44054144320F8254070E71443B0
:1036100020F825400B7830F823103940114320F86A
:1036200023103046BDE8F087002070472DE9F043B5
:1036300091F80C804F780A7848F6BF7C4BF68F796A
:1036400048F2800348F2C0054CF2800648F68F74B9
:10365000B8F1000F28D0002F30F822704FEA47470A
:1036600048D0002F05DA30F822702740374320F881
:1036700022700A7830F822707F0605D530F8227063
:1036800027402F4320F822700D7830F82520224063
:10369000324320F825200C7830F8242002EA0C026E
:1036A0001A4320F824201AE07FB130F82260760611
:1036B00005D530F8226026402E4320F822600A7893
:1036C00030F8221001EA0C010EE030F822506D04AF
:1036D00005D530F822502540354320F822500A788D
:1036E00030F8221001EA0901194320F822100020C5
:1036F000BDE8F083002F05DA30F822702740374309
:1037000020F822700A7830F82260760605D530F865
:10371000226026402E4320F822600E7830F82620C2
:1037200022402A4320F826200C7830F8242002EA90
:1037300009021A4320F82420C1E700207047002026
:103740007047012120F8401F002101808180018203
:103750000846704730F8401F21F43F4101800020A7
:1037600070470020704730B50A7BB2BB4A7848F6F4
:103770008F7548F28004C2B10B7830F823205206CE
:1037800007D530F823202A4048F2C0052A4320F804
:103790002320CA78012A20D00A7830F8221048F66F
:1037A000BF73194081F0200114E00A7830F822300C
:1037B0005B0407D530F822302B404CF280052B43B8
:1037C00020F822300A7830F822104BF68F73194017
:1037D00081F44051214320F82210002030BD10B563
:1037E0004A780978002A48F2800330F8212005D071
:1037F00048F6BF74224082F0100204E04BF68F744A
:10380000224082F480521A4320F82120002010BD6B
:103810002DE9F0470D464B78097B04464FF000092F
:1038200048F68F7248F2800A4FF400474FF6FF784F
:10383000012B09D000296FD0E87802286DD001282B
:103840006CD00120BDE8F087AE692869864200D9B6
:10385000064691B1E97802291ED0286A801B2862A9
:10386000287834F820104906B4F85010214401EBB0
:10387000001073D5A0F80C6416E1B3B2EA882046B4
:10388000696900F067FAB4F850002978204400EB29
:103890000110A0F804640DE1296A814277D92978E2
:1038A00034F82100104048F28012104324F821001F
:1038B000286A801B2862287834F820104906697825
:1038C00071D511B101292AD030E0B4F8501021444B
:1038D00001EB0010B0F80C14C1F30901A0F80C14AE
:1038E00000F20C403E2E07D97109F20600D1491EA4
:1038F000028847EA812107E04EB17108F20700D043
:10390000491C028808EA81210A4302800EE00188EE
:1039100041F40041018009E0F1E020E195E1B4F8D3
:103920005020111901EB0010A0F80C646A89B3B2A1
:103930002046696900F00EFA6869304468612969B7
:10394000286A884202D9801B286202E00646C5F830
:103950002090687818B101282BD032E02FE0B4F81D
:1039600050002978204400EB0110B0F80414C1F392
:103970000901A0F8041400F204403E2E08D9710990
:10398000F20600D1491E028847EA812108E0A1E041
:1039900056B17108F20700D0491C028808EA81215B
:1039A0000A4302800DE00EE0018841F400410180ED
:1039B00007E0B4F850002978204400EB0110A0F88B
:1039C00004642A8971E011B1012927D02DE0B4F8EF
:1039D0005010214401EB0010B0F80414C1F30901A8
:1039E000A0F8041400F204403E2E07D97109F20633
:1039F00000D1491E028847EA812107E04EB17108D3
:103A0000F20700D0491C028808EA81210A4302809B
:103A10000BE0018841F40041018006E0B4F8501049
:103A2000214401EB0010A0F804642A89B3B22046B7
:103A3000696900F08FF96869304468612969286A0A
:103A4000884202D9801B286202E00646C5F8209011
:103A5000687810B1012836D026E0B4F850002978F3
:103A6000204400EB0110B0F80C14C1F30901A0F8D8
:103A70000C1400F20C403E2E07D97109F20600D159
:103A8000491E028847EA812107E04EB17108F2071A
:103A900000D0491C028808EA81210A43028003E021
:103AA000018841F4004101806A89B3B22046696906
:103AB00000F050F9297834F8210048F6BF72104020
:103AC00080F030000FE1B4F850100819297800EBAD
:103AD0000110CFE62A7834F8220048F68F631840A8
:103AE00040EA0A0024F82200B4F850002A78204462
:103AF00000EB02108BB2A0F804342A89D6E7A9693A
:103B00002869814202D9091AA96102E00846C5F86C
:103B10001890B4F850102A78214401EB0211B1F842
:103B20000C24C2F30902A1F80C2401F20C413E2836
:103B30007DD94209C00600D1521E088847EA822278
:103B40000AE0088840F4004007E04208C00700D0BF
:103B5000521C088808EA822210430880BBE033BB6D
:103B6000B4F850002978204400EB0110B0F8041498
:103B7000C1F30901A0F80414296900F204403E29A8
:103B800007D94B09C90600D15B1E018847EA832388
:103B900007E041B14B08C90700D05B1C018808EA67
:103BA0008323194302E0018841F4004101806878D1
:103BB00010B1012828D030E0B4F850002978204412
:103BC00000EB0110B0F80C14C1F30901A0F80C14BB
:103BD000296900F20C403E2907D94B09C90600D1DA
:103BE0005B1E018847EA832307E041B14B08C90700
:103BF00000D05B1C018808EA8323194302E0018896
:103C000041F40041018008E0B4F850100819297807
:103C100000EB0110298AA0F80C14E869C0B32978D8
:103C200034F82100430401D5430605D400E046E002
:103C300044F2400318424ED134F82100104048F2BB
:103C4000C002104324F8210045E0A9692869814297
:103C500002D9091AA96102E00846C5F8189013BBF9
:103C6000B4F850102A78214401EB0211B1F8042471
:103C7000C2F30902A1F8042401F204413E2808D944
:103C80004209C30600D1521E0B8847EA822208E08F
:103C900021E078B14208C30700D0521C0B8808EA23
:103CA000822213430B80697800293FF42EAF01294B
:103CB00009D010E00A8842F400420A80F3E70028A5
:103CC0007FF443AF3DE7B4F8502011192A7801EB97
:103CD0000211A1F80C04297834F821004BF68F72F8
:103CE000104080F4405040EA0A0024F821000020EF
:103CF000A8E50021A0F844104FF43F41A0F840107F
:103D0000002070470148FDF7BDB80000CC15002029
:103D1000B0F844007047000010B500EB42005C08AA
:103D200000F5806009D000BF30F8042B01F8012BAA
:103D3000120A01F8012B641EF6D1DA0701D00088BF
:103D4000087010BD0020704711B98021A0F84C10F8
:103D50000020704710B55B1C00EB42005B0800F5CB
:103D6000806009D011F8012B11F8014B42EA0422BE
:103D700020F8042B5B1EF5D110BDFEE7490050EA88
:103D8000C12018BF04204A0D18BF40F0010040F2C6
:103D9000FF72B2EB515F08BF40F00200012808BF7C
:103DA000052070470907090E002804DB00F1E02018
:103DB00080F80014704700F00F0000F1E02080F858
:103DC000141D70472DE9F0414F1E00EBC70104465A
:103DD000D1E9000115461E4637F006020DD02A46ED
:103DE000334600F0BDFC7F1E04EBC703D3E900237C
:103DF00000F066FA37F00602F1D1022F25D0042F29
:103E000013D0062F18BFBDE8F0812A46334600F0D4
:103E1000A7FCD4E90A2300F053FA2A46334600F0FF
:103E20009FFCD4E9082300F04BFA2A46334600F001
:103E300097FCD4E9062300F043FA2A46334600F003
:103E40008FFCD4E9042300F03BFA2A46334600F005
:103E500087FCD4E9022300F033FA2A46334600F007
:103E60007FFCD4E90023BDE8F04100F029BA01222B
:103E700001F087BA024A0020110701F082BA00005F
:103E800001FDFFFF2DE9F84F04460D4621F00040EB
:103E900000917349814211DC7249884201DC06D1EC
:103EA0002CB120462946BDE8F84FFFF7E0BF6E4829
:103EB000002DCCBF6D496E49BDE8F88F6D49814238
:103EC00011DD6D498142D8BF4FF0FF366DDD2046D0
:103ED0002946FFF753FF042808BFFFF7CBFF204612
:103EE0002946BDE8F88F6549654F25F000458142B8
:103EF00033DD6449814219DD002632464FF08043AC
:103F00002046294600F0DCF980468A4601222046F8
:103F1000294601F036FA00223B4600F047FE4246B1
:103F2000534600F089FA04460D463EE00126002281
:103F3000BA463B462046294600F0C2F980460F4665
:103F4000002253462046294600F030FE42463B46BA
:103F500000F072FA04460D4627E04B4981421BDD12
:103F6000DFF828A10226002253462046294600F009
:103F7000F7FB00223B4600F0A3F980460F460022E3
:103F800053462046294600F011FE42463B4600F0CB
:103F900053FA04460D4608E0032622462B4600202D
:103FA0003B4900F049FA04460D4622462B4610468E
:103FB000194600F0D5FB8B46824602460B4600F0C0
:103FC000CFFB07460246334888460B460621784415
:103FD000FFF7F8FE52465B4600F0C2FB82462E48D1
:103FE0008B463A46434605217844FFF7EBFE3A46B6
:103FF000434600F0B5FB02460B46002E504659469C
:104000000CDA00F05DF922462B4600F0A9FB01B066
:1040100022462B46BDE8F04F00F0D6BC00F050F928
:1040200022462B4600F09CFB1C4A7A4402EBC60356
:10403000D3E9002300F0BAFD22462B4600F0B6FD7E
:10404000174A7A4402EBC603D3E9002300F0BCFC14
:10405000009A002AB8BF81F00041BDE8F88F000047
:10406000000010440000F07F182D4454FB21F93F5C
:10407000FB21F9BF0000DC3F0000203E0000F33FC1
:104080000000F03F0000E63F008003400000F83FE2
:104090000000F0BFCE1400008C1400002A140000B1
:1040A000F2130000FEB50C4E002406F5197700BF90
:1040B00004EB440506EB850090E80E006846FCF72B
:1040C0006BF99DE80E0007EB8500641C80E80E008C
:1040D00064B2332CECDBFEBD200200200FB42DE9CE
:1040E000F05F9A4683460024204600F0B5FF204F3B
:1040F0000646394601F094F8394600F0CFFE814675
:10410000594600F0C1FF05463046394600F0C6FE6C
:104110008046514600F0B8FF294600F05DFE154E7E
:1041200004EB440746F8270048460B9900F0ACFF23
:10413000054640460E9900F0A7FF294600F04CFEC8
:1041400006EB8706706048460C9900F09DFF054617
:1041500040460F9900F098FF294600F03DFE641C90
:1041600064B2B060332CBFDBBDE8F01F5DF814FB18
:104170000000484220020020FCF7B8FAFEF740F9A0
:1041800000F048F8FDF7FEFCFDF71AFDFDF794FD81
:10419000FDF776FDFDF792FF074C084D084E094FDD
:1041A000224629463046FDF79DFF00213A46084643
:1041B000FDF798FFF4E700000000074300004842C5
:1041C0000000F0C100005C432DE9F04106460F46B7
:1041D00000F006FC041E0D4618BF0120284320F005
:1041E0000040C0F17F6000F1E040C00F0ED0301CF5
:1041F00018BF0120384320F00040C0F17F6000F17B
:10420000E040C00F04BF0120FCF75FF820462946BC
:10421000BDE8F08130B50F4885B0816941F00401F7
:10422000816180694FF4C05400F0040004900120C3
:10423000CDE90040022002900320074D039069461B
:104240002846FCF75FF9002221462846FCF73AFA97
:1042500005B030BD001002400008014021F00042CE
:10426000A2F16052B2F5801F01F0004328BFD2F1E5
:104270007F6C0BD95FEA001C43EAC20242EB50702C
:1042800018BF704728BF20F001007047B2F5801FAB
:10429000BCBF184670474FEA410C1CF5001F02D204
:1042A000084600F0B8BF70B500F004FB00000089BC
:1042B000FFF7F6BF4FF00040A0F580007047000008
:1042C00010B591EA030F48BF83F0004300F17684F4
:1042D000841A71EB030C05D2121943EB0C03001B7B
:1042E00061EB0C01DFF824E14FEA1154A4EB135CFD
:1042F0001EEA430F18BF9EEA445F73D023EA0E0301
:10430000DCF1200E21EA045143F4801332D322FA67
:104310000CFE10EB0E0023FA0CFE41EB0E01CCF16B
:10432000200E03FA0EFE10EB0E0051F10001B1F564
:10433000801FCCF1200E32D201EB045112FA0EF2A2
:10434000BDE8104058BF7047401C38BF5FEA4202CA
:1043500018BF7047002814BF20F0010041F1000190
:104360004FEA410313F5001F38BF7047A1F1C04168
:1043700000F0EEBA012A43EB0302ACF1200CDCF1B1
:104380001F0E32BF4FF0000E23FA0CF310EB0300A8
:1043900041EB0451B4EB115FD0D0A1EB045101F516
:1043A000801149085FEA300001EB04510ED350F14F
:1043B000000038BF12FA0EFE08D1BDE81040C9E770
:1043C000401C38BF5FEA4202CAD1C3E7BDE81040D3
:1043D0004FEA410313F5001F38BF7047A1F1C041F8
:1043E00000F0B6BA9EEA445F08D011EA5E0FBDE85D
:1043F000104004BF01F0004100207047BDE81040AC
:1044000070B500F057FA00BF64FBBE3E0000E0FF4D
:1044100002494FF0000000F082BF00BF0000F87FAB
:10442000491058BFC1F140415B1058BFC3F1404330
:104430008B42EFF3008070472DE9C04130B4DFF8C4
:10444000A0C23CEA111418BF3CEA131400F0EC803F
:1044500081EA03051CEA111444EAD57418BF1CEA6A
:10446000131500F0C780A4EB05044FF0004545EAA2
:10447000C12145EAC32341EA505143EA525304F1B2
:104480007F74994204F500344FEAC0204FEAC222FB
:1044900008BF904200F09C804FEA13650FF240166F
:1044A000765D4FEA134506FB05F7C7F1807706FBFB
:1044B00007F74FEAD737A7FB03687642C8F580387D
:1044C000A7FB06CE38BFA8F1010807FB08E64FF0AE
:1044D000000EA6FB028CE6FB03CEDCF1000CCEF155
:1044E000004E38BFAEF1010EA6FB0C584FF000078E
:1044F0004FF00005E6FB0E87A1FB08C6A0FB07CE28
:1045000016EB0E0645F10005E1FB076515F1E04EDF
:104510007EBFA4F580345FEA46066D4116F1800740
:1045200045F100054FEA17274FEA066647EA056797
:10453000A6F1DE46B6F1805F4FEA15251FD9384651
:1045400024F0010C05EBC471BCF1FE6F01EB0C1102
:1045500002D8F0BCBDE8008124425CBF01F5801E9A
:104560009EEAC47F02D4F0BCBDE80081244238D466
:10457000F0BCA1F1C041BDE8004100F0E9B94FEA4B
:10458000D22242EA43524FEAD323A7FB02864FEAE4
:10459000D02040EA415007FB03661EEA0E0F4FEAA7
:1045A000D12105FB026658BFA6EB0056B6EB0056BC
:1045B0004FEA520E4EEAC37E18EB0E0E56EB530E28
:1045C000BDD518EB02085E417F1C55F10005B6E72A
:1045D0004FF480154FF000074FF000064FF0000831
:1045E000ADE7F0BC4FF0000001F1C04101F0004127
:1045F000BDE8008111EA0C1F0CEA131500D00CE095
:1046000013EA0C1F00F025804FF00000F0BC81EA97
:10461000030101F00041BDE80081F0BCBDE80041AC
:1046200081EA030100F094B9F0BCBDE8004170B527
:1046300000F040F9097EFC3E00F007B881EA030172
:104640004FF0000001F00041704781EA030100F0E3
:104650007FB9F0BCBDE800414FF000002149704730
:10466000FFFDFBF9F7F5F4F2F0EEEDEBE9E8E6E437
:10467000E3E1E0DEDDDBDAD8D7D5D4D3D1D0CFCDBE
:10468000CCCBCAC8C7C6C5C4C2C1C0BFBEBDBCBBF7
:10469000BAB9B8B7B6B5B4B3B2B1B0AFAEADACABF2
:1046A000AAA9A8A8A7A6A5A4A3A3A2A1A09F9F9ECC
:1046B0009D9C9C9B9A99999897979695959493937E
:1046C000929191908F8F8E8E8D8C8C8B8B8A898915
:1046D0008888878786858584848383828281818098
:1046E0000000FF070000F87F51EA030C17D41CF507
:1046F000801F58BFBCF5801F00F10680994218BF8B
:10470000704708BF9042704707D711F5801F58BF08
:1047100013F5801F19D499427047894270471CF5E0
:10472000801F08D5BCF5801FF7D58B4218BF704796
:1047300008BF824270474FF4001C1CEB410F38BF8A
:104740001CEB430F01D28B42704770B500F0B2F8FA
:10475000922449004FF000514FF08053FFF760BEA4
:10476000DFF848C170B51CEA111E1EBF1CEA131504
:104770009EEA0C0F95EA0C0F00F06F8081EA0304AB
:1047800023EA4C134EEAD47E21EA4C1141F4801105
:1047900043F48013AE44A1FB024CA0FB0365AEF1D1
:1047A0007F7E361955EB0C05A1FB034C4CF1000341
:1047B000A0FB021C16EB0C06654153F100030942F5
:1047C00018BF46F0010613F4007F0BD14FEA033106
:1047D0004FEA0530340341EA155140EA16506FF0B4
:1047E00003020AE04FEAC3214FEAC520F40241EA7E
:1047F000555140EA56506FF0020202EB2E4201EB97
:10480000025585EACE710AD05FEA440C18BF24F045
:10481000004450F1000041F1000120EAD47040F260
:10482000FE7C624500D270BDA84214BF4FF08044A8
:104830004FF04044002E08BF0024BEF1806FA8BF97
:10484000A1F1C041BDE8704080F282804FF00000CD
:1048500001F1C04101F0004170479EEA0C0F0CEAE3
:10486000131518BF95EA0C0F06D04FF0000081EA2F
:10487000030E0EF0004170BD00F01CF88900013EEF
:1048800000F007B800F009B84FEA430C5FEA5C5C3F
:1048900008D081EA030100F05BB84FEA410C5FEAFF
:1048A0005C5CF6D14FF00000014970470000FF0743
:1048B0000000F87F0EF1020E2EF0030E5EF8046B7E
:1048C000364205D4012A43EB030515F5001F12D823
:1048D000012841EB010C1CF5001F0CD80ED14FEA4A
:1048E000D17C15F5001F0CEB4C0C0CF1020C08BF31
:1048F0004CEBD37C04E04FF0080C01E04FEAD37C92
:104900000CEB4C0526FA05F606F00706B6F1040C8A
:1049100006D20EEB860CBDE870404CF0010C6047EF
:10492000DFE80CF0090B02024FF000414FF00000ED
:10493000A1F5002170BD19461046012851EB010474
:1049400018BFD4F5001484BF002001F0004170BDF1
:104950000808A0F500114FEA3101704753EA010C35
:1049600017D41CF5801F58BFBCF5801F00F10680CE
:104970008B4218BF704708BF8242704707D713F5B4
:10498000801F58BF11F5801F19D48B4270479B427E
:1049900070471CF5801F08D5BCF5801FF7D59942DC
:1049A00018BF704708BF904270474FF4001C1CEBC3
:1049B000430F38BF1CEB410F01D2994270470FB42F
:1049C0000CBC03BCFFF7C1BE91EA030F10B581F028
:1049D00000413FF57DAC83F0004300F0EFB80000EC
:1049E0002DE9F04101F5801CBCF5001FC0F2C38029
:1049F0004FEA115C21EA0C510CF1FD0C41F48011DD
:104A00005FEA5C0C0CF5C07C01D3400049413DA439
:104A1000890241EA905187028E0E0A0CA45D04FBC4
:104A200004F602FB06F6C6F14046A4FB0662F60D4C
:104A300046EA422606FB06F4A4FB01235242C3F1D8
:104A4000404338BF5B1EA6FB02420024E6FB032462
:104A5000D20B42EA4446A6FB0623A1FB02E2A3FBDB
:104A600007E4A4184FF0000252F10002E3FB0142F8
:104A70006442C2F1404E38BFAEF1010EA6FB0423E2
:104A80004FF00002E6FB0E32A2FB03464FF000049B
:104A9000B61954F10004E2FB0264A1FB06E6A4FB94
:104AA00007E816EB08064FF0000858F10008E4FB91
:104AB00001687642C8F1405838BFA8F10108A2FB4E
:104AC00006E4A3FB08E52D194FF0000454F100049F
:104AD000E2FB0854A1FB05E6A7FB04E818EB060877
:104AE0004FF0000656F10006E1FB048618F12005A0
:104AF00056F10006A809A8F11B08B10908F03F0803
:104B0000B8F10A0F40EA86601CD901EB0C51BDE8F0
:104B1000F08100BFFCF5EEE8E2DDD8D3CFCBC7C310
:104B2000C0BDB9B6B4B1AEACA9A7A5A3A19F9D9BCA
:104B30009A9896959392908F8D8C8B89888786858D
:104B400084838281A0FB006800FB01F208EB42082D
:104B5000B8EB872807D5341858EB0104D5D5401C8D
:104B600051F10001D1E7341A78EB0104CDD4401E95
:104B700071F10001C9E75FEA4C0C5FEA9C5C0DD162
:104B800005D34FF0000001F00041BDE8F081BDE821
:104B9000F04170B5FFF78EFE6DDBFFBEBDE8F04162
:104BA0004FF00000004970470000F87F10B591EA0F
:104BB000030F48BF83F000433FF58AAB841A71EBC3
:104BC000030C07D212198CF0004C43EB0C03001BB2
:104BD00061EB0C01DFF8A4E14FEA1154A4EB135C84
:104BE0001EEA430F18BF9EEA445F00F0B08023EA3C
:104BF0006E03524221EA0451C3EB6E0338BF5B1EC1
:104C0000DCF1200E25D322FA0CFE10EB0E0043FA45
:104C10000CFE41EB0E01CCF1200E03FA0EFE10EB60
:104C20000E0051F10001CCF1200E29D412FA0EF23F
:104C300001EB0451BDE8104058BF7047401C1CBF39
:104C4000B2F1004F704700280CBF491C20F0010052
:104C5000704712EB020E43EB030218BF4FF0010E38
:104C60004EEA4202ACF1200CDCF11E0E54D943FA9C
:104C70000CFE10EB0E0051F1FF31CCF11E0ED5D51C
:104C80000EF1010E12FA0EFE404141EB010101EB63
:104C9000445C5FEA5C5C10D910EBDE7001EB045100
:104CA00038BFBEF1004FBDE8104018BF7047002864
:104CB0000CBF491C20F00100704730D24FEAD42CC1
:104CC00011F5001124F400641BD0B1FA81F20B3A03
:104CD000A41AA41ED2F12003914030FA03F3194321
:104CE000904001EBCC71002C01EB0451BDE8104069
:104CF000A8BF704701F1C0414FF0000001F0004132
:104D00007047B0FA80F310FA03F100D110BDE41A35
:104D1000173C4805C90AE4E701EB045110BD4910EE
:104D200001EB0451BDE810404FEA300002E04FF0C3
:104D3000000170474A0008BF0042F8D0B2F5001FDA
:104D400028BF704701F000414FF0000070479EEA15
:104D5000445F07D011EA5E0FBDE8104004BF002198
:104D600000207047BDE8104070B5FFF7A3FD00BFFD
:104D700040DFF63E83F00041104670470000E0FF40
:104D800043004FEAD30C4FEA3C0C43401FBF40079F
:104D90000CF1605113F0FE4F70471CF0006F03D10F
:104DA00000200CF0004170470CF0004343EA5070C3
:104DB00010B540EACC0000F0E8F900BF0000009216
:104DC0004FEA0001FFF7C4BD4FF000414FF0000073
:104DD000A1F500217047000090EA010F48BF81F063
:104DE000004100F12E82421A3CBF801A89184FEA16
:104DF000D0524FF07F4C1CEA410FA2EBD15318BFA9
:104E00009CEA026F00F03B804FF0004C4CEA00201F
:104E10004CEA012121FA03FC10EB0C0C1ED202F12A
:104E2000FF325FEA1C2040EBC25038BF70471CF0D5
:104E30007F0F4FEA400C18BFBCF17F4F38BF70475F
:104E4000C3F12003994008BF20F00100BCF17F4F5F
:104E500038BF7047A0F1C04000F0DDB94FEA3C0018
:104E6000000A40EBC25028BF1CF0FF0F4FEA400C75
:104E7000E6D018BFBCF17F4F38BF7047EAE79CEA25
:104E8000026F05D010EA5C0F08BF00F000407047C9
:104E900010B500F07AF900BF64FBBE3E4FF47F0C02
:104EA0001CEAD0121EBF1CEAD11392EA0C0F93EA3F
:104EB0000C0F00F0858090EA010F48BF42F4807229
:104EC00040F4000C41F400002CF07F4120F07F40C2
:104ED00000B58142A2EB03020FF2081CACEB504E6E
:104EE000C0F100009EF800E04FEA4E0E00FB0EFC01
:104EF00038BF49004FEA2C1C02F5FA020CFB0EF3F6
:104F00004FEACE1E4FEA112C4FEAC1210EEB635E31
:104F100042EB22420EFB0CFC4FEA1C5300FB031138
:104F20004FEA112C4FEA01310EFB0CFC4FEADC4C2E
:104F300000FB0C11C14228BF09184CEB03335DF88C
:104F400004EB10EB410143EBC250B2F57C0F38BFCC
:104F5000704729D512F0F00F1CBF00F1C04000F0DF
:104F600000407047008182838485868788898B8C86
:104F70008D8E8F919293959697999A9C9D9FA0A2C2
:104F8000A3A5A7A8AAACAEB0B2B3B5B7B9BCBEC012
:104F9000C2C5C7C9CCCED1D4D7D9DCDFE2E6E9ECB3
:104FA000F0F3F7FAFE0000004FEA400C0CF1807CB1
:104FB000BCF17E4F28BF7047B0F1C04000F02BB964
:104FC00090EA010F0CEAD11348BF42F480726245A7
:104FD00038BF634507D213F47F0F16D080EA010073
:104FE00000F00040704710B500F0CFF8097EFC3E9D
:104FF00000F005B880EA010000F00040704780EA48
:10500000010000F0004000F006B912F47F0F04BF69
:105010000248704780EA010000F0FDB80000C07F40
:1050200041000B0ED3F19E0208D950F400034FEA61
:10503000032323FA02F048BF4042704710B500F046
:10504000A4F800BF49922480002070476FF000420E
:1050500082EA20007047000010F0004148BF404243
:10506000B0FA80F310FA03F2C3F19D030BD051EABA
:10507000C35101EB1220530638BF704700F1010005
:1050800008BF20F0010070474FF47F0C1CEAD012DB
:105090001EBF1CEAD11392EA0C0F93EA0C0F00F02A
:1050A000478090EA010F48BF42F480724FF0004CF5
:1050B0004CEA00204CEA012102EB0302A0FB0113A1
:1050C000A2F50002002918BF43F001035B0028BFCE
:1050D0004FEA330342EB22425FEA132C4CEBC250FF
:1050E0002EBFBCEB436FB2F57C0F70474FEA036CE9
:1050F000BCF1004F08BF20F00100B2F57C0F38BFB3
:1051000070470BD582F0FF0212F5803FC8BF704791
:1051100000F1C040D8BF00F00040704700F5000C1F
:105120005FEA4C0C48BF7047B0F1C04000F073B864
:1051300090EA010F0CEAD11348BF42F48072624535
:1051400038BF634504D280EA010000F00040704798
:1051500010B500F01AF800BF8900013E00F007B852
:1051600000F009B85FEA410C5FEA1C6C08D080EAE5
:10517000010000F050B85FEA400C5FEA1C6CF6D109
:105180004FF00040A0F5800070470EF1020E2EF0A7
:10519000030E5EF8044B244204D44FEA4102B2F1FC
:1051A0007F4F11D84FEA4003B3F17F4F0CD80ED197
:1051B0004FEAD07CB2F17F4F0CEB4C0C0CF1020C9F
:1051C00008BF4CEBD17C04E04FF0080C01E04FEA43
:1051D000D17C0CEB4C0324FA03F404F00704B4F183
:1051E000040C06D20EEB840CBDE810404CF0010C10
:1051F0006047DFE80CF0070802024FF00040A0F51E
:10520000800010BD0846420018BFD2F1807288BFEE
:1052100000F0004010BDFF2141EAD050C0057047AA
:1052200080F0004090EA010F7FF5DDAD81F0004194
:1052300000F007B890EA010F48BF81F000413FF548
:10524000D2AD421A04D882F00042A0EB0200114411
:105250004FEAD0524FF07F4C1CEA410FA2EBD153E2
:1052600018BF9CEA026F4AD04FF0004C4CEA002075
:105270004CEA012121FA03FCB0EB0C0C0FD412F024
:10528000FE0F36D05FEA4C001DD5001240EBC25035
:1052900038BF70471CF03F0F18BF70470BE0A2F1FA
:1052A00001025FEA1C2040EBC25038BF70471CF07F
:1052B0007F0F18BF7047C3F12003994014BF401EF1
:1052C00020F00100704780084FEA122308BF7047A2
:1052D000B0FA80FCA2EB0C02CCF1280C60FA0CF0C6
:1052E00093EA122F04BF00EBC25070474FEAC3701D
:1052F0007047130A5FEADC1008BF7047F6E79CEAC4
:10530000026F04D010EA5C0F08BF0020704710B590
:10531000FFF73BFF40DFF63E81F0004070470CF0A6
:105320000F03092B08BF082000F059800A2B0BD06F
:10533000082B18BF704708BF1CF0400F0AD04FF071
:1053400000004FF0000170471CF0400F18BF4FF0F5
:10535000004070471CF0100F08D020F0704300F0A0
:105360007F4242EAD3014FEA4370704700F0604049
:1053700021F07F4242EA000201F07F4040EA727071
:1053800070474FF0FF0C4CF4E06C1CEA11531CBF4B
:105390009CEA030C9445C2BFDA4201EB025170470C
:1053A000002B0DD0BCF1000F0FD0002A01F00041FE
:1053B000A4BF41F0E04141F07F614FF00000704731
:1053C00001F000414FF00000704750EA01334FF008
:1053D0009B0C18BF4CF0806C7FF41AA870471CF42B
:1053E000801F11D01CF4E02F03D06FEACC314900AC
:1053F00070474FF04050EFF3008222F0704242EAD3
:10540000000282F3008870474FF0000070470102ED
:1054100002030405060708090A0B0C0D0E0F1010F5
:105420000000000000000000010203040607080954
:1054300000000000010203044FBB610567ACDD3FC3
:10544000182D4454FB21E93F9BF681D20B73EF3FAB
:10545000182D4454FB21F93FE2652F227F2B7A3C23
:10546000075C143326A6813CBDCBF07A8807703CDC
:10547000075C143326A6913CC4EB98999999C9BF4F
:10548000711623FEC671BCBF6D9A74AFF2B0B3BF84
:105490009AFDDE522DDEADBF2F6C6A2C44B4A2BF44
:1054A0000D5555555555D53FFF8300922449C23FB0
:1054B0006E204CC5CD45B73F513DD0A0660DB13FE4
:1054C000EB0D76244B7BA93F11DA22E33AAD903FF6
:1054D000F05400080000002090010000280100089E
:1054E000B055000890010020901F000084010008C2
:1054F000A1154842552A1B0885041A91041AB904BB
:105500001AE5041A35041A61041704030904120188
:1055100014020202164083044057260201020301CE
:10552000031A1A03135D031B0859041A55041A8140
:1055300004192F1182105324F4130A0632022A4050
:105540001C1C090243571125C03209041B01020B20
:105550001305241610010524011009010424020278
:10556000052406170107058203081C1009048D3263
:105570000A1D07050102432C070581070938442A43
:1055800040072A8107112B0907440A3B044413F9F9
:10559000271B08610413E12842081AA50C13ED2605
:1055A0001B083308C11AE1102AD51C19041AC904B2
:04000005080000ED02
:00000001FF
