:020000040800F2
:10000000E0070020D5010008CD1A0008DD1900081E
:10001000C91A0008D1040008511F000800000000A0
:10002000000000000000000000000000451F000864
:10003000D504000800000000D11A0008491F00087C
:10004000EF010008EF010008EF010008EF010008D0
:10005000EF010008EF010008EF010008EF010008C0
:10006000EF010008EF010008EF010008EF010008B0
:10007000EF010008EF010008EF010008EF010008A0
:10008000EF010008EF010008EF010008EF01000890
:10009000EF010008EF010008EF010008EF01000880
:1000A000EF010008EF010008EF010008EF01000870
:1000B000EF010008EF010008EF010008EF01000860
:1000C000EF010008EF010008EF010008EF01000850
:1000D000EF010008EF010008EF010008EF01000840
:1000E000EF010008EF010008EF010008EF01000830
:1000F000EF010008EF010008EF010008EF01000820
:10010000EF010008EF010008EF010008EF0100080F
:10011000EF010008EF010008EF010008EF010008FF
:10012000EF010008EF010008EF010008EF010008EF
:1001300000F002F800F03FF80AA090E8000C8244BA
:100140008344AAF10107DA4501D100F034F8AFF297
:10015000090EBAE80F0013F0010F18BFFB1A43F0A5
:1001600001031847881F0000A81F0000103A24BF91
:1001700078C878C1FAD8520724BF30C830C144BF0C
:1001800004680C607047000000230024002500264E
:10019000103A28BF78C1FBD8520728BF30C148BFEA
:1001A0000B607047782900F04980002070471FB528
:1001B0001FBD10B510BD00F050F91146FFF7F7FF55
:1001C00001F0C8FE00F06EF903B4FFF7F2FF03BCC4
:1001D00000F076F90948804709480047FEE7FEE746
:1001E000FEE7FEE7FEE7FEE7FEE7FEE7FEE7FEE7E7
:1001F00004480549054A064B704700004D1F00089A
:1002000031010008E0010020E0070020E0030020A9
:10021000E00300200FB41CB5074B06AA7B446946D7
:100220000090059800F001F90020694600F010F9EF
:100230001CBC5DF814FB00003102000070B50446E0
:100240000D4621461068AFF300802188090502D5CC
:100250000F4A7A4402E00E4A7A440E32002104F139
:10026000240305E000F00F060009965D5E54491C6A
:100270000028F7D120780023000704D5702D02D084
:1002800009B1022311322046BDE8704000F06EB87B
:10029000321E00002DE9F0410F4604460020DFF831
:1002A0008480F84420622046E168884790B325287E
:1002B00006D0D4E901219047206A401C2062F2E771
:1002C00000252046E16888472028064608DB312EB5
:1002D00006D208EB060010F8200C08B10543F0E741
:1002E000A80701D525F00405A6B1A6F141001928FB
:1002F00002D8203645F400653A463146204625604E
:10030000FFF750FF48B1012805D0FF1D27F0070770
:100310000837C8E703E03F1DC5E73046C9E7206A54
:10032000BDE8F0810A1E000010B5431C02E010F881
:10033000011B71B18107FAD14FF0013202C88C1A4A
:100340008C4314EAC211F9D0C01A0A0603D0C01EA9
:1003500010BDC01A10BD0A0401D0801E10BD0902D4
:10036000FCD0401E10BD7047704770472DE9F04724
:100370000D4699469246044600F124080168880615
:1003800004D5E06921F01001216000E00120A842BD
:1003900001DD471B00E00027A1697A1902EB090083
:1003A000081AA0612078C00602D42046AFF300806E
:1003B000002608E0D4E901211AF806009047206AD7
:1003C000401C761C20624E45F4DB2078C0060AD51E
:1003D0002046AFF3008006E0D4E9012130209047A9
:1003E000206A401C2062381EA7F10107F4DC07E0F8
:1003F000D4E9012118F805009047206A401C2062CA
:10040000281EA5F10105F3DC2046AFF3008020781B
:10041000000602D50220BDE8F0870120FBE70000BE
:1004200001694A1C02610878704700B58FB0CDE9B8
:1004300001310021059105497944CDE903101146A8
:100440006846FFF727FF0FB000BD0000E5FFFFFF84
:100450000A6802F8010B0A607047754600F02CF834
:10046000AE4605006946534620F00700854618B0A1
:1004700020B5FFF7BDFEBDE820404FF000064FF06D
:1004800000074FF000084FF0000BAC46ACE8C00985
:10049000ACE8C009ACE8C009ACE8C00921F007012C
:1004A0008D46704710B50446AFF300802046BDE886
:1004B0001040FFF789BE0000004870471000002080
:1004C00001491820ABBEFEE726000200704700007D
:1004D000FEE7000070470000EFF3108072B600BF27
:1004E000FEE700002DE9F04F82B0D1F800C0BCF16A
:1004F000000F00F0F180A0F1804241F60045A2F526
:100500008432C4F2010540F2004E4FEAB2240627BD
:10051000A842C4F2010E08BF0527052C4FF00004C5
:100520004FF001084FF00F034FF0000A4FF0000B9F
:1005300038BF4FEAB22700970AE000BFD1F800C0E9
:100540000AF1010A3CFA0AF204F1040400F0C48042
:1005500008FA0AF91CEA090FF0D04E684FF6FF724C
:10056000C1F21002964211DC122E55D8DFE806F0D7
:10057000340A4448545454545454545454545454C1
:10058000544C5000D1F80CB046E000BF4FF6FF725B
:10059000C1F2210296420FDC0022C1F21102964202
:1005A0001AD00022C1F21202964215D00022C1F2E6
:1005B0002102964210D02FE00022C1F22202964280
:1005C0000AD00022C1F23102964205D00022C1F2C7
:1005D0003202964220D100BF8A684AB1012A14BF74
:1005E000C0F81490C0F810904FF0080B14E000BF52
:1005F0004FF0040B10E000BFCA6802F1080B0BE0DB
:100600004FF0000B08E000BFCA6802F1040B03E0E2
:10061000CA6802F10C0B00BF22460646BAF1080F69
:1006200024BF203A0436376803FA02F5AF430BFAC9
:1006300002F23A433260CA79D2067FF57FAF41F2C7
:100640001807C4F202073A684FF6084342F0010265
:100650003A603A68CFF6FF7302F001020192019A04
:100660002AF0030272440F25D75804F00C06B54057
:10067000AF43009D05FA06F63743D7504E6840F267
:100680000C45F202DEF8082054BF22EA090242EAD1
:100690000902CEF80820C4F201052A68B70254BF47
:1006A00022EA090242EA09022A60DEF80420B703BE
:1006B00054BF22EA090242EA0902CEF804200F23BD
:1006C000DEF80020F70354BF22EA090242EA0902D9
:1006D000CEF8002032E700BF02B0BDE8F08F000086
:1006E000002A08BF090401617047000040F2DC10D5
:1006F000C2F200000068704740F2000040F2DC11D6
:10070000C2F20000C2F2000100780A6810440860DA
:100710007047000080B542F20000C4F20200016898
:1007200041F010010160032000F072F80F2000F08A
:1007300005F800F027F8002080BD000070B540F2F9
:100740000006C2F2000640F208013278C2F200014F
:100750004FF47A730968B3FBF2F20446B1FBF2F18D
:10076000084600F039FF0F2C4FF0010508D838B9C2
:100770004FF0FF3021460022002500F01DF8746084
:10078000284670BD82B041F21800C4F20200016830
:1007900041F001010160016801F00101019101993D
:1007A000416841F080514160406800F08050009005
:1007B000009802B07047000010B54EF60C5CCEF207
:1007C000000CDCF80030C3F3022E8EF00704042C7A
:1007D00028BF0424BEF103034FF0FF3E0EFA04F4D9
:1007E00038BF0023A14399400EFA03F39A43114303
:1007F00000F00F0200F160430901043A03F564437D
:100800006244002848BF02F10C03197010BD0000BB
:100810004EF60C51CEF200010A684FF6FF031A4063
:1008200060F30A2242F0806040F0FD70086070477B
:100830002DE9F04381B0002800F0858042F20008E5
:10084000C4F202080446D8F800000D4600F0070084
:1008500088420CD2D8F8000020F007002843C8F8DE
:100860000000D8F8000000F00700A8426BD1206813
:1008700041F204098107C4F2020917D5410705D5E1
:10088000D9F8001041F4E061C9F80010010705D55E
:10089000D9F8001041F46051C9F80010D9F80010DF
:1008A000A26821F0F0011143C9F80010C00741D13E
:1008B000D8F8000000F00700A8420CD9D8F80000D2
:1008C00020F007002843C8F80000D8F8000000F026
:1008D0000700A84237D12068410707D5D9F8001092
:1008E000E26821F4E0611143C9F80010000708D55F
:1008F000D9F80000216920F4605040EAC100C9F82D
:100900000000D9F8002002F00C00082841F2002075
:10091000C0F27A0050D142F2DB03C2F38341C0F649
:100920000003595CD2033BD440F60010C0F23D00F6
:10093000484341E0606802280AD001282AD159F8CA
:10094000041C890308D4012001B0BDE8F08300BF76
:1009500059F8041C8901F6D5D9F8001021F00301DB
:100960000843C9F80000FFF7C1FE064641F2883788
:10097000D9F80000616800F00C00B0EB810F97D04F
:10098000FFF7B4FE801BB842F2D9032001B0BDE8E6
:10099000F08300BF59F8041C8907D4D5DCE700BFF9
:1009A000D9F8002042F2D903C2F34042C0F6000356
:1009B0009A5C4843B0FBF2F0D9F8001042F2C10251
:1009C000C1F30311C0F60002515C40F2080220FAA4
:1009D00001F140F20400C2F200000068C2F200021D
:1009E0001160FFF7ABFE002001B0BDE8F08300000E
:1009F00040F2080041F20401C2F20000C4F2020118
:100A00000068096842F2D102C1F30221C0F6000277
:100A1000515CC8407047000040F2080041F20401F8
:100A2000C2F20000C4F202010068096842F2D10279
:100A3000C1F3C221C0F60002515CC84070470000FB
:100A40002DE9F04182B0002868D00446007841F2D8
:100A50000006C007C4F2020625D0706800F00C0042
:100A600004281BD0706800F00C00082802D17068C0
:100A7000C00313D46068002800F06881B0F5A02F8F
:100A800000F07C81B0F5803F00F07C81306820F47C
:100A900080303060306820F4802076E13068800358
:100AA00001D56068D0B32078800718D5706810F041
:100AB0000C0F07D0706800F00C0008286ED1706829
:100AC000C0036BD43068800702D52069012825D186
:100AD0003068616920F0F80040EAC1003060207899
:100AE00000071FD42078400732D4E56995B17068BB
:100AF00000F00C00082840F08F80012D0ED07068A7
:100B0000216A00F480328A4208D1616A00F47010D0
:100B1000884203D1002002B0BDE8F081012002B07C
:100B2000BDE8F081A069002862D00020C4F2422014
:100B30000121C0F88014FFF7D9FD0546706A8007CF
:100B400000F18C80FFF7D2FD401B0228F6D92AE184
:100B5000F06910F0805808D1F06940F08050F061E1
:100B6000F06900F080500090009847F20007C4F24E
:100B700000073868C00529D4386840F480703860B0
:100B8000FFF7B4FD054600BF3868C0051ED4FFF767
:100B9000ADFD401B6428F7D905E100BF206900289E
:100BA00040F20000C4F2422000F082800121016086
:100BB000FFF79CFD054600BF306880073FF588AF12
:100BC000FFF794FD401B0228F6D9ECE0E06800280E
:100BD00000F08080052800F09780012800F09880C0
:100BE000306A20F001003062306A20F0040092E0A8
:100BF0000020C4F242200021C0F88014FFF776FDE7
:100C0000054600BF706A80077FF56CAFFFF76EFD89
:100C1000401B0228F6D9C6E00027C4F24227002074
:100C20003866FFF763FD022D05460BD13068800161
:100C300040F1BE80FFF75AFD401B02284FF0030031
:100C4000F4D968E7306880017FF564AFFFF74EFDA7
:100C5000401B02284FF00300F4D95CE740F2080083
:100C6000C2F20000006844F6D351C1F26201A0FB59
:100C70000101480A019000BF00BF0198411E0028F1
:100C800001913FF42FAF00BF0198411E0028019150
:100C90003FF428AF00BF0198411E002801913FF4A6
:100CA00021AF00BF0198411E00280191E4D119E74E
:100CB00000210160FFF71AFD054600BF306880077C
:100CC0007FF50DAFFFF712FD401B02284FF0030028
:100CD000F4D920E7306A20F001003062306A20F059
:100CE00004003062FFF702FD054641F2883700BF7D
:100CF000306A800720D5FFF7F9FC401BB8424FF05F
:100D00000300F5D907E700BF306A40F00400306205
:100D1000306A40F001003062FFF7E8FC054641F21E
:100D2000883700BF306A800706D4FFF7DFFC401B1E
:100D3000B842F7D937E000BFB8F1000F7FF4D5AE65
:100D4000F06920F08050F061CFE600BF306820F4F9
:100D500080303060306820F480203060FFF7C6FCBF
:100D6000054600BF306880037FF59DAEFFF7BEFCEF
:100D7000401B64284FF00300F4D9CCE6306840F4FF
:100D800080203060306840F480303060FFF7AEFC87
:100D9000054600BF306880033FF585AEFFF7A6FC2F
:100DA000401B6428F6D9032002B0BDE8F08100BFE3
:100DB000206AB0F5803F05D17168A26821F4003146
:100DC000114371607168626A21F474111143084320
:100DD000706001203866FFF789FC044630688001A6
:100DE0003FF598AEFFF782FC001B02284FF003008E
:100DF000F4D990E670B538B10446406A30B10020AD
:100E0000206104F1140007E0012070BD6068B0F5B6
:100E1000827F03D004F11C00002101600026A6623D
:100E200094F8510020B9204684F8506000F038F85A
:100E3000022084F8510094E8071001F482710368DD
:100E400002F4044223F040030360236911440CF4CC
:100E50000062114403F002026369114403F00102CD
:100E6000A369E569114403F40072114405F03802E6
:100E7000256A114405F08002A56A114305F4005269
:100E800011430160042101EA13414160C16921F469
:100E90000061C1610120666584F85100304670BD73
:100EA00070B586B040F60044C4F201040068A4F5B1
:100EB000544100268842049602D006B070BD00BF9F
:100EC00041F21800C4F20200416802AD41F48041D1
:100ED0004160416801F4804101910199016841F04C
:100EE000080101600068294600F00800019001989F
:100EF0004FF42040029002200390032005902046EA
:100F0000FFF7F0FA4FF48040CDE90206204629466B
:100F10000496FFF7E7FA06B070BD00002DE9F04334
:100F200081B0044690F85100012811D160689946BB
:100F300016460D46B0F5827F01D1A068D0B194F875
:100F40005000012806D10227384601B0BDE8F083E1
:100F5000022708E0012784F85070FFF7C7FB002D37
:100F600018BF002E14D1002084F85000384601B07C
:100F7000BDE8F083042084F85100204629462A4623
:100F80003346CDF8009000F0BFF901B0BDE8F08322
:100F900080460420002184F851006165A563A6877E
:100FA000E6872163A186E186A2682068B2F5004F3A
:100FB0002164616440D1016821F040010160016851
:100FC00021F4804101600168490638D5E168E08F6D
:100FD00000293CD000286BD019F101000BD11AE098
:100FE000C068A16B21F8020BA163E08F0138E08794
:100FF000E08F00285CD020688168C907F0D1FFF736
:1010000075FBA0EB08004845F2D33AE0FFF76EFB12
:10101000E08F00284CD020688168C907F6D0C068EE
:10102000A16B21F8020BA163E08F0138E087E08F0C
:101030000028F0D13CE000BF01684906C6D4016831
:1010400041F040010160E168E08F0029C2D178B32E
:1010500019F101000BD11BE0007BA16B0870A06BA4
:101060000130A063E08F0138E087E08F00B3206893
:101070008168C907F0D1FFF739FBA0EB08004845AC
:10108000F3D303273DE000BFFFF730FBE08F78B1DB
:1010900020688168C907F7D0007BA16B0870A06B3E
:1010A0000130A063E08F0138E087E08F0028EFD1A6
:1010B0006068B0F5827F11D1A068B0F5004F02D012
:1010C000B0F5806F0AD12168B0F5806F0A6822F010
:1010D00040020A6002D12046012101E02046802121
:1010E0004A46434600F0BCFE28B1606D40F0200047
:1010F000606520206065606D10B1012733E700BF97
:101100000027012084F851002DE700002DE9F0416F
:1011100082B0044690F85000012803D1022002B0AA
:10112000BDE8F08101201D4616460F4684F85000A8
:10113000FFF7DCFA94F8511001290DD18046002FF9
:101140004FF0010018BF002E0ED1002184F850107E
:1011500002B0BDE8F08100BF0220002184F85010E9
:1011600002B0BDE8F08100BF0320002184F85100E7
:1011700061652763A686E686A163A187E187A068EB
:101180002164B0F5004F2068616407D1016821F047
:1011900040010160016841F4804101600168490635
:1011A00003D4016841F0400101606168731EE26888
:1011B000B1FA81F1B3FA83F349095B09B2F5006F23
:1011C00041EA03013CD131B137F8021BC16027630A
:1011D000E08E0138E086E08E00286BD0681C0CD1D0
:1011E0001DE000BF216B31F8022BC2602163E08E4D
:1011F0000138E086E08E00285CD02068816889078D
:10120000F0D4FFF773FAA0EB0800A842F2D3032052
:1012100071E000BFFFF76AFAE08E00284AD020682C
:1012200081688907F6D5216B31F8022BC2602163F2
:10123000E08E0138E086E08E0028F0D13AE000BF71
:1012400039B139780173206B01302063E08E0138A9
:10125000E086E08E70B3681C0BD11BE0216B09782F
:101260000173206B01302063E08E0138E086E08E50
:1012700000B3206881688907F0D4FFF737FAA0EB44
:101280000800A842F3D3032035E000BFFFF72EFA91
:10129000E08E78B1206881688907F7D5216B0978DD
:1012A0000173206B01302063E08E0138E086E08E10
:1012B0000028EFD1204680212A46434600F0D0FD89
:1012C00028B1606D40F02000606520206065A06856
:1012D00038B9002001902068C168019180680190B0
:1012E0000198606D30B10120002184F8501002B0E7
:1012F000BDE8F0810020012184F85110002184F81C
:10130000501002B0BDE8F0812DE9F04381B00446F1
:1013100090F85000012803D1022001B0BDE8F0830D
:1013200001201E4615460F4684F85000FFF7DEF9EF
:1013300094F851108146012912D06068B0F5827F7F
:1013400040F0A480A06800284FF0020008BF0429E4
:1013500006D0002184F8501001B0BDE8F08300BF32
:10136000002F4FF0010018BF002DF2D0002EF0D05A
:1013700094F85100002104281CBF052084F8510076
:101380006165A563E687A6872763E6862068A6864B
:10139000216461640168490603D4016841F0400199
:1013A00001606168731EE268B1FA81F1B3FA83F3F8
:1013B000DDF8208049095B09B2F5006F41EA0301BD
:1013C0006CD131B137F8021BC1602763E08E013860
:1013D000E086012518F1010031D101E0FFF786F91F
:1013E000E08E18B9E08F002800F0C0802068816886
:1013F00089070CD5E18E51B1012D08D1216B002553
:1014000031F8022BC2602163E18E0139E1868168E7
:10141000C907E3D0E18F0029E0D0C068A16B0125A6
:1014200021F8020BA163E08F0138E087D6E700BF07
:10143000FFF75CF9A0EB0900404580F0AB80E08E3F
:1014400018B9E08F002800F0918020688168890732
:101450000CD5E18E51B1012D08D1216B002531F859
:10146000022BC2602163E18E0139E1868168C907E0
:10147000DED0E18F0029DBD0C068A16B012521F807
:10148000020BA163E08F0138E087D1E70220002141
:1014900084F8501001B0BDE8F08300BF39B139784D
:1014A0000173206B01302063E08E0138E086012556
:1014B00018F1010032D101E0FFF718F9E08E10B900
:1014C000E08F002852D02068816889070ED5E18E10
:1014D00061B1012D0AD1216B002509780173216BBF
:1014E000206801312163E18E0139E1868168C907F5
:1014F000E2D0E18F0029DFD0C068A16B0125087020
:10150000A06B0130A063E08F0138E087D4E700BF13
:10151000FFF7ECF8A0EB090040453BD2E08E08B99C
:10152000E08F18B32068816889070ED5E18E61B11C
:10153000012D0AD1216B002509780173216B2068E8
:1015400001312163E18E0139E1868168C907DFD06D
:10155000E18F0029DCD0C068A16B01250870A06B69
:101560000130A063E08F0138E087D1E72046802179
:1015700042464B4600F074FCB0B1606D40F0200074
:101580006065202060650120002184F8501001B0C2
:10159000BDE8F083012084F851000320002184F885
:1015A000501001B0BDE8F083A06838B90020009069
:1015B0002068C1680091806800900098606D0028E4
:1015C0004FF0010004BF84F851000020002184F88E
:1015D000501001B0BDE8F083411E0020B0EB116F48
:1015E0001CBF012070474EF21002CEF20002516083
:1015F0004EF62351CEF20001F0230B7007219060CC
:1016000011607047002804BF0120704710B50446E0
:1016100090F8410028B9002084F84000204600F0EE
:1016200063F8242084F841002068D4E90212C368DA
:1016300023F40053C360036923F440531A43026147
:10164000D4E904231143C268194341F20C639A435D
:101650001143C1604169A26921F44071114343F60D
:101660000002C4F201029042416103D0FFF7C0F9C9
:1016700002E000BFFFF7D0F96268192148439100EA
:10168000B0FBF1F048F21F51C5F2EB11A0FB0123B2
:101690005A094FF69C73C0F6FF7302FB0300322316
:1016A00003EB0010A0FB0101F02303EA51132068B3
:1016B00003EB0212C1F3431111448160016921F46B
:1016C00090410161416921F02A014161C16841F401
:1016D0000051C16000202021606484F8411084F82A
:1016E0004210606310BD000070B586B040F6000483
:1016F000C4F20104006804F54051002688420496B3
:1017000002D006B070BD00BF41F21800C4F2020062
:10171000016802AD41F480410160016801F480413B
:1017200001910199016841F00401016000682946B6
:1017300000F00400019001984FF400700290022024
:101740000390032005902046FEF7CCFE4FF4806006
:10175000CDE90206204629460496FEF7C3FE06B0F0
:1017600070BD00002DE9F04381B0044690F84100BF
:10177000202840F0B180884600294FF0010000F099
:10178000D6801646002A00F0D28000206064212016
:101790001D4684F84100FEF7A9FFA684E684A168EF
:1017A0000646B1F5805F03D12069002800F09880DB
:1017B00047464FF00008E18C2068002900F0968031
:1017C00005F101090BE000BF47B317F8011B4160A9
:1017D000E18C0139E184E18C002900F08780016807
:1017E0000906F1D4B9F1000F0AD0EDB1FEF77EFF82
:1017F000801BA84218D8206801680906F6D5E3E7DF
:1018000001680906E0D4016809065CBF01685FEA67
:101810000161D9D401680906F2D5D5E738F8021B71
:1018200000276FF35F21D2E7206850E8030F21689B
:1018300020F4D07041E80302BAB3206850E8030FE7
:10184000216820F4D07041E8030272B3206850E8A8
:10185000030F216820F4D07041E803022AB3206806
:1018600050E8030F216820F4D07041E80302002AF9
:10187000DAD11AE0206850E8050F216820F0010055
:1018800041E80502DAB1206850E8050F216820F030
:10189000010041E8050292B1206850E8050F216877
:1018A00020F0010041E805024AB1206850E8050F28
:1018B000216820F0010041E80502002ADAD1202049
:1018C00084F8410084F84200002084F8400003209E
:1018D00001B0BDE8F08300BF022001B0BDE8F08395
:1018E0000027E18C206800297FF46AAF016849066F
:1018F00019D4FDB1691C0DD10168490613D40168E2
:1019000049065CBF01685FEA41610CD40168490681
:10191000F2D508E0FEF7EAFE801BA8420AD820684C
:1019200000684006F6D5202084F84100002001B070
:10193000BDE8F083206850E8030F216820F4D070E0
:1019400041E80302002A3ED0206850E8030F2168D6
:1019500020F4D07041E80302AAB3206850E8030FD6
:10196000216820F4D07041E8030262B3206850E897
:10197000030F216820F4D07041E80302002AD9D176
:1019800021E000BF206850E8050F216820F0010029
:1019900041E80502002A3FF492AF206850E8050FA5
:1019A000216820F0010041E80502002A3FF487AFDA
:1019B000206850E8050F216820F0010041E8050289
:1019C000002A3FF47CAF206850E8050F216820F022
:1019D000010041E80502002AD4D170E7FEE70000CB
:1019E00070B584B041F21800C4F20200016840F6FC
:1019F000004441F0080101600168C4F2010401F0F3
:101A00000801009100990168002241F00401016081
:101A100000684FF4805100F00400009000982046C8
:101A20004FF480550026FEF75BFE0120CDE901064C
:101A300002200390694620460095FEF753FD04B04E
:101A400070BD000080B540F2D80043F60001C2F23C
:101A50000000C4F200014FF4827200234FF4007CB6
:101A600080E80E000A21C0E90333C0E9053CC361E8
:101A7000C0E90833C0E90A31FFF7BCF9002808BF04
:101A800080BDBDE88040FEF727BD000080B540F274
:101A9000301043F60001C2F20000C4F2010100233D
:101AA0004FF00C0C4FF4E13280E80E00C0E9033334
:101AB000C0E905C3C361FFF7A5FD002808BF80BDCD
:101AC000BDE88040FEF708BDFEE70000FEE700002D
:101AD000704700002DE9F04383B040F60044C4F2A3
:101AE000010420464FF480510022FEF7F9FD40F238
:101AF000D8050620C2F200058DF806000DF106019A
:101B0000284601221423FFF701FB20464FF48051A1
:101B10000122FEF7E5FD4FF005080DF1070902AFC0
:101B200020464FF480510022FEF7DAFD2846494650
:101B3000012214238DF80780FFF7E8FA284639467A
:101B400001221423FFF7EAF99DF8086020464FF4BC
:101B500080510122FEF7C4FDF007E1D120464FF489
:101B600080510022FEF7BCFD40F2D805C720C2F22A
:101B700000058DF809000DF1090128460122142302
:101B8000FFF7C4FA20464FF480510122FEF7A8FD6A
:101B90004FF005080DF10A090DF10B0720464FF42F
:101BA00080510022FEF79CFD28464946012214235D
:101BB0008DF80A80FFF7AAFA284639460122142335
:101BC000FFF7ACF99DF80B6020464FF480510122DD
:101BD000FEF786FDF007E1D103B0BDE8F083000019
:101BE0002DE9F04182B040F60048C4F201081646E3
:101BF0000D46074640464FF480510022FEF770FD27
:101C000040F2D8040320C2F200048DF803000DF165
:101C10000301204601221423FFF778FA380C8DF8CF
:101C2000040001A9204601221423FFF76FFA380AA5
:101C30008DF805000DF10501204601221423FFF760
:101C400065FA0DF106012046012214238DF8067075
:101C5000FFF75CFA95B140F2D804771EC2F2000497
:101C60000DF107062046314601221423FFF756F9ED
:101C70009DF80700013D07F8010FF3D140464FF4EE
:101C800080510122FEF72CFD02B0BDE8F08100007A
:101C900070B582B040F60044C4F2010420464FF40F
:101CA000805100220026FEF71BFD40F2D80590204F
:101CB000C2F200058DF802000DF102012846012252
:101CC0001423FFF723FA0DF1030128460122142300
:101CD0008DF80360FFF71AFA01A9284601221423A0
:101CE0008DF80460FFF712FA0DF105012846012274
:101CF00014238DF80560FFF709FA0DF10601284657
:101D000001221423FFF70AF99DF806600DF107017F
:101D1000284601221423FFF701F99DF807004FF42C
:101D2000805140EA062520460122FEF7D9FCA8B2E0
:101D300002B070BD2DE9F04383B040F60049C4F213
:101D4000010990460D46074648464FF4805100224F
:101D5000FEF7C6FC40F2D8060620C2F200068DF857
:101D6000040001A9304601221423FFF7CFF94846A9
:101D70004FF480510122FEF7B3FC48464FF48051E6
:101D80000022FEF7ADFC02208DF805000DF10501E3
:101D9000304601221423FFF7B9F9380C8DF80600FC
:101DA0000DF10601304601221423FFF7AFF9380A7E
:101DB0008DF807000DF10701304601221423FFF7CB
:101DC000A5F902A93046012214238DF80870FFF707
:101DD0009DF99DB140F2D806A8F10104C2F20006B7
:101DE0000DF1090714F8010F39468DF80900304646
:101DF00001221423FFF78AF9013DF3D148464FF43D
:101E000080510122FEF76CFC40F2D8054FF0050826
:101E1000C2F200050DF10A060DF10B0748464FF41A
:101E200080510022FEF75CFC284631460122142333
:101E30008DF80A80FFF76AF92846394601221423F3
:101E4000FFF76CF89DF80B4048464FF48051012293
:101E5000FEF746FCE007E1D103B0BDE8F0830000E7
:101E60002DE9F04182B01E4690460D460446FEF72D
:101E70003DFC301A00EB0807FEF738FC40F2080181
:101E8000C2F200010968C1F3CB31794301912168A5
:101E90008A682A40AA4227D1064618F101001FD0BD
:101EA000FEF724FC801BB84222D201980199002839
:101EB000A1F1010101912168896808BF074601EA83
:101EC0000500A842ECD00FE088682840A8420BD15A
:101ED00088682840A84207D188682840A84203D1D2
:101EE00088682840A842EFD0002002B0BDE8F08109
:101EF000D4E900014268B1F5827F22F0E00242603D
:101F00000AD1A168B1F5004F02D0B1F5806F03D1BD
:101F1000016821F040010160A16AB1F5005F07D1BD
:101F2000016821F400510160016841F40051016031
:101F3000012084F85100002084F85000032002B0F2
:101F4000BDE8F08170470000FEF7D6BB7047000087
:101F5000FEE7000090B0FEF7DDFB00240120CDE994
:101F60000B44CDE9094406900A904FF4E0104FF479
:101F7000803102250F9006A8CDE90714CDE90D5157
:101F8000FEF75EFD20B1EFF3108072B6FEE700BFF2
:101F90000F20CDE901054FF48060CDE9040401A8CC
:101FA00002210394FEF744FC20B1EFF3108072B6D7
:101FB000FEE700BFFFF714FDFFF744FDFFF766FDE6
:101FC000FFF766FE40F27006C2F20006B51C02463C
:101FD00030802AA12846FEF71DF92846FEF7A4F90D
:101FE00040F23014C2F2000482B220462946322365
:101FF000FFF7B8FBFFF76EFD0020B07246F26540B8
:10200000C0F62E20C6F8060047F24520C7F2613020
:10201000C6F802002846FEF787F982B22046294614
:102020003223FFF79FFB44F24410C4F25410C6F869
:10203000020042F64160C0F20A00C6F805002846D8
:10204000FEF772F981B200202A46FFF773FE284698
:10205000FEF76AF940F27815C2F2000581B200205D
:102060002A46FFF7BDFD2846FEF75EF982B22046FC
:1020700029463223FFF776FBFEE700BF49443A309A
:10208000782530780A000000303132333435363765
:1020900038394142434445464030580030313233AC
:1020A00034353637383961626364656640307800AC
:1020B0000400000800000000000000020001000011
:1020C00010000000000000000001020304060708E1
:1020D00009000000000102030401020203040506D6
:1020E0000708090A0B0C0D0E0F1010001021000834
:1020F00000000020100000006C01000820210008F2
:1021000010000020D0070000880100080000000037
:1021100001000000100000000024F4000000000096
:0400000508000131BD
:00000001FF
