:020000040800F2
:1000000078070020D5010008091E000831180008F3
:10001000051E0008C50500081D1E000800000000A0
:10002000000000000000000000000000111E000899
:10003000C9050008000000000D1E0008151E00087C
:10004000EF010008EF010008EF010008EF010008D0
:10005000EF010008EF010008EF010008EF010008C0
:10006000EF010008EF010008EF010008EF010008B0
:10007000EF010008EF010008EF010008EF010008A0
:10008000EF010008EF010008EF010008EF01000890
:10009000EF010008EF010008EF010008EF01000880
:1000A000EF010008EF010008EF010008EF01000870
:1000B000EF010008EF010008EF010008EF01000860
:1000C000EF010008EF010008EF010008EF01000850
:1000D000EF010008EF010008EF010008EF01000840
:1000E000EF010008EF010008EF010008EF01000830
:1000F000EF010008EF010008EF010008EF01000820
:10010000EF010008EF010008EF010008EF0100080F
:10011000EF010008EF010008EF010008EF010008FF
:10012000EF010008EF010008EF010008EF010008EF
:1001300000F002F800F03FF80AA090E8000C8244BA
:100140008344AAF10107DA4501D100F034F8AFF297
:10015000090EBAE80F0013F0010F18BFFB1A43F0A5
:1001600001031847181E0000381E0000103A24BF73
:1001700078C878C1FAD8520724BF30C830C144BF0C
:1001800004680C607047000000230024002500264E
:10019000103A28BF78C1FBD8520728BF30C148BFEA
:1001A0000B607047782900F07180002070471FB500
:1001B0001FBD10B510BD00F0CAF91146FFF7F7FFDB
:1001C00001F02EFE00F0E8F903B4FFF7F2FF03BCE4
:1001D00000F0F0F90948804709480047FEE7FEE7CC
:1001E000FEE7FEE7FEE7FEE7FEE7FEE7FEE7FEE7E7
:1001F00004480549054A064B70470000191E0008CF
:1002000031010008780100207807002078030020E1
:10021000780300200FB41CB5074B06AA7B4469463F
:100220000090059800F07BF90020694600F08AF9FB
:100230001CBC5DF814FB00002503000070B50446EB
:1002400085690068C10601D5302600E02026C00778
:1002500007D070BDD4E9012130469047206A401C88
:1002600020626D1EF6D570BD70B5044685690078B4
:10027000C00707D170BDD4E9012120209047206A32
:10028000401C20626D1EF6D570BD000070B504469E
:100290000D4621461068AFF300802188090502D57C
:1002A0000F4A7A4402E00E4A7A440E32002104F1E9
:1002B000240305E000F00F060009965D5E54491C1A
:1002C0000028F7D120780023000704D5702D02D034
:1002D00009B1022311322046BDE8704000F0C0B8D9
:1002E000701C00002DE9F05F894604464FF0000ABB
:1002F000DFF824B1FB44C0F820A02046E16888471D
:1003000000287DD0252806D0D4E901219047206A15
:10031000401C2062F1E700255F462046E1688847DF
:100320002028064607DB312E05D2B81910F8200C1C
:1003300008B10543F1E7A80701D525F00405C4F885
:100340001CA00027C4F818A02A2E09D0304601F0BE
:10035000DBFD38B304EB8708303EC8F8186019E0BD
:1003600059F8041B204604EB87029161E168884735
:10037000012F064618D1E069002820DA25F0200573
:100380001DE0D8F8180000EB800006EB4000303884
:10039000C8F818002046E1688847064601F0B4FD19
:1003A0000028EED1012F0AD02E2E08D12046E16878
:1003B00088477F1C0646022F45F02005C4DBA06954
:1003C000002803DA404245F00105A061E80701D0AA
:1003D00025F01005A6B1A6F14100192802D8203653
:1003E00045F400654A463146204625604D46FFF7F4
:1003F000D9FE60B1012807D0ED1D25F0070000E00F
:1004000007E000F1080978E705F1040975E73046CF
:100410007AE7206ABDE8F09F461C000010B5431C37
:1004200002E010F8011B71B18107FAD14FF00132DF
:1004300002C88C1A8C4314EAC211F9D0C01A0A06F9
:1004400003D0C01E10BDC01A10BD0A0401D0801E0A
:1004500010BD0902FCD0401E10BD704770477047A8
:100460002DE9F0470D4699469246044600F12408CE
:100470000168880604D5E06921F01001216000E0E0
:100480000120A84201DD471B00E00027A1697A197D
:1004900002EB0900081AA0612078C00602D42046A9
:1004A000FFF7CCFE002608E0D4E901211AF8060087
:1004B0009047206A401C761C20624E45F4DB207871
:1004C000C0060AD52046FFF7B9FE06E0D4E90121AF
:1004D00030209047206A401C2062381EA7F1010797
:1004E000F4DC07E0D4E9012118F805009047206A00
:1004F000401C2062281EA5F10105F3DC2046FFF711
:10050000B3FE2078000602D50220BDE8F087012066
:10051000FBE7000001694A1C02610878704700B5DA
:100520008FB0CDE901310021059105497944CDE92C
:10053000031011466846FFF7D5FE0FB000BD00005E
:10054000E5FFFFFF0A6802F8010B0A607047754675
:1005500000F02CF8AE4605006946534620F007002F
:10056000854618B020B5FFF743FEBDE820404FF0A8
:1005700000064FF000074FF000084FF0000BAC46AC
:10058000ACE8C009ACE8C009ACE8C009ACE8C009F7
:1005900021F007018D46704710B50446AFF3008087
:1005A0002046BDE81040FFF70FBE0000004870472E
:1005B0001000002001491820ABBEFEE72600020013
:1005C00070470000FEE7000070470000EFF3108066
:1005D00072B600BFFEE70000B0B5044600F00EF9A9
:1005E000054640F20000C2F200000078611C18BF0E
:1005F000044400BF00F002F9401BA042FAD3B0BD92
:100600002DE9F04F82B0D1F800C0BCF1000F00F02E
:10061000F180A0F1804241F60045A2F58432C4F297
:10062000010540F2004E4FEAB2240627A842C4F268
:10063000010E08BF0527052C4FF000044FF00108FC
:100640004FF00F034FF0000A4FF0000B38BF4FEA96
:10065000B22700970AE000BFD1F800C00AF1010AF2
:100660003CFA0AF204F1040400F0C48008FA0AF922
:100670001CEA090FF0D04E684FF6FF72C1F210026B
:10068000964211DC122E55D8DFE806F0340A4448B1
:10069000545454545454545454545454544C50007A
:1006A000D1F80CB046E000BF4FF6FF72C1F2210254
:1006B00096420FDC0022C1F2110296421AD00022AB
:1006C000C1F21202964215D00022C1F221029642D6
:1006D00010D02FE00022C1F2220296420AD000225E
:1006E000C1F23102964205D00022C1F23202964296
:1006F00020D100BF8A684AB1012A14BFC0F8149003
:10070000C0F810904FF0080B14E000BF4FF0040B3E
:1007100010E000BFCA6802F1080B0BE04FF0000BBD
:1007200008E000BFCA6802F1040B03E0CA6802F1E6
:100730000C0B00BF22460646BAF1080F24BF203A30
:100740000436376803FA02F5AF430BFA02F23A4374
:100750003260CA79D2067FF57FAF41F21807C4F242
:1007600002073A684FF6084342F001023A603A68DD
:10077000CFF6FF7302F001020192019A2AF0030200
:1007800072440F25D75804F00C06B540AF43009DC6
:1007900005FA06F63743D7504E6840F20C45F20290
:1007A000DEF8082054BF22EA090242EA0902CEF824
:1007B0000820C4F201052A68B70254BF22EA0902E0
:1007C00042EA09022A60DEF80420B70354BF22EA95
:1007D000090242EA0902CEF804200F23DEF80020C5
:1007E000F70354BF22EA090242EA0902CEF80020C8
:1007F00032E700BF02B0BDE8F08F000040F2701099
:10080000C2F200000068704770B5B8B3044690F8B3
:100810003D0028B9002084F83C00204600F056FA3C
:10082000242084F83D002068016821F00101016066
:10083000016841F400410160016821F40041016058
:1008400000F0F2FB48F28041C0F21E0140F60013B6
:10085000D4F804E088424FF00001C0F23D0348F2B2
:10086000A16C4FF0000238BF01219842C0F2010C88
:1008700038BF0122E64538BF0A460AB1012070BDE3
:100880004DF68361C4F21B31A0FB01122168950C67
:100890004B684FF4967623F03F0343EA9243754347
:1008A00044F6D3564B60C1F262060B6AA5FB0656AE
:1008B000B50923F03F03E64538BF950C6A1C1A437F
:1008C0000A62CA6948F2A0664CF6FF73C0F20106DC
:1008D000B64522EA03020BD801384FEA4E03B0FBBB
:1008E000F3F001306FF31F30042898BF04201EE09E
:1008F000A368013863B119230EFB03F3B0FBF3F0D7
:1009000001306FF31F3078B100F5804008E000BF80
:100910000EEB4E03B0FBF3F001306FF31F3028B144
:1009200000F5004003E000BF012000E0012010437B
:10093000C8610868D4E9072320F0C00010431843B9
:100940000860886848F2FF3204F10C0690434CCEF0
:1009500018431043A5698860C86820F0FF00304341
:100960002843C860086840F001000860002020218A
:10097000206484F83D10206384F83E0070BD0000C0
:100980002DE9F04F85B004460020994616460F46E3
:100990000490FFF733FF94F83D10202927D1054636
:1009A000206800BF816989071CD5FFF727FF411B1D
:1009B00020681A29F6D381698907F3D50020202100
:1009C000206384F83D1084F83E00206C04F13C0A5A
:1009D00040F020002064022000218AF8001005B0B9
:1009E000BDE8F08FA2461AF83C1F012904D102206D
:1009F00005B0BDE8F08F00BF01228AF8002003682F
:100A0000DDE90F180E9ADB0703D1036843F00103F9
:100A10000360036823F400630360222084F83D0030
:100A2000402084F83E000020206462626185608D71
:100A3000394620850020CFF6FF70E062204632461E
:100A40004B46CDF80080019500F0F4FE20B1012066
:100A500005B0BDE8F08F00BF208D022810D001281E
:100A600024D0002838D100200390206841690391E8
:100A7000816903910399016841F40071016037E0D5
:100A80002068016841F400610160EFF3108072B6E4
:100A900000200390206841690391816903910399C3
:100AA000016821F48061016062B621E0206801687C
:100AB00021F480610160EFF3108072B60020039092
:100AC000206841690391816903910399016841F4A8
:100AD0000071016062B60BE02068016841F480613A
:100AE000016000210391416903918069039003989B
:100AF000208D002800F0CA80042740F208094BF23C
:100B0000895BC0F20107C2F20009C1F2F84B23264B
:100B100017E000BF204641462A4601F071F8002840
:100B200095D12068616A00690870606A218D013082
:100B30006062481E2085618D01396185010400F0E5
:100B4000A58080B2032865D8022800F07F800128A4
:100B5000E0D02046394600224346009500F0F6FEDC
:100B600000287FF474AF2068016821F4806101607F
:100B7000EFF3108072B62068616A00690870606ADD
:100B8000218D0130013960622185618D01396185D6
:100B9000D9F80010C908A1FB0B12110A7143049186
:100BA0000499013904910499002900F07B8021689F
:100BB0004A6952071DD40499013904910499002906
:100BC00070D021684A69520713D4049901390491FD
:100BD0000499002966D021684A69520709D404990A
:100BE00001390491049900295CD021684A695207AF
:100BF000D6D50A6842F400720A6009690170606A19
:100C0000218D01306062481E2085608D013860852D
:100C100062B686E7204641462A4600F0F1FF0028EA
:100C20007FF415AF2068616A00690870606A226805
:100C3000411C208D616201382085638D013B6385F5
:100C400053695B077FF57AAF10696DE72046394637
:100C500000224346009500F079FE00287FF4F7AEAD
:100C6000EFF3108072B62068616A026842F4007285
:100C7000026000690870606A218D01306062481E60
:100C80002085608D0138608562B64AE7202084F8AF
:100C90003D00002084F83E0000218AF8001005B0D5
:100CA000BDE8F08F00202021206384F83D1084F8F7
:100CB0003E00206C40F02000206462B6012000213C
:100CC0008AF8001005B0BDE8F08F000010B586B0BE
:100CD00045F200410068C4F20001002288420492FB
:100CE00002D006B010BD00BF41F21804C4F20204E5
:100CF000206840F008002060206800F008000190A3
:100D00000198C0200290122003900320059001F565
:100D1000384002A9FFF774FC606840F4001060607E
:100D2000606800F400100190019806B010BD00004A
:100D300040F2000040F27011C2F20000C2F2000165
:100D400000780A68104408607047000080B542F2DD
:100D50000000C4F20200016841F0100101600320AC
:100D600000F072F80F2000F005F800F027F80020DE
:100D700080BD000070B540F20006C2F2000640F2ED
:100D800008013278C2F200014FF47A730968B3FBAC
:100D9000F2F20446B1FBF2F1084600F047FB0F2CDB
:100DA0004FF0010508D838B94FF0FF302146002236
:100DB000002500F01DF87460284670BD82B041F235
:100DC0001800C4F20200016841F0010101600168ED
:100DD00001F0010101910199416841F080514160A8
:100DE000406800F080500090009802B0704700000A
:100DF00010B54EF60C5CCEF2000CDCF80030C3F3FC
:100E0000022E8EF00704042C28BF0424BEF1030335
:100E10004FF0FF3E0EFA04F438BF0023A14399407F
:100E20000EFA03F39A43114300F00F0200F16043FE
:100E30000901043A03F564436244002848BF02F103
:100E40000C03197010BD00004EF60C51CEF20001DB
:100E50000A684FF6FF031A4060F30A2242F08060EE
:100E600040F0FD70086070472DE9F04381B0002824
:100E700000F0858042F20008C4F202080446D8F867
:100E800000000D4600F0070088420CD2D8F80000A0
:100E900020F007002843C8F80000D8F8000000F050
:100EA0000700A8426BD1206841F204098107C4F20F
:100EB000020917D5410705D5D9F8001041F4E061C2
:100EC000C9F80010010705D5D9F8001041F46051A8
:100ED000C9F80010D9F80010A26821F0F001114300
:100EE000C9F80010C00741D1D8F8000000F0070091
:100EF000A8420CD9D8F8000020F007002843C8F811
:100F00000000D8F8000000F00700A84237D12068A0
:100F1000410707D5D9F80010E26821F4E0611143D8
:100F2000C9F80010000708D5D9F80000216920F49D
:100F3000605040EAC100C9F80000D9F8002002F072
:100F40000C00082841F20020C0F27A0050D141F68E
:100F50006973C2F38341C0F60003595CD2033BD4EA
:100F600040F60010C0F23D00484341E060680228AE
:100F70000AD001282AD159F8041C890308D4012079
:100F800001B0BDE8F08300BF59F8041C8901F6D513
:100F9000D9F8001021F003010843C9F80000FFF759
:100FA0002DFC064641F28837D9F80000616800F050
:100FB0000C00B0EB810F97D0FFF720FC801BB842EC
:100FC000F2D9032001B0BDE8F08300BF59F8041C3A
:100FD0008907D4D5DCE700BFD9F8002041F6677354
:100FE000C2F34042C0F600039A5C4843B0FBF2F003
:100FF000D9F8001041F64F72C1F30311C0F6000298
:10100000515C40F2080220FA01F140F20400C2F201
:1010100000000068C2F200021160FFF7ABFE002082
:1010200001B0BDE8F083000040F2080041F2040185
:10103000C2F20000C4F202010068096841F65F7262
:10104000C1F30221C0F60002515CC84070470000A5
:1010500040F2080041F20401C2F20000C4F20201B1
:101060000068096841F65F72C1F3C221C0F6000250
:10107000515CC840704700002DE9F04182B0002863
:1010800068D00446007841F20006C007C4F20206A8
:1010900025D0706800F00C0004281BD0706800F0A8
:1010A0000C00082802D17068C00313D460680028BF
:1010B00000F06881B0F5A02F00F07C81B0F5803F92
:1010C00000F07C81306820F480303060306820F49B
:1010D000802076E13068800301D56068D0B3207845
:1010E000800718D5706810F00C0F07D0706800F0FA
:1010F0000C0008286ED17068C0036BD4306880077C
:1011000002D52069012825D13068616920F0F800F6
:1011100040EAC1003060207800071FD420784007E3
:1011200032D4E56995B1706800F00C00082840F0F1
:101130008F80012D0ED07068216A00F480328A42BF
:1011400008D1616A00F47010884203D1002002B017
:10115000BDE8F081012002B0BDE8F081A06900285F
:1011600062D00020C4F242200121C0F88014FFF7B1
:1011700045FB0546706A800700F18C80FFF73EFB57
:10118000401B0228F6D92AE1F06910F0805808D1F6
:10119000F06940F08050F061F06900F080500090FC
:1011A000009847F20007C4F200073868C00529D448
:1011B000386840F480703860FFF720FB054600BFB8
:1011C0003868C0051ED4FFF719FB401B6428F7D907
:1011D00005E100BF2069002840F20000C4F242206F
:1011E00000F0828001210160FFF708FB054600BF87
:1011F000306880073FF588AFFFF700FB401B0228EF
:10120000F6D9ECE0E068002800F08080052800F0C6
:101210009780012800F09880306A20F00100306249
:10122000306A20F0040092E00020C4F24220002145
:10123000C0F88014FFF7E2FA054600BF706A800725
:101240007FF56CAFFFF7DAFA401B0228F6D9C6E04B
:101250000027C4F2422700203866FFF7CFFA022D9C
:1012600005460BD13068800140F1BE80FFF7C6FA19
:10127000401B02284FF00300F4D968E73068800172
:101280007FF564AFFFF7BAFA401B02284FF0030066
:10129000F4D95CE740F20800C2F20000006844F6AE
:1012A000D351C1F26201A0FB0101480A019000BFC5
:1012B00000BF0198411E002801913FF42FAF00BFED
:1012C0000198411E002801913FF428AF00BF01980A
:1012D000411E002801913FF421AF00BF0198411E3B
:1012E00000280191E4D119E700210160FFF786FA97
:1012F000054600BF306880077FF50DAFFFF77EFA27
:10130000401B02284FF00300F4D920E7306A20F098
:1013100001003062306A20F004003062FFF76EFA9C
:10132000054641F2883700BF306A800720D5FFF7B5
:1013300065FA401BB8424FF00300F5D907E700BF3C
:10134000306A40F004003062306A40F001003062E0
:10135000FFF754FA054641F2883700BF306A80072C
:1013600006D4FFF74BFA401BB842F7D937E000BF6D
:10137000B8F1000F7FF4D5AEF06920F08050F06135
:10138000CFE600BF306820F480303060306820F451
:1013900080203060FFF732FA054600BF30688003D6
:1013A0007FF59DAEFFF72AFA401B64284FF003003B
:1013B000F4D9CCE6306840F480203060306840F4E6
:1013C00080303060FFF71AFA054600BF30688003AE
:1013D0003FF585AEFFF712FA401B6428F6D90320CB
:1013E00002B0BDE8F08100BF206AB0F5803F05D1B2
:1013F0007168A26821F40031114371607168626AFA
:1014000021F4741111430843706001203866FFF71E
:10141000F5F90446306880013FF598AEFFF7EEF924
:10142000001B02284FF00300F4D990E6411E002073
:10143000B0EB116F1CBF012070474EF21002CEF2CC
:10144000000251604EF62351CEF20001F0230B70E2
:101450000721906011607047002804BF0120704789
:1014600010B5044690F8410028B9002084F84000E7
:10147000204600F063F8242084F841002068D4E975
:101480000212C36823F40053C360036923F440537A
:101490001A430261D4E904231143C268194341F29B
:1014A0000C639A431143C1604169A26921F4407100
:1014B000114343F60002C4F201029042416103D09D
:1014C000FFF7B2FD02E000BFFFF7C2FD626819211D
:1014D00048439100B0FBF1F048F21F51C5F2EB1107
:1014E000A0FB01235A094FF69C73C0F6FF7302FB61
:1014F0000300322303EB0010A0FB0101F02303EAF9
:101500005113206803EB0212C1F3431111448160AF
:10151000016921F490410161416921F02A01416191
:10152000C16841F40051C16000202021606484F84A
:10153000411084F84210606310BD000070B586B0A1
:1015400040F60004C4F20104006804F5405100268E
:101550008842049602D006B070BD00BF41F2180068
:10156000C4F20200016802AD41F4804101600168EB
:1015700001F4804101910199016841F00401016089
:101580000068294600F00400019001984FF40070B3
:10159000029002200390032005902046FFF730F8C8
:1015A0004FF48060CDE90206204629460496FFF7F5
:1015B00027F806B070BD00002DE9F04381B0044665
:1015C00090F84100202840F0B180884600294FF073
:1015D000010000F0D6801646002A00F0D2800020DC
:1015E000606421201D4684F84100FFF707F9A684B6
:1015F000E684A1680646B1F5805F03D12069002822
:1016000000F0988047464FF00008E18C20680029E0
:1016100000F0968005F101090BE000BF47B317F811
:10162000011B4160E18C0139E184E18C002900F06B
:10163000878001680906F1D4B9F1000F0AD0EDB135
:10164000FFF7DCF8801BA84218D82068016809065B
:10165000F6D5E3E701680906E0D4016809065CBF36
:1016600001685FEA0161D9D401680906F2D5D5E7BE
:1016700038F8021B00276FF35F21D2E7206850E89B
:10168000030F216820F4D07041E80302BAB3206848
:1016900050E8030F216820F4D07041E8030272B3D0
:1016A000206850E8030F216820F4D07041E803025D
:1016B0002AB3206850E8030F216820F4D07041E875
:1016C0000302002ADAD11AE0206850E8050F2168E9
:1016D00020F0010041E80502DAB1206850E8050F6A
:1016E000216820F0010041E8050292B1206850E82D
:1016F000050F216820F0010041E805024AB1206889
:1017000050E8050F216820F0010041E80502002A99
:10171000DAD1202084F8410084F84200002084F8C7
:101720004000032001B0BDE8F08300BF022001B0FB
:10173000BDE8F0830027E18C206800297FF46AAFC0
:101740000168490619D4FDB1691C0DD1016849062B
:1017500013D4016849065CBF01685FEA41610CD49B
:1017600001684906F2D508E0FFF748F8801BA84257
:101770000AD8206800684006F6D5202084F8410089
:10178000002001B0BDE8F083206850E8030F216815
:1017900020F4D07041E80302002A3ED0206850E8CF
:1017A000030F216820F4D07041E80302AAB3206837
:1017B00050E8030F216820F4D07041E8030262B3BF
:1017C000206850E8030F216820F4D07041E803023C
:1017D000002AD9D121E000BF206850E8050F216818
:1017E00020F0010041E80502002A3FF492AF206892
:1017F00050E8050F216820F0010041E80502002AA9
:101800003FF487AF206850E8050F216820F0010001
:1018100041E80502002A3FF47CAF206850E8050F3C
:10182000216820F0010041E80502002AD4D170E7C8
:10183000FEE700002DE9F04782B0044600680E463E
:101840000168DDF828A041F4806101600168DDF8DD
:101850002C9041F480711D461746016020464FF0E0
:10186000011100225346CDF8009000F06FF858B1F6
:1018700020680068C00544BF4FF400702064032056
:1018800002B0BDE8F08700BF40F202082068C0F255
:10189000010806F0FE0606612046414652464B46C8
:1018A00000F03EF920B1012002B0BDE8F08700BF92
:1018B0000020019020684A464169019180695146A3
:1018C00001900198204600F0E3F998B92068012DB5
:1018D00008D0390A0161204651464A4600F0D8F93D
:1018E00040B92068F9B20161204651464A4600F0ED
:1018F000CFF958B1206C0428D5D12068016841F493
:1019000000710160012002B0BDE8F087206800226C
:101910000168534641F48071016020464FF0011187
:10192000CDF8009000F012F80028A1D1206846F010
:10193000010101612046414652464B4600F0F0F855
:10194000002818BF012002B0BDE8F0872DE9F04162
:10195000054600681E46144601F47F0201338FB22B
:1019600042D0DDF81880B2F5803F40F087804069B2
:101970003840C01BB0FA80F04009A04240F0C88057
:101980004EB924E040693840C01BB0FA80F04009ED
:10199000A04240F0BD80FEF731FFA0EB08012868AF
:1019A000B142EFD941693940C91BB1FA81F1490906
:1019B000A142E7D19BE000BF40693840C01BB0FAAC
:1019C00080F04009A0424FF0000040F0A680FEF7F2
:1019D00015FF286841693940C91BB1FA81F14909ED
:1019E000A142E9D183E000BFB2F5803F24D100BF1E
:1019F00041693940C91BB1FA81F14909A14240F05E
:101A0000878041693940C91BB1FA81F14909A14276
:101A100040F07E8041693940C91BB1FA81F1490922
:101A2000A14275D141693940C91BB1FA81F1490917
:101A3000A142DDD06CE000BF81693940C91BB1FA19
:101A400081F14909A14263D181693940C91BB1FAC9
:101A500081F14909A1425BD181693940C91BB1FAC1
:101A600081F14909A14253D181693940C91BB1FAB9
:101A700081F14909A142DFD04AE000BF80693840C6
:101A8000C01BB0FA80F04009A04241D146B923E022
:101A900080693840C01BB0FA80F04009A0423BD1B9
:101AA000FEF7ACFEA0EB08012868B142F0D98169CD
:101AB0003940C91BB1FA81F14909A142E8D116E0C8
:101AC00080693840C01BB0FA80F04009A0424FF056
:101AD000000018BFBDE8F081FEF790FE286881691C
:101AE0003940C91BB1FA81F14909A142E8D100206E
:101AF0002021286385F83D1085F83E00296C41F0CF
:101B00002001296485F83C000120BDE8F08100BF78
:101B10000020BDE8F08100BF0020BDE8F08100009A
:101B2000F0B581B0044600681D4643698FB203EAF0
:101B30000701B94202D1002001B0F0BD416916464B
:101B4000013201F4806125D0002940D1CEB100BF1F
:101B5000FEF754FE411B2068B14203D94169394068
:101B6000B9424BD141693940B942E4D04169490594
:101B7000EED52CE041693940B942DCD041694905D4
:101B800025D4FEF73BFE206841693940B942F1D0C7
:101B9000202024E0D9B941693940B942CBD041690C
:101BA000490514D441693940B942C4D04169490555
:101BB0000DD441693940B942BDD04169490506D4C7
:101BC00041693940B942B6D041694905E3D5016858
:101BD00041F4007101606FF48061416104200021D3
:101BE0002022216384F83D2084F83E10226C1043AB
:101BF000206484F83C10012001B0F0BD2020EEE705
:101C000070B504460068154650F8143F5A063DD496
:101C10000E4629B926E000BF50F8141F490635D4F6
:101C20000168C90621D4FEF7E9FD411B2068B142D5
:101C3000F2D941694906EFD400202021206384F8BD
:101C40003D1084F83E00206C40F0200018E000BFFA
:101C5000FEF7D4FD206850F8141F4906ECD5016842
:101C6000490613D40168C906F2D56FF0100101606E
:101C700000202021206384F83D1084F83E00206C71
:101C80002064002084F83C00012070BD002070BD5D
:101C900070B50368044653F8140F000611D40E46BD
:101CA000481C29D086BB00BF1868400527D4FEF722
:101CB000A5FD236853F8140F000639D518680006EF
:101CC000F2D5002070BD00BF18680006F9D418686E
:101CD000400514D418680006F3D4186840050ED4E3
:101CE00018680006EDD41868400508D41868000686
:101CF0004FF0000048BF70BD18684005E4D56FF490
:101D000080601860042014E0154603E053F8140FB7
:101D10000006D6D418684005F1D4FEF76FFD401BCD
:101D20002368B042F2D958690006EFD4202000E0C1
:101D3000202000212022216384F83D2084F83E10D9
:101D4000226C10432064012084F83C1070BD000018
:101D500082B041F21800C4F20200016841F00401AF
:101D60000160016801F0040101910199016841F0ED
:101D700008010160006800F008000090009802B0BF
:101D80007047000080B540F2700045F20041C2F299
:101D90000000C4F2000148F2A06200234FF4804C1E
:101DA000C0F2010280E80E00C0E9033CC0E905333F
:101DB000C0E90733FEF728FD002808BF80BDBDE855
:101DC0008040FEF703BC000080B540F2C40043F63B
:101DD0000001C2F20000C4F2010100234FF00C0C1C
:101DE0004FF4E13280E80E00C0E90333C0E905C3D7
:101DF000C361FFF731FB002808BF80BDBDE880400C
:101E0000FEF7E4BBFEE70000FEE7000070470000BD
:101E100070470000FEF78CBF70470000FEE700002F
:101E200092B0FEF793FF00240120CDE90D44CDE9E7
:101E30000B4408900C904FF4E0100DF1200A4FF481
:101E40008031022511905046CDE90914CDE90F519A
:101E5000FFF712F920B1EFF3108072B6FEE700BF72
:101E60000F20CDE903054FF48060CDE9060403A8F7
:101E700002210594FEF7F8FF20B1EFF3108072B64F
:101E8000FEE700BFFFF764FFFFF79EFFFFF77AFF53
:101E90004FF4FA70FEF7A0FB40F2700640F20C1708
:101EA00040F2C40900254FF0FF0B0124C2F20006E6
:101EB000C2F200070FF24808C2F2000903E000BFB7
:101EC0000135FF2D1AD0A9B2304600220123CDE9F9
:101ED00000A4CDF808B0FEF753FD0028F0D1384635
:101EE00041462A46FEF796F93846FEF797FA82B23F
:101EF000484639463223FFF75FFBE1E7FEE700BFC4
:101F0000307825303278200030380A2801D201207C
:101F10007047002070473031323334353637383926
:101F20004142434445464030580030313233343525
:101F30003637383961626364656640307800040082
:101F40000008000000000000000200010000100076
:101F50000000000000000001020304060708090059
:101F60000000000102030401020203040506070841
:101F7000090A0B0C0D0E0F1010000000A01F000826
:101F800000000020100000006C010008B01F0008D5
:101F90001000002068070000880100080000000011
:101FA00001000000100000000024F4000000000008
:0400000508000131BD
:00000001FF
