:020000040800F2
:10000000000900209902000865480008ED3E00083C
:1000100061480008B50E0008F175000800000000F6
:1000200000000000000000000000000075680008EB
:10003000B90E00080000000069480008716C000853
:10004000B3020008B3020008B3020008B3020008BC
:10005000B3020008B3020008B3020008B3020008AC
:10006000B3020008B3020008B3020008B30200089C
:10007000B3020008B3020008B3020008B30200088C
:10008000B302000800000000B3020008B302000839
:10009000B3020008B3020008B3020008B30200086C
:1000A000B3020008B3020008B3020008B30200085C
:1000B000B3020008896C0008B3020008B30200080C
:1000C000B3020008B3020008B3020008B30200083C
:1000D000B3020008B3020008B3020008B30200082C
:1000E000B3020008B3020008B3020008B30200081C
:1000F000B3020008B3020008B302000800000000C9
:1001000000000000B302000800000000B302000875
:10011000B302000800000000956C0008B30200085C
:10012000B3020008B3020008B3020008B3020008DB
:10013000B30200080000000000000000B302000845
:10014000B3020008B3020008000000000000000035
:10015000000000000000000000000000000000009F
:10016000000000000000000000000000B3020008D2
:10017000B3020008000000000000000000000000C2
:1001800000000000B30200080000000000000000B2
:10019000000000000000000000000000000000005F
:1001A0000000000000000000B3020008B3020008D5
:1001B000B3020008B3020008B30200080000000008
:1001C00000000000B3020008000000000000000072
:1001D000B3020008B302000800F002F800F04CF887
:1001E0000AA090E8000C82448344AAF10107DA4592
:1001F00001D100F041F8AFF2090EBAE80F0013F098
:10020000010F18BFFB1A43F001031847709D00004F
:10021000909D0000103A24BF78C878C1FAD85207E0
:1002200024BF30C830C144BF04680C607047000070
:100230000023002400250026103A28BF78C1FBD8EF
:10024000520728BF30C148BF0B607047662908F0CD
:10025000EE84642900F0CC80002070471FB508F0C0
:10026000D4FC00F037FC04000020002108F012F854
:10027000E0601FBD10B510BD00F02CFD1146FFF76A
:10028000EDFF07F0B7F900F04AFD03B4FFF7F2FF06
:1002900003BC00F08BFD0000094880470948004777
:1002A000FEE7FEE7FEE7FEE7FEE7FEE7FEE7FEE726
:1002B000FEE7FEE704480549054A064B7047000083
:1002C000756C0008D9010008000300200009002017
:1002D000000500200005002053EA020C00F06980B0
:1002E0002DE9F04B4FF00006002B1FBFB3FA83F54A
:1002F00003FA05F424FA05F65E4012BF1643B2FA7B
:1003000082F502FA05F4C5F120051EBF22FA05FCAC
:1003100044EA0C04203556EA044C4FEA144418BF52
:10032000641C4FF000084FF00009904271EB030C81
:1003300039D3002919BFB1FA81F701FA07F6B0FAEB
:1003400080F700FA07F6C7F120071EBF20FA07FC66
:1003500046EA0C062037B6FBF4FCA7EB0507103F76
:1003600007F01F0BCBF120062CFA06F60CFA0BFB5C
:1003700044BFB3460026202FA4BF5E464FF0000BBB
:100380005BEA060C08BF4FF0010B19EB0B0948EBB9
:100390000608ABFB027C06FB02CC0BFB03CCC01BAC
:1003A00071EB0C01C1E70B46024641464846BDE8E9
:1003B000F08B13B5084318BF4FF0FF300146AFF381
:1003C0000080BDE81C4070470FB41CB5074B06AA5F
:1003D0007B4469460090059800F063FB0020694665
:1003E00000F072FB1CBC5DF814FB0000F506000079
:1003F0002DE9F0410646002410687529314616A5FE
:1004000010D0AFF30080002802DA404213A507E0C5
:1004100031688A0701D512A502E0490704D511A564
:10042000012401E0AFF3008000210A2206F1240735
:1004300009E0B0FBF2FCB0FBF2F302FB1C00303031
:1004400078541846491C0028F3D123462A463046E2
:10045000BDE8F04100F0B9B8000000002D00000038
:100460002B000000200000002DE9F0474FF0000AAB
:1004700089460446C0F820A02046E1688847002845
:1004800076D0252806D0D4E901219047206A401C67
:100490002062F1E7E168204600258847C4F81CA0E7
:1004A00006460027C4F818A02A2E09D0304607F0C7
:1004B000E9FE38B304EB8708303EC8F8186019E04D
:1004C00059F8041B204604EB87029161E1688847D4
:1004D000012F064618D1E069002820DA25F0200512
:1004E0001DE0D8F8180000EB800006EB4000303823
:1004F000C8F818002046E1688847064607F0C2FEA3
:100500000028EED1012F0AD02E2E08D12046E16816
:1005100088477F1C0646022F45F02005C4DBA069F2
:10052000002803DA404245F00105A061E80701D048
:1005300025F01005B6B1A6F14100192802D82036E1
:1005400045F400654A463146204625604D46FFF792
:100550007DFE58B1012806D0ED1D25F0070000F101
:10056000080989E704E005F1040985E730468AE7D0
:10057000206ABDE8F0874FF0000200B513469446AC
:100580009646203922BFA0E80C50A0E80C50B1F1EB
:100590002001BFF4F7AF090728BFA0E80C5048BFFF
:1005A0000CC05DF804EB890028BF40F8042B08BF9D
:1005B000704748BF20F8022B11F0804F18BF00F899
:1005C000012B70477047704770472DE9F0470D4683
:1005D00099469246044600F124080168880604D52D
:1005E000E06921F01001216000E00120A84201DD56
:1005F000471B00E00027A1697A1902EB0900081ADD
:10060000A0612078C00602D42046AFF30080002607
:1006100008E0D4E901211AF806009047206A401C3E
:10062000761C20624E45F4DB2078C0060AD52046B1
:10063000AFF3008006E0D4E9012130209047206A22
:10064000401C2062381EA7F10107F4DC07E0D4E962
:10065000012118F805009047206A401C2062281EDE
:10066000A5F10105F3DC2046AFF3008020780006F9
:1006700002D50220BDE8F0870120FBE72DE9FF4FFE
:100680000C461E464FF0FF378BB0D2E90001DDF873
:1006900060800A908A46C1F30A5505B93D4600219B
:1006A00008464FF00000BAF1000F00F4400005DAF0
:1006B00000EB80004FF4400101EA50004FEA9059EE
:1006C000B9F1010F00DDB9460A9850EA4A000ED090
:1006D00044F61050A5F2FF3545432F14B8F1000F32
:1006E0001ED07542291E1EDDC9F100021CE0B8F1C2
:1006F000010F4FF0000001D0302103E0F24305E08C
:100700002154401CB042FBDB304600220021215422
:100710000B99C1F80880C1E900200FB0BDE8F08F47
:10072000BD1B6D1CDEE74A4600DA694206A800F0F0
:100730005BFA06AB93E8070003AB83E8070050467B
:100740000A9907F086F98DE80700A0F500501F38D8
:1007500000900398002D0ADD42F21F014A4608442A
:10076000002303A90390684607F0F0FB09E0A0F519
:1007700000504A461F38002303A90390684607F03B
:10078000FAFB8DE807000004000C03D04FF0FF30A7
:10079000410800E01046B8F1000F03D0002200929B
:1007A00015461EE0751E05D400F098F930326255EA
:1007B0006D1EF9D5B3460122084302D000227F1CEA
:1007C00004E02078302801D100227F1E002A0997FA
:1007D00084D01DE0112D07DA00F080F93032625527
:1007E0006D1C50EA0102F5D1084302D00098C8B14F
:1007F0000EE00021681E05E0235C625C6354225415
:10080000401E491C8142F7DBAB46A81B401E0990E5
:10081000002004F80B000B98099AC0F80880C0E982
:10082000002B7AE711264FF0000857E72DE9F04F2B
:1008300088460446D21D22F0070191B0D1E900019B
:10084000CDE90A0107F0CEFC02460B98C00F01D09B
:100850002D2007E02068810701D52B2002E0202110
:1008600001EAC000032A099001D0072A05DB0346EC
:100870004146204600F078F90BE12078800601D54A
:10088000E06900E00620B8F1650F814606D0B8F1B6
:10089000660F18D0B8F1670F70D131E00020B9F1C0
:1008A000110F009001DB112301E009F101030AAAF5
:1008B00001A90CA8FFF7E2FEDDE90C70002609F1A2
:1008C0000105834647E001204B4600904FF000476A
:1008D0000AAA01A90CA8FFF7D1FEDDE90DB00C9919
:1008E0005D46002610B909F101000D18B9EB0500AD
:1008F00003D4C0F1FF3609F10105A5EB09002BE097
:10090000B9F1010F01DA4FF001090020B9F1110F1F
:100910000090484601DD112300E003460AAA01A920
:100920000CA8FFF7ABFEDDE90C704D4600268346B0
:10093000207800070AD4AB4500DA5D4601A8012DF6
:1009400004DD411911F8011C302907D04F4502DAA6
:1009500017F1040F04DA012082460FE06D1EEEE766
:10096000002F02DCED1B3E4403E0781CA84200DDB2
:100970007D1CB81B00F1010A4FF0004720780007EA
:1009800003D4AA4501DB4FF0FF3A0021B7F1004F35
:100990000DF143088DF8431024D002202B23002FA3
:1009A00001DA7F422D230A21021EA0F1010000DCA2
:1009B0005FB197FBF1FC97FBF1F201FB1C7C174642
:1009C0000CF1300C08F801CDEEE7A8F1010003703E
:1009D0002188090501D5452100E06521A0F1010824
:1009E00000F8011C09980FA9A1EB0807FF1D00B131
:1009F0000120411901EBEA70A1693844081A401E30
:100A0000A0612078C00602D42046AFF30080099888
:100A100028B1D4E901219047206A401C2062207847
:100A2000C00622D52046AFF300801EE0002E04DB76
:100A3000B34502DD01A8805D00E03020D4E901214A
:100A40009047206A401C2062761CAAF101005FEAF0
:100A5000000A0AD100F03EF8C0680168405CD4E9A1
:100A600001219047206A401C2062281EA5F1010543
:100A7000DCDC07E0D4E9012118F8010B9047206A7B
:100A8000401C2062381EA7F10107F3DC2046AFF3BB
:100A90000080032011B041E601694A1C0261087818
:100AA000704700B58FB0CDE90131002105910549AE
:100AB0007944CDE9031011466846FFF7D5FC0FB025
:100AC00000BD0000E5FFFFFF0A6802F8010B0A60A5
:100AD00070470000004870473800002030B5B0F182
:100AE0000A0271F100034FEA900E4EEA817EB0EBEC
:100AF0000E0061EB91014FEA101E4EEA017E10EBF1
:100B00000E0041EB11114FEA102E4EEA016E10EB70
:100B10000E0041EB11214FEA104E4EEA014E10EB50
:100B20000E0041EB1141401841F100014FEAD000A5
:100B300040EA41704FEAD1014FEA810444EA9074DF
:100B400010EB800544EB01046D1944EB0404521BC7
:100B5000A3414FF0000348BF0A3200D530BD401C0E
:100B600041F1000130BD00002DE9F0411F4604466F
:100B700003260168072A01F4006004DB08B116A50A
:100B800005E016A503E008B115A500E015A521F0C4
:100B900010002060A069C01EA0610FB1401EA061BE
:100BA0002046AFF300804FB1D4E901213846904789
:100BB000206A401C2062C01C206206E0206AFAE71E
:100BC000D4E9012115F8010B9047761EF8D2204692
:100BD000AFF30080BDE8F0814E414E006E616E00C3
:100BE000494E4600696E66002DE9F047814616467B
:100BF0008AB0354878440DC88DE80D0032487844F5
:100C0000801C03AC0DC884E80D0041F69B300844FD
:100C1000372190FBF1F290FBF1F5A5F1800501FB86
:100C200012041B3C02D56442012000E00020DFF8E2
:100C300098A080460027FA44AAF1BE0A0EE0E00719
:100C40000AD03246684607EB470101230AEB8101CF
:100C500007F091F98DE8070064107F1C002CEED19D
:100C6000194F7F44AE3F19E0E80715D007EB041099
:100C70000DF1180A90E80E008AE80E00C068F042F4
:100C800001D1981908903246012306A903A807F05C
:100C900072F903AB83E807006D10641C002DE3D1EB
:100CA0004FF0010332466946B8F1000F03A802D0A5
:100CB00007F04CF901E007F05EF9C9E90001C9F855
:100CC00008200AB0BDE8F087B880000000487047EF
:100CD000180000207546FFF7F9FFAE46050069468B
:100CE000534620F00700854618B020B5FFF7E2FA1A
:100CF000BDE820404FF000064FF000074FF000081D
:100D00004FF0000BAC46ACE8C009ACE8C009ACE859
:100D1000C009ACE8C00921F007018D46704710B545
:100D20000446AFF300802046BDE81040FFF7ADBA9F
:100D300030B44FF0013C50F8042B51F8043BCCFA8E
:100D400052F4D51A20D1FCB950F8042B51F8043BC9
:100D5000CCFA52F4D51A17D1B4B950F8042B51F883
:100D6000043BCCFA52F4D51A0ED16CB950F8042BCE
:100D700051F8043BCCFA52F4D51A05D1002CDAD044
:100D800030BC4FF00000704729BAB1FA81F111F080
:100D90001801D1F120008440F2D1CA40CB4012F0BA
:100DA000FF0213F0FF0330BCD01A7047014918202E
:100DB000ABBEFEE7260002007047000070B582B0AF
:100DC00004460020019021688A68D20711D14FF6AD
:100DD000C076C7F6FF76886806F17F0210420BD016
:100DE000E06D40F01000E065206E40F001002066EC
:100DF000012002B070BD00BF8868304040F00100A3
:100E0000886040F20830C5F200000068000221D47A
:100E100000F052FD21680A68D20717D1054602E0AA
:100E20000868C00712D18868C00704D188683040BC
:100E300040F00100886000F03FFD401B216803285E
:100E4000EED30868C007EBD1CAE700BF002002B0AC
:100E500070BD00BF40F21400C2F20000006842F60C
:100E600063518009C0F23E51A0FB0101880900EBEB
:100E700040000C2101EB8000019001980028C7D0B0
:100E800001980138019001980028C1D001980138DB
:100E9000019001980028BBD0019801380190019879
:100EA0000028B5D001980138019001980028E7D1B9
:100EB000AEE70000FEE7000070470000EFF310808F
:100EC00072B600BFFEE70000B0B540F27800C2F293
:100ED00000000178022909D001290BD0002918BF90
:100EE000B0BDBDE8B04005F023BE00BFBDE8B040D6
:100EF00005F072BE00210171002002F0F9FF49F6F1
:100F00001671C0F60001302003F0A4F940F200058C
:100F1000C2F2000540F294242A78C2F2000449F695
:100F20004971C0F600012046FFF74EFA60202146C5
:100F300003F090F96A7849F63571C0F60001204651
:100F4000FFF742FA78202146BDE8B04003F082B9AD
:100F5000F0B581B00022009290F85820012A03D108
:100F60000221084601B0F0BD0123076880F858301F
:100F7000BB685B0736D4D1E900531F26C3F30124B5
:100F800007EB8404226B03F01F039E40B243C5F3BA
:100F9000846606FA03F31A432263BA68BB6802F058
:100FA000040203F00803D21840F0BD800A6807F17C
:100FB00014030426C2F34064D1F808E006EAD25CC8
:100FC00053F82450C2F304540722A240BEF1004F4C
:100FD00025EA02050CD143F80C501A6842F0004390
:100FE0000EE000BFC16D41F02001C165012182E129
:100FF0000EFA04F22A4343F80C201A6822F0004348
:101000007B61D1E90434FD68042B5FD13A6E3A6EFE
:101010000B68C2F3846293FAA3F6C3F3846C6FF394
:10102000DF43B6FA86F5002B2C464FF6FF7E08BF4D
:101030006446A242C0F2070E0CD13A6E22F0004282
:101040003A660A6802EA0E03C2F3846C92FAA2F2CC
:10105000B2FA82F57A6E7A6E002BC2F384622C4665
:1010600008BF6446A2420CD17A6E22F000427A6632
:101070000A6802EA0E03C2F3846C92FAA2F2B2FA90
:1010800082F5BA6EBA6E002BC2F384622C4608BF9A
:101090006446A2420CD1BA6E22F00042BA660A68D7
:1010A00002EA0E03C2F3846C92FAA2F2B2FA82F55B
:1010B000FA6EFA6E002BC2F3846208BF6546AA423C
:1010C00031D1FA6E22F00042FA662CE0062202EAE2
:1010D00095020E6807F1600504FA02FC55F82340FA
:1010E0004FF20002C0F2FF3206F0F846224046EA14
:1010F0000C06324342F0004245F823200A698B690E
:1011000055F8226026F08076334345F822300A698C
:101110000B7F55F82260012B26F0007608BF06F100
:10112000007645F82260BA68D20750D10C68CA68C8
:10113000D7F8B06023466FF3DF4326EA030C4FF67F
:10114000FF7602F01805C0F20706EE4000252640A3
:10115000C4F27F0546EA0C06AA42C7F8B06036D151
:1011600093B194FAA4F2B2FA82F2013202F01E03B1
:10117000092B02F01F0310D801229A4003EB43030E
:1011800042EA035315E000BF012202EB946202F031
:101190001E030A2B02F01F03EED3012200269A4001
:1011A00003EB4303CFF6206606EB03531A4342F0EA
:1011B0000073C3F3406607EB86068A687569C3F35C
:1011C000045307249C40A5439A402A43726109684E
:1011D0000022C8F20802114254D040F2083CC5F285
:1011E000000CDCF800300022CCF22132914203F0F6
:1011F000E07404D01022C9F2C002914244D1190215
:101200004FF0000177D4B7F1A04F74D1DCF8001093
:1012100042F6635221F0E071214341F40001CCF821
:10122000001040F21401C2F200010968C0F23E52FF
:101230008909A1FB0212910901EB41010C2202EB89
:1012400081010091009900293CD000BF009901392B
:1012500000910099002947D0009901390091009927
:10126000002943D0009901390091009900293FD00D
:10127000009901390091009900294FF00001E5D152
:1012800039E000BF002136E00022CCF252729142D8
:1012900008BF13F0807217D00022CCF6843291423E
:1012A0004FF0000108BF13F4800224D1ACF50272A4
:1012B000974220D0DCF8001021F0E071214341F486
:1012C00080010CE0002116E0ACF502718F4211D0D4
:1012D000DCF8001021F0E071214341F08071CCF87E
:1012E0000010002107E000BF002104E0002102E01F
:1012F000002100E00021002280F85820084601B0BB
:10130000F0BD00000068006C70470000B0B582B00E
:101310000446002001904CB1E06D58B12168886806
:10132000800012D48868C00019D54CE0012002B0BA
:10133000B0BD00BF204600F009F90020206684F807
:101340005800216888688000ECD588684FF6C07224
:10135000C5F6FF72104088608868C00033D44FF62D
:10136000C0728868C5F6FF7202F18052104000F129
:101370008050886040F21400C2F20000006842F61B
:1013800063528009C0F23E52A0FB02029009022281
:1013900002EB400001900198A8B100BF019801380C
:1013A0000190019878B1019801380190019850B1ED
:1013B000019801380190019828B1019801380190F5
:1013C00001980028EAD18868C00009D4E06D40F097
:1013D0001000E065206E40F001002066012000E072
:1013E00000208A68E36D02F0040203F01003D218B3
:1013F000E26D71D122F481720232E2658A68D2070D
:101400001AD140F2083C4FF600534FF60062C5F285
:10141000000CCFF6FF73CFF6FF725CF803305CF878
:1014200002201A43D20707D16268DCF8003023F4A7
:101430007C131A43CCF80020627FE36B43EA42320C
:10144000D4E902C31A4394F8243042EA0C02012B77
:1014500042EA034207D1D4F828C00023CFF6FE7336
:1014600003EB4C431A43E36A33B1D4F830C003F4BE
:10147000787343EA0C031A43D1F80CC044F2070313
:10148000CFF6F07303EA0C031A43CA600A69636B70
:1014900022F040621A430A618A68120745D494F820
:1014A0003820237F520042EA833CCB6844F2020298
:1014B00023EA020242EA0C02CA6022690B698AB17D
:1014C00043F480330B61D1F8C0C043F6FF732CEABC
:1014D00003031A430EE000BF42F010010120E16552
:1014E00002B0B0BD23F480320A61D1F8C02043F6C7
:1014F000FF739A43C1F8C02094F840300A69012B69
:1015000010D140F2FD7322EA030CD4E91132D4E980
:1015100013E543EA0C031A4342EA0E022A4342F05F
:10152000010201E022F001020A6162690B6B012AEB
:1015300023F00F0202D1236A013B1A430A63E16DD3
:10154000012262F30101E16502B0B0BD10B598B0AF
:1015500004460020CDE9160002A804304021FFF720
:101560000AF8206840F20011C5F20001884201D05B
:1015700018B010BD4FF000504FF40044119002A875
:10158000029400F0EBFA002818BFFFF797FC41F235
:101590004C00C4F20200016841F40051016001688E
:1015A00001F4005101910199016841F002010160CB
:1015B000006813A900F00200019001980320149024
:1015C0000020159040F20040C4F60000139400F093
:1015D00089F818B010BD000070B540F20015C5F2D2
:1015E00000050446D5F8086200688068400703D407
:1015F00094F85800012801D1022070BD012084F820
:1016000058002046FFF7DAFB20B1002184F858107B
:1016100070BD00BF2068E16D40F60173994306F08C
:101620001F0201F580760146A84208BF4FF0A04195
:101630000B1AB3FA83F35B09E66500D11AB9E66DBC
:1016400026F48016E665E56D0026ED044FF00005F2
:1016500044BF256E25F0060525661C25056084F827
:10166000586043B9092A19D8012303FA02F240F25B
:1016700021231A4212D0C168890104D5E16D0122EB
:1016800062F30D31E16581684FF6C072C7F6FF72F3
:10169000114004318160002070BD00BFE06D40F456
:1016A0008010E065C86880015CBF002070BDE06DFF
:1016B000012161F30D30E065002070BDB0B5044636
:1016C00000F0FAF8054640F20800C2F20000406857
:1016D000611C18BF044400BF00F0EEF8401BA0429C
:1016E000FAD3B0BD2DE9F04F82B00D68002D00F0A7
:1016F000CB8041F2004400F13847C4F600040622D2
:101700004FEAB726A04208BF0522052E38BF4FEA90
:10171000B722002401274FF0000E0026009209E0B6
:101720000D68013635FA06F20EF1040E04F10204DA
:1017300000F0AA8007FA06FB15EA0B08F0D0D1F8F2
:1017400004A003220AF0030CACF10105A240012D14
:101750006FEA020910D88268CD6802EA0902A54042
:101760002A4382604268CAF3001522EA0B02B540A0
:101770002A43426006E000BFBCF1030F02D14FF0E4
:10178000030C21E0C2688D6802EA0902A5402A43E1
:10179000BCF1020FC26017D16FF0030202EA5602D9
:1017A00002440EF01C030F25D2F820C005FA03FAFC
:1017B0000D692CEA0A0C05FA03F343EA0C031362E1
:1017C000D1F804A00AF0030C02680CFA04F302EA50
:1017D00009021A431AF4403F0260A1D041F26003AB
:1017E000C4F202031A6840F2004942F001021A6092
:1017F0001A68C4F2010902F001020192019A26F06E
:1018000003024FF6084A4A44CFF6FF7A52F80AC05C
:101810000EF00C050F23009FAB402CEA030307FAE0
:1018200005F52B4342F80A30D9F808C04B684CEA5A
:101830000805DA0258BF2CEA080540F20C4CC9F83A
:101840000850C4F2010CDCF800209F0242EA0805AF
:1018500058BF22EA0805CCF80050D9F804209D03AF
:1018600042EA080758BF22EA0807C9F80470D9F805
:101870000020DB0342EA080758BF22EA0807C9F83C
:10188000007001274CE700BF02B0BDE8F08F0000F8
:101890000069084018BF012070470000426902EA51
:1018A0000103914341EA0341816170471823002AF3
:1018B00008BF2823C150704740F2F820C2F2000050
:1018C0000068704740F2080040F2F821C2F20000C0
:1018D000C2F2000140680A681044086070470000C6
:1018E00080B5032000F08CF80F2000F009F80028E4
:1018F0001CBF012080BD00F029F8002080BD000041
:1019000070B540F20806C2F200067168E1B1044603
:1019100040F21400C2F200004FF47A720068B2FB89
:10192000F1F1B0FBF1F000F09BFE0F2C4FF0010540
:1019300008D838B94FF0FF3021460022002500F0CA
:1019400033F83460284670BD012070BD82B041F28A
:101950005800C4F20200816841F001018160816891
:1019600001F0010101910199016841F0805101608C
:10197000006800F080500090009802B000F0E4B8D9
:10198000002848BF7047C1B200F01F00012202FAD0
:1019900000F04EF20012CEF2000242EAD10121F034
:1019A000030108607047000010B54EF60C5CCEF2E3
:1019B000000CDCF80030C3F3022E8EF00704042C78
:1019C00028BF0424BEF103034FF0FF3E0EFA04F4D7
:1019D00038BF0023A14399400EFA03F39A43114301
:1019E00000F00F0200F160430901043A03F564437B
:1019F0006244002848BF02F10C03197010BD0000BA
:101A00004EF60C51CEF200010A684FF6FF031A4061
:101A100060F30A2242F0806040F0FD700860704779
:101A2000B0F5007F42D0002840F0808047F21400DB
:101A3000C4F2000050F8141CC26E01F4C06122F41C
:101A40008072B1F5806FC2662ED150F8141C01224D
:101A500062F34A2140F8141C40F21401C2F2000162
:101A60000968322251434DF68362C4F21B32A1FB56
:101A70000212910C0268520511D54A1C0FD002685F
:101A800052050CD559B10268520508D5012906D076
:101A90000268520503D50229A1F10401EAD10068C8
:101AA000400544BF032070470020704747F21400F0
:101AB000C4F2000050F8141CC26E01F4C06142F47C
:101AC0008072B1F5806FC266EED150F8141C01220D
:101AD00062F34A2140F8141C40F21401C2F20001E2
:101AE0000968322251434DF68362C4F21B32A1FBD6
:101AF0000212910C0268520511D54A1C0FD00268DF
:101B000052050CD559B10268520508D5012906D0F5
:101B10000268520503D50229A1F10401EAD1006847
:101B2000400544BF03207047BEE700BF47F21400E2
:101B3000C4F2000050F8141C022262F34A2140F85B
:101B4000141C00207047000047F20800C4F2000097
:101B5000016841F480410160704700002DE9F041C7
:101B600082B00446807841F288060007C4F202067B
:101B700002D400202FE000BF56F8300C10F080583F
:101B80000BD156F8300C40F0805046F8300C56F827
:101B9000300C00F080500190019847F20007C4F229
:101BA0000007386840F480703860FFF785FE05460E
:101BB0003868C00500F1D680FFF77EFE401B022882
:101BC000F6D90320B8F1000F05D156F8301C21F0EA
:101BD000805146F8301C2168CA0713D18A0719D4EE
:101BE0004A071FD40A0725D48A062BD44A0631D4C3
:101BF0000A0637D4CA053DD48A0543D44A0549D4D8
:101C000057E000BF3268636822F003021A43326073
:101C10008A07E5D53268A36822F00C021A433260C5
:101C20004A07DFD53268E36822F030021A43326097
:101C30000A07D9D53268236922F0C0021A433260FC
:101C40008A06D3D53268636922F440621A4332604F
:101C50004A06CDD53268A36922F440521A43326055
:101C60000A06C7D53268E36922F440421A4332605B
:101C7000CA05C1D53268236A22F440321A43326061
:101C80008A05BBD53268636A22F440221A43326067
:101C90004A050ED53268A36A22F440121A43B3F5FE
:101CA000801F326005D156F87C2C42F4801246F831
:101CB0007C2C0A050ED53268E36A22F440021A43EE
:101CC000B3F5800F326005D156F87C2C42F48012B7
:101CD00046F87C2CCA040ED53268236B22F0407281
:101CE0001A43B3F1807F326005D156F87C2C42F460
:101CF000801246F87C2C8A040ED53268636B22F081
:101D000040621A43B3F1006F326005D156F87C2C63
:101D100042F4801246F87C2C4A040ED53268A36B3C
:101D200022F040621A43B3F1006F326005D156F8D9
:101D30007C2C42F4801246F87C2C09040ED53168C4
:101D4000E26B21F040511143B2F1805F316005D167
:101D500056F87C1C41F4803146F87C1C02B0BDE88A
:101D6000F08100BFB06810F4407010D0216C884240
:101D70000BD0B068B16820F4407041F48031B1609C
:101D8000B16821F48031B160B060C0070CD1B06897
:101D9000216C20F440700843B0600020B8F1000FBF
:101DA0007FF419AF11E700BFFFF786FD054641F24A
:101DB000883700BFB0688007E9D4FFF77DFD401B7E
:101DC000B842F7D9FDE600002DE9F04700286DD0B4
:101DD00042F2000AC4F2020A0446DAF800000D4694
:101DE00000F00F0088420CD2DAF8000020F00F005B
:101DF0002843CAF80000DAF8000000F00F00A842FB
:101E000054D1216841F20808C807C4F2020803D17E
:101E1000880740F1D880BDE0606802283AD00328E6
:101E200040D158F8082C920140D5D8F80420D8F8B1
:101E3000043042F20046C3F3031302F00302D8F861
:101E400004700133C0F2F406032A04BF43F20066B3
:101E5000C0F26E16B6FBF3F2D8F80430C7F30627CB
:101E60007A43C3F34163022707EB4303B2FBF3F268
:101E70004BF20043C0F2C4439A4261D9D8F8002023
:101E800012F0F00F51D089075AD5A168002957D117
:101E90004BE000BF58F8081C89035CBF0120BDE877
:101EA000F08707E058F8081C490503D40120BDE875
:101EB000F08700BFD8F8001001F00C0104293FD0D2
:101EC000D8F8001001F00C01082939D0D8F800101A
:101ED00001F00C010C2933D1D8F80410D8F80420F3
:101EE00042F20047C2F3031201F00301D8F80430B4
:101EF0000132C0F2F407032904BF43F20067C0F2C5
:101F00006E17B7FBF2F1D8F80420C3F30623594348
:101F1000C2F34162022303EB4202B1FBF2F14BF246
:101F20000042C0F2C44291420AD9D8F800100822F7
:101F300062F307114FF00109C8F8001002E000BF7A
:101F40004FF00009D8F8001021F003010843C8F849
:101F50000000FFF7B1FC064641F28837D8F80000D0
:101F6000616800F00C00B0EB810F07D0FFF7A4FC14
:101F7000801BB842F2D90320BDE8F08721688807AA
:101F800008D4B9F1000F1ED0D8F8000020F0F000FE
:101F900017E000BF480705D5D8F8000040F4E0601E
:101FA000C8F80000080706D5D8F80000072262F339
:101FB0000D20C8F80000D8F80000A26820F0F0005A
:101FC0001043C8F80000DAF8000000F00F00A84243
:101FD0001BD9DAF8000020F00F002843CAF80000EF
:101FE000FFF76AFC064641F2883700BFDAF80000C6
:101FF00000F00F00A84207D0FFF75EFC801BB8423C
:10200000F4D90320BDE8F0872168480707D5D8F840
:102010000000E26820F4E0601043C8F80000080700
:1020200008D5D8F80000216920F4605040EAC100CA
:10203000C8F80000D8F8000042F20041C0F2F401F4
:1020400000F00C00042808462DD0D8F8000000F05D
:102050000C00082843F20060C0F26E1023D0D8F8BC
:10206000002002F00C020C2A1CD1D8F80420D8F869
:10207000043002F00302C3F30313D8F804700133F1
:10208000032A08BF0146B1FBF3F0D8F80410C7F3E8
:102090000627C1F341610222784302EB4101B0FB04
:1020A000F1F000E00020D8F8001048F6C842C1F373
:1020B0000311C0F60002515C40F2140201F01F014E
:1020C00020FA01F140F20800C2F200000068C2F2FA
:1020D00000021160BDE8F047FFF712BC40F21400A7
:1020E00041F20801C2F20000C4F20201006809686E
:1020F00048F6D842C1F30221C0F60002515C01F05B
:102100001F01C8407047000040F2140041F208016E
:10211000C2F20000C4F202010068096848F6D84221
:10212000C1F3C221C0F60002515C01F01F01C8409A
:102130007047000080B541F20C01C4F2020151F871
:10214000040C42F20042C0F2F40200F00C00042839
:10215000104608BF80BD51F8040C00F00C000828A0
:1021600043F20060C0F26E1022D051F8043C03F03C
:102170000C030C2B1CBF002080BDD1F800C00B68E5
:102180000CF0030CC3F3031E0B680EF1010EBCF13F
:10219000030F08BF02460968B2FBFEF0C3F3062333
:1021A000C1F341610222584302EB4101B0FBF1F05F
:1021B00080BD00002DE9F04182B0002800F00681CA
:1021C0000446007841F20006C007C4F2020655D169
:1021D0002078800774D42078000700F19780207859
:1021E000400700F1B7802078800600F10781E5699B
:1021F000002D00F03082B06800F00C000C2840F098
:102200005981012D00F0E280F068216A00F003029C
:102210008A4240F0DB80626A6FF00F0300F0F00149
:1022200003EB0212914240F0D180A16A00F4FE4219
:10223000B2EB012F40F0CA80E16A00F07842B2EBC5
:10224000C16F40F0C380226B0023CFF6E07303EA36
:10225000025200F4C001A2F50012914240F0B68093
:10226000616B4FF07E4202EA016100F0C06001F153
:102270007E41884240F0AA80EDE100BFB06800F0E6
:102280000C01F06808295BD0032281F00C0122EADE
:1022900000000844B0FA80F0400951D16068B0F500
:1022A000803F07D0B0F5A02F40F0DA80306840F4CE
:1022B00080203060306840F480303060DBE000BF68
:1022C000B068F16800F00C00042869D001F0030147
:1022D00080F00C0081F002010844B0FA80F040095F
:1022E0005ED1E1683068002900F0D28040F480704F
:1022F0003060FFF7E1FA05463068400500F1FC80E8
:10230000FFF7DAFA401B0228F6D92EE16169D6F808
:102310009400002900F0908040F00100C6F894007D
:10232000FFF7CAFA054600BFD6F8940080073FF5CC
:1023300056AFFFF7C1FA401B0228F5D915E100BFDF
:10234000306880037FF544AF606800287FF440AFB9
:102350003CE000BFB06D10F0805808D1B06D40F087
:102360008050B065B06D00F080500190019847F248
:102370000007C4F200073868C0052BD4386840F461
:1023800080703860FFF798FA054600BF3868C005CE
:1023900020D4FFF791FA401B0228F7D9E5E000BFEF
:1023A0003068400501D5E06880B17068216920F08F
:1023B000FE4040EA0160706040F20800C2F2000096
:1023C0000068FFF79DFA00283FF405AF012002B036
:1023D000BDE8F081A068012808D0052840F0AA8057
:1023E000D6F8900040F00400C6F89000D6F89000AF
:1023F00040F00100C6F89000A9E000BFA169D6F83E
:102400009800002900F0808040F00100C6F8980094
:10241000FFF752FA054600BFD6F8980080073FF54F
:10242000E6AEFFF749FA401B02284FF00300F3D94C
:1024300002B0BDE8F08100BF20F00100C6F89400B2
:10244000FFF73AFA054600BFD6F8940080077FF5FB
:10245000C6AEFFF731FA401B0228F5D985E000BF70
:102460003168002821F480313160316821F4802105
:10247000316000F07F80FFF71FFA05463068800367
:102480003FF5A6AEFFF718FA401B6428F6D96CE0BA
:1024900020F480703060FFF70FFA05463068400581
:1024A0007FF599AEFFF708FA401B02284FF00300B2
:1024B000F4D9BDE7306820F080703060FFF7FCF998
:1024C000022D05460CD100BF3068800140F17E80AE
:1024D000FFF7F2F9401B02284FF00300F4D9A7E7F9
:1024E0003068800140F1B080FFF7E6F9401B022818
:1024F0004FF00300F4D99BE77068216920F0FE409B
:1025000040EA0160706066E620F00100C6F89800BD
:10251000FFF7D2F9054600BFD6F8980080077FF58F
:1025200066AEFFF7C9F9401B02284FF00300F3D94C
:102530007EE700BFD6F8901021F00101C6F8901098
:10254000D6F8901021F00401C6F8901010B3FFF7F0
:10255000B3F9054641F28837D6F8900080072BD4AE
:10256000FFF7AAF9401BB842F6D9032002B0BDE834
:10257000F08100BFFFF7A0F9054600BF3068800377
:102580007FF526AEFFF798F9401B64284FF0030053
:10259000F4D94DE7FFF790F9054641F2883700BFBF
:1025A000D6F89000800707D5FFF786F9401BB842A0
:1025B0004FF00300F4D93BE7B8F1000F7FF413AEFE
:1025C000B06D20F08050B0650DE600BFF06848F2B5
:1025D0000C01C0F29F1104F1200700EA010C8ECF1C
:1025E0006FF00F00D4E90C5400EB02100022CFF67C
:1025F000E07241EA0C0102EA05520843A2F500121A
:102600004FF07E4540EA032005EA0465104305F1DA
:102610007E4540EAC7602843F060306840F0807033
:102620003060F06840F08070F060FFF745F90446D4
:10263000306880010FD4FFF73FF9001B02284FF0EC
:102640000300F5D9F4E600BFF0684FF6FC71CFF651
:10265000EE610840F060002002B0BDE8F0810000AB
:10266000411E0020B0EB116F1CBF012070474EF2DD
:102670001002CEF2000251604EF62351CEF200015C
:10268000F0230B70072190601160704770470000C5
:10269000704700007047000070470000704700005E
:1026A0007047000070B590F83C20012A4FF00202FC
:1026B00047D080F83D20026843F2004C546893688C
:1026C000C4F2010C42F6004E6245C4F2010E01D084
:1026D000724503D14D6824F470042C434FF68F7576
:1026E000CFF6FF550E682C4042F6FF35C4F20105C7
:1026F0003443AA4254600FDCB2F1804F16D040F24E
:102700000046C4F20006B24210D040F60006C4F201
:102710000006B2420AD00EE0724507D044F200062D
:10272000C4F20106B24201D0624504D1896823F0A7
:102730008003194391600121002280F83D1080F848
:102740003C20104670BD000070470000002804BF08
:102750000120704710B5044690F83D0028B90020CC
:1027600084F83C00204600F023F8022084F83D0065
:102770002068211D04F094FA012084F8480084F8B0
:102780003E0084F83F0084F8400084F8410084F85B
:10279000420084F8430084F8440084F8450084F83B
:1027A000460084F8470084F83D00002010BD00007A
:1027B00080B586B0006841F20001C4F20001884291
:1027C00036D040F20041C4F2000188422DD141F2DE
:1027D0005800C4F20200016841F002010160016882
:1027E00001F002010191019950F80C1C41F0010126
:1027F00040F80C1C50F80C0C002100F00100019076
:1028000001988020019002200290CDE903110590EB
:1028100001A94FF09040FEF765FF1D200021002226
:10282000FFF7C2F81D20FFF7ABF806B080BD00BF70
:1028300041F25800C4F202000168002241F0100188
:1028400001600068002100F010000190019836201E
:10285000FFF7AAF8362006B0BDE88040FFF790B831
:1028600090F83D1001291CBF01207047022180F81B
:102870003D10016842F6FF32C868C4F2010291427D
:1028800040F00100C8600FDCB1F1804F1ED040F273
:102890000040C4F20000814218D040F60000C4F2AB
:1028A0000000814212D01EE042F60040C4F2010056
:1028B00081420BD044F20000C4F20100814205D0F5
:1028C00043F20040C4F2010081420CD18868072223
:1028D000C0F201020240062A4FF0000008D0B2F513
:1028E000803F08BF7047086840F001000860002082
:1028F0007047000080B590F83C20012A4FF002029A
:1029000000F0A98080F83D20D0F800C08822DCF8D3
:102910000830CFF6CE721A40CCF808200B686F2B27
:1029200010DD1F22C0F21002934237DCB3F5005FC6
:1029300046DA702B00F09280B3F5805F00F084805F
:10294000D6E000BF2F2B35DD4F2B3FDC302B6FD077
:10295000402B40F0CD80D1F804E0C968DCF820308D
:10296000DCF8202022F00102CCF82020DCF818202E
:1029700022F0F00242EA011123F00A0242EA0E02BA
:10298000CCF81810CCF82020DCF808104FF688722C
:10299000CFF6CF721140473154E000BF3F21C0F263
:1029A00010018B423ADC2021C0F210018B423FD053
:1029B000302139E0E3B3102B3AD0202B38D097E008
:1029C00060D0B3F1101F33D092E000BF502B6DD018
:1029D000602B40F08D80D1F804E0C968DCF820302D
:1029E000DCF8202022F01002CCF82020DCF818209F
:1029F00022F4704242EA013123F0A00242EA0E12B0
:102A0000CCF81810CCF82020DCF808104FF68872AB
:102A1000CFF6CF721140673114E000BF4021C0F201
:102A200010018B4204D07021C0F210018B425FD1A3
:102A3000DCF808104FF68872CFF6CF7211401943B8
:102A400041F00701CCF808100022012180F83D1068
:102A5000002180F83C10104680BD00BFD1E901E3A1
:102A6000C968DCF8082043EA0E0322F47F4243EAF7
:102A700001211143CCF80810DCF8081041F077016F
:102A8000E0E700BFD1E901E3C968DCF8082043EAC8
:102A90000E0322F47F4243EA01211143CCF80810CF
:102AA000DCF8081041F48041CCE700BFD1F804E025
:102AB000C968DCF82030DCF8202022F00102CCF8D4
:102AC0002020DCF8182022F0F00242EA011123F065
:102AD0000A0242EA0E02CCF81810CCF82020DCF8EA
:102AE00008104FF68872CFF6CF7211405731A9E720
:102AF0000122AAE70000000040F26811C2F20001C2
:102B0000884218BF7047F0B581B02DED028B087F69
:102B1000022840F0E98040F26810C2F2000004216F
:102B200001F0AAF800EE100A9FED791AB8EE400AFB
:102B300081EE000A30EE000A10EE100A05F0F4FFF4
:102B40009FED6F0B53EC102B05F002FE0E4640F28A
:102B50000001C2F20001054608784C780F7905F0B3
:102B6000E3FD02460B462846314605F0F1FD9FED98
:102B7000660B53EC102B05F07DFC054620460E46F7
:102B800005F0D2FD02460B462846314605F072FCA0
:102B900005F096FB00EE100AB2EE048A20EE080A59
:102BA00005F038FB80EE080A40F27805C2F2000515
:102BB000012F85ED070A40F097802878022807D07A
:102BC0006878012816D0002840F08E8050E000BFC1
:102BD000782001F0CFFA40F29421C2F200010020E7
:102BE000887044F64F300880782001F033FB687815
:102BF0000128E8D195ED070A95ED091AB4EE410ACE
:102C0000F1EE10FA06D085ED090AFEF755FE2862AE
:102C10002CE000BFFEF750FE296A401AB0F5FA6FAB
:102C200024D395ED051A95ED090AB4EE401AF1EE9C
:102C300010FA1BDA287885ED050A022816D17820CB
:102C400001F098FA686905F06FFF40F294240B4692
:102C5000C2F2000449F660710246C0F60001204647
:102C6000FDF7B2FB7820214601F0F4FA6878D8BB72
:102C700095ED070A95ED0A1AB4EE410AF1EE10FA45
:102C800006D085ED0A0AFEF717FE28622CE000BF89
:102C9000FEF712FE296A401AB0F5FA6F24D395EDBB
:102CA000041A95ED0A0AB4EE401AF1EE10FA1BDA96
:102CB000287885ED040A022816D1902001F05AFAEE
:102CC000286905F031FF40F294240B46C2F200045B
:102CD00049F653710246C0F600012046FDF774FB29
:102CE0009020214601F0B6FA40F26810C2F20000CE
:102CF0000421BDEC028B01B0BDE8F04000F010B93A
:102D00001F85EB51B81E094000000000000059402B
:102D100000247449F0B590F83C30012B04BF022028
:102D2000F0BD4FEAB202032A2CD8DFE802F00331EB
:102D30004F6F00BF0368D1E900C5D1F80CE01C6AF1
:102D40001A6A42F6FF3722F001021A621A4652F856
:102D5000186FC4F20107BB4200F37E80B3F1804FCD
:102D600000F08C8040F20047C4F20007BB4200F044
:102D7000858040F60007C4F20007BB4200F07E8069
:102D800096E000BF0121002280F83C200846F0BDFB
:102D90000368D1E900E6D1E902C11C6A1A6A360269
:102DA00022F010021A621A4652F8185F4FF2FF071B
:102DB000BE4325F4734561F30F3624F0A0040EF0F2
:102DC0000A0746EA050144EA07173CE00768D1E92B
:102DD00000C5D1E902313C6A3A6A61F3071522F471
:102DE00080723A623A4652F81C6F26F0F30645EAC2
:102DF000060124F420660CF00A0546EA0526116057
:102E00003E62116821F00C01116048E00368D1E9CD
:102E100000E6D1E902C11C6A1A6A360222F4805225
:102E20001A621A4652F81C5F4FF2FF07BE4325F4A0
:102E3000734561F30F3624F420440EF00A0746EA86
:102E4000050144EA073711601F6211684FEA0C233D
:102E500021F44061116022E042F60047C4F201070C
:102E6000BB420BD044F20007C4F20107BB4205D0BD
:102E700043F20047C4F20107BB4219D126F0030612
:102E8000354324F00A070CF00A066EF307153744A1
:102E90009D611F629F6927F00C079F618B68116815
:102EA000194311600021002280F83C200846F0BD43
:102EB00046F00105E5E70000002804BF0120704747
:102EC00010B5044690F83D0028B9002084F83C0075
:102ED000204600F023F8022084F83D002068211DE0
:102EE00003F0DEFE012084F8480084F83E0084F8F8
:102EF0003F0084F8400084F8410084F8420084F8E0
:102F0000430084F8440084F8450084F8460084F8BF
:102F1000470084F83D00002010BD0000704700000D
:102F200080B589B10A1F4FEAB20EBEF1030F41D836
:102F3000DFE80EF002161E2600F13F0292F800C0F4
:102F4000082923D13CE000BF90F83E2090F844309F
:102F5000012A4FF0010208BF012B1FD0104680BD8F
:102F600000F1400292F800C008290FD128E000BF0C
:102F700000F1410292F800C0082907D120E000BF0B
:102F800000F1420292F800C0082919D0042914BFA8
:102F900000F1470200F1450214E000BF022280F870
:102FA0003E2080F844204FEAB103032B4FF001028A
:102FB000D4D852E000F1430292F800C00829E5D1CC
:102FC00000F146021378BCF1010F4FF0010208BF77
:102FD000012BC3D1BEF1030F0CD8DFE80EF00313B1
:102FE0001B2F00BF022280F83F200222082917D1A0
:102FF0002AE000BF022280F84320022208290FD1D4
:1030000022E000BF022280F840200222082907D1D6
:103010001AE000BF022280F841200222082913D0C2
:10302000042914BF80F8472080F845204FEAB103F7
:10303000032B4FF001023FF691AF0EE0022280F821
:10304000422002220829EBD180F846204FEAB10342
:10305000032B4FF001023FF681AF49F6C86C0068C0
:10306000C0F6000C5CF823C0C36801F01F0143EAFE
:103070000C03C360036A02FA01F123EA010202624F
:10308000026A114342F6FF32C4F201029042016229
:1030900010DCB0F1804F1FD040F20041C4F20001BB
:1030A000884219D040F60001C4F20001884213D0D2
:1030B00020E000BF42F60041C4F2010188420BD07B
:1030C00044F20001C4F20101884205D043F20041FC
:1030D000C4F2010188420DD181680722C0F20102C9
:1030E000114006294FF000023FF438AFB1F5803FA0
:1030F0003FF434AF0168002241F001010160104645
:1031000080BD0000F0B581B004460068C56806695E
:10311000B10717D515F0020114D06FF0020101615B
:10312000012121778069800704D02046FFF7E4FC65
:1031300006E000BF204600F0EFF8204600F020FB3C
:1031400000202077700719D515F0040016D02068EC
:103150006FF00401016102212177806910F4407F42
:1031600004D02046FFF7C8FC06E000BF204600F070
:10317000D3F8204600F004FB00202077300717D555
:1031800015F0080014D020686FF0080101610421D7
:103190002177C069800703D02046FFF7ADFC05E02A
:1031A000204600F0B9F8204600F0EAFA0020207727
:1031B000F00619D515F0100016D020686FF0100138
:1031C000016108212177C06910F4407F04D02046B6
:1031D000FFF792FC06E000BF204600F09DF8204675
:1031E00000F0CEFA00202077F00718BF15F001009C
:1031F00006D020686FF001010161204600F088FBD5
:1032000016F4025F05F0800718BF002F02D1F00509
:1032100009D410E020686FF4025101612046FFF7E5
:1032200037FAF00507D537B120686FF48071016176
:103230002046FFF72BFA700609D515F0400006D09E
:1032400020686FF040010161204600F02FFDB006BC
:1032500009D515F0200006D020686FF0200101612B
:103260002046FFF717FAF00209D515F4801006D0B2
:1032700020686FF4801101612046FFF70FFAB00259
:1032800009D515F4001006D020686FF40011016113
:103290002046FFF701FA700209D515F4800006D028
:1032A00020686FF4800101612046FFF7F9F93002D0
:1032B0000CD515F4000009D021686FF400022046F7
:1032C0000A6101B0BDE8F040FFF73EBA01B0F0BDC1
:1032D00080B586B00068B0F1804F01D006B080BDE7
:1032E00041F24C00C4F20200016841F001010160AA
:1032F000006801A900F00100019001980220CDE9C9
:1033000001000020CDE90300012005904FF090401E
:10331000FEF7E8F906B080BD704700002DE9F041E6
:1033200090F83C30012B04BF0220BDE8F0814FEA49
:10333000B202052A00F28A81DFE812F0060050008E
:10334000A400F8004C01900103681D6A1A6AA3F1F9
:10335000804622F001021A621A465C6852F818CFC1
:103360008F68A6F59636D1F800E025F002054FEA01
:10337000B626072E45EA07050AD80127B74017F0F9
:10338000E50F1FBFCF6825F00C0527F004073D436C
:10339000072E0BD8012707FA06F616F0E50F1FBF18
:1033A00024F44074D1E9056734433C434FF68C76EE
:1033B000CFF6FE760CEA060747EA0E075C609F61CF
:1033C0004F6809695F631D629F6947F008079F6145
:1033D0009F6927F004079F617DE100BF036843F206
:1033E00000461D6A1A6AC4F2010622F010021A622F
:1033F0001A46D3F804C052F8188FB3428E68D1F839
:1034000000E025F0200545EA061505D042F6004605
:10341000C4F20106B34207D1CE686FF0400725F031
:10342000C00507EA06163543A3F18046A6F5963691
:103430004FEAB626072E0CD8012707FA06F616F033
:10344000E50F1FBFD1E905672CF44064374344EA18
:10345000870C48F6FF44CFF6FF6404EA080444EA08
:103460000E27C3F804C09F614F6809699F631D62FE
:103470009F6947F400679F619F6927F480679F6198
:1034800028E100BF036843F200461D6A1A6AC4F2CD
:10349000010622F480721A621A46D3F804C052F868
:1034A0001CEFB3428E68D1F8008025F4007545EA20
:1034B000062505D042F60046C4F20106B34207D104
:1034C000CE6840F2FF47360225F44065BE433543DF
:1034D000A3F18046A6F596364FEAB626072E0CD8FD
:1034E000012707FA06F616F0E50F1FBFD1E90567B9
:1034F0002CF44054374344EA071C4FF68C74CFF643
:10350000FE740EEA040747EA0807C3F804C0DF6147
:103510004F680969DF631D62DF6947F00807DF61F3
:10352000DF6927F00407DF61D5E000BF036843F2DD
:1035300000461D6A1A6AC4F2010622F480521A6219
:103540001A46D3F804C052F81C8FB3428E68D1F8E3
:1035500000E025F4005545EA063505D042F6004660
:10356000C4F20106B34207D1CE6844F6FF773603B2
:1035700025F44045BE433543A3F18046A6F5963673
:103580004FEAB626072E0CD8012707FA06F616F0E2
:10359000E50F1FBFD1E905672CF44044374344EAE7
:1035A000871C48F6FF44CFF6FF6404EA080444EAA7
:1035B0000E27C3F804C0DF614F6809691F641D62EC
:1035C000DF6947F40067DF61DF6927F48067DF6147
:1035D00080E000BF0368D3F820C01A6AA3F18047D7
:1035E00022F480321A621A46A7F596375D6852F8BF
:1035F000508FD1F800E08E684FEAB727072F09D81F
:103600000124BC4014F0E50F1EBF4C6925F4803541
:1036100045EA04252CF4003747EA06474FF68C7636
:10362000CFF6FE76033606EA080646EA0E065D6029
:103630001E654E6809699E641F621F6D47F008078A
:103640001F651F6D27F004071F6544E0012100225C
:1036500080F83C200846BDE8F08100BF0368D3F83D
:1036600020C01A6AA3F1804722F480121A621A4617
:10367000A7F596375D6852F8508FD1F800E08E6854
:103680004FEAB727072F09D80124BC4014F0E50FF3
:103690001EBF4C6925F4802545EA84252CF40017CB
:1036A00047EA065748F6FF46CFF6FF6606F540762E
:1036B00006EA080646EA0E265D601E654E68096940
:1036C000DE641F621F6D47F400671F651F6D27F4DE
:1036D00080671F65090213681943116000210022E9
:1036E00080F83C200846BDE8F0810000002804BFB7
:1036F0000120704710B5044690F83D0028B900201D
:1037000084F83C00204600F023F8022084F83D00B5
:103710002068211D03F0C4FA012084F8480084F8D1
:103720003E0084F83F0084F8400084F8410084F8AB
:10373000420084F8430084F8440084F8450084F88B
:10374000460084F8470084F83D00002010BD0000CA
:1037500081B00068B0F1804F02D001B0704700BF67
:1037600041F25800C4F20200016841F00101016019
:10377000006800F001000090009801B07047000060
:103780007047000061B10A1F4FEAB202032A11D844
:10379000DFE802F00214181C00F13F0318E000BF3C
:1037A00090F83E20012A1CBF01207047022280F8B9
:1037B0003E202CE000F143030AE000BF00F140038B
:1037C00006E000BF00F1410302E000BF00F1420348
:1037D0001B78012B1CBF01207047032A08D8DFE8A3
:1037E00002F0030B0F1300BF022280F83F200EE00F
:1037F000022280F843200AE0022280F8402006E0FE
:10380000022280F8412002E0022280F84220026871
:1038100001F01F010120136A00FA01F18B431362CA
:10382000136A0B43A2F18041A1F596314FEAB12111
:103830000629136244D8884010F0650F40D0506CC0
:1038400042F6FF31C4F2010140F400408A42506464
:1038500010DCB2F1804F1FD040F20040C4F20000F3
:10386000824219D040F60000C4F20000824213D018
:103870001FE000BF42F60040C4F2010082420BD0BC
:1038800044F20000C4F20100824205D043F200403D
:10389000C4F2010082420CD190680721C0F20101FC
:1038A000014006294FF0000008D0B1F5803F08BF65
:1038B0007047106840F0010010600020704700BFA2
:1038C00042F6FF30C4F201008242C2DD43F6FF70CF
:1038D000C4F20100824207DC42F60040C4F201005B
:1038E0008242D3D1D8E700BF44F20000C4F2010005
:1038F0008242D1D044F60000C4F20100824202BFED
:10390000506C40F400405064D3E700000000000019
:1039100040F2B411C2F20001884218BF704770B57E
:1039200040F27806C2F20006F078002871D140F229
:10393000B004C2F200042046FDF74EFE2046FDF71B
:10394000E1FC04F0F1FE9FEDC00B53EC102B04F0F2
:1039500091FD9FEDBF0B53EC102B04F0F9FE04F02A
:10396000AFFC00EE100AB0EE081AB4EE410AF1EE18
:1039700010FA03DD9FEDBC0A22E000BFB7EE001A8B
:10398000B4EE410AF1EE10FA02DA9FEDB80A17E040
:10399000BFEE001A30EE010A10EE100A05F0C4F86E
:1039A0009FEDAD0B53EC102B04F0D2FE9FEDAC0B52
:1039B00053EC102B04F0B6FC04F082FC00EE100A6D
:1039C000F06A86ED060A01300A28F06221D33078C9
:1039D000E8B9782000F0CEFB96ED060A9FEDA41A18
:1039E00020EE010A10EE100A05F09EF840F2942431
:1039F0000B46C2F2000449F608710246C0F6000107
:103A00002046FCF7E1FC7820214600F023FC002052
:103A1000F062306B01300A2830631AD33078B0B9C5
:103A2000902000F0A7FBF06905F07EF840F29424A6
:103A30000B46C2F2000449F66D710246C0F6000161
:103A40002046FCF7C1FC9020214600F003FC00203A
:103A5000306340F60004C4F6000420464FF4784179
:103A60000122FDF723FF327820464FF48071002AAF
:103A700018BF0122FDF71AFFB568B5F5FA7F69D3C3
:103A8000F068317801300229F06012D1602000F036
:103A900071FB40F29425F268C2F2000549F63F71CD
:103AA000C0F600012846FCF78FFC6020294600F094
:103AB000D1FBB07802281DD001283CD100207070C5
:103AC00040F21C10C2F20000006840F2E731C1620F
:103AD00096ED060A9FED671A20EE010ABCEEC00AB9
:103AE00080ED0E0A307830BB49F62375C0F600052C
:103AF0001AE000BF0120707040F21C10C2F20000FA
:103B0000006840F2CF71C16296ED060A9FED591A26
:103B100020EE010ABCEEC00A80ED0E0A307850B9E2
:103B200049F62C75C0F60005602000F023FB6020EC
:103B3000294600F08FFB40F20000C2F20000012194
:103B40000025017120464FF400710122B570FDF788
:103B5000ADFEB560B07868B3022833D001285AD1E1
:103B600040F21C10C2F2000000686A1CC16A4CF6E8
:103B7000CD450239C16290ED0B0A93B2CCF6CC452B
:103B800096ED061A6B4349F69915B8EE400A4FEACE
:103B90007303C1F6991521EE000AAB42BCEEC00AD0
:103BA00080ED0E0AB26036D820464FF40071FDF762
:103BB00075FE30E020464FF400710122FDF776FEDD
:103BC00029E000BF40F21C10C2F2000000686A1C2D
:103BD000C16A4CF6CD450231C16290ED0B0A93B239
:103BE000CCF6CC4596ED061A6B4349F69915B8EE1E
:103BF000400A4FEA7303C1F6991521EE000AAB4261
:103C0000BCEEC00A80ED0E0AB26004D820464FF424
:103C10000071FDF743FEF0784FF48061421E2046AC
:103C200018BF0122FDF742FE04F5806420460421FE
:103C30000122FDF73BFE204604210022BDE8704032
:103C4000FDF734BE00BF00BF0000000000FEAF4023
:103C50006666666666660A40000000000000D83F9F
:103C60009A9999999999B93F9A99593FCDCCCC3D58
:103C70000000C84200E0F9444FEAB101032984BFC3
:103C800000207047DFE801F0020E060A00683430B9
:103C90000068704700683C3000687047006840303A
:103CA000006870470068383000687047704700004F
:103CB00090F88410012904BF022070472421C0F825
:103CC000881002681168136823F00103136021F063
:103CD00000530021416613602022C0F8882080F83C
:103CE0008410084670470000B0B590F88420012A7F
:103CF00004BF0220B0BD2422C0F888200268D0F89A
:103D000064E0D2F800C01368BEF1000F23F0010395
:103D10001360936823F0606341EA0301916019D056
:103D20009368916849F6F86E490FC0F6000E49F69F
:103D300000751EF80140C0F60005695CC3F34263DC
:103D4000E400B4FBF1F11EF80340EB5CE500B5FBC9
:103D5000F3F301E001210123A0F86A102021A0F86B
:103D60006830C2F800C0C0F88810002180F88410C4
:103D70000846B0BDB0B590F88420012A04BF0220E7
:103D8000B0BD2422C0F888200268D0F864E0D2F8E0
:103D900000C01368BEF1000F23F0010313609368A5
:103DA00023F0604341EA0301916019D09368916860
:103DB00049F6F86E490FC0F6000E49F600751EF878
:103DC0000140C0F60005695CC3F34263E400B4FB44
:103DD000F1F11EF80340EB5CE500B5FBF3F301E005
:103DE00001210123A0F86A102021A0F86830C2F850
:103DF00000C0C0F88810002180F884100846B0BDCB
:103E000010B5D8B10446D0F8880028B9002084F84D
:103E10008400204600F026F82420C4F8880020689A
:103E2000A16A026822F00102026011B1204602F08C
:103E3000C5FF204603F0EEF8012801D1012010BD96
:103E40002168486820F490404860886820F02A0083
:103E50008860086840F0010220460A60BDE8104012
:103E600003F020B810B596B00446684608303C21EF
:103E7000FCF781FB206843F60001C4F2010188428F
:103E800002D016B010BD00BF01200090002468468B
:103E90000194FDF763FE002818BFFDF70FF841F20B
:103EA0004C00C4F20200416941F480414161416922
:103EB00001F4804111911199016841F00101016003
:103EC000006811A900F00100119011984FF4C06032
:103ED00011900220CDE91204072015904FF0904078
:103EE0001494FDF7FFFB16B010BD0000FEE70000C4
:103EF00040F21841C4F600010A6942F400720A61F6
:103F00000A6942F480720A610A6842F020020A607B
:103F10002022C1F8FC230A6942F020020A6100BF96
:103F200000BF00BF0A6842F020020A600A6842F43B
:103F300080720A600022C1F8FC230B6943F0200361
:103F40000B6100BF00BF00BF0B6843F020030B6094
:103F50000B6843F480730B600B6943F400730B61CF
:103F60000B6943F480730B610B6843F020030B6013
:103F70002123C1F8FC330B6943F020030B6100BF20
:103F800000BF00BF0B6843F020030B600B6843F4D5
:103F900080730B60C1F8FC230A6942F020020A61B9
:103FA00000BF00BF00BF0A6842F020020A600A6832
:103FB00042F480720A600A6942F400720A610A6976
:103FC00042F480720A610A6842F020020A602222EA
:103FD000C1F8FC230A6942F020020A6100BF00BF59
:103FE00000BF0A6842F020020A600A6842F4807248
:103FF0000A6000BF00BF00BF0A6842F400720A6096
:104000004FF496320B69053A43F400730B610B6869
:1040100043F480730B600B6843F020030B60C1F81E
:10402000FC030B6943F020030B6100BF00BF00BF1E
:104030000B6843F020030B600B6843F480730B6044
:1040400000BF00BF00BF0B6843F400730B600B6937
:1040500043F400730B610B6843F480730B600B68CF
:1040600043F020030B60C1F8FC030B6943F020030D
:104070000B6100BF00BF00BF0B6843F020030B6063
:104080000B6843F480730B6000BF00BF00BF0B6878
:1040900043F400730B600B6943F400730B610B680E
:1040A00043F480730B600B6843F020030B60C1F88E
:1040B000FC030B6943F020030B6100BF00BF00BF8E
:1040C0000B6843F020030B600B6843F480730B60B4
:1040D00000BF00BF00BF0B6843F400730B600B69A7
:1040E00043F400730B610B6843F480730B600B683F
:1040F00043F020030B60C1F8FC030B6943F020037D
:104100000B6100BF00BF00BF0B6843F020030B60D2
:104110000B6843F480730B6000BF00BF00BF0B68E7
:1041200043F400730B600B6943F400730B610B687D
:1041300043F480730B600B6843F020030B60C1F8FD
:10414000FC030B6943F020030B6100BF00BF00BFFD
:104150000B6843F020030B600B6843F480730B6023
:1041600000BF00BF00BF0B6843F400730B607FF417
:1041700049AF7047B0B548F6E045C0F6000540F2DB
:104180003F112A46044600F08BF8204640F22F11DA
:104190002A4600F085F8204640F21F112A4600F01A
:1041A0007FF8204640F20F112A4600F079F82046A9
:1041B000FF212A4600F074F82046EF212A4600F03D
:1041C0006FF82046DF212A4600F06AF82046CF210A
:1041D0002A4600F065F82046BF212A4600F060F824
:1041E0002046AF212A4600F05BF820469F212A4650
:1041F00000F056F820468F212A4600F051F820465C
:104200007F212A4600F04CF820466F212A4600F014
:1042100047F820465F212A4600F042F820464F2109
:104220002A4600F03DF820463F212A4600F038F8A3
:1042300020462F212A4600F033F820461F212A4627
:1042400000F02EF820460F212A46BDE8B04000F0CD
:1042500027B800002DE9F0410A78FAB148F6E048A5
:1042600004464D1C002740F23F16C0F6000800BF70
:10427000A2F12000C1B2490051FA80F008EB00120F
:10428000B1B2204600F00CF8EA5D002A08BFBDE894
:10429000F081103E132F07F10107E9D3BDE8F0814B
:1042A0002DE9F04740F21843C4F600031F694FF0B0
:1042B000200C47F400771F611F694FF0210E47F46F
:1042C00080771F611F6840F2100947F020071F60C8
:1042D000C3F8FCC31F6940F2AC0A47F020071F6116
:1042E00000BF00BF00BF1F684FF0220847F0200743
:1042F0001F601F68C2F2000947F480771F60C3F88F
:10430000FC031F69C2F2000A47F020071F6100BFCB
:1043100000BF00BF1F6847F020071F601F6847F4F9
:1043200080771F601F6947F400771F611F6947F49A
:1043300080771F611F6847F020071F60C3F8FCE308
:104340001C6944F020041C6100BF00BF00BF1C6852
:1043500044F020041C601C6844F480741C60C3F8A2
:10436000FC131C6944F020041C6100BF00BF00BFA7
:104370001C6844F020041C601C6844F480741C60B9
:10438000002400BF1D6945F400751D611D6945F4D9
:1043900080751D611D6845F020051D60C3F8FC8314
:1043A0001D6945F020051D6100BF00BF00BF1D68ED
:1043B00045F020051D601D6845F480751D6000BF37
:1043C00000BF00BF1D6845F400751D60002500BFDB
:1043D00032F81460EE40F607564608BF4E4636885F
:1043E0001F6947F400771F611F6847F480771F60DB
:1043F0001F6847F020071F60C3F8FC631E6946F082
:1044000020061E6100BF00BF00BF1E6846F02006E8
:104410001E601E6846F480761E6000BF00BF00BFAD
:104420001E6846F400761E6032F81460EE40B6074F
:10443000564658BF4E4636881F6947F400771F61BD
:104440001F6847F480771F601F6847F020071F60D0
:10445000C3F8FC631E6946F020061E6100BF00BF62
:1044600000BF1E6846F020061E601E6846F4807677
:104470001E6000BF00BF00BF1E6846F400761E60CD
:1044800032F81460EE407607564658BF4E463688DE
:104490001F6947F400771F611F6847F480771F602A
:1044A0001F6847F020071F60C3F8FC631E6946F0D1
:1044B00020061E6100BF00BF00BF1E6846F0200638
:1044C0001E601E6846F480761E6000BF00BF00BFFD
:1044D0001E6846F400761E6032F81460EE4036071F
:1044E000564658BF4E4636881F69043547F4007754
:1044F0001F611F68102D47F480771F601F6847F009
:1045000020071F60C3F8FC631E6946F020061E6189
:1045100000BF00BF00BF1E6846F020061E601E6878
:1045200046F480761E6000BF00BF00BF1E6846F4E0
:1045300000761E607FF44CAF1D69013045F40075B4
:104540001D611D69013445F480751D611D68182CBD
:1045500045F020051D60C3F8FCC31D6945F020052A
:104560001D6100BF00BF00BF1D6845F020051D6034
:104570001D6845F480751D60C5B2C3F8FC531D6904
:1045800045F020051D6100BF00BF00BF1D6845F05C
:1045900020051D601D6845F480751D601D6945F48A
:1045A00000751D611D6945F480751D611D6845F02C
:1045B00020051D60C3F8FCE31D6945F020051D6161
:1045C00000BF00BF00BF1D6845F020051D601D68CD
:1045D00045F480751D60C3F8FC131D6945F0200586
:1045E0001D6100BF00BF00BF1D6845F020051D60B4
:1045F0001D6845F480751D6008BFBDE8F087C1E601
:104600002DE9F04F8BB0002641F24C000596C4F224
:104610000200016840F2184541F0040101600168A0
:10462000C4F6000501F0040106910699016801AC89
:1046300041F001010160016840F6140901F0010137
:10464000069106990168C4F6000941F00201016073
:104650000068214600F00200069006984FF448706A
:10466000019001200290A5F118000127CDE9036611
:10467000FDF738F84FF48070CDE901074FF0904016
:104680002146CDE90366FDF72DF84FF6FF7005F5DD
:104690007A7406904FF0030806A920460A964FF652
:1046A000FF7B0797CDE90868FDF71CF84FF6004A35
:1046B000CFF6FF7A55F80A0006A940F4807045F855
:1046C0000A0028684FF6FF7740F4087028602869D0
:1046D00040F400702861286940F4807028612868DF
:1046E00040F020002860C9F80060286940F02000F0
:1046F000286100BF00BF00BF286840F0200028608C
:10470000286840F48070286020460A96CDF818B0DA
:10471000CDF82480CDE90766FCF7E4FF4FF6104B97
:10472000CFF6FF7B55F80B0007A940F4807045F8E1
:104730000B0000BF00BF00BFD5F8F89355F80A0082
:1047400040F4807045F80A00012081E8410106A983
:1047500020460A960697FCF7C5FF286848F23021E4
:1047600040F40070286040F2AE00C2F20000A0F8F1
:1047700000900088884203D100F078F802E000BF82
:1047800000F0E8FD2869002640F4007028612869DF
:104790004FF6FF7840F48070286128684FF00309D5
:1047A00040F02000286040F61400C4F600000660C7
:1047B000286906A940F02000286100BF00BF00BFA3
:1047C000286840F020002860286840F48070286045
:1047D00020460A96CDE90686CDE90869FCF782FFF6
:1047E00055F80B0007A940F4807045F80B0000BF96
:1047F00000BF00BFD5F8F87355F80A0040F4807088
:1048000045F80A00012081E8410206A920460A96DF
:10481000CDF81880FCF766FF286840F40070286027
:1048200040F2AE00C2F2000007800BB0BDE8F08F8E
:1048300081B0ADF80200BDF8020040F21001C2F2F2
:104840000001088001B0704781B0ADF80200BDF8EA
:10485000020040F2AC01C2F20001088001B07047D2
:10486000FEE70000FEE700007047000040F218403D
:10487000C4F600000169002241F400710161016980
:104880004FF0030C41F480710161016841F0200197
:104890000160C0F8FC23016941F02001016100BF03
:1048A00000BF00BF016841F020010160016841F4D0
:1048B000807101600121C0F8FC13036943F02003FB
:1048C000036100BF00BF00BF036843F02003036023
:1048D000036843F480730360036943F40073036166
:1048E000036943F480730361036843F020030360AA
:1048F000C0F8FC13036943F02003036100BF00BF4D
:1049000000BF036843F020030360036843F480732F
:104910000360C0F8FC23026942F02002026100BF7C
:1049200000BF00BF026842F020020260026842F449
:1049300080720260026942F400720261026942F40C
:1049400080720261026842F0200202601022C0F808
:10495000FC23026942F02002026100BF00BF00BFD9
:10496000026842F020020260026842F48072026033
:1049700041F29072C0F8FC23026942F02002026109
:1049800000BF00BF00BF026842F020020260026860
:1049900042F480720260026942F4007202610269AC
:1049A00042F480720261026842F0200202606022DA
:1049B000C0F8FC23026942F02002026100BF00BF80
:1049C00000BF026842F020020260026842F4807276
:1049D00002604FF41C52C0F8FC23026942F020022E
:1049E000026100BF00BF00BF026842F02002026007
:1049F000026842F480720260026942F4007202614D
:104A0000026942F480720261026842F02002026090
:104A10006122C0F8FC23026942F02002026100BF5B
:104A200000BF00BF026842F020020260026842F448
:104A300080720260C0F8FC13016941F0200101613D
:104A400000BF00BF00BF016841F0200101600168A4
:104A500041F480710160016941F4007101610169F3
:104A600041F480710161016841F02001016046213B
:104A7000C0F8FC13016941F02001016100BF00BFD3
:104A800000BF016841F020010160016841F48071BC
:104A900001600221C0F8FC13026942F020020261A9
:104AA00000BF00BF00BF026842F02002026002683F
:104AB00042F480720260026942F40072026102698B
:104AC00042F480720261026842F020020260132206
:104AD000C0F8FC23026942F02002026100BF00BF5F
:104AE00000BF026842F020020260026842F4807255
:104AF000026048F21002C0F8FC23026942F0200272
:104B0000026100BF00BF00BF026842F020020260E5
:104B1000026842F480720260026942F4007202612B
:104B2000026942F480720261026842F0200202606F
:104B30001222C0F8FC23026942F02002026100BF89
:104B400000BF00BF026842F020020260026842F427
:104B50008072026048F2FE02C0F8FC23026942F053
:104B60002002026100BF00BF00BF026842F02002C5
:104B70000260026842F480720260026942F40072CC
:104B80000261026942F480720261026842F020020E
:104B90000260C0F8FC13016941F02001016100BF0F
:104BA00000BF00BF016841F020010160016841F4CD
:104BB000807101604FF4A061C0F8FC13016941F0FD
:104BC0002001016100BF00BF00BF016841F020016A
:104BD0000160016841F480710160016941F4007174
:104BE0000161016941F480710161016841F02001B6
:104BF0000160C0F8FCC3026942F02002026100BFFC
:104C000000BF00BF026842F020020260026842F466
:104C10008072026041F23002C0F8FC23026942F067
:104C20002002026100BF00BF00BF026842F0200204
:104C30000260026842F480720260026942F400720B
:104C40000261026942F480720261026842F020024D
:104C500002603022C0F8FC23026942F020020261A7
:104C600000BF00BF00BF026842F02002026002687D
:104C700042F48072026040F20332C0F8FC23036900
:104C800043F02003036100BF00BF00BF036843F08F
:104C900020030360036843F480730360036943F4F3
:104CA00000730361036943F480730361036843F095
:104CB000200303603123C0F8FC33036943F0200371
:104CC000036100BF00BF00BF036843F0200303601F
:104CD000036843F480730360C0F8FC23036943F066
:104CE0002003036100BF00BF00BF036843F020033F
:104CF0000360036843F480730360036943F4007343
:104D00000361036943F480730361036843F0200384
:104D100003603223C0F8FC33036943F020030361CE
:104D200000BF00BF00BF036843F0200303600368B7
:104D300043F480730360C0F8FC23036943F020034D
:104D4000036100BF00BF00BF036843F0200303609E
:104D5000036843F480730360036943F400730361E1
:104D6000036943F480730361036843F02003036025
:104D70003323C0F8FC33036943F02003036100BF11
:104D800000BF00BF036843F020030360036843F4DF
:104D9000807303604FF44073C0F8FC33016941F045
:104DA0002001016100BF00BF00BF016841F0200188
:104DB0000160016841F480710160016941F4007192
:104DC0000161016941F480710161016841F02001D4
:104DD00001603421C0F8FC13016941F02001016138
:104DE00000BF00BF00BF016841F020010160016801
:104DF00041F480710160C0F8FCC3016941F02001F9
:104E0000016100BF00BF00BF016841F020010160E7
:104E1000016841F480710160016941F40071016130
:104E2000016941F480710161016841F02001016074
:104E30003521C0F8FC13016941F02001016100BF78
:104E400000BF00BF016841F020010160016841F42A
:104E500080710160C0F8FC23016941F0200101610B
:104E600000BF00BF00BF016841F020010160016880
:104E700041F480710160016941F4007101610169CF
:104E800041F480710161016841F020010160362127
:104E9000C0F8FC13016941F02001016100BF00BFAF
:104EA00000BF016841F020010160016841F4807198
:104EB00001601421C0F8FC13016941F02001016177
:104EC00000BF00BF00BF016841F020010160016820
:104ED00041F480710160016941F40071016101696F
:104EE00041F480710161016841F0200101603721C6
:104EF000C0F8FC13016941F02001016100BF00BF4F
:104F000000BF016841F020010160016841F4807137
:104F10000160C0F8FC23016941F02001016100BF7C
:104F200000BF00BF016841F020010160016841F449
:104F300080710160016941F400710161016941F40E
:104F400080710161016841F0200101603821C0F8E1
:104F5000FC13016941F02001016100BF00BF00BFE7
:104F6000016841F020010160016841F48071016035
:104F7000C0F8FC23016941F02001016100BF00BFBE
:104F800000BF016841F020010160016841F48071B7
:104F90000160016941F400710161016941F48071AE
:104FA0000161016841F0200101603921C0F8FC1362
:104FB000016941F02001016100BF00BF00BF01682D
:104FC00041F020010160016841F480710160C0F886
:104FD000FC23016941F02001016100BF00BF00BF57
:104FE000016841F020010160016841F480710160B5
:104FF000016941F400710161016941F4807101614D
:10500000016841F0200101603A21C0F8FC130169F8
:1050100041F02001016100BF00BF00BF016841F005
:1050200020010160016841F480710160C0F8FC3327
:10503000016941F02001016100BF00BF00BF0168AC
:1050400041F020010160016841F480710160016953
:1050500041F400710161016941F4807101610168ED
:1050600041F0200101603B21C0F8FC13016941F0CF
:105070002001016100BF00BF00BF016841F02001B5
:105080000160016841F480710160C0F8FCC30169EE
:1050900041F02001016100BF00BF00BF016841F085
:1050A00020010160016841F480710160016941F4EF
:1050B00000710161016941F480710161016841F091
:1050C000200101603C21C0F8FC13016941F020017E
:1050D000016100BF00BF00BF016841F02001016015
:1050E000016841F480710160C0F8FC23016941F05E
:1050F0002001016100BF00BF00BF016841F0200135
:105100000160016841F480710160016941F400713E
:105110000161016941F480710161016841F0200180
:1051200001603D21C0F8FC13016941F020010161DB
:1051300000BF00BF00BF016841F0200101600168AD
:1051400041F4807101604FF4A051C0F8FC13016973
:1051500041F02001016100BF00BF00BF016841F0C4
:1051600020010160016841F480710160016941F42E
:1051700000710161016941F480710161016841F0D0
:10518000200101609221C0F8FC13016941F0200167
:10519000016100BF00BF00BF016841F02001016054
:1051A000016841F4807101604FF40071C0F8FC1394
:1051B000016941F02001016100BF00BF00BF01682B
:1051C00041F020010160016841F4807101600169D2
:1051D00041F400710161016941F48071016101686C
:1051E00041F0200101609321C0F8FC13016941F0F6
:1051F0002001016100BF00BF00BF016841F0200134
:105200000160016841F480710160C0F8FC2301690C
:1052100041F02001016100BF00BF00BF016841F003
:1052200020010160016841F480710160016941F46D
:1052300000710161016941F480710161016841F00F
:10524000200101609021C0F8FC13016941F02001A8
:10525000016100BF00BF00BF016841F02001016093
:10526000016841F48071016040F60D01C0F8FC1343
:10527000016941F02001016100BF00BF00BF01686A
:1052800041F020010160016841F480710160016911
:1052900041F400710161016941F4807101610168AB
:1052A00041F020010160C0F8FCC3016941F0200118
:1052B000016100BF00BF00BF016841F02001016033
:1052C000016841F48071016041F21801C0F8FC13DB
:1052D000016941F02001016100BF00BF00BF01680A
:1052E00041F020010160016841F4807101600169B1
:1052F00041F400710161016941F48071016101684B
:1053000041F0200101600721C0F8FC13016941F060
:105310002001016100BF00BF00BF016841F0200112
:105320000160016841F48071016040F27311C0F8BE
:10533000FC13016941F02001016100BF00BF00BF03
:10534000016841F020010160016841F48071016051
:10535000704700002DE9F04F81B040F21844C4F6C8
:10536000000420694FF0120940F4007020612069A8
:10537000002540F4807020612068112640F0200054
:105380002060E320C4F8FC0320694FF0130B40F0C9
:105390002000206100BF00BF00BF2068102740F040
:1053A0002000206020684FF0070840F480702060E3
:1053B00043F20800C4F8FC03206940F0200020619B
:1053C00000BF00BF00BF206840F0200020602068C0
:1053D00040F480702060206940F4007020612069F2
:1053E00040F480702061206840F020002060E720B9
:1053F000C4F8FC03206940F02000206100BF00BF1A
:1054000000BF206840F020002060206840F48070D9
:105410002060C4F8FC93206940F02000206100BFA8
:1054200000BF00BF206840F020002060206840F4EA
:1054300080702060206940F400702061206940F491
:1054400080702061206840F020002060EF20C4F8C8
:10545000FC03206940F02000206100BF00BF00BFB6
:10546000206840F020002060206840F480702060B8
:1054700041F23120C4F8FC03206940F02000206193
:1054800000BF00BF00BF206840F0200020602068FF
:1054900040F480702060206940F400702061206931
:1054A00040F480702061206840F0200020600120DE
:1054B000C4F8FC03206940F02000206100BF00BF59
:1054C00000BF206840F020002060206840F4807019
:1054D0002060C4F8FC53206940F02000206100BF28
:1054E00000BF00BF206840F020002060206840F42A
:1054F00080702060206940F400702061206940F4D1
:1055000080702061206840F0200020600220C4F8F4
:10551000FC03206940F02000206100BF00BF00BFF5
:10552000206840F020002060206840F480702060F7
:105530004FF4E060C4F8FC03206940F020002061D3
:1055400000BF00BF00BF206840F02000206020683E
:1055500040F480702060206940F400702061206970
:1055600040F480702061206840F02000206003201B
:10557000C4F8FC03206940F02000206100BF00BF98
:1055800000BF206840F020002060206840F4807058
:10559000206041F23000C4F8FC03206940F0200094
:1055A000206100BF00BF00BF206840F020002060E5
:1055B000206840F480702060206940F40070206111
:1055C000206940F480702061206840F02000206055
:1055D0000420C4F8FC03206940F02000206100BFD3
:1055E00000BF00BF206840F020002060206840F429
:1055F00080702060C4F8FC53206940F020002061D6
:1056000000BF00BF00BF206840F02000206020687D
:1056100040F480702060206940F4007020612069AF
:1056200040F480702061206840F020002060082055
:10563000C4F8FC03206940F02000206100BF00BFD7
:1056400000BF206840F020002060206840F4807097
:10565000206040F20720C4F8FC03206940F02000DD
:10566000206100BF00BF00BF206840F02000206024
:10567000206840F480702060206940F40070206150
:10568000206940F480702061206840F02000206094
:105690000920C4F8FC03206940F02000206100BF0D
:1056A00000BF00BF206840F020002060206840F468
:1056B00080702060C4F8FC53206940F02000206115
:1056C00000BF00BF00BF206840F0200020602068BD
:1056D00040F480702060206940F4007020612069EF
:1056E00040F480702061206840F0200020600A2093
:1056F000C4F8FC03206940F02000206100BF00BF17
:1057000000BF206840F020002060206840F48070D6
:105710002060C4F8FC53206940F02000206100BFE5
:1057200000BF00BF206840F020002060206840F4E7
:1057300080702060206940F400702061206940F48E
:1057400080702061206840F0200020600C20C4F8A8
:10575000FC03206940F02000206100BF00BF00BFB3
:10576000206840F020002060206840F480702060B5
:10577000C4F8FC53206940F02000206100BF00BF46
:1057800000BF206840F020002060206840F4807056
:105790002060206940F400702061206940F480702E
:1057A0002061206840F0200020600D20C4F8FC0338
:1057B000206940F02000206100BF00BF00BF2068CA
:1057C00040F020002060206840F480702060C4F821
:1057D000FC53206940F02000206100BF00BF00BFE3
:1057E000206840F020002060206840F48070206035
:1057F000206940F400702061206940F480702061CD
:10580000206840F0200020600F20C4F8FC032069CD
:1058100040F02000206100BF00BF00BF206840F0C2
:1058200020002060206840F480702060C4F8FC53A1
:10583000206940F02000206100BF00BF00BF206849
:1058400040F020002060206840F4807020602069D3
:1058500040F400702061206940F48070206120686D
:1058600040F0200020601020C4F8FC03206940F0C4
:105870002000206100BF00BF00BF206840F0200072
:105880002060206840F480702060C4F8FC532069D8
:1058900040F02000206100BF00BF00BF206840F042
:1058A00020002060206840F480702060206940F46F
:1058B00000702061206940F480702061206840F011
:1058C00020002060C4F8FC63206940F020002061C3
:1058D00000BF00BF00BF206840F0200020602068AB
:1058E00040F4807020600720C4F8FC03206940F079
:1058F0002000206100BF00BF00BF206840F02000F2
:105900002060206840F480702060206940F40070BE
:105910002061206940F480702061206840F0200000
:105920002060C4F8FC93206940F02000206100BF93
:1059300000BF00BF206840F020002060206840F4D5
:1059400080702060C4F8FC53206940F02000206182
:1059500000BF00BF00BF206840F02000206020682A
:1059600040F480702060206940F40070206120695C
:1059700040F480702061206840F020002060C4F86E
:10598000FCB3206940F02000206100BF00BF00BFD1
:10599000206840F020002060206840F48070206083
:1059A000C4F8FC53206940F02000206100BF00BF14
:1059B00000BF206840F020002060206840F4807024
:1059C0002060C820FBF77AFE20694FF0320A40F4CD
:1059D00000702061206940F480702061206840F0F0
:1059E00020002060C4F8FC732069102740F02000DC
:1059F000206100BF00BF00BF206840F02000206091
:105A0000206840F48070206041F29060C4F8FC038C
:105A1000206940F02000206100BF00BF00BF206867
:105A200040F020002060206840F4807020602069F1
:105A300040F400702061206940F48070206120688B
:105A400040F020002060C4F8FC63206940F0200092
:105A5000206100BF00BF00BF206840F02000206030
:105A6000206840F48070206040F22720C4F8FC03D6
:105A7000206940F02000206100BF00BF00BF206807
:105A800040F020002060206840F4807020603220C8
:105A9000FBF714FE206940F400702061206940F497
:105AA00080702061206840F020002060C4F8FC93E2
:105AB000206940F02000206100BF00BF00BF2068C7
:105AC00040F020002060206840F4807020601D209D
:105AD000C4F8FC03206940F02000206100BF00BF33
