:020000040800F2
:1000000078050020010100089B27000859220008FC
:1000100099270008FB0A0008AD2A0008000000002C
:100020000000000000000000000000009F27000802
:10003000FD0A0008000000009D270008A127000815
:100040001B0100081B0100081B0100081B01000820
:100050001B0100081B0100081B0100081B01000810
:100060001B0100081B0100081B0100081B01000800
:100070001B0100081B0100081B0100081B010008F0
:100080001B0100081B0100081B0100081B010008E0
:100090001B0100081B0100081B0100081B010008D0
:1000A0001B0100081B0100081B0100081B010008C0
:1000B0000D2800081B0100081B0100081B01000897
:1000C0001B0100081B0100081B0100081B010008A0
:1000D0001B010008A12A00081B0100081B010008E1
:1000E0001B0100081B0100081B010008DFF80CD0F1
:1000F00000F090FC00480047393B000878050020DC
:100100000648804706480047FEE7FEE7FEE7FEE7B1
:10011000FEE7FEE7FEE7FEE7FEE7FEE70B28000846
:10012000ED0000082DE9F0410024061B254671F181
:10013000000605DA01240027D0EB070067EB010178
:10014000161E73F1000605DA0027D2EB070201251F
:1001500067EB030300F030FB86460E4617469C46CD
:10016000AC4204D00025D0EB050E65EB010624B1AE
:100170000020D2EB000760EB030C704631463A4694
:100180006346BDE8F081D2B201E000F8012B491EC0
:10019000FBD270470022F6E710B513460A46044624
:1001A0001946FFF7F0FF204610BD30B50446002089
:1001B000034600E05B1C934203D2E05CCD5C401B35
:1001C000F8D030BDF0B480EA0102D40F4200B2EBA7
:1001D000410F02D20246084611464A0042D0C30DE2
:1001E000DDB2C1F3C752AD1A202D35DAC1F31601C5
:1001F00041F4000204B15242C5F1200602FA06F1B0
:100200002A411044B3EBD05F23D0C4B1012DA0EB41
:10021000C35009DCF0BC4FF0004202EAC352DBB22B
:1002200000F5000000F023BB400000F1807000EBFF
:10023000C350A0F1807040EAD170490009E049083C
:1002400041EAC071A0EBC35000F50000400800EB8C
:10025000C350F0BC00F002BB6142012202EB41013D
:10026000001BF6E7F0BC704781F00041AAE780F080
:100270000040A7E780EA010210B502F00043400009
:1002800022D04A001FD0010E01EB1261C0F35600CC
:10029000C2F3560240F4000042F40002A0FB022028
:1002A00000047F39140400D0401C50EA124001D4ED
:1002B0004000491EC2B20C0604EBD010401C40089E
:1002C000802A02D003E0002010BD20F001000029A8
:1002D00000DA0020184310BD30B480EA010202F0B9
:1002E000004530F0004221F0004013D090B1C30D22
:1002F000D40DC2F31601C0F31600E41A41F4000154
:1003000040F400027D34914201D3641C00E04900B6
:10031000002C02DA30BC002070474FF400000023AC
:10032000914201D3891A034340084FEA4101F7D1B2
:1003300051B1914202D14FF0004105E002D24FF09D
:10034000010101E06FF0010103EBC450284430BC0F
:1003500000F084BA2DE9FE4F804681EA0300C00F09
:100360000C46009021F0004123F00045B8EB02005C
:10037000A94105D24046214690461C460B460246FE
:1003800023F00040104347D0270DC7F30A00C3F302
:100390000A510290401A019040286BDAC3F313000F
:1003A00040F4801B0098924620B10023D2EB030A50
:1003B00063EB0B0B01985946C0F14002504600F028
:1003C0002CFA06460D4650465946019A00F034FA7A
:1003D00010EB08006141002487EA115284EAE773B8
:1003E0001A4340D0009A62B3019A012A4FEA075299
:1003F00015DC001B61EB02014FF0004202EA0752DC
:10040000CDE90042001C41F5801132462B4600F038
:100410006BFA03B0BDE8F08F40462146F9E7001BB8
:1004200061EB0201001C41F5801300185B412018AC
:10043000A2F5001747EB030140EAD570B6196D41EC
:1004400011E06D084FEA360645EAC0754FEA0752DB
:10045000001B61EB0201001C41F5801149084FEAC5
:1004600030000019514132462B4603B0BDE8F04F31
:1004700000F02BBA0098012240000023D0EB0202CA
:1004800063EBE073009821464FEAE074B8EB00009C
:1004900061EB0401E9E783F000435BE781F0004191
:1004A00058E72DE9FE4F81EA030404F0004421F0EF
:1004B000004100944FF0000B23F0004350EA010488
:1004C0005ED052EA03045BD0C3F30A54C1F30A5569
:1004D0002C44A4F2F3340194A0FB0254C1F31301A1
:1004E00041F48011C3F3130343F4801301FB02446E
:1004F00000FB034E840A970A44EA815447EA835773
:10050000A4FB076802958D0A05FB07854FEA932C2B
:1005100004FB0C542705029D4FEA065847EA16379C
:10052000B5EB08056EEB070C870E920E47EA8117B4
:1005300042EA8312A7FB0201B6EB0B0164EB000455
:100540002B0D43EA0C335E1844EB1C50DA4651463F
:10055000E7FB0201C5F313044FEA0B3343EA1453DC
:100560004FEA0432019C43EA0603A4F10C0402940E
:10057000009CCDE900B400F0B7F903B0BDE8F08FFE
:1005800000200146F9E72DE9F04D81EA030404F06B
:10059000004B21F0004514464FF0000A23F00041C3
:1005A00050EA050220D054EA01021DD0C5F30A57D3
:1005B0000246C5F31303C1F31300C1F30A5640F416
:1005C000801543F48013A7EB0608101BD64608F2EB
:1005D000FD3873EB050002D308F1010801E0921821
:1005E0005B41B8F1000F03DA00200146BDE8F08D51
:1005F00000204FF48011064684460EE0171B73EB73
:10060000050705D3121B63EB050306434CEA010CF7
:1006100049084FEA300092185B4150EA0107EDD1DA
:1006200052EA030012D082EA040083EA050108437B
:1006300005D0101BAB4106D20122002306E00022A8
:100640004FF0004302E06FF0010253101AEB060076
:100650004CEB085110EB0A0041EB0B01BDE8F04DEB
:1006600000F033B9002801DBC0F10040002901DBB4
:10067000C1F10041814201D801207047002070473C
:10068000002801DBC0F10040002901DBC1F100417D
:10069000814201D20120704700207047002801DB11
:1006A000C0F10040002901DBC1F10041814201D1CC
:1006B0000120704700207047C10F80EAE0700844B5
:1006C000CA079623002100F0D2B8962300221146D3
:1006D00000F0CDB800F0004220F00040C10DC0F3A2
:1006E000160040F400007F2901DA002070479629A7
:1006F00003DCC1F19601C84001E096398840002A28
:10070000F4D04042704720F00040C10DC0F3160005
:1007100040F400007F2901DA00207047962903DCAD
:10072000C1F19601C840704796398840704700F083
:10073000004230F000400AD0C10D01F56071C0F3F5
:10074000160042EA0151C2084007114370470020D9
:100750000146704701F0004330B421F0004150EAF7
:10076000010206D00A0DA2F56072C1F31301002A3E
:1007700002DC30BC00207047440F44EAC104C100D1
:10078000E01830BC00EBC25000F068B830B50B4642
:10079000014600202022012409E021FA02F59D42B1
:1007A00005D303FA02F5491B04FA02F52844151E85
:1007B000A2F10102F1DC30BD2DE9F05F0546002019
:1007C00092469B4688460646814640241BE02846C2
:1007D00041464746224600F02FF953465A46C01A72
:1007E000914110D311461846224600F016F82D1AF2
:1007F00067EB01084F4622460120002100F00DF86A
:1008000017EB00094E41201EA4F10104DFDC48462D
:1008100031462A464346BDE8F09F202A04DB203AB1
:1008200000FA02F1002070479140C2F1200320FA43
:1008300003F3194390407047202A06DBCB17203A78
:1008400041FA02F043EAE07306E041FA02F3D040D5
:10085000C2F1200291400843194670470029A8BF01
:100860007047401C490008BF20F00100704710B4D9
:10087000B0FA80FC00FA0CF050EA010404BF10BC8E
:10088000704749B1CCF1200421FA04F411FA0CF1BB
:1008900018BF012121430843A3EB0C01CB1D4FEAF4
:1008A00000614FEA102042BF002010BC704700EBEF
:1008B000C35010440029A4BF10BC7047401C49001D
:1008C00008BF20F0010010BC704710B5141E73F172
:1008D000000408DA401C41F1000192185B411A4300
:1008E00001D120F0010010BD2DE9F04D92469B464C
:1008F00011B1B1FA81F202E0B0FA80F220329046F2
:10090000FFF78BFF04460F4640EA0A0041EA0B015D
:1009100053465A46084313D0114653EA010019D0F2
:10092000C8F14002504600F087F805460E46504692
:1009300059464246FFF771FF084305D0012004E005
:1009400020463946BDE8F08D0020054346EAE076B2
:100950002C4337430A986305E40AA0EB0800002201
:10096000FD0A44EA47540A3002D500200146E9E76F
:10097000010510196941DDE9084500196941BDE823
:10098000F04DA2E770B521F0004303430CD0C1F352
:100990000A550024D5EB040564EB0403D617AD1A01
:1009A000B34102DB0020014670BD201841EB02512B
:1009B00070BDC1F30A52C1F3130140F2FF3341F499
:1009C00080119A4202DA00200146704740F2334318
:1009D0009A42A2F2334202DC524200F02DB8FFF7F5
:1009E0001CBF000030B5041E71F1000404DB4FF0A1
:1009F0000044404264EB0101141E73F1000405DB66
:100A00001C464FF00043524263EB0403994208BF77
:100A1000904230BD064C074D06E0E06840F001030F
:100A200094E8070098471034AC42F6D3FFF762FB16
:100A3000EC6B00080C6C0008202A04DB203A21FA39
:100A400002F00021704721FA02F3D040C2F12002E7
:100A500091400843194670472DE9F04D00231A468E
:100A60001B1A8A4103DB00200146BDE8F08DC1F36B
:100A70000A52C1F3130141F480154FF0000BD10766
:100A800002D100186D41521E0027044640F2FF11AA
:100A9000384601EB620A3E468046024600204FF48B
:100AA0008011FFF7C9FFC2197141BB1846EB010065
:100AB000B4EB030C75EB000C04D3E41A65EB0005F2
:100AC00017460E46241908F101006D41804634286E
:100AD000E3DDF91946EB0600091BA84103D24FF0EC
:100AE000FF32134601E0002213461BEB070046EBE2
:100AF0000A51BDE8F04DFFF7E8BEFEE77047EFF39F
:100B0000108072B6FEE790F82110022912D1016818
:100B100001230A6822F00E020A600A6822F001022C
:100B20000A60D0E90F1203FA02F24A60002180F84D
:100B3000213002E0042181630121002280F820207D
:100B40000846704790F8211002291FBF04218163D5
:100B5000012070470268116821F00E0111601168D0
:100B600021F0010111601849184B9A420ED0184B20
:100B70009A420DD0174B9A420CD0174B9A420CD088
:100B8000164B9A420CD14FF4803311E001230FE051
:100B900010230DE04FF480730AE04FF4805307E018
:100BA00001F1680C4FF08073624508BF4FF4801369
:100BB0000B604FF480710184416B19B180B5884797
:100BC000002080BD00207047040002400800024061
:100BD0001C00024030000240440002405800024025
:100BE00070B505466E1C00F0F7F804461EB17C484F
:100BF0000078054401E04FF0FF3500F0EDF8001BF0
:100C0000A842FAD370BD00BF2DE9FE4F614A04230C
:100C10004FF0000B4FF0010C4FF00F0E4FF0000A99
:100C20004FF00008904200F1140208BF0323019224
:100C300000930A6832FA08F308BFBDE8FE8F0CFA89
:100C400008F73A4200F0A1804A68032A16D9112A0F
:100C500026D0122A28D0504B9A4213D04F4B9A429A
:100C60001CBF4F4B9A420DD04E4B9A421CBF4E4B6D
:100C70009A4207D04D4B9A4204D022E0DFE802F0BE
:100C800002181B1F8A6842B1012A019A4FF0080A14
:100C900008BF00F11002176013E04FF0040A10E0E3
:100CA000CA6802F1040A0CE0CA6802F10C0A08E002
:100CB000D1F80CA005E0CA6802F1080A01E04FF083
:100CC000000AB8F1080F0246454628BF04321368EF
:100CD000374C28BF2544AE000EFA06F50AFA06F690
:100CE000AB4333431360CA79D2064ED5314A4FEA3B
:100CF00098060BF00C090EFA09F5136843F001038E
:100D00001360126802F001020292029B2A4CA4F5C1
:100D10007E7353F8262022EA050C284A90420AD016
:100D2000274A90420AD0274ADDF800E0904208BFE7
:100D30004FF0020E04E04FF0000E01E04FF0010E04
:100D40000EFA09F24FF00F0E42EA0C024FF0010CBE
:100D500043F826204A68236812F4803F0CBFBB4347
:100D60003B4323609303636854BFBB433B436360CF
:100D7000D302154BA66854BFBE433E439202A66001
:100D80001A6854BFBA433A431A600BF1040B08F1D6
:100D900001084EE70014014000001110000012107D
:100DA000000021100000221000003110000032105D
:100DB000F8FFFF3F18100240000401400008014006
:100DC000000C0140001001400C040140002A08BF43
:100DD000090401617047000001488068704700BF46
:100DE00008000020B0B504462CB394F83D0028B9A3
:100DF000002084F83C00204600F08AFA242084F881
:100E00003D002068016821F001010160016841F4A2
:100E100000410160016821F40041016000F0E0FB45
:100E200065684849484A8D423CBF48F28042C0F25A
:100E30001E02904201D20120B0BD4449B0FBF1F244
:100E4000216801384B6823F03F0313434B600B6A62
:100E500023F03F0C3B4B9D4221BF4FF496735A4306
:100E60004FF47A73B2FBF3F201324CF6FF7342EAAD
:100E70000C020A62CA6922EA030C354A954209D873
:100E80006A00B0FBF2F001306FF31F30042898BF06
:100E900004202DE0D4F808E0BEF1000F08D019229C
:100EA00004236A43B0FBF2F2013263F31F3206E01F
:100EB00005EB4502B0FBF2F201326FF31F3212056F
:100EC0000BD0BEF1000F0AD019226A43B0FBF2F03A
:100ED0000422013062F31F3008E0012008E005EB36
:100EE0004502B0FBF2F001306FF31F3040F40040D8
:100EF00040EA0C00C8610868D4E9072320F0C0006C
:100F0000104348F2FF321843086088689043D4E9E0
:100F10000323184310438860C868D4E9052320F0F0
:100F2000FF0010431843C860086840F001000860E3
:100F300000202021206484F83D10206384F83E00C6
:100F4000B0BD00BFA186010000093D0040420F0076
:100F5000A08601002DE9FF47044600201F461646E3
:100F60000D460390FFF738FF814694F83D00202896
:100F70000CD1CDF80090204601221923E24901F05E
:100F800089FA18B994F83C00012804D10220C0B2B3
:100F900004B0BDE8F0870122DDE90C10DDF83880EF
:100FA00084F83C202268136813F0010F02BF136815
:100FB00043F001031360136823F4006313602222DB
:100FC0003B4684F83D20402284F83E2000222264E3
:100FD0006162608529463246608D2085CB48E0629B
:100FE0002046CDE9008901F051F9002840F0F78052
:100FF000218DB9B12068012921D1016821F48061D6
:101000000160EFF3108072B6002002902068416901
:101010000291816902910299016841F400710160B5
:1010200062B62DE00020029020684169029181693A
:1010300002910299016841F40071016020E00268A8
:10104000022913D142F400610160EFF3108072B6FF
:101050000020029020684169029181690291029901
:10106000016821F48061016062B609E042F48061A8
:101070000160002102914169029180690290029809
:10108000208DDFF85CA946F2A81623278DE085B2F3
:10109000032D09D8012D22D1204641464A4601F0B0
:1010A0007BFA002874D09AE0204641464A4601F077
:1010B00073FA002840F0938020680069616A087024
:1010C000606A411C6162208D01382085628D013A81
:1010D00062852268536913F0040F66D05AE0CDF898
:1010E00000902046002243463E4901F0D3F9022DEC
:1010F00017D1002873D1EFF3108072B62068016811
:1011000041F4007101600069616A0870606A013031
:101110006062208D01382085608D0138608562B65F
:1011200036E000285BD12068016821F4806101600D
:10113000EFF3108072B620680069616A0870606A17
:1011400001306062218D01392185618D0139618510
:10115000DAF80010B1FBF6F17943039103990139F4
:101160000391039969B321684A6912F0040FF5D01D
:101170000A6842F400720A6009690170606A01300D
:101180006062208D01382085608D0138608562B6EF
:101190002268616A10690870606A01306062208D9F
:1011A00001382085618D0139618501047FF46FAFBD
:1011B000202084F83D00002084F83E0084F83C00A4
:1011C000E5E600202021206384F83D1084F83E00ED
:1011D000216C41F02001216462B684F83C000120BA
:1011E000D5E600BF040001002DE9FE4399461646EE
:1011F0000F460446FFF7F0FD054694F83D00202811
:101200000BD100952046012219233F4901F042F9F4
:1012100018B994F83C00012804D10220C0B203B0F0
:10122000BDE8F0830122DDE90A10DDF8308084F8A2
:101230003C202268136813F0010F02BF136843F0CB
:1012400001031360136823F40063136021224B46EB
:1012500084F83D20402284F83E200022226461620E
:10126000608539463246608D20852848E0622046F8
:10127000CDE9008501F08AF808B10120CEE7208D84
:1012800023E0204641462A4601F0B7F928BB616AAF
:101290002268084610F8013B13616062238D581ED6
:1012A0002085678D013F6785576917F0040F0CD0C3
:1012B00000044FF0000008D048781061881C60627C
:1012C000981E2085618D013961850004D9D12046A1
:1012D00041462A4601F0B6F840B1206C0428CCD132
:1012E0002068016841F400710160C6E72068016868
:1012F00041F400710160202084F83D00002084F852
:101300003E0084F83C0089E7020010000000FFFF67
:1013100010B586B00021CDE90411CDE902110168B4
:10132000114881421DD13A4C00F53840216841F006
:1013300008012160216801F0080101910199C02193
:101340000291122103910321059102A9FFF75CFC90
:10135000606840F400106060606800F40010019064
:10136000019806B010BD00BF005400401948017834
:10137000826811448160704780B50748016841F078
:1013800010010160032000F081F80F2000F006F842
:1013900000F022F8002080BD0020024070B50D4E04
:1013A00004464FF47A713078B1FBF0F09649096841
:1013B000B1FBF0F000F018FB01250F2C08D838B96C
:1013C0004FF0FF3021460022002500F033F8746012
:1013D000284670BD0800002082B00D480222016836
:1013E00041F001010160016801F0010101910199E1
:1013F000416841F080514160406800F080500090A9
:1014000000980448016862F31A61016002B07047F5
:101410001810024004000140002808DB00F01F0102
:101420000122400902FA01F1014A42F820107047F6
:1014300000E100E0B0B5144C1A4D00F00F03B0F11C
:10144000FF3FA3F104032B4403F10C03C8BF0319AE
:101450002868C0F30220051DC41E80F00700072D78
:101460004FF0010538BF0024042828BF042005FAE6
:1014700000F00138084005FA04F10F31A040114096
:10148000084300011870B0BD00E400E005494FF6C4
:10149000FF030A681A4060F30A22034810430860F9
:1014A000704700BF0CED00E00000FA052DE9F041A7
:1014B00004468846002C00F08880464F4FF4805048
:1014C000395801F0070141450AD2395821F0070186
:1014D00041EA08013950385800F00700404574D1FE
:1014E000206810F0020F11D0410742BF796841F423
:1014F000E0617960010742BF796841F46051796029
:101500007968A26821F0F00111437960C00727D003
:101510006068012804D1396811F4003F08D154E013
:101520003968022802D1890102D44EE089074CD5DE
:10153000796821F0030108437860FFF74DFC064607
:1015400041F288357868616800F00C00B0EB810FDB
:1015500006D0FFF741FC801BA842F3D9032035E0F9
:101560004FF48050395801F0070141450AD93958E4
:1015700021F0070141EA08013950385800F007000E
:10158000404522D1206810F0040F05D07968E26848
:1015900021F4E06111437960000706D5786821697C
:1015A00020F4605040EAC100786000F031F87968BA
:1015B000094AC1F30311515CC84013490860074848
:1015C0000068FFF7EBFE002000E00120C0B2BDE89C
:1015D000F08100BF00100240A85E00080C0000204F
:1015E00009480A4A006818490968C1F30221515C98
:1015F000C8407047FA48054A0068F7490968C1F3CE
:10160000C221515CC840704738000020B85E000815
:101610000D490A680D4802F00C03082B18BF7047EB
:10162000C2F3834C0AA312F4803F13F80C3002D1AA
:101630000C4858437047096809A25843C1F3404118
:10164000515CB0FBF1F070470410024000127A00C8
:1016500002030405060708090A0B0C0D0E0F1010F3
:101660000102000000093D002DE9FE4F8246BAF15B
:10167000000F00F065819AF80000D64ED64FC007E3
:1016800050D0386800F00C00042819D0386800F0F9
:101690000C00082803D1386810F4803F10D1DAF824
:1016A0000400A8B1B0F5803F06D03168B0F5A02F96
:1016B00024D141F480203060306840F4803023E051
:1016C000306810F4003F2DD0DAF8040050BB37E149
:1016D000306820F480303060306820F48020306042
:1016E000FFF77AFB0546306810F4003F1AD0FFF789
:1016F00073FB411B03206429F5D922E121F48030DA
:101700003060306820F480203060FFF765FB0546CC
:10171000306810F4003F05D1FFF75EFB401B6428E2
:10172000F6D9EBE09AF800008007AC48834632D542
:10173000386810F00C0F1DD0386800F00C00082835
:1017400004BF386810F4803F14D0DAF81000002885
:1017500000F09580012059460860FFF73DFB0546E3
:10176000306810F0020F0ED1FFF736FB401B022845
:10177000F6D9C3E0306810F0020F1CBFDAF8100091
:10178000012840F0DD803068DAF8141020F0F8000D
:1017900040EAC10030609AF80000000731D5DAF85D
:1017A000180080B101205946C1F88004FFF714FBEE
:1017B0000546386A10F0020F16D1FFF70DFB401BEB
:1017C0000228F6D99AE000205946C1F88004FFF7B4
:1017D00003FB0546386A10F0020F12D0FFF7FCFA3F
:1017E000401B0228F6D989E07D484FF4FA51006881
:1017F000B0FBF1F0029000BF0298411E0028029158
:10180000F9D19AF80000400740F18180B86910F0E2
:10181000805F0BD1B8694FF0010840F08050B8618B
:10182000B86900F080500190019801E04FF0000885
:101830006C48305810F4807F12D16A48315841F416
:1018400080713150FFF7C8FA05466648305810F4E9
:10185000807F05D1FFF7C0FA401B6428F5D94DE021
:10186000DAF80C00E8B1012805D0F969052830D173
:1018700041F00400F861F86940F001002FE0002019
:1018800059460860FFF7A8FA0546306810F0020FC5
:101890003FF481AFFFF7A0FA411B03200229F4D9DE
:1018A0004FE0F86920F00100F861F86920F00400C9
:1018B000F861FFF791FA054641F28839F86910F0AE
:1018C000020F1DD0FFF788FA411B03204945F5D9C7
:1018D00037E021F00100F861F86920F00400F861B8
:1018E000FFF77AFA054641F28834F86910F0020FE2
:1018F00006D1FFF771FA401BA042F6D9032020E081
:10190000B8F1010F02BFB86920F08050B861DAF871
:101910001C405946002C5AD0386800F00C000828AA
:1019200013D1012C0CD03868DAF8201000F4803282
:101930008A4205D1DAF8241000F47010884246D0AB
:101940000120C0B203B0BDE8F08F00200866FFF7A9
:1019500043FA0546022C0AD1306810F0007F11D0FE
:10196000FFF73AFA411B03200229F5D9E9E730686D
:1019700010F0007F2BD0FFF72FFA411B0320022924
:10198000F5D9DEE7DAF82000B0F5803F06D13968F6
:10199000DAF8082021F4003111433960396821F464
:1019A00074110843DAF82410084338600120CBF89A
:1019B0006000FFF711FA0446306810F0007F06D18E
:1019C000FFF70AFA011B03200229F5D9B9E7002025
:1019D000B7E700BF0010024004100240000042427E
:1019E000380000200060FEFF411E0020B0EB116FA8
:1019F0001CBF01207047044AF023516003490B705B
:101A0000072190601160704710E000E023ED00E0D6
:101A10007047704790F83C300222012B28D080B5E7
:101A2000012380F83C3080F83D2002685368D2F8EA
:101A300008C0B2F1804F23F0700E0B6843EA0E032A
:101A40005360BDE8804008D0414B9A421CBF414BD7
:101A50009A4202D0404B9A4204D149682CF080034C
:101A6000194391600121002280F83D1080F83C204C
:101A7000D0B2704710B5044634B394F83D0028B98D
:101A8000002084F83C00204600F020F80220211DB0
:101A900084F83D00206800F0BFFE012084F8460075
:101AA00084F83E0084F83F0084F8400084F8410048
:101AB00084F8420084F8430084F8440084F8450028
:101AC00084F83D00002010BD012010BD0068B0F179
:101AD000804F18BF7047E0B509480022016841F007
:101AE000010101600021006800F0010001900198EF
:101AF0001C20FFF79FFC1C20BDE88C40FFF78CBC2E
:101B00001C10024090F83D1001291CBF01207047B5
:101B1000022180F83D100068C168B0F1804F41F0AB
:101B20000101C16008D00A4988421CBF09498842A6
:101B300002D00949884204D1816801F007010629D1
:101B400003D0016841F0010101600020704700BF2F
:101B500000040040002C01400008004010B504467D
:101B6000022094F83C20012A7ED0012284F83C20F7
:101B700084F83D004FF67772206884465CF8083F91
:101B800023EA0202CCF800200B6813B3102B20D0FC
:101B9000202B18BF302B1CD0402B22D0502B2ED006
:101BA000602B3AD0B3F5005F45D0702B56D1D1E908
:101BB0000102C968104340EA0120DCF8001021F45A
:101BC0007F410843CCF80000DCF8000040F07700CB
:101BD00042E0DCF8000020F07700184340F00700F6
:101BE0003AE04B68CA68194600F050FED4F800C0CD
:101BF0005CF8080F20F0770040F047002CE04B68BD
:101C0000CA68194600F042FED4F800C05CF8080F1C
:101C100020F0770040F057001EE04B68CA68194674
:101C200000F045FED4F800C05CF8080F20F0770003
:101C300040F0670010E0D1E90102C968104340EAB2
:101C40000120DCF8001021F47F410843CCF80000AB
:101C5000DCF8000040F48040CCF80000012084F85B
:101C60003D00002084F83C00C0B210BD704710B5A4
:101C700004462068016911F0020F1CBFC16811F011
:101C8000020F15D06FF002010161012121778069F7
:101C900010F0030F03D02046FFF7E8FF05E02046D1
:101CA00000F09EF8204600F09CF800202077206885
:101CB000016911F0040F1CBFC16811F0040F15D0A9
:101CC0006FF00401016102212177806910F4407FE7
:101CD00003D02046FFF7CAFF05E0204600F080F859
:101CE000204600F07EF8002020772068016911F07E
:101CF000080F1CBFC16811F0080F15D06FF0080164
:101D0000016104212177C06910F0030F03D0204640
:101D1000FFF7ACFF05E0204600F062F8204600F037
:101D200060F8002020772068016911F0100F1CBFB7
:101D3000C16811F0100F15D06FF01001016108217A
:101D40002177C06910F4407F03D02046FFF78EFF53
:101D500005E0204600F044F8204600F042F800205C
:101D600020772068016911F0010F1CBFC16811F0D4
:101D7000010F06D06FF001010161204600F032F83A
:101D80002068016911F0800F1CBFC16811F0800F3D
:101D900006D06FF0800101612046FFF739FE206810
:101DA000016911F0400F1CBFC16811F0400F06D04F
:101DB0006FF040010161204600F05EF82068016983
:101DC00011F0200F1CBFC16811F0200F00D110BD11
:101DD0006FF0200101612046BDE81040FFF719BEF9
:101DE000704770472DE9FF411C4C0546204602F024
:101DF000E1FD1B48854201D0BDE8FF8119484CF246
:101E00004F33018801318AB29A4288BF0021018094
:101E100088B20A21B0FBF1F101EB8101A0EB410096
:101E2000002818BFBDE8FF81D4E90050A468FEF780
:101E30007EFC804620460F46FEF779FC0446284685
:101E40000E46FEF774FC024607A00B46CDE900875C
:101E5000CDE9024602F070FFBDE8FF812C000020B2
:101E6000D400002070000020252E32662C252E3252
:101E7000662C252E32660A007047704770470000B6
:101E8000F8B5044622681068D168556900F02F063D
:101E900001F02003202E05D123B12046BDE8F840F3
:101EA00000F032BD5FEA007C08D005F0010E11F4AD
:101EB000907F8EF001054AD1002D48D00840C10620
:101EC000216B2ED501292CD10020009010680090A4
:101ED000506800900098506910F0400F40F08E80DC
:101EE000A08DE18DE38D002B00F0DC80401A81B2E3
:101EF000002900F0D780D06820F49070D06050693D
:101F000020F001005061202084F83E000020206372
:101F1000D06820F01000D0602046BDE8F440FFF704
:101F2000ACBF010640F1978094F83D00212840F0B5
:101F3000B980A068B0F5805F04BF2069002800F078
:101F4000A380206A411C216200785060A3E0C6078C
:101F500006D011F480761EBF266C46F0010626647A
:101F600000F00407012686EA97072F4302BF276C7B
:101F700047F00207276400F0020786EA5706354358
:101F800002BF256C45F00405256453EA0E0318BF13
:101F90000123BCF1000F05D5012B02BF236C43F0D8
:101FA00008032364236C002B7CD00840800603D5F3
:101FB000204600F0A9FC22685069216C00F0400026
:101FC00001F00801084359D0204600F087FC206842
:101FD000416911F0400F4CD0416921F0400141614D
:101FE000A06B002845D034494163FEF7ABFD0028C3
:101FF00058D0A06B416BBDE8F8400847A06B016862
:102000004B689EB2002E4DD0A18D8E424AD2E38500
:102010008369202B17D0D16821F48071D160516978
:1020200021F001015161516921F0400151612021EC
:1020300084F83E1000212163D16821F01001D160A5
:10204000FEF761FDA18DE08D081A81B22046BDE842
:10205000F840FFF712BF400624D5D06820F04000BA
:10206000D060202084F83D002046BDE8F84000F014
:10207000F2B82046BDE8F840FFF700BF2046FFF762
:10208000FDFE00202064F8BD206A30F8021B6FF3CB
:102090005F2151602062E08C4FF6FF7101380842E9
:1020A000E08400D0F8BDD06820F08000D060D06817
:1020B00040F04000D060F8BDD128000810B50446BB
:1020C00044B394F83D0028B9002084F83C00204631
:1020D00000F022F8242084F83D002068C16821F433
:1020E0000051C160204600F06DFC2068016921F4B8
:1020F00090410161416921F02A014161C16841F4C7
:102100000051C16000202021206484F83D1084F833
:102110003E1010BD012010BD70B586B00026CDE97F
:102120000466CDE902661C4C006804F54051884203
:102130002FD11A4802AD016841F480410160016865
:1021400001F4804101910199016841F004010160AD
:102150002946006800F00400019001984FF40070D7
:10216000029002200390032005902046FEF74CFDCC
:102170004FF480602946CDE9020620460496FEF71A
:1021800043FD252000210022FFF754F92520FFF709
:1021900043F906B070BD00BF0008014018100240AE
:1021A00070472DE9F0470446994616460D4694F8C7
:1021B0003D00202806D101202DB126B194F83C0025
:1021C000012803D10220C0B2BDE8F08701204FF002
:1021D000000A84F83C002120C4F840A084F83D00A7
:1021E000FEF7FAFDA684E6848046A068B0F5805F1D
:1021F00006D127690026002F0CBF2E462F4601E08E
:102200002F46002684F83CA014E020468021424658
:102210004B4600F019FCB8B9206817B117F8011B3C
:1022200004E036F8021B00276FF35F214160E08C69
:102230000138E084E08C0028E7D120464021424666
:102240004B4600F001FC08B10320BCE7202084F8D5
:102250003D000020B7E77047FEE700000146002080
:102260000A68536913F4806F08BF7047C94B536104
:102270002022086381F83D2081F83E000A6C42F07C
:1022800004020A6481F83C00012070472DE9FC4BF0
:1022900004460E46DDF82890DDF82C801D461746D2
:1022A000002220684B46016841F4806101600168AA
:1022B00041F48071016020464FF00111CDF800809B
:1022C00000F0E8F8216840B1086810F4807F1CBF76
:1022D0004FF400702064032036E006F0FE0B204629
:1022E0004A464346C1F810B0554E314600F010F949
:1022F00048BB00204246019020684169019149464F
:10230000806901900198204600F077F998B9012D75
:1023100008D02068390A424601612046494600F04B
:102320006CF940B92068F9B242460161204649463D
:1023300000F063F960B1206C042804D120680168C2
:1023400041F4007101600120C0B202B0BDE8F08B21
:10235000206800224B46016841F4807101602046EC
:102360004FF00111CDF8008000F094F821680028AA
:10237000AAD14BF001004A46434608612046314647
:1023800000F0C6F8002818BF0120DDE72DE9FE4364
:1023900004460F460A9D0B9E9946904600222068EF
:1023A0002B46016841F48071016020464FF0011115
:1023B000009600F06FF8216840B1086810F4807F43
:1023C0001CBF4FF40070206403200AE007F0FE00F9
:1023D0002A46334608612046194900F099F820B191
:1023E0000120C0B203B0BDE8F08300203246029065
:1023F000206841690291294680690290029820462E
:1024000000F0FBF840B1206C0428E9D12068016895
:1024100041F400710160E3E7B9F1010F0AD02068CF
:102420004FEA1821324601612046294600F0E5F8BE
:102430000028E8D120685FFA88F101610020D0E728
:1024400002000100F8B50E4615460446771C2068C8
:10245000406910F0040F1AD12046FFF7FFFEA0B923
:10246000002FF4D0FEF7B8FC16B1401BB042EED9F5
:1024700000202021206384F83D1084F83E00216C68
:1024800041F02001216484F83C00012000E000209C
:1024900001B0F0BD2DE9F047DDF820909A461646D0
:1024A00080468FB201F47F040AF10105D8F80000DC
:1024B000B4F5803F00F1180108BF00F1140108686D
:1024C0003840C01BB0FA80F04009B0421CBF002069
:1024D000BDE8F087002DE9D0FEF77EFCBAF1000FD1
:1024E00003D0A0EB09005045E0D900202021C8F816
:1024F000300088F83D1088F83E00D8F8401041F0D0
:102500002001C8F8401088F83C000120BDE8F087A1
:102510002DE9F8431646984681468FB201F47F05AF
:10252000741CD9F80000B5F5803F00F114010A468B
:1025300018BF00F1180212683A40BA420ED009687A
:1025400011F4806F0CD1002CEBD0FEF745FC20215C
:102550006EB1A0EB0800B042E3D908E0002016E01D
:10256000016841F4007101600A49416104210020C1
:102570002022C9F8300089F83D2089F83E00D9F8BA
:1025800040201143C9F8401089F83C00012001B0F7
:10259000BDE8F083FFFBFFFF70B515460E4604460D
:1025A0002068416911F0400F1CBF002070BD4169D7
:1025B00011F0100F10D1FEF70FFC16B1401BB04206
:1025C000EED900202021206384F83D1084F83E00DD
:1025D000206C40F020000AE06FF010014161002003
:1025E0002021206384F83D1084F83E00206C206494
:1025F000002084F83C00012070BDF8B50E46154659
:102600000446771C2068406910F0800F1AD12046DC
:10261000FFF724FEA0B9002FF4D0FEF7DDFB16B1C2
:10262000401BB042EED900202021206384F83D10E9
:1026300084F83E00216C41F02001216484F83C00C4
:10264000012000E0002001B0F0BD00007FB51D4872
:1026500000224FF400550026016841F0100101608E
:10266000016801F0100100910099016841F020011A
:102670000160016801F0200100910099016841F0BA
:1026800004010160016801F00401009100990168F2
:1026900041F0080101604FF40051006800F00800AB
:1026A00000900098084C2046FEF790FB0120009512
:1026B0006946CDE90106022003902046FEF7A4FA00
:1026C0007FBD00BF181002400010014080B50B48CC
:1026D0000B494FF4804201600A4941600021C0E982
:1026E00002110162C0E90611C0E90421FEF77AFB7C
:1026F00018B1BDE88040FEF702BA80BD800000201E
:1027000000540040801A0600FEB5424800214FF0F8
:10271000804240F2CF234FF0630CCDE90411CDE9A4
:102720000211CDE90011C0E90023C0E9021C0161DA
:102730008161FFF79FF908B1FEF7E1F94FF480508E
:1027400002A902903348FFF709FA08B1FEF7D7F95A
:1027500000206946CDE900002E48FFF75BF908B17B
:10276000FEF7CDF906B080BD80B5CF48B5494FF42E
:10277000E13200234FF00C0C80E80E00C0E9033377
:10278000C0E905C3C361FFF799FC18B1BDE88040FB
:10279000FEF7B5B980BD00BFFEE7FEE770477047A2
:1027A000FEF7E4BDB0B590B0002401A81421CDE936
:1027B0000B44CDE90944FDF7EDFC01204FF48031D5
:1027C00002250690CDE907140A904FF4E010CDE9F8
:1027D0000D510F9006A8FEF747FF18B1EFF31080D8
:1027E00072B6FEE70F200221CDE901054FF48060AB
:1027F0000394CDE9040401A8FEF758FE18B1EFF3E5
:10280000108072B6FEE710B0B0BD70470148FFF708
:102810002EBA00BFD400002010B50368184AB0F1EA
:10282000804F08D0174CA0421CBF154CA04202D0CC
:10283000154CA04203D14C6823F070032343B0F140
:10284000804F08D00F4CA0421CBF0D4CA04202D0BC
:102850000D4CA04203D1CC6823F4407323434C6950
:1028600023F08003904243EA040303608B68C36251
:102870000B68836204BF096911630121416110BDC6
:10288000002C01400004004000080040D0F820C0A7
:10289000036A23F001030362836923F0F00343EA30
:1028A000021282612CF00A02114301627047036A2E
:1028B00023F010030362836923F4704343EA023276
:1028C000036A826123F0A00242EA011101627047AB
:1028D000406A0021C185C184FFF7D0BA0168CA6887
:1028E00022F49072CA604A6922F001024A61026BC6
:1028F000012A02BFCA6822F01002CA60202180F8B3
:102900003E1000210163704790F83E10222918BF45
:1029100070478368B3F5805F06D1026900F1280132
:10292000A2B1D1F800C008E00146002B51F828CF31
:1029300001D103690BB17F2300E0FF2302685268D5
:102940001A4001238CF800200A6806E00368826AB6
:102950005B686FF35F23138002231A440A604FF60B
:10296000FF72C18D01391142C18500D070470168E5
:10297000CA6822F02002CA60CA6822F48072CA6063
:102980004A6922F001024A61202280F83E20026B4F
:10299000012A18BFFFF704BC00220263CB6823F0B2
:1029A0001003CB600B6813F0100F07D081B00092BA
:1029B0000A68009249680091009901B0818DFFF783
:1029C0005CBA000010B5044620680169E26821F491
:1029D0004051114341F20C620161D4F808C0D4E9BE
:1029E00004E3C16891434EEA0C021A431143C160EB
:1029F0004169A26921F44071114341611149884242
:102A000002D0FEF7EDFD01E0FEF7F4FD1921484389
:102A1000D4E900126FF063049200B0FBF2F064227C
:102A2000B0FBF2F303FB0400322404EB0010B0FB14
:102A3000F2F000F0F00200F00F0002EB031210437E
:102A4000886010BD003801402DE9F0411D469046D8
:102A50000F4604466E1C206801683940B9421BD0FD
:102A6000002EF8D035B1FEF7B7F9A0EB0800A84268
:102A7000F1D92068C16821F4D071C160416921F0A9
:102A800001014161202084F83D0084F83E000020CF
:102A900084F83C00032000E00020C0B2BDE8F081D3
:102AA0000148FFF7EDB900BF1C010020FEE7000060
:102AB000E0B5002801AA4FF004010CBF4FF0A3308D
:102AC0000448019040F69E2001F040FF01F0EAFA30
:102AD00002B080BD202830382DE9FE4304467648F8
:102AE000764F0DF1020504212A46CDF80200682038
:102AF000B847A32014F040066FF05C026FF05C0151
:102B00008DF8020018BF6FF03F028DF803206FF0C0
:102B10005C0218BF6FF037028DF804206FF05C0282
:102B200018BF6FF03D0214F4C0798DF805206FF0E6
:102B30005C0218BF6FF03B028DF806206FF05C025C
:102B400018BF6FF033028DF8072018BF6FF03901FE
:102B50002A468DF808108DF809008DF80A008DF8C6
:102B60000B0040F6A7200A21B84714F003086FF0C5
:102B700027004FF001012A4618BF20208DF80200DF
:102B800040F6B620B84714F0200F0CBF00200120FB
:102B900000F09CF8B9F1000F25D014F480706FF0AC
:102BA0004F010DF1020218BF6FF04D018DF80210B8
:102BB0006FF07F0118BF6FF0740100286FF06F0095
:102BC0008DF803106FF04B0118BF6FF049018DF8BD
:102BD000041018BF6FF0640004218DF8050040F662
:102BE000A22001F0B3FEE0070AD1D8200DF10202C5
:102BF00001218DF802004FF40B6001F0A7FE24E0E4
:102C0000F8200DF1020201218DF802004FF40B6053
:102C100001F09CFE0720FA2100F0FEFC072000F0E6
:102C2000CCFC012000F0E4FC642000F085FD4FF4B2
:102C3000FA7000F093FD2248C82100F081FC2820A2
:102C400000F097FC0A2000F0A6FC04F00200D82156
:102C50000DF1020241EA500001218DF8020040F21C
:102C60003D7001F073FE14F0040F0CBF0020012032
:102C700000F04EF8E00654BF00200120FFF718FFD7
:102C8000104944F00800002E088018BF0626B9F14C
:102C9000000F18BF063614F0140F18BF46F01006C8
:102CA000B8F1000F18BF043601F0FCF906480670B1
:102CB000002003B0BDE8F08302CAE3094D490008D3
:102CC00009E3CA02780000207E000020F8B510B1A8
:102CD00009A0094A01E00BA00A4A4168007A029162
:102CE000019201AA09218DF80C004FF4976001F0C0
:102CF0002DFE04B080BD00BFB8AAB38DB4980D35C9
:102D00005D000000B8AAAAAAB088C3C5C700000029
:102D1000E0B5002801AA4FF004010CBF4FF08B3042
:102D20000448019040F6982001F010FE01F0BAF935
:102D300002B080BDC0C2C4C6F8B58C4601464FF48F
:102D40007A70CDE90032012302900B486246FEF70B
:102D500001F904B080BD00BFF8B58C4601464FF4C0
:102D6000FA70CDE900320123029003486246FEF773
:102D70003BFA04B080BD00BF800000202DE9F04F79
:102D800089B000200DF10503752101228DF80500A1
:102D9000D120FFF7D1FF8F4E86A0B0478EA0B0475D
:102DA00090A42046B0479DF805108FA001F0C4FF05
:102DB0009DF80510924801F0BFFF2046B0479DF8EE
:102DC0000500682840F0E88000F05EFF002840F031
:102DD000E080782001F064FD10B982A002F0B4FF19
:102DE000782000F0C1FE10B97EA002F0ADFF642093
:102DF00001F016FD10B97BA002F0A6FF00F03EF92D
:102E000010B978A002F0A0FFDFF80082804D4046A4
:102E1000A847044608F10300A84744EAC00408F1A3
:102E20000600A84744EA801080B200F01DFB10B9EC
:102E30006CA002F089FF40F27310FFF74DFE10B94D
:102E400068A002F081FF642000F078FA10B965A054
:102E500002F07AFF06A803A901F0D2F9032839D1BC
:102E600002A800F0DBFE0698FDF726FC029C014656
:102E70002046FDF7FFF9FDF72DFC06900798FDF7BA
:102E80001BFC01462046FDF7F5F9FDF723FC0790F2
:102E90000898FDF711FC01462046FDF7EBF9FDF718
:102EA00019FC089006A800F073FA0DF1060000F076
:102EB00095FEBDF8060003994143039104994143EF
:102EC000049105994843059003A800F0D3F951A057
:102ED00002F03AFF012001F0C9FB10B956A002F040
:102EE00033FF3DA0B0475DA42046B0475D4D0220B2
:102EF000A8470220A8470220A8471420A847204638
:102F0000B047DFF86891DFF868A15A4F5A4C4FF08C
:102F1000000B08F10C0533A622E0284601F04AFD1B
:102F2000D8F80C00FDF703FC024648460B46D04794
:102F3000D8F81000FDF7FBFB024638460B46D04799
:102F4000D8F81400FDF7F3FB024620460B46D047A5
:102F5000304602F0F9FE1420FDF742FE0BF1010BA2
:102F60001FFA8BF00528D8D33E4901200E46B04702
:102F70003D4C184920460D46A8470120B047204641
:102F8000A8470A20B0472046A8470A20B04733A0E8
:102F9000A84709B0BDE8F08FBFF34F8F194801680B
:102FA000194A01F4E06111430160BFF34F8F00BF84
:102FB000FDE700BF6D70755F7365745F73656E7359
:102FC0006F7220636F6D706C657465202E2E2E2ECF
:102FD0002E2E0D00495D00086D7075202E2E2E2EB0
:102FE0002E2E0D000D0000004465766963655F4973
:102FF000443A20202020307825780D0A0000000077
:10300000EC6A00080CED00E00400FA052000002046
:10301000FD3A000873657474696E672062696173B4
:103020002073756363657366756C6C79202E2E2E24
:103030002E2E2E0D000000006D70755F7365745F9D
:10304000646D705F737461746520636F6D706C651F
:103050007465202E2E2E2E2E2E0D00000D0A0D0A28
:103060000D000000E10B0008806B0008156B0008E4
:10307000394D0008096B0008FD6A0008034940F655
:10308000F6304FF48062C82300F0C8BEC05E00086E
:103090002DE9F04F89B0DDF84890824600201446B3
:1030A000139A0DF1040B88461E465946A9F80000F4
:1030B0006D48007800F076FF10B14FF0FF30CFE0A0
:1030C0006A48B0F800C01CF0140F52D09DF80520DB
:1030D0009DF804109DF80630B6469DF8076012046E
:1030E00042EA016141EA0322091432434943226062
:1030F0009DF809309DF808209DF80A609DF80B5056
:103100001B0443EA026242EA06232B4363609DF8F4
:103110000D609DF80C309DF80E509DF80F003604A0
:1031200046EA036343EA05263043A0609DF8116038
:103130009DF810009DF812509DF81370360446EA71
:10314000006040EA0526001400FB0010111437430C
:1031500001FB01001914E76001FB010000F171405F
:10316000B0F1007F07D900F09DFF0020A9F8000012
:10317000A3E7002107E0B9F800001021764640F4EB
:103180008070A9F800005FEA4C602AD5C8B240F010
:1031900001021BF800101BF8022042EA012140F056
:1031A0000302A8F8001040F002011BF801101BF800
:1031B000022042EA012140F00502A8F8021040F086
:1031C00004011BF801101BF8022042EA0121A8F8B3
:1031D0000410B9F8001041F00801A9F8001040F0FF
:1031E00006011CF4C07F1BD00BEB01021BF8010091
:1031F0000631537843EA0020AAF800009078D3788B
:1032000043EA0020AAF802001079527942EA00202D
:10321000AAF80400B9F8000040F07000A9F8000016
:103220005FEA8C7018D0C8B20BEB00056878EC78B8
:1032300010F0010F09D00E490A6832B104F00701FD
:10324000C4F3C200013190476878000704D50848EC
:10325000416809B1A0098847304600F091FA002082
:1032600009B0BDE8F08F00BF7E000020780000208C
:1032700068000020BFB504460DF1020000F0AEFC6E
:10328000AE480C25008800F0030110F0040F05EA99
:10329000500554F8212018BF5242BDF8021010F01A
:1032A000200F4FEAC13181FB02C3C0F3811254F8F1
:1032B000222064594FEA935E4FEA93358DF804E07B
:1032C0008DF805504FEA93158DF806504FEA9C751E
:1032D00045EA83038DF8073018BF644210F4807FFD
:1032E00081FB04354FEA95544FEA93738DF80840FB
:1032F0004FEA953443EA85038DF809404FEA951467
:103300008DF80A408DF80B3018BF524281FB020144
:103310008A0D800F8DF80C208A0B40EA81008DF811
:103320000D208A090C218DF80E208DF80F0001AABE
:103330004FF4257001F00AFB04B0B0BD1CB5044683
:10334000C82C18D8C8204FF6FF716A46B0FBF4F0BD
:103350000844010A8DF800108DF8010040F2162093
:10336000022101F0F3FA30B9074A40F6C1200C21DE
:1033700001F0ECFA18B14FF0FF3002B010BD034875
:1033800004800020F9E700BFB66A00087C00002036
:10339000F8B56A490C26098801F0030211F0040F00
:1033A00006EA510650F8222018BF52422D4F865986
:1033B000C1F3811511F4807F50F8255082FB07235B
:1033C0004FEA93544FEA93308DF800408DF8010096
:1033D0004FEA93108DF802004FEA92706A4640EA75
:1033E00083008DF8030018BF6D4211F0200F4FF4D9
:1033F00074704FF0040118BF764201F0A7FAB0B91B
:1034000086FB07018A0D800F8DF800208A0B40EAA9
:1034100081008DF801208A0904218DF802208DF8A1
:1034200003006A464FF4757001F090FA18B14FF03E
:10343000FF3001B0F0BD85FB0701800F8A0D8DF8CC
:1034400000208A0B40EA810089098DF801208DF85F
:1034500002108DF803006A464FF47670042101F0E3
:1034600075FAE6E709E3CA021CB5044631A104F087
:1034700003000A5C8DF80420C4F3C1028B5C8DF854
:103480000530C4F38113C95C8DF806102AA1085CCD
:103490008DF80000885C01AA8DF80100C85C03214A
:1034A0008DF8020040F2264001F050FAD0BB6A4687
:1034B00040F22A40032101F049FA98BB762001AA84
:1034C00003218DF8060045F23660ADF80400662051
:1034D0008DF8020044F22660ADF80000600741BF9D
:1034E00037208DF8040027208DF80000A00641BF8A
:1034F00057208DF8050047208DF80100E00541BFF9
:1035000077208DF8060067208DF802004FF4886060
:1035100001F01CFA30B96A4640F23140032101F053
:1035200015FA18B14FF0FF3002B010BD0348048007
:103530000020F9E74CCD6C000CC92C007400002071
:10354000E0B54FF47A7290FBF2F001AA4843010E05
:103550008DF80410010C8DF80510010A8DF8061085
:103560008DF807004FF4AE70042101F0EFF902B0BE
:1035700080BDE0B505210DF10602B0FBF1F0010AB6
:103580008DF806108DF807004FF4AD70022101F0A0
:10359000DDF902B080BDE0B505210DF10602B0FBFA
:1035A000F1F0010A8DF806108DF807004FF4AC70A9
:1035B000022101F0CBF902B080BDE0B500F00102BC
:1035C00041088008524202F0300261F3820261F346
:1035D000C302012160F3000260F341024FF4A470C2
:1035E0008DF807200DF1070201F0B0F902B080BD9F
:1035F000E0B5042801460DF1070228BF0421002888
:1036000018BF01F1FF0001218DF8070040F24F10B3
:1036100001F09CF902B080BD7CB50D4604464FF028
:10362000FF30B5F5C86F00F27A8014F0070100F0A2
:1036300076800DF1030000F0BDFA2846FDF745F84D
:103640003849FCF749FE05469DF80300364E02381E
:103650004FEA70024FF0FF30072A60D84FF08C41DC
:10366000DFE802F0040F5D085D5D5D0C314E4FF048
:103670008D4106E02E4E4FF08B4102E02B4E4FF075
:103680008A412846FCF7F6FDFDF73DF8010A8DF862
:1036900004108DF8050028463146FCF7EBFDFDF7D8
:1036A00032F8010A8DF806108DF8070001A8851C74
:1036B000E00705D1A00712D460071FD400202EE038
:1036C00001AA4FF4EA70022101F040F928BB4FF43F
:1036D000927002212A4601F039F9F0B9EAE701AA0D
:1036E0004FF4EC70022101F031F9B0B94FF494704D
:1036F00002212A4601F02AF978B9DDE701AA4FF440
:10370000EE70022101F022F938B94FF496700221CF
:103710002A4601F01BF90028D0D04FF0FF3002B04C
:1037200070BD00BF000048430000C0450000C04419
:103730000000404500004046E0B505210DF10602BD
:10374000B0FBF1F0010A8DF806108DF807004FF478
:10375000EF70022101F0FAF802B080BDE0B505215A
:103760000DF10602B0FBF1F0010A8DF806108DF89C
:1037700007004FF4ED70022101F0E8F802B080BDBF
:1037800010B50446FDF728FB206010BD01F076BBA4
:10379000E0B50190044801A901224FF6FF73FEF73E
:1037A00000FD019802B080BD1C0100202DE9FF47FB
:1037B000D14F0546012016460C4601ABADF804007A
:1037C000D7E90002417D10780222FFF7C5FA0028F0
:1037D00040F08C81C82001F0EBF8002001AB8DF89F
:1037E0000400D7E90002417C10780122FFF7B4FA07
:1037F000002840F07B81D7E9000201AB41791078C5
:103800000122FFF7A9FA002840F07081D7E90002F1
:1038100001AB417D10780122FFF79EFA002840F0AD
:103820006581D7E9000201AB817E10780122FFF7A4
:1038300093FA002840F05A81D7E9000201AB0179E0
:1038400010780122FFF788FA002840F04F810C2001
:1038500001AB8DF80400D7E900020179107801224C
:10386000FFF77AFA002840F041810F2001F0A0F81C
:10387000B86A01AB407A8DF80400D7E9000281787C
:1038800010780122FFF768FA002840F02F81B86A0B
:1038900001AB007A8DF80400D7E900024178107876
:1038A0000122FFF759FA002840F02081B86A002E63
:1038B00001AB807A18BF40F0E0008DF80400D7E932
:1038C0000002817910780122FFF746FA002840F0C3
:1038D0000D8126B1B86AC07A60F01F0000E01820A0
:1038E0008DF8040001ABD7E90002C17910780122FC
:1038F000FFF732FA002840F0F98016B1C82001F035
:1039000057F8402001AB8DF80400D7E90002017997
:1039100010780122FFF720FA002840F0E780782095
:1039200001AB8DF80400D7E900024179107801223B
:10393000FFF712FA002840F0D980322001F038F861
:10394000002001AB8DF80400D7E90002417910781E
:103950000122FFF701FA002840F0C880D7E90002F1
:1039600001AB017B10780222FFF7E6F9002840F056
:10397000BD809DF804009DF805104FF0000A0DF180
:103980000408C5E900AAC5F808A0C4E900AAC4F85B
:1039900008A041EA00200C21B0FBF1F05FFA80F9A9
:1039A00048E0D7E900024346417B10780C22FFF73C
:1039B000C3F9002840F09A809DF804109DF8052076
:1039C00020689DF806309DF807600AF1010A42EA76
:1039D00001219DF8082009B208449DF809102060D3
:1039E00046EA0320636800B21844606041EA02209E
:1039F000A16800B20844A0609DF80A109DF80B2051
:103A000028689DF80C309DF80D6042EA01219DF870
:103A10000E2009B208449DF80F10286046EA0320E2
:103A20006B6800B21844686041EA0220A96800B2DD
:103A30000844A8605FFA8AF08145B2D828688322DA
:103A400000230027C117090441EA10410004FCF7D4
:103A500069FB4A460023FCF765FB286083220023AC
:103A60006868C117090441EA10410004FCF75AFBD9
:103A70004A460023FCF756FB686083220023A868AF
:103A8000C117090441EA10410004FCF74BFB4A4608
:103A90000023FCF747FBA8604A4600232068C117B3
:103AA000490141EAD0614001FCF73CFB20604A46F5
:103AB00000236068C117490141EAD0614001FCF769
:103AC00031FB60604A460023A068C117490141EA02
:103AD000D0614001FCF726FB4FF480310028C4BFC1
:103AE0000021CFF6FF710844A06001E04FF0FF37DE
:103AF000384604B0BDE8F0873C00002090F9001083
:103B0000002902DD002080B2704705DB90F901102A
:103B1000002903DD0120F6E70420F4E705DB90F936
:103B20000200002803DD0220EDE70520EBE74FF05F
:103B3000070018BF0620E6E780B5FDF71DFCFEF77D
:103B400031FEFEF783FDFEF7C1FDFEF7DDFDFEF75A
:103B50000BFE01F037F8FFF711F90248FDF7D2FF2D
:103B6000FEE700BFD4000020F8B5D74D95F824102B
:103B700009B100241AE0A97AB1B100F0FE072E7C49
:103B800001EA0700C41B287418BF4FF0FF34287DDA
:103B9000384300060CBF0020012000F0EFFF2FB1DA
:103BA00000F080FA10B12E744FF0FF34204601B0BF
:103BB000F0BD00BFFA494A7A032A84BF4FF0FF30B4
:103BC0007047054BD20023FA02F20270C97C09B19A
:103BD000510001700020704702040810DFF8CCCDBE
:103BE0009CF80930032B84BF4FF0FF3070474FF42F
:103BF0008042DFE803F00A02050841F69C7204E007
:103C00004FF4805201E04FF4006202809CF81310E0
:103C100011B1C2F34E01018000207047E0490A7AD9
:103C20000849032A84BF4FF0FF307047DFE802F0F5
:103C300007020406064902E0044900E00249016067
:103C40000020704700000343333383413333034282
:103C500000008342FA49C97A4A1E052A07D8BC21C6
:103C6000DFE802F00E0307090B0D622108E00021D6
:103C700006E02A2104E0142102E00A2100E00521E7
:103C800001800020704700BFBCB5504D80200DF171
:103C900002038DF80200D5E90002417D107801226F
:103CA000FFF75AF8C8B9642000F082FE00200DF139
:103CB00002038DF80200D5E90002417D107801224F
:103CC000FFF74AF848B9D5E900020DF10203417E39
:103CD00010780622FFF730F820B14FF0FF3420466D
:103CE00002B0B0BD9DF807209DF803009DF80510B7
:103CF000042303EA820200F0010061F34102104351
:103D000007D000F00701012922D0022918D1002094
:103D10001FE0D5E900020DF10203C17810780122FD
:103D2000FFF70AF80028D8D19DF8020000F00F0034
:103D300004280AD00028EAD1374802F005F8CCE779
:103D4000C1B223A000F0F8FFC7E72BA001F0FCFFF1
:103D50000120E8744FF6FF704FF0FF34E881FF2038
:103D60002874A8740120AC60287385F82200002014
:103D70002884C5E90500E86185F82700C5F8230017
:103D80004FF4FA6000F0B2FC0028A8D1022000F045
:103D9000C9FB0028A1D12A2000F00EFD00289CD1EB
:103DA000322000F03DFD002897D10020FFF7DCFE17
:103DB000002892D1002000F0F1FB00287FF48DAFA5
:103DC0000020002400F06CFD89E700BF3C000020CB
:103DD000556E737570706F7274656420736F66745E
:103DE000776172652070726F647563742072657696
:103DF0002025642E0A00000048616C662073656E01
:103E00007369746976697479207061727420666F61
:103E1000756E642E00000000306B00082DE9F04F35
:103E200087B08B46074691464FF0FF30BBF1000F3D
:103E300040D0F24991F82510E1BB00210DF10C0AA8
:103E400001938DB2BD4222D2A7EB05080BEB05040E
:103E50002846B8F1100F2246A8BF4FF010081FFAED
:103E600088F6314600F072FD10BB284631465246B6
:103E700000F0E8F8E0B9204651463246FCF795F9E3
:103E800008EB05010028DCD06FF0010012E0DB4CEC
:103E90004FEA19200DF10A038DF80A008DF80B90F6
:103EA000D4E90002417F10780222FEF755FF20B1CD
:103EB0004FF0FF3007B0BDE8F08F012084F82500F7
:103EC0000198E0840020F5E73C000020BCB50446E2
:103ED000282C56D894B1012000F042FC2020012C5F
:103EE0008DF806001FD100208DF80700052000F096
:103EF00063FC0DF10600451C072036E0002000247D
:103F000000F02EFCBD4D4FF4E0600DF10603ADF85E
:103F10000600D5E90002417D10780222FEF71CFF61
:103F200078BB2C752FE0052C0AD801208DF80700EE
:103F3000052000F041FC0DF10600451C472014E06F
:103F40000DF10600142C00F1010507D802208DF8B0
:103F500007000A2000F030FC872006E003208DF8DF
:103F60000700142000F028FCC7202870A34D0DF195
:103F70000603D5E90002417D10780222FEF7ECFE2F
:103F800020B14FF0FF34204602B0B0BD082000241D
:103F9000A87201202C7328750020FFF7E5FDF2E7D9
:103FA0003C0000202DE9FC41944F0E460546144686
:103FB0004FF0FF3097F8241099B3B97A89B3D7E955
:103FC00000020DF10603017B10780222FEF7B4FE19
:103FD00028BB9DF806009DF8071041EA0028A84577
:103FE00002D2002020701AE078684188B8EB510FA7
:103FF0000DD9396800780DF106030122C97CFEF75E
:104000009BFE60B99DF80600C00613D47868396835
:104010000078EAB23346497BFEF78EFE20B14FF0BE
:10402000FF3002B0BDE8F081B8FBF5F0FF30207042
:104030000020F6E700F036F86FF00100F1E700BF6E
:104040003C0000207CB514460D4601464FF0FF3081
:104050002CB36A4EB27A12B3080A8DF80600C8B2C1
:104060008DF80710411970684289914208D831686B
:1040700000780DF106030222C97EFEF76DFE10B135
:104080004FF0FF300BE0D6E900022346017E1078A6
:10409000EAB2FEF751FE002818BF4FF0FF3002B021
:1040A00070BD00BF1CB5554CA07A00B300200DF1C7
:1040B00007038DF80700D4E90002417C1078012243
:1040C000FEF74AFE98B9D4E900020DF107034179E1
:1040D00010780122FEF740FE48B9D4E900020DF144
:1040E0000703017910780122FEF736FE18B14FF070
:1040F000FF3002B010BD94F82400D0B30C200DF1B5
:1041000007038DF80700D4E9000201791078012235
:10411000FEF722FE0028EAD1322000F049FCA07A06
:10412000C0210DF1070341EA40108DF80700D4E9E2
:104130000002017910780122FEF70EFE0028D6D188
:10414000607C0DF10703002818BF02208DF80700DE
:10415000D4E90002417C10780122FEF7FDFD002821
:10416000C5D100200DF107038DF80700D4E9000246
:1041700039E004200DF107038DF80700D4E90002AF
:10418000017910780122FEF7E7FD0028AFD1A17C6C
:10419000402011B9A17A61F345108DF807000DF1A7
:1041A0000703D4E90002017910780122FEF7D4FD5B
:1041B00000289CD1322000F0FBFB607C0DF107034E
:1041C000002818BF01208DF80700D4E90002417CC7
:1041D00010780122FEF7C0FD00287FF488AFD4E9F3
:1041E000000204F11003417910780122FEF7B4FDBA
:1041F00000287FF47CAF00207BE700BF3C0000205C
:104200002DE9F04F93B0E44F05460E4697F8240091
:1042100028B1002000F02AFA4FF0010801E04FF029
:104220000008387A032808D84FF0FA09DFE800F0D0
:104230000D02080B4FF4FA7907E04FF0000904E093
:104240004FF47A7901E04FF4FA690DF11F00FFF79E
:10425000B1FC07A8FFF7FEFCF88997F80AB097F8B9
:1042600010A00024069006E0284631460022FFF701
:104270009DFA20B10134012CF6DD022C14D0CDF8CA
:1042800014B0019500240BAD0DF1200B06E028467B
:1042900059460122FFF78AFA48B10134012CF6DDB4
:1042A000022C04D1DDF814B00024069EFDE0CDF808
:1042B00010A0CDE9029812AB0D2104227868007895
:1042C000FEF73AFDF0BB9DF848009DF84B104FF00B
:1042D00000080DF138090DF1450A002500F0E00055
:1042E000C1F3011242EAD0008DF84500C1F381000C
:1042F0009DF8492002F0E00240EAD2008DF8460025
:1043000001F003009DF84A1001F0E00140EAD100FD
:104310008DF8470014E01AF8054009EB850764B1F1
:10432000764802E07649FBF7A5FF013C14F0FF0F49
:10433000F8D138600AF8058001E0C7F8008001353F
:10434000032DE8D14FF0000A0EAC01274FF0000911
:1043500030E05BF8290056F82910081A48BF40429F
:10436000FCF7AAF94FF05E51FBF784FFD4F8008008
:10437000054600214046FCF791F950B928464146D0
:10438000FBF7AAFF6149FBF71DFFFFF7FFF9604943
:1043900006E05C492846FCF773F920B95A492846DB
:1043A000FCF760F918B907FA09F04AEA000A043480
:1043B00009F10109B9F1030FCBD1E84F0DF1450B1C
:1043C0000D2103225B4678680078FEF7B5FC18B132
:1043D000DDF80C80072558E09DF84500019E4FF060
:1043E000000800254FF0000900F01F008DF845007F
:1043F0009DF8460000F01F008DF846009DF847002C
:1044000000F01F008DF8470039E00BA856F829107E
:1044100050F82900081A48BF4042FCF74DF94FF008
:104420005E51FBF727FF1BF809400746BCB1394A2C
:1044300004E039491046FBF71DFF0246013C14F029
:10444000FF0FF6D1384611460BF80980FBF744FF01
:104450002E49FBF7B7FEFFF799F92D4906E02F49E2
:104460003846FCF70DF920B92D493846FCF7FAF823
:1044700018B9012000FA09F0054309F10109B9F161
:10448000030FC2D1DDF80C80E44F5FEA0A60DDF86B
:104490000890DDE905B6E8B2B0FA80F04FEA5014B2
:1044A00008BF44F00204DDF810A04FF6FF70F88159
:1044B000FF2038744FF0FF30B860012038731FFAC6
:1044C00089F000F013F99DF81F0000F02BF8BDF8FB
:1044D0001C0000F071F9304600F0A2F9584600F0D7
:1044E000DFF95046FFF740FBB8F1000F1CBF012079
:1044F00000F0BCF8204613B0BDE8F08F7B14AE3E50
:104500001D5A843F9A99993E3333733F000080BF10
:10451000295C0F3E0000C84154E3853F0000204164
:104520000000D2421CB5DD4CA17A59B302384FEAE3
:1045300070014FF0FF3007292CD8DFE801F00408A4
:104540002B0D2B2B2B1200208DF807000DE00820DF
:104550008DF80700012008E010208DF807000220E8
:1045600003E018208DF807000320617A884210D0FC
:10457000D4E900020DF10703C17910780122FEF79A
:10458000EBFB10B14FF0FF3004E09DF80700C008CE
:104590006072002002B010BD3C000020BCB5EA4DA6
:1045A0000446A87CA04201D100205BE0D5E90002CE
:1045B0000DF10703017910780122FEF7BDFBE4B18C
:1045C00000284DD19DF807000DF1070300F0DF0032
:1045D0008DF80700D5E90002017910780122FEF775
:1045E000BBFBE8BB032000F0E3F995F822106FF065
:1045F0007D00002908BF02201FE088BBA87A9DF833
:1046000007100DF1070341F0200210F0010F08BF61
:1046100001F0DF028DF80720D5E90002017910785A
:104620000122FEF799FBD8B9032000F0C1F995F8F3
:104630002200002818BF6FF07F0095F823108DF836
:10464000070019B140F030008DF80700D5E90002ED
:104650000DF10703C17D10780122FEF77DFB18B133
:104660004FF0FF3002B0B0BDAC749DE77CB5CF4DCC
:1046700095F82410814201D1002434E0E8B195F886
:10468000250070B30020002400F078FA0020FFF726
:1046900085FFE88C00F0C4F868688DF807400DF1DC
:1046A00007032321012201260078FEF755FB012094
:1046B00085F8246000F062FA10E00020002400F089
:1046C0005DFA287C0DF10703232101228DF80700F4
:1046D00068680078FEF740FB85F82440FFF7E2FCAD
:1046E00001E04FF0FF34204602B070BD1CB5AF4C66
:1046F000A17A49B3B0F5FA6F0BD0B0F5FA7F0DD0BF
:10470000B0F57A7F0FD0FA281ED100208DF807006F
:104710000DE018208DF80700032008E008208DF830
:104720000700012003E010208DF807000220217A05
:10473000884210D0D4E900020DF107038179107886
:104740000122FEF709FB10B14FF0FF3004E09DF8A5
:104750000700C0082072002002B010BD3C000020FD
:10476000BCB5924D044695F82300A04221D0002C00
:10477000204618BF3020A97C8DF8070019B140F001
:1047800002008DF8070095F8221019B140F0800062
:104790008DF80700D5E900020DF10703C17D1078FF
:1047A0000122FEF7D9FA10B14FF0FF3002E085F890
:1047B0002340002002B0B0BD1CB57C4CA17A19B3D7
:1047C000BC2801D301200FE0622801D302200BE0B6
:1047D0002A2801D3032007E0142801D3042003E092
:1047E0000A2834BF06200520E17A8DF80700C0B200
:1047F00081420FD0D4E900020DF1070381781078CF
:104800000122FEF7A9FA10B14FF0FF3003E09DF846
:104810000700E072002002B010BD00BF3C00002085
:104820007CB5E74D04464FF0FF30A97AA1B395F867
:10483000241089BB287D50B1601E80B2272803D880
:10484000E0B2FFF743FB26E00020FFF73FFB4FF409
:104850007A76B4F57A7F0DF1070328BF3446042C2D
:1048600098BF0424B6FBF4F0FF308DF80700D5E9BB
:104870000002417810780122FEF76EFA10B14FF075
:10488000FF3009E09DF807000130B6FBF0F0E88149
:104890004008FFF791FF002002B070BD3C000020EF
:1048A000BCB5044614F0700F01D0012003E0002CC9
:1048B0000CBF40200020C24D8DF807000DF107030A
:1048C000D5E90002417D10780122FEF745FA28BBA8
:1048D0009DF8070004F0400114F0080F0DF10703E4
:1048E00000F0BF0028734FF0020000EA141040EA05
:1048F000111004F0100180F0060040EA111080F061
:10490000010108BF80F039018DF80710D5E90002D8
:10491000817D10780122FEF71FFA30B100204FF0A0
:10492000FF34A872204602B0B0BD44F00800082849
:1049300002D00020FFF714FFAC72002432202C7547
:1049400000F036F8EEE700BF3C0000207CB51446CE
:104950000D4601464FF0FF302CB3994EB27A12B398
:10496000080A8DF80600C8B28DF807104119706862
:104970004289914208D8316800780DF1060302227D
:10498000C97EFEF7E9F910B14FF0FF300BE0D6E930
:1049900000022346017E1078EAB2FEF7DDF9002816
:1049A00018BF4FF0FF3002B070BD00BF3C000020C8
:1049B000FCF716B92DE9F04F8FB007460DF13B001B
:1049C0000DF11A010AAA05ABCDE900100DF1220084
:1049D00007A9FEF75DFB08B10120C8E09DF81B00A8
:1049E000C00701D10220C2E00AAE51CE0D9DFBF7F7
:1049F00063FE4FF04251FBF73DFC80462046FBF73B
:104A00005BFE4FF04251FBF735FC81463046FBF729
:104A100053FE4FF04251FBF72DFC82462846FBF730
:104A20004BFE4FF04251FBF725FC044648464FF041
:104A30004041FBF71FFC214683460294FBF71AFC1A
:104A4000054640464146CDF80C80FBF7BBFB51467E
:104A50000646FBF70FFC2946FBF7B4FBFBF767FEA6
:104A600000F06AFE444B4FF0C0420493FBF719FD7F
:104A7000FBF770FE386050465146FBF7A3FB21461A
:104A80008046FBF7F7FB054630464946FBF7F2FB4D
:104A90002946FBF797FBFBF74AFE06460D464846BC
:104AA0005946FBF7E7FB044650464146FBF7E2FB5D
:104AB00001462046FBF7D8FB4FF07E51FBF782FB07
:104AC000FBF735FE02460B463046294601F07CF8DE
:104AD000049B4FF0C042FBF7E4FCFBF73BFE786021
:104AE00048465146FBF7C6FB029DDDF80CB0044674
:104AF00058462946FBF7BEFB01462046FBF762FB02
:104B00000146FBF75FFBFBF712FE80460E46584658
:104B10005946FBF7AFFB044648464946FBF7AAFB5C
:104B200001462046FBF74EFB044650465146FBF734
:104B3000A1FB01462046FBF797FB04462846294681
:104B4000FBF798FB01462046FBF78EFBFBF7EFFDDA
:104B500002460B464046314601F036F8049B4FF0C2
:104B6000C042FBF79EFCFBF7F5FDB8600020C0B229
:104B70000FB0BDE8F08F00BF66A64C401CB5104CCE
:104B800094F8241091B1002818BF02208DF8070076
:104B90000DF10703D4E90002417C10780122FEF7F1
:104BA000DBF840B99DF8070060741CBDA17A11B113
:104BB00010B1617C01B11CBD002818BF0120E5E7E0
:104BC0003C00002022490020002201E088540132EC
:104BD000102AFBD1B0B500F069F81E4C01461EA0AA
:104BE000217000F0A9F82178214800F0A5F821A053
:104BF00001F0AAF82078032801D1032525E01E4CF6
:104C00006B208021A0473220FBF7EAFF6B200021B8
:104C10000025A047032000F064F8002000F04EF8C3
:104C2000072000F068F8022000F052F837208021B9
:104C3000A04738200021A0476A200021A0476B2010
:104C40000121A0476C200021A047E8B2B0BD00BF01
:104C500060010020700100206465766963655F690A
:104C6000643A20202020307825780D0A00000000CA
:104C7000EC6A00080D000000094D0008BFB50246AF
:104C800040F6FF70084D0124D121012302902948EC
:104C900001940095FCF75EF92978002818BF214699
:104CA000C8B204B0B0BD00BF7101002080B575204E
:104CB000FFF7E4FF012808BF032080BD80B5C000D6
:104CC000C1B21C2000F020F8002818BF012080BDD0
:104CD00080B5C1B21A2000F017F8002818BF0120D3
:104CE00080BD80B5C000C1B21B2000F00DF80028C7
:104CF00018BF012080BD80B5C1B2192000F004F8B2
:104D0000002818BF012080BDF8B502468DF80F10AD
:104D100040F6FF7001210DF10F03CDE90031029043
:104D20000448D0210123FCF75FFA002818BF0120B6
:104D300004B080BD800000200FB4054B10B503A95E
:104D4000044A029800F060F910BC5DF814FB000002
:104D50009137000800000020490050EAC12018BF28
:104D600004204A0D18BF40F0010040F2FF72B2EB80
:104D7000515F08BF40F00200012808BF05207047BE
:104D80002DE9F0414F1E00EBC7010446D1E90001B7
:104D900015461E4637F006020DD02A463346FBF76D
:104DA00080FB7F1E04EBC703D3E90023FBF7D2FA95
:104DB00037F00602F1D1022F25D0042F13D0062F91
:104DC00018BFBDE8F0812A463346FBF76AFBD4E9F9
:104DD0000A23FBF7BFFA2A463346FBF762FBD4E906
:104DE0000823FBF7B7FA2A463346FBF75AFBD4E908
:104DF0000623FBF7AFFA2A463346FBF752FBD4E90A
:104E00000423FBF7A7FA2A463346FBF74AFBD4E90B
:104E10000223FBF79FFA2A463346FBF742FBD4E90D
:104E20000023BDE8F041FBF795BA0122FBF7AABDCC
:104E3000FBF790BA0022134610461146FBF7A3BBBE
:104E4000024A00201107FBF79DBD000001FDFFFF96
:104E500002E008C8121F08C1002AFAD17047704743
:104E6000002001E001C1121F002AFBD170470000A1
:104E700001490860704700000400002020F0004055
:104E8000704700002DE9FF5F82B00021DDE90430AA
:104E9000020DDDF840B0034318D044F61050A2F2E2
:104EA000FF3242431514119801281FD0A5EB0B00C7
:104EB000401C5FEA000A4FF000064E4FDFF83891C1
:104EC000B046504615D5CAF1000413E011980124EC
:104ED0004AA3012801D16FEA0B010298119AC0E997
:104EE0000031C0E9024206B0BDE8F09FCBF10000FE
:104EF000DFE704460021404A491842EB0450CDE95F
:104F0000001012E0E00707D032463B4640464946D3
:104F1000FBF7C7FA8046894632463B46104619469B
:104F2000FBF7BFFA06460F466410002CEAD1DDE914
:104F30000401DDE90023BAF1000F06DAFBF7B1FA4C
:104F400042464B46FBF7ADFA05E0FBF71CFB424639
:104F50004B46FBF718FB04460E460022284BFBF796
:104F600041FD03D84FF0FF30014607E00022254BFA
:104F700020463146FBF7EEF9FBF71BFD102409E054
:104F8000002C0ADB0A220023FBF716FC039B3032BD
:104F90001A55641E50EA0102F2D1641C039AC4F14E
:104FA00011031444119A012A03D0012208430DD1A0
:104FB0000AE0084304D000204FF0110B119072E773
:104FC000A3EB0B056D1E0DE05B4504DD4FF0000209
:104FD00005F1010504E003DA4FF00002A5F1010537
:104FE000002AECD002981199C0E90231C0E90045CD
:104FF00079E70000000014400000F03F300000009E
:105000000000F0430000E03F2DE9FF4F95B09B46C4
:105010008946064600250FE2252877D10024274639
:10502000F84A0121059400E0044316F8013F203BB3
:1050300001FA03F01042F7D130782A2811D06FF02E
:105040002F033078A0F13002092A16D8059A44F0CF
:10505000020402EB820203EB42021044761C05902C
:10506000EFE759F8042B0592002A03DA504244F482
:105070000054059044F00204761C30782E2816D196
:1050800016F8010F44F004042A280DD06FF02F0207
:105090003078A0F13003092B09D807EB870302EB26
:1050A0004303C718761CF3E759F8047B761C307865
:1050B0006C280FD006DC4C2817D068280DD06A2841
:1050C00014D104E0742810D07A280FD10DE044F4F4
:1050D00000140AE044F4801401E044F440147278AF
:1050E000824202D104F58014761C761C3078662842
:1050F0000BD013DC582877D009DC002875D0452860
:10510000F6D04628F4D047281AD19DE118E063284C
:1051100035D0642879D0652812D195E1702873D0F4
:1051200008DC6728F1D069286FD06E280DD06F2871
:1051300006D1B5E073282CD0752875D0782874D0A6
:105140005A46179990476D1C75E1C4F30250022826
:1051500009D003280DD0D9F8001004280DD00D6017
:1051600009F1040967E1D9F80010EA17C1E9005212
:10517000F6E7D9F800100D80F2E70D70F0E719F8A6
:10518000041B8DF8001000208DF80100EA46012074
:1051900003E059F804AB4FF0FF3061074FF0000116
:1051A00002D40DE008F101018846B9420FDA8045CA
:1051B000F8DB1AF808100029F4D108E008F1010121
:1051C00088468142FADB1AF808100029F6D10598C2
:1051D0005B46A0EB080721463846179A00F094FA80
:1051E000284400EB080507E04DE029E10DE01AF83E
:1051F000010B5A4617999047B8F10108F7D25B4660
:1052000021463846179A13E142E00A220092C4F37D
:1052100002524FF0000A022A08D059F804CB032AA0
:105220004FEAEC710AD00DE029E02AE009F107010C
:1052300021F00702F2E802C1914609E00FFA8CFC66
:105240004FEAEC71042A03D14FFA8CFC4FEAEC715F
:10525000002907DA0A460021DCF1000C61EB0201AB
:105260002D2202E0220504D52B228DF804200122F4
:1052700003E0E20701D02022F7E7904659E00A2137
:1052800002E010220DE010214FF0000A00910BE027
:1052900010224FF0000A44F004040827009203E0B3
:1052A00008224FF0000A0092C4F30252022A05D0ED
:1052B00059F804CB0021032A08D009E009F10701BD
:1052C00021F00702F2E802C1914605E01FFA8CFCCA
:1052D000042A01D10CF0FF0C4FF00008220728D55A
:1052E000702806D0009B83F0100353EA0A0305D010
:1052F0000EE040228DF80420012208E05CEA010261
:1053000006D030228DF804208DF805000222904648
:10531000009B83F0080353EA0A030AD15CEA010206
:1053200001D1620705D530228DF804204FF0010825
:105330007F1E582804D034A003900EA802900DE0E0
:1053400036A0F9E753466046009AFBF735FA8446E3
:105350000398825C0298401E029002705CEA010091
:10536000F0D1029806A9081A00F1200A600702D5B8
:1053700024F4803400E00127574502DDA7EB0A0042
:1053800000E0002000EB0A01009005984144401A1B
:105390000590E00306D45B462146179A059800F075
:1053A000B3F90544002706E001A85A46C05D1799E5
:1053B00090476D1C7F1C4745F6DBE0030CD55B4630
:1053C0002146179A059800F09FF9054404E0302023
:1053D0005A46179990476D1C0099481E0090002965
:1053E000F5DC08E0029802995A460078491C0291BF
:1053F000179990476D1CBAF10001AAF1010AF1DC7E
:1054000065E1000009280100303132333435363788
:105410003839616263646566000000003031323300
:1054200034353637383941424344454600000000A0
:1054300000F058F90544761C307800287FF4ECAD74
:1054400019B02846BDE8F08F620700D4062709F19D
:10545000070222F0070CFCE80223E14603F00048B3
:105460005FEA080C02D00FF2702C0DE05FEA045CDA
:1054700002D50FF2682C07E05FEAC47C02D00FF27D
:10548000602C01E0AFF2700C4FF0FF3823F00043C6
:10549000CDF850C065280CD006DC452809D0462838
:1054A0001DD047283DD13DE0662818D067287ED121
:1054B00038E00021112F01DB112000E0781CCDE93C
:1054C000000106A90EA8FFF7DDFCDDE90F010E9A29
:1054D00003910021009207F1010A04914DE04FF081
:1054E00000400097CDE9011006A90EA8FFF7CAFCFD
:1054F000DDE90F0203920E9B11990022DDF80CA04A
:105500000093049211B9791C00EB010AB7EB0A0071
:1055100004D4C0F1FF3007F1010A0490AAEB0700A0
:10552000019044E0012F00DA01270021112F01DD55
:10553000112000E03846CDE9000106A90EA8FFF7CA
:10554000A1FCDDE90F010E9A039100210491009264
:10555000BA4621070CD40399514500DA8A46BAF1BC
:10556000010F05DD009AAAF10101515C302908D034
:10557000B84202DA10F1040F06DA0121CDE9011078
:1055800015E0AAF10101E9E7002805DC04990144CE
:105590000491AAEB000102E0411C514500DD8A465E
:1055A0000499401A401C01904FF0004002902007DF
:1055B00004D40198504501DBCDF8048000208DF81B
:1055C0004F0002980DF14F07B0F1004F25D02B206E
:1055D0000E9002984FF0020800280CDA4042029028
:1055E0002D200E9007E00A210298FBF7CFF830310A
:1055F000029007F8011DB8F10001A8F10108F2DCE2
:1056000002980028EFD1791E0E980870307800F0CB
:10561000200040F0450007F8020D12A8C01B00F161
:1056200007081498007800B1012000EB0A010198E6
:1056300001EBE07105984144401A401E0590E003DB
:1056400006D45B462146179A059800F05DF805449C
:105650001498007818B15A46179990476D1CE003CA
:1056600024D55B462146179A059800F04DF805446D
:105670001CE00498002807DBDDE90301884203DD14
:105680000098405C179901E0179930205A469047DE
:10569000049805F10105401C04900198401E0190FA
:1056A00004D12E205A46179990476D1CBAF100017B
:1056B000AAF1010ADDDC05E017F8010B5A4617993B
:1056C00090476D1CB8F10001A8F10108F4DC5B46BD
:1056D0002146179A0598ABE62D0000002B0000002C
:1056E000200000002DE9F041044600251E46174623
:1056F000880404D405E039462020B0476D1C641EA0
:10570000F9D52846BDE8F0812DE9F0410446002591
:105710001E469046C80301D5302700E020278804A4
:1057200004D505E041463846B0476D1C641EF9D5E6
:105730002846BDE8F08100002DE9F04D8D4F21F0A5
:10574000004A86B005460C46BA452ADBAAEB07009C
:1057500028430AD08848824501DC1AD1CDB106B071
:105760002846BDE8F04DFFF760BB844A844B2846CD
:10577000FAF797FE07460E46824A834B2846214693
:10578000FAF78FFE06B03A463346BDE8F04DFAF719
:10579000E1BD0120FFF76CFB06B0BDE8F04DFFF75F
:1057A00049BB7A48824542DABAF1795F0BDA28467A
:1057B000FFF7D2FA042808BFFFF742FB284606B0DD
:1057C0002146BDE8F08D2A460B461046FAF769FEE1
:1057D000834602466E480E460B4606217844FFF784
:1057E000CFFA5A463346FAF75CFE804669488A4645
:1057F0005A46334604217844FFF7C2FA5A463346E4
:10580000FAF74FFE00223B46FAF7A4FD02460B468C
:1058100040465146FAF7B7FE2A462346FAF741FEBC
:1058200006B02A462346BDE8F04DFAF793BD284658
:1058300024F0004100223D463B46FAF72FFE4FF090
:10584000FF32FBF79FF80646024653480F460B46C9
:1058500006217844FFF794FA32463B46FAF721FED8
:10586000CDE900014D4832463B4604217844FFF71C
:1058700087FA32463B46FAF714FE00222B46FAF727
:1058800069FD834602913046394600F06FFA804642
:1058900043480D46504517DCDDE900015A46029B9E
:1058A000FAF771FE42462B46FAF7FBFD42462B46BD
:1058B000FAF750FD0122FBF765F8304A304BFAF752
:1058C000EAFD304A304B4CE04FF0000A52460B469E
:1058D0004046FAF73FFDCDE9031052462B461046ED
:1058E0001946FAF7DEFD32463B46FAF7D7FDDDE909
:1058F0000332FAF748FE06460F46DDE900015A4634
:10590000029BFAF740FE8346009101223046394659
:10591000FBF738F8194A1A4BFAF7C0FD06460F464E
:10592000012240462946FBF72DF85A46009BFAF71C
:10593000B8FD32463B46FAF7AEFD06460F46012259
:1059400050462946FBF71EF80E4DDFF858802A46D0
:105950004346FAF7A3FD32463B46FAF79FFD2A4637
:105960004346FAF79BFD002CD8BF81F0004106B0FA
:10597000BDE8F08D0000F03F0000F07F075C1433BD
:1059800026A6913C182D4454FB21F93F0000E03F2E
:10599000D8050000EE050000620500007805000053
:1059A0003333EF3FFB21E93F2DE9F84F04460D4625
:1059B00021F0004000917349814211DC7249884214
:1059C00001DC06D12CB120462946BDE8F84FFFF78F
:1059D0002CBA6E48002DCCBF6D496E49BDE8F88FDA
:1059E0006D49814211DD6D498142D8BF4FF0FF36CC
:1059F0006DDD20462946FFF7AFF9042808BFFFF701
:105A00001FFA20462946BDE8F88F6549654F25F005
:105A10000045814233DD6449814219DD002632466A
:105A20004FF0804320462946FAF794FC80468A4688
:105A3000012220462946FAF7A5FF00223B46FAF745
:105A40002AFD42465346FAF79EFD04460D463EE0C7
:105A500001260022BA463B4620462946FAF77AFC40
:105A600080460F460022534620462946FAF713FD8A
:105A700042463B46FAF787FD04460D4627E04B4970
:105A800081421BDDDFF828A1022600225346204672
:105A90002946FAF706FD00223B46FAF75BFC8046F2
:105AA0000F460022534620462946FAF7F4FC4246A8
:105AB0003B46FAF768FD04460D4608E003262246F9
:105AC0002B4600203B49FAF75EFD04460D46224670
:105AD0002B4610461946FAF7E4FC8B4682460246EE
