:020000040800F2
:10000000601C0020CD0100082F160008991400087C
:100010002D160008D3020008D11A000800000000C5
:10002000000000000000000000000000331600087F
:100030000B03000800000000311600083516000808
:10004000E7010008E7010008E7010008E7010008F0
:10005000E7010008E7010008E7010008E7010008E0
:10006000E7010008E7010008E7010008E7010008D0
:10007000E7010008E7010008E7010008E7010008C0
:10008000D5020008E7010008E7010008E7010008C1
:10009000E7010008E7010008E7010008E7010008A0
:1000A000E7010008E7010008E7010008E701000890
:1000B000E7010008E7010008E7010008E701000880
:1000C000E7010008E7010008E7010008E701000870
:1000D000E7010008E7010008E7010008E701000860
:1000E000E7010008E7010008E7010008E701000850
:1000F000E7010008E7010008E7010008E701000840
:10010000E7010008E7010008E7010008E70100082F
:10011000E7010008E7010008E7010008E70100081F
:10012000E7010008E7010008E7010008E70100080F
:1001300000F002F800F03AF80AA090E8000C8244BF
:100140008344AAF10107DA4501D100F02FF8AFF29C
:10015000090EBAE80F0013F0010F18BFFB1A43F0A5
:1001600001031847981A0000B81A0000103A24BF7B
:1001700078C878C1FAD8520724BF30C830C144BF0C
:1001800004680C607047000000230024002500264E
:10019000103A28BF78C1FBD8520728BF30C148BFEA
:1001A0000B6070471FB51FBD10B510BD00F058F8AB
:1001B0001146FFF7F7FF01F0F9FC00F076F803B401
:1001C000FFF7F2FF03BC00F07DF80000094880470C
:1001D00009480047FEE7FEE7FEE7FEE7FEE7FEE729
:1001E000FEE7FEE7FEE7FEE704480549054A064B41
:1001F00070470000971600083101000860160020C3
:10020000601C002060180020601800204FF00002E1
:1002100000B5134694469646203922BFA0E80C50FC
:10022000A0E80C50B1F12001BFF4F7AF090728BFD7
:10023000A0E80C5048BF0CC05DF804EB890028BF53
:1002400040F8042B08BF704748BF20F8022B11F07C
:10025000804F18BF00F8012B7047704770477047F8
:10026000754600F02BF8AE4605006946534620F06F
:100270000700854618B020B5FFF7B6FFBDE820405F
:100280004FF000064FF000074FF000084FF0000B52
:1002900021F00701AC46ACE8C009ACE8C009ACE805
:1002A000C009ACE8C0098D46704710B50446AFF3ED
:1002B00000802046BDE81040FFF781BF004870472E
:1002C000FC15002001491820ABBEFEE72600020005
:1002D0007047FEE7014800F01BB8000058000020FE
:1002E00030B590F840500124AC40C56B6C60046898
:1002F00063604368102B036803D099600068C26094
:1003000030BD9A600068C16030BD704772B6FEE7CC
:100310002DE9F05FC16B0A6801680B68046C4FF04F
:10032000040808FA04F8844D844E854FDFF814C29F
:10033000DFF81492DFF814A2DFF814B2DFF814E249
:1003400018EA020F65D05FEA437862D50A68920620
:1003500003D40A6822F004020A60DFF8F0814FF447
:100360008062016808F1140813011402414524D980
:10037000A9420DD0B1420FD0B9421AD0614515D073
:10038000494515D0514501D1120312E0594501D11B
:1003900004220EE0714501D140220AE06D4D143572
:1003A000A94206D06B4A2832914201D11A4600E098
:1003B00022466749091F0A6029E0A94213D0B142C9
:1003C00015D0B94220D061451BD049451BD05145BD
:1003D00002D14FF4800217E0414502D14FF0806214
:1003E00012E0594501D104220EE0714501D14022AD
:1003F0000AE0584D1435A94206D0564A2832914297
:1004000001D11A4600E022464B4908394A60C16AC8
:1004100071E04FF0020808FA04F818EA020F70D0F1
:100420005FEA83786DD50A68920606D40A6822F0DE
:100430000A020A60012180F82110DFF810814FF4D0
:100440000072016808F1140813011402414524D90F
:10045000A9420DD0B1420FD0B9421AD0614515D092
:10046000494515D0514501D1120312E0594501D13A
:1004700002220EE0714501D120220AE0354D1435EB
:10048000A94206D0334A2832914201D11A4600E0EF
:1004900022462F49091F0A6029E0A94213D0B14220
:1004A00015D0B94220D061451BD049451BD05145DC
:1004B00002D14FF4001217E0414502D14FF0007213
:1004C00012E0594501D102220EE0714501D12022EE
:1004D0000AE0204D1435A94206D01E4A2832914226
:1004E00001D11A4600E02246134908394A6000212A
:1004F00080F82010816A00291CD0BDE8F05F084711
:10050000FFE70825A540154214D01A0712D50A683E
:1005100022F00E020A6090F84020C36B012101FA1C
:1005200002F25A60816380F82110002180F82010C7
:10053000016BE0E7BDE8F09F080002401C000240AC
:100540003000024044000240580002406C0002406B
:10055000080402401C04024030B560B11A4B026826
:1005600014219A4209D2194B1344B3FBF1F18900CB
:10057000016417490AE0012030BD134B5B4213446C
:10058000B3FBF1F1890001640F490839C16302210D
:1005900080F82110136843F6F0718B43F0E90114E1
:1005A0002143D0E902452C43214304692143446996
:1005B00021438469214319431160002141630122D1
:1005C00042770177084630BD08040240F8FFFDBFBE
:1005D0000000024070B5044690F820000025012874
:1005E0000CD0012084F8200094F821600020012E16
:1005F00006D084F820000225284670BD022070BD78
:10060000022684F82160A0632068066826F00106AF
:1006100006602046FFF764FEE06A00282068016853
:1006200002D041F00E0106E021F0040101602068D3
:10063000016841F00A0101602068016841F0010190
:100640000160D9E72DE9F84FDFF8C8910024A9F13E
:10065000040B23460F2709F1040AABF1040ED1E085
:100660000125A54006EA0502AA4276D1DFF8A8C115
:100670004E68A6EB0C0866452BD00DDC032E34D05B
:1006800005DC36B3012E19D0022E2FD11BE0112E1E
:1006900016D0122E2AD119E0B8F5881F19D006DC21
:1006A000B8F5803F15D0B8F5801F1FD111E0B8F51F
:1006B000001F0ED0B8F5041F18D10AE0CB6815E072
:1006C000CB681B1D12E0CB6808330FE0CB680C33FE
:1006D0000CE08B682BB1012B4FF0080303D0456170
:1006E00004E0042302E0056100E00023FF2A01D8B2
:1006F000064601E000F104064FEA840501D9A5F1A0
:100700002005D6F8008007FA05FC28EA0C0803FA51
:1007100005F548EA0508C6F800804D68ED0070D57B
:100720003E4DAE6946F00106AE61AD6924F00306A8
:1007300005F0010500953A4D06EB050CDCF8085074
:10074000A607360F07FA06F825EA0805DFF8D48071
:10075000404503D14FF0000825E052E0DFF8C880A3
:10076000404502D14FF001081DE0DFF8C080404550
:1007700002D14FF0020816E0DFF8B480404502D104
:100780004FF003080FE0DFF8AC80404502D14FF096
:10079000040808E0DFF8A080404502D14FF00508CA
:1007A00001E04FF0060808FA06F848EA0508CCF818
:1007B00008804D68D9F80060ED024D4601D516431A
:1007C00000E096432E604D68DAF80060AD025546B1
:1007D00001D5164300E096432E604D68DBF80060BB
:1007E000AD035D4601D5164300E096432E604D688B
:1007F000DEF80060ED03754601D5164300E0964330
:100800002E60641C0A681646E2407FF429AFBDE8FA
:10081000F88F000008040140000011100010024091
:100820000000014000080140000C014000100140A0
:100830000014014000180140001C01400AB1016190
:1008400070470904FBE7000001488068704700001A
:1008500000000020024881680278114481607047DE
:1008600000000020074810B5016841F01001016048
:10087000032000F075F80F2000F006F800F024F8CF
:10088000002010BD0020024070B50D4D04464FF40D
:100890007A712878B1FBF0F00A490968B1FBF0F0F1
:1008A00000F0DCFA48B9102C07D200222146501E75
:1008B00000F036F800206C6070BD012070BD0000B3
:1008C000000000200C0000200C4808B5816941F0B0
:1008D00001018161816901F001010091C16941F06B
:1008E0008051C161C06900F08050009004484168A7
:1008F00021F0E06141F00071416008BD001002404C
:1009000000000140002809DB00F01F020121914096
:100910004009800000F1E020C0F80011704700009D
:10092000F0B40E4B1B680C46C3F30223C3F107055A
:10093000042D00D90425191D072901D2002300E048
:10094000DB1E012606FA05F1491E214099409E4012
:10095000761E16403143F0BC01F018B90CED00E0F2
:10096000064900F0070208684FF6FF03184040EA06
:100970000220034A10430860704700000CED00E0BD
:100980000000FA052DE9F0470F46050061D0434EFF
:10099000306800F00700B84209D2306820F0070044
:1009A00038433060306800F00700B84251D1286801
:1009B0003B4C810712D5400703D5606840F4E060E6
:1009C00060602878000703D5606840F4605060607C
:1009D0006068A96820F0F000084360602878C007CC
:1009E00028D06868012810D02168022810D0890713
:1009F00000292EDA616821F0030101436160FFF7ED
:100A000023FF804641F288390DE021688903EFE732
:100A10008901EDE7FFF718FFA0EB0801494502D96E
:100A20000320BDE8F0876068696800F00C00B0EB57
:100A3000810FEFD1306800F00700B8420BD9306861
:100A400020F0070038433060306800F00700B842FB
:100A500001D00120E5E72878400705D56068E968FE
:100A600020F4E060084360602878000706D56068DD
:100A7000296920F4605040EAC100606000F038F855
:100A80006168084AC1F30311515CC8400649086017
:100A900006480068FFF7F8FE0020C2E70020024089
:100AA00000100240E21B00080C000020040000209F
:100AB0000448054900684968044AC1F30221515CB1
:100AC000C84070470C00002000100240F21B0008D4
:100AD0000448054900684968044AC1F3C221515CD1
:100AE000C84070470C00002000100240F21B0008B4
:100AF0000E4A51680E4801F00C03042B11D0082B4C
:100B00000FD10C48C1F38343C903C05C0AD55168B7
:100B1000084AC1F34041921E515C054A5043B0FB64
:100B2000F1F070470449484370470000001002404C
:100B300000127A00D21B000800093D002DE9F84F91
:100B4000040070D02078C04DC00749D06868C0F359
:100B50008100012807D06868C0F38100022809D10C
:100B60006868C00306D52868800339D56068002806
:100B7000E7D035E06068B0F5803F0BD010B1B0F53C
:100B8000A02F11D0286820F480302860286820F435
:100B9000802002E0286840F480302860606890B1CE
:100BA000FFF752FE06460AE0286840F480202860DD
:100BB000F0E700BFFFF748FE801B642873D8286861
:100BC0008003F7D50CE0FFF73FFE064605E000BFC7
:100BD000FFF73AFE801B6428F0D828688003F7D41A
:100BE00020789A4E80074FF001094FF0000839D560
:100BF000686810F00C0F07D06868C0F38100022805
:100C000009D16868C00306D42868800714D5206914
:100C1000012808D110E02069B0B1C6F80090FFF7B4
:100C200013FE074605E00AE1FFF70EFEC01B02288F
:100C3000C4D828688007F7D52868616920F0F800D3
:100C400040EAC10028600DE0C6F80080FFF7FCFD17
:100C5000074604E0FFF7F8FDC01B022823D82868E8
:100C60008007F7D4207800072CD57948A169D9B13D
:100C7000C0F80090FFF7E8FD074604E0FFF7E4FD49
:100C8000C01B02280FD8686A8007F7D571484FF457
:100C9000FA510068B0FBF1F0009000BF0098411ECF
:100CA0000091FAD20EE080E0C0F80080FFF7CCFDA2
:100CB000074604E0FFF7C8FDC01B022875D8686A24
:100CC0008007F7D42078400760D5E8690027C00086
:100CD00008D4E86940F08050E861E869012700F035
:100CE000805000905C480168C90513D401688346B0
:100CF00041F480710160FFF7A7FD824606E000BF66
:100D0000FFF7A2FDA0EB0A0064284ED8DBF8000034
:100D1000C005F5D5E06801280AD008B1052813D030
:100D2000286A20F001002862286A20F0040002E00E
:100D3000286A40F001002862E06841F2883B98B1DF
:100D4000FFF782FD82460BE0286A40F0040028622B
:100D5000EEE700BFFFF778FDA0EB0A0159455AD82E
:100D6000286A8007F6D50CE0FFF76EFD824605E0A5
:100D7000FFF76AFDA0EB0A0159454CD8286A8007A5
:100D8000F6D41FB1E86920F08050E861E06988B3CB
:100D90006968C1F38101022944D00228C6F8608045
:100DA00004D0FFF751FD044638E034E0FFF74CFD76
:100DB000074604E0FFF748FDC01B02282BD828682F
:100DC0008001F7D4206AB0F5803F05D16868A1683A
:100DD00020F4003008436860D4E9080108436968DA
:100DE00021F4741108436860C6F86090FFF72CFD89
:100DF000044606E025E000BFFFF726FD001B0228A1
:100E000009D828688001F7D51BE000BFFFF71CFD5B
:100E1000001B022802D90320BDE8F88F2868800152
:100E2000F4D40EE00128F7D06868226A00F480311B
:100E3000914204D1616A00F47010884201D001200F
:100E4000EAE70020E8E7000000100240000042420C
:100E5000800442420C0000200070004010B5401E8B
:100E6000B0F1807F01D3012010BD4FF0E02460611C
:100E70000F21601700F08AFE0020A061072020618A
:100E8000002010BD70B590F83C20012A2CD0012420
:100E900080F83C40022280F83D2003685A689D6833
:100EA00022F070060A6832435A60104B02689A4278
:100EB0000ED00F4B9A420BD0B2F1804F08D00D4BA1
:100EC0009A4205D00C4B9A4202D00C4B9A4204D164
:100ED000496825F080031943916080F83D40002166
:100EE00080F83C10084670BD022070BD002C014007
:100EF000003401400004004000080040000C0040A5
:100F000010B5040003D094F83D0010B107E00120B3
:100F100010BD002084F83C00204600F01FF802209D
:100F200084F83D00211D206800F0B6FB012084F804
:100F3000460084F83E0084F83F0084F8400084F8BE
:100F4000410084F8420084F8430084F8440084F8A7
:100F5000450084F83D00002010BD000038B505466E
:100F600000681349884221D11248C16941F0020149
:100F7000C161C069114C00F0020000900E48206071
:100F80001020606000208021C4E902014900216135
:100F90008900C4E90510C800E0612046FFF7DCFACB
:100FA00008B1FFF7B3F96C62AC63656238BD00004D
:100FB00000040040001002406C0002405800002075
:100FC00070B5044690F83C000025012817D0012692
:100FD00084F83C60022084F83D002068826822F09A
:100FE000770222F47F4282600868502838D00DDCF6
:100FF00020284FD005DC90B3102811D14AE0022000
:1010000070BD302846D040280AD13BE060282FD060
:1010100070280DD0B0F5805F03D0B0F5005F12D01E
:10102000012584F83D60002084F83C00284670BD0E
:10103000CB68D1E90121206800F0F6FB20688168C7
:1010400041F0770109E0CB68D1E90121206800F087
:10105000EBFB2068816841F480418160E1E719E0A1
:10106000CA684968206800F0B3FC5021206806E097
:10107000CA684968206800F0BCFC6021206800F064
:10108000DDFBCEE7CA684968206800F0A1FC40217A
:101090002068F4E7226801461046F0E77047000038
:1010A00000B585B000210091019102910391006883
:1010B0000B49884211D10B48816941F004018161DB
:1010C0008069694600F004000490402000900220EE
:1010D000019003900448FFF7B5FA05B000BD000089
:1010E00000040040001002400008014070B50446B2
:1010F00090F83C0000260D4601280FD0012084F80E
:101100003C006AB1042A1DD0082A2FD00C2A3FD0F7
:101110000126002084F83C00304670BD022070BDDE
:10112000206800F093FB2068816941F0080181612B
:101130002068816921F004018161206881692A6940
:10114000114311E0206800F0B1FB2068816941F48F
:10115000006181612068816921F48061816120687A
:1011600081692A6941EA02218161D2E7206800F0A1
:10117000D3FB2068C16941F00801C1612068C169E1
:1011800021F00401C1612068C1692A69114311E09D
:10119000206800F0F5FB2068C16941F40061C1617D
:1011A0002068C16921F48061C1612068C1692A6930
:1011B00041EA0221C161ACE710B5040003D094F804
:1011C0003D0010B107E0012010BD002084F83C0074
:1011D000204600F01EF8022084F83D00211D206802
:1011E00000F05AFA012084F8460084F83E0084F8A2
:1011F0003F0084F8400084F8410084F8420084F8FD
:10120000430084F8440084F8450084F83D00002041
:1012100010BD7047704770472DE9F04117460D002B
:1012200004464FF000060CD0042D11D0082D16D026
:1012300094F84100022819D094F84100012818D0F0
:101240007CE094F83E00022810D094F83E00F5E7C8
:1012500094F83F00022809D094F83F00EEE794F894
:101260004000022802D094F84000E7E70220BDE8E1
:10127000F081002F62D0002B60D04A494A4ADFF843
:101280002CC102204DB1042D18D0082D27D084F890
:1012900041000C2D44D0012681E084F83E00606AB4
:1012A0008162606A3946C262606AC0F830C02268F2
:1012B000606A3432FFF78EF988BB21E084F83F0082
:1012C000A06A8162A06A3946C262A06AC0F830C0D2
:1012D0002268A06A3832FFF77DF900BB15E084F878
:1012E0004000E06A8162E06A3946C262E06AC0F8A2
:1012F00030C02268E06A3C32FFF76CF978B909E047
:101300002068C16841F400711EE02068C16841F4A2
:10131000806119E02068C16841F4006114E00DE0CB
:10132000206B8162206B3946C262206BC0F830C0EE
:101330002268206B4032FFF74DF908B1012096E793
:101340002068C16841F48051C160012229462068AB
:1013500000F0E8F916492068164A884201D0904208
:1013600003D1436C43F400434364206888420DD0AA
:1013700090420BD0B0F1804F08D00F49884205D081
:101380000E49884202D00E49884204D1816801F09A
:101390000701062903D0016841F0010101603046D0
:1013A00065E700003F1700089D170008D5170008E3
:1013B000002C0140003401400004004000080040BF
:1013C000000C004070B5040004D094F841000025E2
:1013D00010B106E0012070BD84F84050204600F0B6
:1013E00023F8242084F841002068C16821F40051CA
:1013F000C160204600F010FB2068016921F4904193
:1014000001612068416921F02A0141612068C168B9
:1014100041F40051C1606564202084F8410084F8E3
:1014200042006563002070BD30B585B00024009493
:1014300001940294039400681449884224D114480A
:10144000816941F480418161816901F480410491A5
:10145000816941F00401816180690E4D00F0040052
:1014600004904FF40070009002200190032003903C
:1014700069462846FFF7E6F82815CDE900046946D5
:1014800028460294FFF7DEF805B030BD0038014071
:101490000010024000080140FEE70000094808B5BE
:1014A000416941F0010141614069002200F0010001
:1014B000009011461020FFF733FABDE808401020D5
:1014C000FFF720BA001002402DE9F04385B0002458
:1014D00020480094019402940394816941F04001F2
:1014E0008161816901F040010491816941F0040149
:1014F0008161816901F004010491816941F0080171
:1015000081618069DFF8508000F0080004900022BB
:1015100020214046FFF792F9DFF840900022202179
:101520004846FFF78BF920250227012603970095EF
:10153000CDE9016469464046FFF784F803970095BA
:10154000CDE9016469464846FFF77CF805B0BDE87F
:10155000F08300000010024000180140000C014020
:1015600010B58EB000240794089409940A940B9443
:101570001C2168460C94FEF749FE1D481B49C0E932
:1015800000145921C0E9024104618461FFF7B8FCED
:1015900008B1FEF7BBFE4FF48050079007A914482E
:1015A000FFF70EFD08B1FEF7B1FE1148FFF704FE8C
:1015B00008B1FEF7ABFE0B940BA90D480C94FFF796
:1015C00061FC08B1FEF7A2FE6020CDE900040294A0
:1015D0000022694606480494FFF788FD08B1FEF72B
:1015E00095FE0348FFF75CFD0EB010BD00040040FF
:1015F000100000200C4810B50A4901604FF4E13199
:101600004160002181600C22C160C0E90412816147
:10161000C161FFF7D7FE002803D0BDE81040FEF7F8
:1016200075BE10BD003801409C000020FEE7FEE7BB
:1016300070477047FFF70EB930B58FB02821684664
:10164000FEF7E4FD14210AA8FEF7E0FD01210804DD
:10165000CDE900100024029402250491CDE9075041
:101660004FF4E01009906846FFF768FA08B172B6C7
:10167000FEE70F20CDE90A054FF48060CDE90C406C
:1016800002210AA80E94FFF77DF9002801D072B656
:10169000FEE70FB030BD7047F0B502681C4B1D4D22
:1016A0001D4E1E4F1E4C4FF0804C984209D0A04258
:1016B00007D0604505D0A84203D0B04201D0B8425F
:1016C00004D122F0700E4A6842EA0E02984209D014
:1016D000A04207D0604505D0A84203D0B04201D057
:1016E000B84203D122F44075CA682A434D6922F0FA
:1016F00080022A4302608A68C2620A688262984253
:1017000001D0A04201D10969016301214161F0BD0D
:10171000002C01400004004000080040000C004084
:101720000034014010B501F01F030121046A994003
:101730008C430462016A9A401143016210BD10B5E6
:10174000446A0121626A824205D121778069F8B931
:1017500084F83E101CE0A26A824206D1022222775F
:101760008069A8B984F83F1012E0E26A824206D18B
:1017700004222277806958B984F8401008E0226B6F
:10178000824205D108222277806908B984F8411085
:101790002046FFF73FFD0020207710BD10B5446ABA
:1017A000616A814201D101200DE0A16A814201D12B
:1017B000022008E0E16A814201D1042003E0216BAC
:1017C000814201D1082020772046FFF724FD002028
:1017D000207710BD10B5446A0121626A824203D1AC
:1017E000217784F83E1019E0A26A824204D10220D7
:1017F000207784F83F1011E0E26A824204D104208D
:10180000207784F8401009E0226B824204D108203E
:10181000207784F8411001E084F83D102046FFF75E
:101820003DFC0020207710BD10B5846842EA0322F9
:1018300024F47F440A432243826010BD826822F070
:1018400070020A4342F0070181607047F0B5036AF5
:10185000026A22F00102026242688469124E24F098
:1018600073050C682C4323F002058B682B430D4D48
:10187000A84201D0B04205D123F00807CB683B4312
:1018800023F00403A84201D0B04205D14D6922F4EF
:10189000407215438A692A43426084614968416302
:1018A0000362F0BD002C014000340140F0B5026A33
:1018B000036A23F010030362436884690D6824F40B
:1018C000E64444EA05248D6822F0200242EA05122B
:1018D0000F4D104EA84201D0B04206D1CF6822F081
:1018E000800242EA071222F04002A84201D0B04230
:1018F00007D14D6923F4406343EA85038D6943EAC8
:10190000850343608461496881630262F0BD000021
:10191000002C014000340140F0B5026A036A23F450
:10192000807303624368C46922F4007224F0730573
:101930000C68124E2C438D6842EA05220E4DA842D7
:1019400001D0B04206D1CF6822F4006242EA0722F9
:1019500022F48062A84201D0B04207D14D6923F43D
:10196000405343EA05138D6943EA05134360C4619C
:101970004968C1630262F0BD002C0140003401409F
:1019800030B5046A026A22F4805202624268C36976
:101990000D6823F4E64343EA05238D6824F40054DC
:1019A00044EA0534084DA84202D0084DA84204D1AB
:1019B0004D6922F4804242EA85124260C36149685F
:1019C0000164046230BD0000002C0140003401407D
:1019D00010B5036A046A24F001040462846924F0E7
:1019E000F00444EA021423F00A020A43846102620A
:1019F00010BD10B5036A046A24F0100404628469FF
:101A000023F0A00324F4704444EA023243EA0111B3
:101A10008261016210BD000070B504460068016972
:101A2000E26821F44051114301612169A068084333
:101A3000616908432168CA6841F20C639A43024312
:101A4000CA6020684169A26921F440711143416173
:101A50001E492068884202D1FFF73AF801E0FFF7FB
:101A600027F800EBC00101EB0012606864218000E0
:101A7000B2FBF0F3B3FBF1F36FF018067343B2FB64
:101A8000F0F5B2FBF0F605EB8305322303EB051509
:101A9000B5FBF1F5B6FBF1F605F0F00505EB061523
:101AA000B2FBF0F6B2FBF0F0B0FBF1F06FF0180211
:101AB000504306EB800003EB0010B0FBF1F021680F
:101AC00000F00F002844886070BD0000003801401D
:101AD000FEE7000040F68C23024A00210248FFF78F
:101AE0009BBB0000E40000201000002070B586B011
:101AF00000246B460D0601D53D2500E01C251D5533
:101B00004906641C090EA4B2082CF3D30021040674
:101B100001D53D2400E01C245D184006491C000E40
:101B200089B22C720829F2D30020110601D53D217B
:101B300000E01C211C18401C217451060A0E80B2C2
:101B40000828F2D3104A0021002001EB41041D5C5B
:101B500000EBC406401C80B222F816501828F6D3B9
:101B6000491C89B26429EFD34FF41660002340F674
:101B70008C2100BF22F81030401C80B28842F9D37B
:101B8000FFF7A8FF06B070BDE40000200907090EAA
:101B9000002804DB00F1E02080F80014704700F01A
:101BA0000F0000F1E02080F8141D7047FEF75AFE88
:101BB000FFF742FDFFF788FCFFF770FCFFF7D0FC52
:101BC000FFF718FD002264211046FFF78FFFF9E7A9
:101BD000010202030405060708090A0B0C0D0E0F8B
:101BE00010100000000000000000010203040607BE
:101BF0000809000000000102030400001C1C00088A
:101C000000000020100000006C0100082C1C0008DF
:101C100010000020501C0000880100080100000096
:0C1C200010000000000000000024F40090
:0400000508000131BD
:00000001FF
