:020000040800F2
:10000000C00600208901000869110008F50F0008EA
:1000100065110008450200087D110008000000007D
:100020000000000000000000000000007111000846
:1000300049020008000000006D1100087511000859
:10004000A3010008A3010008A3010008A301000800
:10005000A3010008A3010008A3010008A3010008F0
:10006000A3010008A3010008A3010008A3010008E0
:10007000A3010008A3010008A3010008A3010008D0
:10008000A3010008A3010008A3010008A3010008C0
:10009000A3010008A3010008A3010008A3010008B0
:1000A000A3010008A3010008A3010008A3010008A0
:1000B000A3010008A301000800000000A30100083C
:1000C000A30100080000000000000000A3010008D8
:1000D00000000000A3010008A301000800000000C8
:1000E000A3010008A3010008A301000800F002F822
:1000F00000F03AF80AA090E8000C82448344AAF188
:100100000107DA4501D100F02FF8AFF2090EBAE885
:100110000F0013F0010F18BFFB1A43F0010318473B
:100120004411000064110000103A24BF78C878C15F
:10013000FAD8520724BF30C830C144BF04680C60ED
:10014000704700000023002400250026103A28BF35
:1001500078C1FBD8520728BF30C148BF0B60704739
:100160001FB51FBD10B510BD00F031F81146FFF7E7
:10017000F7FF01F005F800F04FF803B4FFF7F2FFC6
:1001800003BC00F057F800000948804709480047C1
:10019000FEE7FEE7FEE7FEE7FEE7FEE7FEE7FEE737
:1001A000FEE7FEE704480549054A064B7047000094
:1001B00079110008ED000008C0000020C0060020F2
:1001C000C0020020C002002070477047704775468B
:1001D00000F02CF8AE4605006946534620F00700B3
:1001E000854618B020B5FFF7DDFFBDE820404FF091
:1001F00000064FF000074FF000084FF0000BAC4630
:10020000ACE8C009ACE8C009ACE8C009ACE8C0097A
:1002100021F007018D46704710B50446AFF300800A
:100220002046BDE81040FFF7A8BF00000048704717
:100230001000002001491820ABBEFEE72600020096
:1002400070470000FEE7000070470000EFF31080E9
:1002500072B600BFFEE70000B0B5044600F01AF920
:10026000054640F20000C2F200000078611C18BF91
:10027000044400BF00F00EF9401BA042FAD3B0BD09
:100280002DE9F04F82B00E68002E00F0F98041F2A7
:100290000002C4F20102032340F2004E904208BF64
:1002A00002234FF6FF7CC4F2010E009300240123C9
:1002B000C1F2100C4FF0000B4FF0000950E000BFEE
:1002C00040F60042C4F20102009F904208BF01279D
:1002D00004F00C030F229A402AEA020207FA03F301
:1002E0004FEA9B051A4346F82520D1F804A040F2B6
:1002F0000C455FEACA22DEF8082054BF22EA080251
:1003000042EA0802C4F20105CEF808202A685FEA32
:100310008A2354BF22EA080242EA08022A605FEAFE
:100320008A33DEF8042054BF22EA080242EA0802B7
:100330005FEACA33CEF80420DEF800204FF0010354
:1003400054BF22EA080242EA0802CEF800200E68F2
:100350000BF1010B36FA0BF204F1040400F090806B
:1003600003FA0BF816EA080FF1D04E68664511DC67
:10037000122E55D8DFE806F0340A44485454545439
:100380005454545454545454544C5000D1F80C9078
:1003900046E000BF4FF6FF72C1F2210296420FDC29
:1003A0000022C1F2110296421AD00022C1F21202BA
:1003B000964215D00022C1F22102964210D02FE0C1
:1003C0000022C1F2220296420AD00022C1F231027A
:1003D000964205D00022C1F23202964220D100BFDF
:1003E0008A684AB1012A14BFC0F81480C0F810808E
:1003F0004FF0080914E000BF4FF0040910E000BFFF
:10040000CA6802F108090BE04FF0000908E000BFDC
:10041000CA6802F1040903E0CA6802F10C0900BFCE
:1004200022460646BBF1080F24BF203A043637683F
:100430000F25954027EA050509FA02F22A433260A2
:10044000CA79D2067FF583AF41F21803C4F20203E2
:100450001A68AEF57E7642F001021A601A6802F060
:1004600001020192019A2BF0030256F802A040F615
:100470000002C4F2010290427FF422AF002727E776
:1004800002B0BDE8F08F0000002A08BF0904016136
:100490007047000040F2B800C2F2000000687047E8
:1004A00040F2000040F2B801C2F20000C2F20001C6
:1004B00000780A68104408607047000080B542F276
:1004C0000000C4F20200016841F010010160032045
:1004D00000F07AF80F2000F005F800F027F800206F
:1004E00080BD000070B540F20006C2F2000640F286
:1004F00008013278C2F200014FF47A730968B3FB45
:10050000F2F20446B1FBF2F1084600F027FB0F2C93
:100510004FF0010508D838B94FF0FF3021460022CE
:10052000002500F025F87460284670BD82B041F2C5
:100530001800C4F202000168022241F001010160CA
:10054000016801F0010101910199416841F0805178
:100550004160406800F08050009000980420C4F290
:100560000100016862F31A61016002B07047000087
:1005700010B54EF60C5CCEF2000CDCF80030C3F384
:10058000022E8EF00704042C28BF0424BEF10303BE
:100590004FF0FF3E0EFA04F438BF0023A143994008
:1005A0000EFA03F39A43114300F00F0200F1604387
:1005B0000901043A03F564436244002848BF02F18C
:1005C0000C03197010BD00004EF60C51CEF2000164
:1005D0000A684FF6FF031A4060F30A2242F0806077
:1005E00040F0FD70086070472DE9F04381B00028AD
:1005F00000F0858042F20008C4F202080446D8F8F0
:1006000000000D4600F0070088420CD2D8F8000028
:1006100020F007002843C8F80000D8F8000000F0D8
:100620000700A8426BD1206841F204098107C4F297
:10063000020917D5410705D5D9F8001041F4E0614A
:10064000C9F80010010705D5D9F8001041F4605130
:10065000C9F80010D9F80010A26821F0F001114388
:10066000C9F80010C00741D1D8F8000000F0070019
:10067000A8420CD9D8F8000020F007002843C8F899
:100680000000D8F8000000F00700A84237D1206829
:10069000410707D5D9F80010E26821F4E061114361
:1006A000C9F80010000708D5D9F80000216920F426
:1006B000605040EAC100C9F80000D9F8002002F0FB
:1006C0000C00082841F20020C0F27A0050D141F21B
:1006D0005223C2F38341C0F60003595CD2033BD4DA
:1006E00040F60010C0F23D00484341E06068022837
:1006F0000AD001282AD159F8041C890308D4012002
:1007000001B0BDE8F08300BF59F8041C8901F6D59B
:10071000D9F8001021F003010843C9F80000FFF7E1
:10072000B9FE064641F28837D9F80000616800F04A
:100730000C00B0EB810F97D0FFF7ACFE801BB842E6
:10074000F2D9032001B0BDE8F08300BF59F8041CC2
:100750008907D4D5DCE700BFD9F8002041F2502347
:10076000C2F34042C0F600039A5C4843B0FBF2F08B
:10077000D9F8001041F24022C1F30311C0F6000283
:10078000515C40F2080220FA01F140F20400C2F28A
:1007900000000068C2F200021160FFF7A3FE002013
:1007A00001B0BDE8F08300002DE9F04182B00028DF
:1007B00068D00446007841F20006C007C4F2020681
:1007C00025D0706800F00C0004281BD0706800F081
:1007D0000C00082802D17068C00313D46068002898
:1007E00000F06881B0F5A02F00F07C81B0F5803F6B
:1007F00000F07C81306820F480303060306820F474
:10080000802076E13068800301D56068D0B320781D
:10081000800718D5706810F00C0F07D0706800F0D2
:100820000C0008286ED17068C0036BD43068800754
:1008300002D52069012825D13068616920F0F800CF
:1008400040EAC1003060207800071FD420784007BC
:1008500032D4E56995B1706800F00C00082840F0CA
:100860008F80012D0ED07068216A00F480328A4298
:1008700008D1616A00F47010884203D1002002B0F0
:10088000BDE8F081012002B0BDE8F081A069002838
:1008900062D00020C4F242200121C0F88014FFF78A
:1008A000F9FD0546706A800700F18C80FFF7F2FDC4
:1008B000401B0228F6D92AE1F06910F0805808D1CF
:1008C000F06940F08050F061F06900F080500090D5
:1008D000009847F20007C4F200073868C00529D421
:1008E000386840F480703860FFF7D4FD054600BFDB
:1008F0003868C0051ED4FFF7CDFD401B6428F7D92A
:1009000005E100BF2069002840F20000C4F2422047
:1009100000F0828001210160FFF7BCFD054600BFA9
:10092000306880073FF588AFFFF7B4FD401B022811
:10093000F6D9ECE0E068002800F08080052800F09F
:100940009780012800F09880306A20F00100306222
:10095000306A20F0040092E00020C4F2422000211E
:10096000C0F88014FFF796FD054600BF706A800747
:100970007FF56CAFFFF78EFD401B0228F6D9C6E06D
:100980000027C4F2422700203866FFF783FD022DBE
:1009900005460BD13068800140F1BE80FFF77AFD3B
:1009A000401B02284FF00300F4D968E7306880014B
:1009B0007FF564AFFFF76EFD401B02284FF0030088
:1009C000F4D95CE740F20800C2F20000006844F687
:1009D000D351C1F26201A0FB0101480A019000BF9E
:1009E00000BF0198411E002801913FF42FAF00BFC6
:1009F0000198411E002801913FF428AF00BF0198E3
:100A0000411E002801913FF421AF00BF0198411E13
:100A100000280191E4D119E700210160FFF73AFDB8
:100A2000054600BF306880077FF50DAFFFF732FD48
:100A3000401B02284FF00300F4D920E7306A20F071
:100A400001003062306A20F004003062FFF722FDBE
:100A5000054641F2883700BF306A800720D5FFF78E
:100A600019FD401BB8424FF00300F5D907E700BF5E
:100A7000306A40F004003062306A40F001003062B9
:100A8000FFF708FD054641F2883700BF306A80074E
:100A900006D4FFF7FFFC401BB842F7D937E000BF90
:100AA000B8F1000F7FF4D5AEF06920F08050F0610E
:100AB000CFE600BF306820F480303060306820F42A
:100AC00080203060FFF7E6FC054600BF30688003F9
:100AD0007FF59DAEFFF7DEFC401B64284FF003005E
:100AE000F4D9CCE6306840F480203060306840F4BF
:100AF00080303060FFF7CEFC054600BF30688003D1
:100B00003FF585AEFFF7C6FC401B6428F6D90320ED
:100B100002B0BDE8F08100BF206AB0F5803F05D18A
:100B20007168A26821F40031114371607168626AD2
:100B300021F4741111430843706001203866FFF7F7
:100B4000A9FC0446306880013FF598AEFFF7A2FC8F
:100B5000001B02284FF00300F4D990E6411E00204C
:100B6000B0EB116F1CBF012070474EF21002CEF2A5
:100B7000000251604EF62351CEF20001F0230B70BB
:100B80000721906011607047B0B590F83C20012AB1
:100B900004BF0220B0BD01F108053CCDD1E900CE73
:100BA00023F47C5322F470521A432EF4F0431A4378
:100BB0002CF4E0431A4324F4C0431A432A43C9697E
:100BC00022F48042036811435964002180F83C10EC
:100BD0000846B0BD10B590F83C20012A4FF0020243
:100BE00025D080F83D200268D2F804E0D2F808C091
:100BF0000C682EF070032343B2F1804F53600BD08A
:100C000042F60043C4F201039A4205D040F2004389
:100C1000C4F200039A4204D149682CF080031943BE
:100C200091600121002280F83D1080F83C201046A0
:100C300010BD00002DE9F04390F83C30012B04BFBB
:100C40000220BDE8F0834FEAB202032A3CD8DFE875
:100C500002F0034381BD00BF036842F600461D6AEF
:100C60001A6AC4F2010622F001021A621A465C688E
:100C700052F818CFB3428E68D1F800E025F0020593
:100C800045EA06050CD1CE68D1E9057824F4407414
:100C900025F00C0526F004063C43354344EA0804DD
:100CA0002CF0730747EA0E075C609F614F68096983
:100CB0005F631D629F6947F008079F619F6927F086
:100CC00004079F61B2E000BF0121002280F83C20B0
:100CD0000846BDE8F08300BF036842F600461D6A7F
:100CE0001A6AC4F2010622F010021A621A46D3F8F8
:100CF00004C052F8184FB3428E68D1F800E025F0D6
:100D0000200545EA061510D1CE68D1E9058725F002
:100D1000C0096FF0400505EA06152CF4406647EA65
:100D2000080745EA090546EA870C24F4E64444EA44
:100D30000E27C3F804C09F614F6809699F631D6255
:100D40009F6947F400679F619F6927F480679F61EF
:100D50006BE000BF036842F600461D6A1A6AC4F2DF
:100D6000010622F480721A621A46D3F804C052F8BF
:100D70001CEFB3428E680C6825F4007545EA062521
:100D800011D1CE68D1E9058725F44069360240F2D9
:100D9000FF4526EA05052CF4405647EA080745EAD0
:100DA000090546EA071C2EF073072743C3F804C061
:100DB000DF614F680969DF631D62DF6947F008077B
:100DC000DF61DF6927F00407DF612FE0036842F687
:100DD0000047D3F820C01A6AC4F2010722F48052F7
:100DE0001A621A465C6852F81C5FD1F800E08E68FF
:100DF000BB4204D14F6924F4804444EA87142CF4A4
:100E0000005747EA063725F4E64646EA0E265C60B8
:100E1000DE614E6809691E641F62DF6947F400677E
:100E2000DF61DF6927F48067DF6109021368194316
:100E300011600021002280F83C200846BDE8F083C4
:100E4000002804BF0120704710B5044690F83D000B
:100E500028B9002084F83C00204600F051F8022018
:100E600084F83D00206842F6004C0268B0F1804FE3
:100E7000C4F2010C18BF604504D1A36822F07002CF
:100E80001A4305E040F20043C4F200039842F4D054
:100E9000B0F1804F18BF604504D1236922F440723D
:100EA0001A4305E040F20043C4F200039842F4D034
:100EB000A16922F08002D4F804E0E36811436045A0
:100EC0000160C362C0F828E002D16169CCF830103B
:100ED00001214161002084F8461084F83E1084F816
:100EE0003F1084F8401084F8411084F8421084F8D0
:100EF000431084F8441084F8451084F83D1010BD68
:100F000081B0006842F60041C4F20101884201D07C
:100F100001B0704741F21800C4F20200016841F4C8
:100F200000610160006800F400600090009801B06A
:100F30007047000041B1082910D0042914BF00F106
:100F4000410200F13F020BE090F83E20012A1CBF55
:100F500001207047022280F83E2013E000F1400299
:100F60001278012A1CBF012070470222082907D0ED
:100F7000042914BF80F8412080F83F2002E000BF20
:100F800080F84020006801F01F010122036A8A40B6
:100F900023EA02010162036A42F64441C4F20101FC
:100FA0001A43A1F144039842026203D0B0F1804F8A
:100FB00007D112E00A6842F400420A60B0F1804FA3
:100FC0000BD042F60041C4F20101884205D040F244
:100FD0000041C4F20001884206D1816801F0070196
:100FE000062904BF00207047016841F0010101603B
:100FF00000207047FEE7000070B584B041F2180091
:10100000C4F20200016840F6000441F020010160D2
:101010000168C4F2010401F0200100910099016807
:10102000002241F00401016000684FF4007100F0FB
:1010300004000090009820464FF400750026FFF74A
:1010400023FA0120CDE901060220039069462046DB
:101050000095FFF715F904B070BD0000B0B598B069
:1010600042F6004540F27000C4F201050021C2F2D0
:101070000000472244F61F6380241191CDE90F112F
:10108000CDE90D11CDE90B11CDE90911CDE907111C
:10109000CDE90511CDE90311CDE90111C0E90052F7
:1010A000C0E90213C0E904118461FFF7C9FE0028FA
:1010B00018BFFFF7CBF840F27000C2F2000010A991
:1010C000FFF788FD002818BFFFF7C0F860200990DF
:1010D00040F270000024C2F2000009A90022CDE90C
:1010E0000A44CDE90C44CDE90E44FFF7A3FD0028E6
:1010F00018BFFFF7ABF80594CDE90344CDE90144EF
:10110000089440F270044FF40050C2F200040690BC
:1011100001A92046FFF738FD002818BFFFF796F811
:1011200020680021A842169102D018B0B0BD00BFBF
:1011300041F21800C4F20200016841F004010160AC
:10114000006814A900F00400139013984FF4807005
:101150001490022015901790A5F51050FFF790F805
:1011600018B0B0BDFEE70000FEE7000070470000C9
:1011700070470000FFF794B970470000FEE70000D9
:1011800090B0FFF79BF900240120CDE90B44CDE995
:10119000094406900A904FF4E0104FF48031022584
:1011A0000F9006A8CDE90714CDE90D51FFF7FCFA21
:1011B00020B1EFF3108072B6FEE700BF0F20CDE93B
:1011C00001054FF48060CDE9040401A802210394D5
:1011D000FFF70AFA20B1EFF3108072B6FEE700BF06
:1011E00040F60064CEF20004FFF706FFFFF736FF7B
:1011F00040F27000C2F200000021FFF79BFE4FF0AA
:1012000060456126D4F88000C0071CBF20685FEAF3
:10121000C07006D140F6B830FFF71EF8F2E700BF05
:1012200000BF286850B900BF286838B900BF2868D7
:1012300020B900BF28680028F2D000BF2E70E9E76F
:101240000000000000000000010203040607080976
:10125000010202030405060708090A0B0C0D0E0F14
:10126000101000008812000800000020100000008C
:10127000280100089812000810000020B0060000A5
:101280004401000800000000010000001000000000
:081290000024F400000000003E
:04000005080000ED02
:00000001FF
