:020000040800F2
:1000000078060020CD010008E9090008AD090008C4
:10001000E509000889020008FD0900080000000049
:10002000000000000000000000000000F1090008CE
:100030008D02000800000000ED090008F509000825
:10004000E7010008E7010008E7010008E7010008F0
:10005000E7010008E7010008E7010008E7010008E0
:10006000E7010008E7010008E7010008E7010008D0
:10007000E7010008E7010008E7010008E7010008C0
:10008000E7010008E7010008E7010008E7010008B0
:10009000E7010008E7010008E7010008E7010008A0
:1000A000E7010008E7010008E7010008E701000890
:1000B000E7010008E7010008E7010008E701000880
:1000C000E7010008E7010008E7010008E701000870
:1000D000E7010008E7010008E7010008E701000860
:1000E000E7010008E7010008E7010008E701000850
:1000F000E7010008E7010008E7010008E701000840
:10010000E7010008E7010008E7010008E70100082F
:10011000E7010008E7010008E7010008E70100081F
:10012000E7010008E7010008E7010008E70100080F
:1001300000F002F800F03AF80AA090E8000C8244BF
:100140008344AAF10107DA4501D100F02FF8AFF29C
:10015000090EBAE80F0013F0010F18BFFB1A43F0A5
:10016000010318477009000090090000103A24BFED
:1001700078C878C1FAD8520724BF30C830C144BF0C
:1001800004680C607047000000230024002500264E
:10019000103A28BF78C1FBD8520728BF30C148BFEA
:1001A0000B6070471FB51FBD10B510BD00F031F8D2
:1001B0001146FFF7F7FF00F023FC00F04FF803B4FF
:1001C000FFF7F2FF03BC00F057F800000948804732
:1001D00009480047FEE7FEE7FEE7FEE7FEE7FEE729
:1001E000FEE7FEE7FEE7FEE704480549054A064B41
:1001F00070470000F909000831010008780000206C
:1002000078060020780200207802002070477047AE
:100210007047754600F02CF8AE4605006946534617
:1002200020F00700854618B020B5FFF7DDFFBDE8D8
:1002300020404FF000064FF000074FF000084FF04D
:10024000000BAC46ACE8C009ACE8C009ACE8C0099A
:10025000ACE8C00921F007018D46704710B504468F
:10026000AFF300802046BDE81040FFF7A8BF0000B4
:10027000004870471000002001491820ABBEFEE77F
:100280002600020070470000FEE7000070470000F3
:10029000B0B5044600F010F8054640F20000C2F286
:1002A00000000078611C18BF044400BF00F004F88F
:1002B000401BA042FAD3B0BD40F27000C2F2000071
:1002C0000068704740F2000040F27001C2F2000086
:1002D000C2F2000100780A6810440860704700000C
:1002E00080B542F20000C4F20200016841F0100142
:1002F0000160032000F07AF80F2000F005F800F00C
:1003000027F8002080BD000070B540F20006C2F260
:10031000000640F208013278C2F200014FF47A730D
:100320000968B3FBF2F20446B1FBF2F1084600F0B3
:1003300027FB0F2C4FF0010508D838B94FF0FF30DC
:1003400021460022002500F025F87460284670BD83
:1003500082B041F21800C4F202000168022241F0AA
:1003600001010160016801F00101019101994168F9
:1003700041F080514160406800F08050009000984A
:100380000420C4F20100016862F31A61016002B046
:100390007047000010B54EF60C5CCEF2000CDCF895
:1003A0000030C3F3022E8EF00704042C28BF04246F
:1003B000BEF103034FF0FF3E0EFA04F438BF0023F2
:1003C000A14399400EFA03F39A43114300F00F0240
:1003D00000F160430901043A03F5644362440028D4
:1003E00048BF02F10C03197010BD00004EF60C510D
:1003F000CEF200010A684FF6FF031A4060F30A22AA
:1004000042F0806040F0FD70086070472DE9F043D5
:1004100081B0002800F0858042F20008C4F2020892
:100420000446D8F800000D4600F0070088420CD2C0
:10043000D8F8000020F007002843C8F80000D8F8DA
:10044000000000F00700A8426BD1206841F20409C7
:100450008107C4F2020917D5410705D5D9F8001064
:1004600041F4E061C9F80010010705D5D9F8001082
:1004700041F46051C9F80010D9F80010A26821F0C9
:10048000F0011143C9F80010C00741D1D8F80000AD
:1004900000F00700A8420CD9D8F8000020F00700AF
:1004A0002843C8F80000D8F8000000F00700A84270
:1004B00037D12068410707D5D9F80010E26821F448
:1004C000E0611143C9F80010000708D5D9F8000011
:1004D000216920F4605040EAC100C9F80000D9F851
:1004E000002002F00C00082841F20020C0F27A003F
:1004F00050D140F6C223C2F38341C0F60003595CD9
:10050000D2033BD440F60010C0F23D00484341E026
:10051000606802280AD001282AD159F8041C8903EE
:1005200008D4012001B0BDE8F08300BF59F8041CD5
:100530008901F6D5D9F8001021F003010843C9F864
:100540000000FFF7B9FE064641F28837D9F80000EF
:10055000616800F00C00B0EB810F97D0FFF7ACFEA4
:10056000801BB842F2D9032001B0BDE8F08300BF80
:1005700059F8041C8907D4D5DCE700BFD9F800205E
:1005800040F6C023C2F34042C0F600039A5C4843E1
:10059000B0FBF2F0D9F8001040F6B022C1F303111D
:1005A000C0F60002515C40F2080220FA01F140F26C
:1005B0000400C2F200000068C2F200021160FFF7FE
:1005C000A3FE002001B0BDE8F08300002DE9F0415A
:1005D00082B0002868D00446007841F20006C007C7
:1005E000C4F2020625D0706800F00C0004281BD06D
:1005F000706800F00C00082802D17068C00313D4A2
:100600006068002800F06881B0F5A02F00F07C81C0
:10061000B0F5803F00F07C81306820F4803030609D
:10062000306820F4802076E13068800301D560686E
:10063000D0B32078800718D5706810F00C0F07D061
:10064000706800F00C0008286ED17068C0036BD48D
:100650003068800702D52069012825D1306861699A
:1006600020F0F80040EAC1003060207800071FD475
:100670002078400732D4E56995B1706800F00C002D
:10068000082840F08F80012D0ED07068216A00F498
:1006900080328A4208D1616A00F47010884203D126
:1006A000002002B0BDE8F081012002B0BDE8F08179
:1006B000A069002862D00020C4F242200121C0F8C5
:1006C0008014FFF7F9FD0546706A800700F18C8001
:1006D000FFF7F2FD401B0228F6D92AE1F06910F07D
:1006E000805808D1F06940F08050F061F06900F066
:1006F00080500090009847F20007C4F20007386865
:10070000C00529D4386840F480703860FFF7D4FD04
:10071000054600BF3868C0051ED4FFF7CDFD401B5D
:100720006428F7D905E100BF2069002840F20000E5
:10073000C4F2422000F0828001210160FFF7BCFD7D
:10074000054600BF306880073FF588AFFFF7B4FD6E
:10075000401B0228F6D9ECE0E068002800F0808019
:10076000052800F09780012800F09880306A20F07A
:1007700001003062306A20F0040092E00020C4F2F0
:1007800042200021C0F88014FFF796FD054600BF07
:10079000706A80077FF56CAFFFF78EFD401B022863
:1007A000F6D9C6E00027C4F2422700203866FFF7DA
:1007B00083FD022D05460BD13068800140F1BE80DB
:1007C000FFF77AFD401B02284FF00300F4D968E7D9
:1007D000306880017FF564AFFFF76EFD401B022893
:1007E0004FF00300F4D95CE740F20800C2F20000C9
:1007F000006844F6D351C1F26201A0FB0101480A2E
:10080000019000BF00BF0198411E002801913FF4F4
:100810002FAF00BF0198411E002801913FF428AF7F
:1008200000BF0198411E002801913FF421AF00BF95
:100830000198411E00280191E4D119E700210160CF
:10084000FFF73AFD054600BF306880077FF50DAF22
:10085000FFF732FD401B02284FF00300F4D920E7D8
:10086000306A20F001003062306A20F0040030620B
:10087000FFF722FD054641F2883700BF306A800746
:1008800020D5FFF719FD401BB8424FF00300F5D902
:1008900007E700BF306A40F004003062306A40F081
:1008A00001003062FFF708FD054641F2883700BFBE
:1008B000306A800706D4FFF7FFFC401BB842F7D927
:1008C00037E000BFB8F1000F7FF4D5AEF06920F03B
:1008D0008050F061CFE600BF306820F48030306097
:1008E000306820F480203060FFF7E6FC054600BF4A
:1008F000306880037FF59DAEFFF7DEFC401B642867
:100900004FF00300F4D9CCE6306840F4802030602A
:10091000306840F480303060FFF7CEFC054600BF01
:10092000306880033FF585AEFFF7C6FC401B6428A6
:10093000F6D9032002B0BDE8F08100BF206AB0F50F
:10094000803F05D17168A26821F4003111437160C4
:100950007168626A21F474111143084370600120C8
:100960003866FFF7A9FC0446306880013FF598AE71
:10097000FFF7A2FC001B02284FF00300F4D990E619
:10098000411E0020B0EB116F1CBF012070474EF2DA
:100990001002CEF2000251604EF62351CEF2000159
:1009A000F0230B700721906011607047FEE7000094
:1009B00082B041F21800C4F20200016841F0040163
:1009C0000160016801F0040101910199016841F0A1
:1009D00008010160006800F008000090009802B073
:1009E00070470000FEE70000FEE7000070470000CF
:1009F00070470000FFF766BC70470000FEE700008C
:100A000090B0FFF76DFC00240120CDE90B44CDE947
:100A1000094406900A904FF4E0104FF4803102250B
:100A20000F9006A8CDE90714CDE90D51FFF7CEFDD3
:100A300020B1EFF3108072B6FEE700BF0F20CDE9C2
:100A400001054FF48060CDE9040401A8022103945C
:100A5000FFF7DCFC20B1EFF3108072B6FEE700BFB9
:100A600040F60064CEF20004FFF7A2FF4FF06045AD
:100A7000612600BFD4F88000C0071CBF20685FEA71
:100A8000C07006D14FF4FA70FFF702FCF2E700BF26
:100A900000BF286850B900BF286838B900BF28686F
:100AA00020B900BF28680028F2D000BF2E70E9E707
:100AB000000000000000000001020304060708090E
:100AC000010202030405060708090A0B0C0D0E0FAC
:100AD00010100000F80A00080000002010000000BC
:100AE0006C010008080B00081000002068060000D8
:100AF0008801000800000000010000001000000054
:080B00000024F40000000000D5
:0400000508000131BD
:00000001FF
