:020000040800F2
:10000000B8050020F10100084B3000082D28000839
:1000100049300008F10700085545000800000000BD
:10002000000000000000000000000000A1340008F3
:10003000F3070008000000004D300008A33400085A
:100040000B0200080B0200080B0200080B0200085C
:100050000B0200080B0200080B0200080B0200084C
:100060000B0200080B0200080B0200080B0200083C
:100070000B0200080B0200080B0200080B0200082C
:100080000B020008000000000B0200080B02000831
:100090000B0200080B0200080B0200080B0200080C
:1000A0000B0200080B0200080B0200080B020008FC
:1000B0001D3500080B020008293500080B02000856
:1000C0000B0200080B0200080B0200080B020008DC
:1000D0000B020008494500080B0200080B0200084B
:1000E0000B0200080B0200080B0200080B020008BC
:1000F0000B0200080B0200080B02000800000000C1
:10010000000000000B020008000000000B020008C5
:100110000B020008000000000B0200080B020008A0
:100120000B0200080B0200080B0200080B0200087B
:100130000B02000800000000000000000B02000895
:100140000B0200080B020008000000000000000085
:10015000000000000000000000000000000000009F
:100160000000000000000000000000000B0200087A
:100170000B0200080000000000000000000000006A
:10018000000000000B02000800000000000000005A
:10019000000000000000000000000000000000005F
:1001A00000000000000000000B0200080B02000825
:1001B0000B0200080B0200080B0200080000000000
:1001C000000000000B02000800000000000000001A
:1001D0000B0200080B020008DFF810D000F044F911
:1001E0000048004781460008AFF30080B8050020B2
:1001F0000648804706480047FEE7FEE7FEE7FEE7C1
:10020000FEE7FEE7FEE7FEE7FEE7FEE70135000852
:10021000D90100082DE9F05F0546002092469B4673
:1002200088460646814640241BE02846414647460C
:10023000224600F0D4F853465A46C01A914110D3D2
:1002400011461846224600F0BBF82D1A67EB01084C
:100250004F4622460120002100F0B2F817EB0009BA
:100260004E41201EA4F10104DFDC484631462A46F7
:100270004346BDE8F09FD2B201E000F8012B491ED1
:10028000FBD270470022F6E710B513460A46044633
:100290001946FFF7F0FF204610BD421C10F8011B65
:1002A0000029FBD1801A70470FB400B58DB010A99A
:1002B00009900B9000914FF0FF300A9000200C90B5
:1002C00005480690054807906A4609A80F9900F06E
:1002D0009DF80DB05DF814FB2904000847040008E0
:1002E0002DE9FF5FD2E901A74FF000089169994617
:1002F0001446DDF838B0464601988847054659EA65
:100300000B0005D009E0A169761C019888470546D5
:10031000216A284688470028F5D1681C03D05FEA87
:10032000CA7005D015E04FF0FF3004B0BDE8F09F73
:100330002068011D2160D0F800800AE05FEACA70E1
:1003400001D108F8015BA169761C7F1E01988847DE
:100350000546002F1ADD681C18D0B9F1000F0DD02A
:10036000E81705EBD060421120F01F0059F8221069
:100370002A1A012090400142E0D107E0BBF1000FB2
:10038000DCD1216A284688470028D7D0E169019846
:100390008847BBF1000F07D1002E05DD5FEACA7068
:1003A00002D1002188F80010A068B84203DDBBF13B
:1003B000000F03D017B16FF00100B6E73046B4E785
:1003C000202A04DB203A00FA02F100207047914015
:1003D000C2F1200320FA03F3194390407047202A0A
:1003E00004DB203A21FA02F00021704721FA02F3DF
:1003F000D040C2F1200291400843194670470000E6
:10040000026811441378016018467047D1600449AE
:1004100051610449116200211161114600F03CB89C
:10042000010400088D040008426842B1016811F817
:10043000013B23B1521EC0E900121846704701214A
:10044000C160881E704742685AB1C368016843B9E9
:1004500083688B4205D0491E521CC0E9001200205F
:1004600070474FF0FF307047064C074D06E0E068DC
:1004700040F0010394E8070098471034AC42F6D3EB
:10048000FFF7AEFE645B0008845B0008C0B24FF467
:10049000F05100F099B900002DE9F34F8BB04FF007
:1004A000000801F10C000C464FF0010B46460DF11F
:1004B000080A01906269012101989047051E2DD01C
:1004C000252D2CD0216A8847C0B16269012101988D
:1004D0009047216A88470028F7D1411E6269019838
:1004E000904700E0761CA1690B988847216A8847ED
:1004F0000028F7D1E1690B988847DBE7A1690B98E1
:1005000088470746A84201D1761CD3E7E1690B98DA
:1005100088477F1C02D1B8F1000F6FD047E1002758
:1005200062693D463946019890472A2804D162699C
:100530000121019890470125DFF888926269012125
:1005400001989047A0F130010A290AD24F45E5DC15
:1005500007EB870100EB4107303FDFD445F0100582
:10056000ECE7E90601D46FF000476C280AD04C286C
:1005700014D0682815D06A280DD074281CD07A2889
:100580001AD01DE062690121019890476C2802D0C1
:1005900045F0040514E045F002050DE045F02005A6
:1005A0000AE06269012101989047682802D045F06D
:1005B000080505E045F4006562690121019890474E
:1005C000C4E9015765283DD019DC58287AD00CDCE5
:1005D000452837D004DC252826D0412831D131E008
:1005E00046282FD047282CD12CE05B2877D06128D3
:1005F00028D063287CD0642823D15AE0D1E06F282A
:1006000048D008DC66281DD067281BD0692821D077
:100610006E2816D127E0702845D0732868D0752839
:1006200047D078280DD14DE0A1690B988847054641
:1006300025283FF469AFE1690B9888476D1C3FF4AA
:100640006AAFB4E023466A466FF001000B99AFF33E
:1006500000809FE045F040006060A80723464FF00F
:10066000000236D43EE0E8077FF447AF2068011D62
:1006700021600068290501D506701BE7290701D50F
:10068000068017E7A90703D5F117C0E9006111E754
:1006900006600FE745F040006060A80723464FF072
:1006A000080216D41EE040F60E0125EA0100606043
:1006B00016E045F040006060A80723464FF00A02AC
:1006C00007D40FE045F040006060A80708D5234636
:1006D00010226FF001000B99AFF300805AE007E0A1
:1006E000234610226FF001000B99AFF3008051E018
:1006F0004FF000094F464B46632802D05B2807D0D5
:1007000041E02079C00601D40120A06001273AE031
:1007100062690121019890475E2805D14FF00109D7
:100720006269494601989047216939B900210A4612
:10073000534643F82120491C0829FADBB0B321694C
:1007400069B9C11700EBD16253110AEB830122F0A2
:100750001F02821A01200B68904003430B606269FC
:100760000121019890475D28E8D1B9F1000F09D027
:100770000020514651F82020D24341F82020401C4F
:100780000828F7DB02AB224600976FF001000B99B7
:10079000FFF7A6FD00280CDA401C08D1BBF1000FC2
:1007A00005D04FF0FF300DB0BDE8F08FFFE74046B9
:1007B000F9E7E90701D108F1010806444FF0000B01
:1007C00078E60000CCCCCC0C7F2801D9002208E0D0
:1007D000064A02EB5002C007127800D1120902F05B
:1007E0000F0201209040084070470000245B000881
:1007F000FEE77047002240F6B83306E00021491CAE
:1008000089B29942FBD3521C92B28242F6D370470E
:100810007047002290F825100123022903D00421FB
:10082000C163012230E00168D1F800C02CF00E0C49
:10083000C1F800C0816CD1F800C02CF4807CC1F8F4
:1008400000C00168D1F800C02CF0010CC1F800C054
:1008500090F84410D0F840C001F01F0103FA01F1F4
:10086000CCF80410D0F84CC0016DCCF80410416DE8
:1008700051B1D1F800C02CF4807CC1F800C0D0F890
:1008800058C0C16DCCF8041080F82530002180F8E4
:1008900024101046704710B5002490F8251000234E
:1008A0000122022907D00421C16380F8252080F8A5
:1008B0002430012437E00168D1F800C02CF00E0C80
:1008C000C1F800C00168D1F800C02CF0010CC1F8DB
:1008D00000C0816CD1F800C02CF4807CC1F800C04D
:1008E00090F84410D0F840C001F01F0102FA01F165
:1008F000CCF80410D0F84CC0016DCCF80410416D58
:1009000051B1D1F800C02CF4807CC1F800C0D0F8FF
:1009100058C0C16DCCF8041080F8252080F8243030
:10092000816B01B18847204610BD000070B50446B8
:1009300000F02CF90546B4F1FF3F02D004484068AE
:10094000044400F023F9401BA042FAD370BD00001C
:10095000240000202DE9F84F00220B68002B7CD0EA
:10096000DFF800A2DFF8F8914FF0010E03274FF0F7
:100970000F080AF1040B0B680EFA02F42340002B57
:100980006CD091F804C00CF0030CBCF1010F02D044
:10099000BCF1020F18D185684FEA420C07FA0CF639
:1009A000B543CE6806FA0CFC4CEA050CC0F808C04A
:1009B000D0F804C02CEA040C0C79C4F30014944061
:1009C00044EA0C0CC0F804C0D1F804C037EA0C0C9F
:1009D0000CD0C4684FEA420C07FA0CF5AC438D68A2
:1009E00005FA0CFC4CEA040CC0F80CC091F804C0E9
:1009F0000CF0030CBCF1020F12D14FEAD20C00EB49
:100A00008C04256A4FEA427C4FEADC6C08FA0CF64B
:100A1000B5430E6906FA0CFC4CEA050CC4F820C07C
:100A200004684FEA420C07FA0CF5AC430D7905F067
:100A3000030505FA0CFC4CEA040CC0F800C0D1F820
:100A400004C01CF4403F72D0D9F860C04CF0010CD7
:100A5000C9F860C0D9F860C001E06DE067E00CF053
:100A6000010CCDF800C022F0030C0CF1804505F517
:100A70008035D5F808C09407240F08FA04F62CEA4C
:100A80000606B0F1904F5CD0A0F1904CBCF5806CA4
:100A900054D0A0F1904CBCF5006C55D0A0F1904C16
:100AA000BCF5406C53D0A0F1904CBCF5805C51D0AB
:100AB000A0F1904CBCF5A05C4FD04FF0060C0CFAA6
:100AC00004FC4CEA060CC5F808C0DAF800C02CEAB1
:100AD000030C4C6814F4801F01D04CEA030CCAF8D4
:100AE00000C0DBF800C02CEA030C4C6814F4001FB3
:100AF00001D04CEA030CCBF800C01B4CD4F800C06A
:100B00002CEA030C4D6815F4003F01D04CEA030CAD
:100B1000C4F800C0154CD4F800C02CEA030C4D6892
:100B200015F4803F01D04CEA030CC4F800C0521CFD
:100B30000B68D3407FF41FAFBDE8F88F4FF0010C76
:100B4000BDE74FF0000CBAE74FF0020CB7E74FF0EB
:100B5000030CB4E74FF0040CB1E74FF0050CAEE71F
:100B60000010024008040140040401400004014058
:100B70000069084201D00120704700207047002A18
:100B800001D0816170478162704700000148806830
:100B90007047000024000020024881684268114428
:100BA000816070472400002010B50024032000F06D
:100BB0008BF8002000F008F808B1012401E000F0F3
:100BC00029F8204610BD000070B5054600240F4EE0
:100BD0007068002817D04FF47A71B1FBF0F00C491F
:100BE0000968B1FBF0F000F05DFE08B101240BE0F4
:100BF000102D06D200222946501E00F031F8356033
:100C000002E0012400E00124204670BD2400002001
:100C1000200000200A4882B0016E41F00101016607
:100C2000016E01F001010091816D41F080518165FB
:100C3000806D00F08050009002B000F0C5B8000058
:100C40000010024000280ADB00F01F01012202FA16
:100C500001F14009800000F1E020C0F80011704768
:100C600010B4184B1B68C3F30223C3F1070CBCF18B
:100C7000040F01D94FF0040C1C1D072C01D20023D6
:100C800000E0DB1E012404FA0CFCACF1010C0CEAC0
:100C90000101994004FA03F35B1E1A401143002836
:100CA00006DB00F1E020090180F8001410BC704759
:100CB00000F00F0000F1E020090180F8141D10BCC5
:100CC000704700000CED00E000F00700064A1168D4
:100CD0004FF6FF03194041EA002040F0FD7040F05C
:100CE00080601060704700000CED00E03349322254
:100CF000334B09684A43334900280AD0B0F5007FD6
:100D000031D0086820F4C06040F4806008600020A2
:100D10007047086800F4C060B0F5806F06D0D1F865
:100D2000800020F48070C1F88000F0E7D1F88000E6
:100D300020F48070C1F88000086820F4C06040F49E
:100D400000700860B2FBF3F0401C00E0401E4A69EE
:100D500012F4806F01D00028F8D1486910F4806F38
:100D6000D5D003207047086800F4C060B0F5806FEC
:100D700006D0D1F8800040F48070C1F88000C6E74A
:100D8000D1F8800040F48070C1F88000086820F439
:100D9000C06040F400700860B2FBF3F0401C00E05B
:100DA000401E4A6912F4806F01D00028F8D14869CA
:100DB00010F4806FABD003207047000020000020AB
:100DC00040420F00007000400248816841F48041B9
:100DD00081607047007000402DE9F84F04460025FF
:100DE00000272068B04E10F4002F76D0A846B06DD2
:100DF00010F0805F09D1B06D40F08050B065B06DEB
:100E000000F0805000904FF00108DFF8A0A2DAF85F
:100E1000000040F48070CAF80000FFF7B7FE81467A
:100E2000DAF8000010F4807F0CD1FFF7AFFEA0EBE2
:100E30000900022801D9032504E0DAF8000010F4C3
:100E4000807FF2D025B12F46B8F1010F41D044E0A8
:100E5000D6F8900000F44070A0B1216C814211D00E
:100E6000D6F8900020F44070D6F8901041F480310C
:100E7000C6F89010D6F8901021F48031C6F8901082
:100E8000C6F8900010F0010F16D0FFF77FFE8146E4
:100E9000D6F8900010F0020F0ED141F2883AFFF719
:100EA00075FEA0EB0900504501D9032504E0D6F8F2
:100EB000900010F0020FF2D00DB12F46C4E7D6F823
:100EC0009000216C20F440700843C6F89000BBE706
:100ED00003E0B06D20F08050B065207810F0010F75
:100EE00007D0D6F88800616820F003000843C6F8F0
:100EF0008800207810F0020F07D0D6F88800A1688B
:100F000020F00C000843C6F88800207810F0040F89
:100F100007D0D6F88800E16820F030000843C6F812
:100F20008800207810F0080F07D0D6F888002169D3
:100F300020F0C0000843C6F88800207810F0200F89
:100F400007D0D6F88800616920F440600843C6F8ED
:100F50008800207810F0400F07D0D6F88800A169EB
:100F600020F440500843C6F88800207810F0800F25
:100F700007D0D6F88800E16920F440400843C6F85D
:100F80008800208810F4807F07D0D6F88800216A76
:100F900020F440300843C6F88800208810F4007F11
:100FA00007D0D6F88800616A20F440200843C6F8CC
:100FB0008800208810F4806F0FD0D6F88800A16ACE
:100FC00020F440100843C6F88800A06AB0F5801FDE
:100FD00003D1F06840F48010F060208810F4006FB6
:100FE0000FD0D6F88800E16A20F440000843C6F824
:100FF0008800E06AB0F5800F03D1F06840F48010FB
:10100000F060208810F4805F0FD0D6F88800216B44
:1010100020F040700843C6F88800206BB0F1807F54
:1010200003D1F06840F48010F060208810F4005F75
:101030000FD0D6F88800616B20F040600843C6F8F6
:101040008800606BB0F1006F03D1F06840F480104D
:10105000F060208810F4804F0FD0D6F88800A16B84
:1010600020F040600843C6F88800A06BB0F1006F24
:1010700003D1F06840F48010F060208810F4004F35
:101080000FD0D6F88800E16B20F040500843C6F836
:101090008800E06BB0F1805F03D1F06840F48030ED
:1010A000F0603846BDE8F88F001002400070004044
:1010B0002DE9F04704460D460027002C17D0DFF835
:1010C000DC91D9F8000000F00F00A84212D2D9F844
:1010D000000020F00F002843C9F80000D9F80000F4
:1010E00000F00F00A84205D00120BDE8F0870120E4
:1010F000BDE8F08720786A4E10F0010F41F2883A7F
:101100005ED06068DFF89C81032806D0022822D0D8
:10111000306810F4806F49D021E0306810F0007F13
:101120000ED001F095FF404524D9B06810F0F00FC3
:1011300009D0207810F0020F1CD0A06818B119E077
:101140000120BDE8F087B06820F0F00040F080009A
:10115000B06080270EE0306810F4003F23D000F02C
:10116000D3F8404506D9B06820F0F00040F0800088
:10117000B0608027B068616820F003000843B06069
:10118000FFF704FD8046B068616800F00C00B0EB2A
:10119000810F15D0FFF7FAFCA0EB0800504508D9E5
:1011A0000320BDE8F0870120BDE8F0870120BDE8FD
:1011B000F087B068616800F00C00B0EB810FE9D1F6
:1011C000206810F0020F17D010F0040F03D0B068A1
:1011D00040F4E060B060207810F0080F05D0B068EF
:1011E00020F4605040F4E060B060B068A16820F086
:1011F000F0000843B06005E0802F03D1B06820F014
:10120000F000B060D9F8000000F00F00A8421DD92E
:10121000D9F8000020F00F002843C9F80000FFF7BC
:10122000B5FC0746D9F8000000F00F00A8420DD029
:10123000FFF7ACFCC01B504502D90320BDE8F08786
:10124000D9F8000000F00F00A842F1D1207810F08A
:10125000040F05D0B068E16820F4E0600843B06096
:10126000207810F0080F06D0B068216920F4605093
:1012700040EAC100B06000F047F8B1680A4AC1F323
:101280000311515C01F01F01C8400849086008487B
:101290000068BDE8F047FFF797BC0000002002405F
:1012A0000010024000B4C404E45A000820000020EA
:1012B0002400002001480068704700002000002042
:1012C00000B5FFF7F7FF05498968054AC1F3022118
:1012D000515C01F01F01C84000BD00000010024039
:1012E000F45A000800B5FFF7E5FF05498968054A8B
:1012F000C1F3C221515C01F01F01C84000BD0000D4
:1013000000100240F45A00081A4A9068DFF868C0DA
:1013100000F00C0004280CD0906800F00C01174875
:10132000082905D091680C2333EA010103D000207D
:10133000704760467047D16801F00303D168C1F37C
:101340000311491C032B0DD0BCFBF1F0D168C1F394
:1013500006214843D168C1F34161491C4900B0FBF3
:10136000F1F07047B0FBF1F0D168C1F306214843BA
:10137000F0E70000001002400024F40000366E0187
:101380002DE9F8430446002C0ED02078FD4F10F0D4
:10139000010F60D0B8683D4600F00C00E96801F02C
:1013A00003010C2803D004E00120BDE8F8830329E1
:1013B0001AD0082818D06068B0F5803F1DD0B0F56D
:1013C000A02F1FD0286820F480302860286820F4DF
:1013D00080202860606858B3FFF7D8FB064628686D
:1013E00010F4003F17D036E0286810F4003F32D0E8
:1013F000606880BB0120BDE8F883286840F4803035
:101400002860E7E7286840F480202860286840F4D6
:1014100080302860DEE7FFF7B9FB801B642802D923
:101420000320BDE8F883286810F4003FF3D012E0F1
:10143000FFF7ACFB0646286810F4003F0BD0FFF71F
:10144000A5FB801B642802D90320BDE8F883286827
:1014500010F4003FF3D1207810F0020F5ED0B8688E
:101460003D4600F00C00E96801F003010C2801D1B1
:1014700002290FD004280DD0E068B8B3286840F4E2
:1014800080702860FFF782FB0646286810F4806FA2
:1014900018D023E0286810F4806F01D0E06870B1A4
:1014A0006868217C20F0FE4040EA01606860B64830
:1014B0000068FFF789FB88B30120BDE8F8830120AD
:1014C000BDE8F883FFF762FB801B022802D90320E6
:1014D000BDE8F883286810F4806FF3D06868217C39
:1014E00020F0FE4040EA0160686017E0FFE72868EE
:1014F00020F480702860FFF749FB0646286810F446
:10150000806F0BD0FFF742FB801B022802D903201B
:10151000BDE8F883286810F4806FF3D1207810F0CC
:10152000080F3AD06069E0B1D7F894003D4640F02A
:101530000100C7F89400FFF729FB0646D5F8940090
:1015400010F0020F29D1FFF721FB801B022802D9DE
:101550000320BDE8F883D5F8940010F0020FF2D014
:101560001BE0D7F894003D4620F00100C7F8940036
:10157000FFF70CFB0646D5F8940010F0020F0CD0D4
:10158000FFF704FB801B022802D90320BDE8F88383
:10159000D5F8940010F0020FF2D1207810F0040F6B
:1015A0007BD04FF00008B86D10F0805F09D1B86DA6
:1015B00040F08050B865B86D00F0805000904FF05A
:1015C0000108724D286810F4807F16D1286840F415
:1015D00080702860FFF7DAFA0646286810F4807FEA
:1015E0000BD1FFF7D3FA801B022802D90320BDE8F4
:1015F000F883286810F4807FF3D0A06801281AD0FF
:1016000005281FD0D7F8900020F00100C7F89000FF
:10161000D7F8900020F00400C7F89000A06841F2CD
:10162000883650B3FFF7B2FA0546D7F8900010F0AD
:10163000020F14D037E0D7F8900040F00100C7F84F
:101640009000EBE7D7F8900040F00400C7F8900056
:10165000D7F8900040F00100C7F89000DEE7FFF7F0
:1016600095FA401BB04202D90320BDE8F883D7F8B1
:10167000900010F0020FF2D015E0FFF787FA054650
:10168000D7F8900010F0020F0DD0FFF77FFA401B43
:10169000B04203D90320BDE8F8830BE0D7F89000EF
:1016A00010F0020FF1D1B8F1010F03D1B86D20F0A5
:1016B0008050B865207810F0200F3AD0A069E0B1D2
:1016C000D7F898003D4640F00100C7F89800FFF7B2
:1016D0005DFA0646D5F8980010F0020F29D1FFF701
:1016E00055FA801B022802D90320BDE8F883D5F8FB
:1016F000980010F0020FF2D01BE0D7F898003D469A
:1017000020F00100C7F89800FFF740FA0646D5F828
:10171000980010F0020F0CD0FFF738FA801B022857
:1017200002D90320BDE8F883D5F8980010F0020F25
:10173000F2D1E06960B3B9683D460C2232EA01019A
:101740004FF0FF3878D0022823D0286820F080702E
:101750002860E86820F00300E860E86820F488105A
:1017600020F08070E860FFF711FA0446286810F056
:10177000007F0DD0FFF70AFA001B022857D903207B
:10178000BDE8F883001002402400002000700040F3
:1017900083E0286820F080702860FFF7F7F906469C
:1017A000286810F0007F0AD0FFF7F0F9801B0228AC
:1017B00001D90320E4E7286810F0007FF4D1616AC2
:1017C000206A491E40EA0110A16A228E090208EB34
:1017D000520241EA4251084394F8341008EB510197
:1017E00040EA416094F82C1040EAC160E9682C4A54
:1017F00011400843E860286840F080702860E8687D
:1018000040F08070E860FFF7C1F90446286810F0E6
:10181000007F42D1FFF7BAF9001B022801D903204B
:10182000AEE7286810F0007FF4D036E004E02868C6
:1018300010F0007F9ED130E001282CD0E868226AA9
:1018400000F00301914224D1626A00F0F001521EBF
:10185000B1EB021F1DD1A26A00F4FE41B1EB022FD1
:1018600017D194F82C1000F07842B2EBC16F10D170
:10187000228E00F4C00108EB5202B1EB425F08D1A6
:1018800094F8341000F0C06008EB5101B0EB416FE8
:1018900003D0012074E7012072E7002070E7000008
:1018A0000C809F01401EB0F1807F01D30120704762
:1018B0004FF0E0214861044AF02010700020886158
:1018C000072008610020704723ED00E07047704753
:1018D0007047704770477047F0B490F83C20012A79
:1018E0003ED0012480F83C40022280F83D2003686D
:1018F0005A68D3F808C01C4D1C4EAB4201D0B3420D
:1019000003D122F470024F683A4322F0700222F0B1
:1019100000720F683A435A600268AA4213D0B2F1CB
:10192000804F10D0A2F18043B3F580630BD0A2F1B9
:101930008043B3F5006306D0B24204D0A2F18043E5
:10194000B3F5A03304D12CF080038968194391606A
:1019500080F83D40002180F83C10F0BC002070472A
:10196000F0BC022070470000002C01400034014010
:10197000704710B50446002C03D094F83D0010B118
:1019800007E0012010BD002084F83C00204600F054
:1019900023F8022084F83D00211D206801F0CAFDD3
:1019A000012084F8480084F83E0084F83F0084F861
:1019B000400084F8410084F8420084F8430084F831
:1019C000440084F8450084F8460084F8470084F811
:1019D0003D00002010BD000008B501681448B1F1B9
:1019E000804F14D0134A914220D1816D41F00401FF
:1019F0008165806D002200F00400009011461E20D9
:101A0000FFF72EF91E20BDE80840FFF71BB9816DD6
:101A100041F001018165806D002200F0010000901D
:101A200011461C20FFF71CF91C20ECE708BD000044
:101A3000001002400008004090F83D10012901D03C
:101A400001207047022180F83D100168CA6842F009
:101A50000102CA600068A0F18041B1F596311CD046
:101A6000B0F1804F19D0A0F18041B1F5806114D060
:101A7000A0F18041B1F500610FD0A0F18041B1F536
:101A80009A310AD0A0F18041B1F5A03105D00168AA
:101A900041F001010160002070478168054A114052
:101AA0000629F8D0B1F5803FF5D0016841F0010179
:101AB0000160F0E70700010070B50446002594F8C6
:101AC0003C00012816D0012684F83C60022084F8EE
:101AD0003D002068826822F0770222F4441222F44A
:101AE0007F428260086870282ED010DC10F00F0F43
:101AF00003D021E04FF0020070BD4FEA2012072A08
:101B00001AD2DFE802F0575757574D3943002C4B94
:101B1000C21A98424ED009DCB0F5805F0DD0B0F506
:101B2000005F1DD0B0F1101F06D143E0102A41D054
:101B3000202A3FD0502A3DD0012584F83D60002066
:101B400084F83C00284670BDCB684A6889682068E4
:101B500001F057FD2068816841F077018160ECE772
:101B6000CB684A688968206801F04BFD206881686D
:101B700041F480418160E0E7CA684968206801F06B
:101B800008FF5021206801F047FDD6E7CA68496880
:101B9000206801F011FF6021206801F03DFDCCE7D5
:101BA000CA684968206801F0F4FE4021206801F00D
:101BB00033FDC2E722680146104601F02DFDBCE767
:101BC00020001000704770B50446206801694FF08E
:101BD000000511F0020F17D0C16811F0020F13D0E9
:101BE000E91E0161012020772068806910F0030F51
:101BF00003D02046FFF7E6FF05E0204600F00EF98F
:101C0000204600F0DAF925772068016911F0040F09
:101C100018D0C16811F0040F14D06FF004010161F5
:101C2000022020772068806910F4407F03D020468E
:101C3000FFF7C8FF05E0204600F0F0F8204600F06E
:101C4000BCF925772068016911F0080F18D0C16828
:101C500011F0080F14D06FF0080101610420207703
:101C60002068C06910F0030F03D02046FFF7AAFFD9
:101C700005E0204600F0D2F8204600F09EF92577D6
:101C80002068016911F0100F18D0C16811F0100F11
:101C900014D06FF010010161082020772068C0691E
:101CA00010F4407F03D02046FFF78CFF05E020466C
:101CB00000F0B4F8204600F080F92577206801692B
:101CC00011F0010F09D0C16811F0010F05D06FF0BC
:101CD00001010161204600F0FDF92068016911F061
:101CE000800F09D0C16811F0800F05D06FF080011E
:101CF00001612046FFF7EBFD2068016911F4807F48
:101D000009D0C16811F0800F05D06FF480710161B6
:101D10002046FFF7DBFD2068016911F0400F09D074
:101D2000C16811F0400F05D06FF0400101612046FD
:101D300000F03CFA2068016911F0200F09D0C16859
:101D400011F0200F05D06FF0200101612046FFF750
:101D5000BFFD2068016911F4801F09D0C16811F42A
:101D6000801F05D06FF4801101612046FFF7B2FD9E
:101D70002068016911F4001F09D0C16811F4001F27
:101D800005D06FF4001101612046FFF7A2FD206825
:101D9000016911F4800F09D0C16811F4800F05D0DA
:101DA0006FF4800101612046FFF795FD206801690D
:101DB00011F4000F0BD0C16811F4000F07D06FF4BD
:101DC000000101612046BDE87040FFF7D1BD70BD44
:101DD00010B586B0044614216846FEF753FA206811
:101DE000B0F1804F15D10C48C16C41F00101C164C4
:101DF000C06C694600F0010005900220009001903F
:101E0000002002900390012004904FF09040FEF7D4
:101E1000A1FD06B010BD000000100240704770B573
:101E200004460D46002694F83C0001280BD0012002
:101E300084F83C000C2A4FD007DC82B1042A22D05F
:101E4000082A06D134E0022070BD102A59D0142A85
:101E50006BD00126002084F83C00304670BD294636
:101E6000206801F0E3FB2068816941F0080181618D
:101E70002068816921F004018161206881692A69F3
:101E800011438161E6E72946206801F023FC2068C0
:101E9000816941F4006181612068816921F4806178
:101EA0008161206881692A6941EA02218161D1E763
:101EB0002946206801F05CFC2068C16941F00801F6
:101EC000C1612068C16921F00401C1612068C16954
:101ED0002A691143C161BDE72946206801F096FCDB
:101EE0002068C16941F40061C1612068C16921F4C1
:101EF0008061C1612068C1692A6941EA0221C1612A
:101F0000A8E72946206801F0CFFC2068016D41F068
:101F1000080101652068016D21F004010165206858
:101F2000016D2A691143016594E72946206801F093
:101F3000F5FC2068016D41F4006101652068016DC8
:101F400021F4806101652068016D2A6941EA02215E
:101F500001657FE710B50446002C03D094F83D00DE
:101F600010B107E0012010BD002084F83C0020469D
:101F700000F022F8022084F83D00211D206801F0C5
:101F8000D9FA012084F8480084F83E0084F83F0024
:101F900084F8400084F8410084F8420084F843004B
:101FA00084F8440084F8450084F8460084F847002B
:101FB00084F83D00002010BD7047704710B50446FE
:101FC00000290DD004290ED008290FD00C2910D0DB
:101FD000102911D094F84300012810D0012010BD21
:101FE00094F83E00F8E794F83F00F5E794F84000D5
:101FF000F2E794F84100EFE794F84200ECE70220A2
:10200000F1B304294BD008294CD00C294DD010290C
:102010004ED084F843000122206801F0E3FA2949F8
:102020002068294A294B88420DD090420BD0984213
:1020300009D0A0F1804CBCF5A23C04D0A0F1804CAA
:10204000BCF5A43C05D1D0F844C04CF4004CC0F819
:1020500044C02068884210D0B0F1804F0DD0A0F16C
:102060008041B1F5806108D0A0F18041B1F50061F7
:1020700003D0904201D098421DD18168144A00E0FB
:102080000AE0114006291AD0B1F5803F17D0016847
:1020900041F00101016012E084F83E00BBE784F8E2
:1020A0003F00B8E784F84000B5E784F84100B2E7A4
:1020B00084F84200AFE7016841F0010101600020AF
:1020C00010BD0000002C01400034014000400140E0
:1020D000070001002DE9F04100683049884253D1E2
:1020E0002F4800258188491C89B28180142900D19C
:1020F0008580C1880126491C89B2C180B1F5FA7F6B
:1021000001D1C5800670274F01213846FEF730FD0A
:10211000254C0221E0703846FEF72AFD607204214A
:102120003846FEF725FDE07301214FF09040FEF7A1
:102130001FFD60755FF0000101EB410204EB4200FE
:10214000837823B1012B07D0022B19D109E0C27883
:10215000B2B98670858013E0C278E2B9022282703B
:102160000EE0C378012B11D08288462A04D3467032
:1021700002D94FF046028280828802F101028280F9
:1021800001F101010429D7DBBDE8F0818388462BEA
:1021900001D204F812608570F2E7000000080040E8
:1021A000060000200004004830000020704790F82E
:1021B0008010012918D0012180F880102421C0F856
:1021C000841001680A680B6823F001030B6022F099
:1021D000005100224266036819602021C0F8841073
:1021E00080F88020002070470220704770477047B9
:1021F00070B5044694F8800001281DD0012084F8B1
:1022000080002420C4F8840020680568026822F059
:10221000010202602068826822F0606211438160DE
:10222000204601F0DBFB206805602020C4F8840014
:10223000002084F8800070BD022070BD70B5044697
:1022400094F8800001281DD0012084F8800024200B
:10225000C4F8840020680568026822F00102026068
:102260002068826822F0604211438160204601F0BC
:10227000B5FB206805602020C4F88400002084F8A5
:10228000800070BD022070BD70477047704700002D
:1022900070B504462368D86919689A6840F60F0C2F
:1022A00000EA0C0CBCF1000F0FD110F0200F0CD085
:1022B00001F0200502F08056354306D0216F002939
:1022C0007ED02046BDE8704008470025BCF1000FD5
:1022D00077D0DFF8ECC2BB4E02EA0C0C0E405CEA91
:1022E00006066ED010F0010F0AD011F4807F07D0DF
:1022F00001261E62D4F88C3043F00103C4F88C3000
:1023000010F0020F0BD012F0010F08D02668022344
:102310003362D4F88C3043F00403C4F88C3010F0EE
:10232000040F0BD012F0010F08D02668042333628B
:10233000D4F88C3043F00203C4F88C3010F0080F4E
:102340000FD001F0200353EA0C030AD0D4F800C0E8
:102350000823CCF82030D4F88C3043F00803C4F8BC
:102360008C3010F4006F0ED011F0806F0BD0D4F8C9
:1023700000C04FF40063CCF82030D4F88C3043F028
:102380002003C4F88C30D4F88C30002B3CD010F0F3
:10239000200F09D001F0200002F08051084303D043
:1023A000216F09B120468847D4F88C0021688968DC
:1023B00011F0400F02D110F0280F2AD0204601E082
:1023C00022E02CE001F0DEFB2068806810F0400F76
:1023D0001BD02068083050E8001F21F0400140E881
:1023E0000012002AF5D1E06F58B177498163E06FA0
:1023F000FEF751FA002807D0E06F816BBDE870400E
:1024000008472046FFF742FF70BD2046FFF73EFF1A
:1024100070BD2046FFF73AFFC4F88C5070BDD4F869
:102420006CC0BCF1010F7DD110F0100F7AD011F00B
:10243000100F77D010201862206880684FF02003BA
:1024400010F0400F46D0E16F0868406880B2002865
:10245000E4D0B4F85C208242E0D9A4F85E000868B9
:10246000006810F0200F2BD1206850E8001F21F4E5
:10247000807140E80012002AF6D12068083050E848
:10248000001F21F0010140E80012002AF5D1206868
:10249000083050E8001F21F0400140E80012002AF7
:1024A000F5D1C4F88830E566206850E8001F21F0B7
:1024B000100140E80012002AF6D1E06FFEF7A9F9FA
:1024C000B4F85C00B4F85E10401A81B22046FFF701
:1024D0008DFE70BDB4F85C00B4F85E10401A81B295
:1024E000B4F85E000028F4D00029F2D0206850E84B
:1024F000002F22F4907240E8002CBCF1000FF5D1BF
:102500002068083050E8002F22F0010222F08052AB
:1025100040E8002CBCF1000FF2D1C4F88830E56629
:10252000256700E00CE0206850E8002F22F0100240
:1025300040E80023002BF4D12046FFF757FE70BD82
:1025400010F4801F0AD012F4800F07D04FF48010CF
:1025500018622046BDE87040FFF797BE10F0800F6C
:102560000CD001F0800302F400021A4306D0616F20
:102570000029E4D02046BDE87040084710F0400F25
:1025800007D011F0400F04D02046BDE8704001F0A4
:1025900021BB10F4000F07D011F0804F04D020466B
:1025A000BDE87040FFF770BE10F0807FC7D011F01B
:1025B000004FC4D02046BDE87040FFF718BE0000B1
:1025C0000100001020010004713B000810B5044612
:1025D000002C03D0D4F8840010B107E0012010BD16
:1025E000002084F88000204600F028F82420C4F859
:1025F00084002068016821F001010160204601F09B
:1026000027FD012818D0A06A10B1204601F010FA69
:102610002068416821F4904141602068816821F080
:102620002A0181602068016841F0010101602046B3
:10263000BDE8104001F068BA012010BD10B598B097
:102640000446142111A8FDF71DFE44216846FDF73C
:1026500019FE1B492068884230D101200024CDE9B1
:1026600000046846FEF7B8FB08B1FEF7D1F815483C
:10267000016E41F480410166016E01F480411691C2
:10268000C16C41F00101C164C06C11A900F00100EE
:1026900016904FF4C06011900220CDE9120407207B
:1026A000CDE914404FF09040FEF754F90022114656
:1026B0002520FEF7D5FA2520FEF7C4FA18B010BD84
:1026C000003801400010024010B4D0F88830202BB0
:1026D00002D010BC02207047F9B1F2B190F88030FE
:1026E000012B1DD0012380F880300023C3660368CE
:1026F000A3F1804CBCF5004C0CD05B6813F4000FC8
:1027000008D0036853E800CF4CF0806C43E800C465
:10271000002CF6D110BC01F00BBE10BC012070479C
:1027200010BC02207047000010B50122064907487E
:10273000FFF7CAFF0449064B891E48788A781A5465
:10274000401C487010BD000008000020240100203B
:102750004E0000202DE9F84304460E4615461F465C
:10276000D4F88400202802D00220BDE8F883D6B136
:10277000CDB194F88000012818D0012084F88000A1
:102780004FF00009C4F88C902120C4F88400FEF7B3
:10279000FDF98046A4F85450A4F85650A068B0F54E
:1027A000805F06D007E00120BDE8F8830220BDE885
:1027B000F883206988B13546002684F88090B4F803
:1027C0005600D0B14346002280212046009701F0F8
:1027D00049FE20B10320BDE8F8830025EDE7BDB137
:1027E0002168287888626D1CB4F85600401EA4F851
:1027F0005600B4F856000028E4D143460022402198
:102800002046009701F02EFE48B10320BDE8F88372
:1028100030882168C0F308008862B61CE4E72020F5
:10282000C4F884000020BDE8F8837047FEE700008C
:1028300000B585B014216846FDF724FD4FF6FF7002
:10284000009000200321CDE9020101906946024871
:10285000FEF780F805B000BD0008004800B585B05F
:1028600014216846FDF70EFD4FF6FF700090012021
:102870000190032003900020029069460248FEF771
:1028800069F805B000BD00000008004870B50024DC
:1028900006462146204600F0F3F900F031FA4FF4E5
:1028A0009635304600F000FA641CAC42F9D370BD96
:1028B00030B587B014216846FDF7E4FC1E48C16CB2
:1028C00041F00401C164C16C01F004010591C16CC7
:1028D00041F00101C164C16C01F001010591C16CBD
:1028E00041F00201C164C06C012500F002000590B6
:1028F0004FF44870CDE90005002403946946029422
:102900000E48FEF727F8280203940090CDE9015401
:102910004FF0904469462046FEF71CF8FFF79EFFF3
:10292000A06940F48070A06104481830016841F447
:102930000871016007B030BD00100240000400487B
:1029400010B536480078002823D0012865D134A17D
:10295000394801F001FE3849182000F0EDF837A1A0
:10296000354801F0F9FD3449482000F0E5F839A177
:10297000314801F0F1FD3049602000F0DDF83BA165
:102980002D4801F0E9FDBDE810402B49782000F00A
:10299000D3B83CA1284801F0DFFD2749182000F0FA
:1029A000CBF81E4C0C34207838B93CA1224801F0F9
:1029B000D3FD2149482000F0BFF8A07838B93CA1E8
:1029C0001D4801F0C9FD1C49602000F0B5F82079D0
:1029D00038B93CA1184801F0BFFD1749782000F034
:1029E000ABF822783AB13CA1134801F0B5FD124989
:1029F000482000F0A1F8A2783AB13DA10E4801F0BC
:102A0000ABFD0D49602000F097F82279002A04D030
:102A10003DA1094801F0A0FDB5E710BD0E00002062
:102A2000202020202020205354412020202020201E
:102A300020202020000000006C000020202020200A
:102A4000463A32303030485A2020202020202020A2
:102A50000000000020202020463A3130252520208B
:102A600020202020202020200000000020202020E6
:102A70002020202020202020202020202020202056
:102A8000000000002020202020202050534420203F
:102A900020202020202020200000000020202020B6
:102AA00042313A40202020202020202020202000D9
:102AB0002020202042323A402020202020202020A8
:102AC000202020002020202042333A4020202020B7
:102AD00020202020202020002020202042313A25C4
:102AE0006320202020202020202020200000000023
:102AF0002020202042323A25632020202020202040
:102B000020202020000000002020202042333A25F1
:102B100063202020202020202020202000000000F2
:102B2000203AD2B2034B02EB420203EB021200F056
:102B300019B8000014490008F0B50E4607460025F4
:102B400040F23F1407E021463846FFF7E9FF103C0A
:102B50006D1CA4B2761C3278002A01D0142DF2D359
:102B6000F0BD00002DE9F04791468A460026044654
:102B700000F086F8DFF84080012700BF00F0C0F8C1
:102B80005FF0000539F8160007FA05F108424046E3
:102B900001D1408800E0008800F086F86D1C102DFF
:102BA000F0D3641CE4B25146204600F069F8761C6C
:102BB000182EE3D3BDE8F0870000002010B5FFF722
:102BC00077FE002000F014F8084CA080A088A0F543
:102BD0000241303906D000F0ECFA002000F008F88D
:102BE000A08010BD00F05CFAF7E7000000000020B4
:102BF00070B51D490A6842F400720A600A6842F41E
:102C000080720A60184C103C226842F02002226058
:102C1000164A1060086840F02000086000BF00BF3E
:102C200000BF206840F020002060206840F48070E1
:102C30002060FFF7FDFD4FF09041886A40F48070FE
:102C4000886200BF00BF00BF0848001F006885B24F
:102C5000886940F480708861FFF700FE206840F4C6
:102C600000702060284670BD280400481408004801
:102C700001B5BDF800000149488008BD00000020F2
:102C800010B50C460146202000F068F82146BDE84A
:102C90001040212000F062B801B5BDF800000149E4
:102CA000088008BD00000020134A116841F400713B
:102CB0001160114910390B6843F480730B600B6885
:102CC00043F020030B600D4B1860106840F02000AB
:102CD000106000BF00BF00BF086840F0200008601F
:102CE000086840F48070086000BF00BF00BF08683B
:102CF00040F4007008607047280400481408004839
:102D00001449086840F400700860086840F4807056
:102D1000086010481038026842F0200202600E4B32
:102D200022221A600A6842F020020A6000BF00BF37
:102D300000BF016841F020010160016841F4807129
:102D4000016000BF00BF00BF016841F40071016075
:102D5000704700002804004814080048184B10B5BC
:102D60001A6842F400721A601A6842F480721A609B
:102D7000134A103A146844F020041460114C206087
:102D8000186840F02000186000BF00BF00BF106846
:102D900040F020001060106840F4807010602160E6
:102DA000186840F02000186000BF00BF00BF106826
:102DB00040F020001060106840F48070106010BD7A
:102DC000280400481408004870B50D4D044601223F
:102DD0004FF6FF712846FDF7D2FE21020022284659
:102DE000FDF7CDFE074C012204212046FDF7C7FE6A
:102DF0002046BDE8704000220421FDF7C0BE00005F
:102E000000080048000C0048F0B587B0142168465F
:102E1000FDF738FA2D48C16C41F00401C164C16C62
:102E200001F004010591C16C41F02001C164C16C45
:102E300001F020010591C16C41F00101C164C16C38
:102E400001F001010591C16C41F00201C164C16C46
:102E500001F002010591C16C41F00801C164C06C30
:102E60001B4E00F008004FF47F44059001222146DC
:102E70003046FDF784FE174F002204213846FDF747
:102E80007EFE0125CDE900450024029469463046C6
:102E90000394FDF75FFDCDE9005469464FF0904083
:102EA0000295FDF757FD07208DE8310069460A4875
:102EB000FDF750FD04200090CDE9015469463846E5
:102EC0000394FDF747FD07B0F0BD0000001002407D
:102ED00000080048000C00480004004810B58EB0FF
:102EE00000240794089409940A940B940C941C21D0
:102EF00068460D94FDF7C6F91E484FF08041016009
:102F00004F21C0E9011440F2E731C0E903148461A4
:102F1000FEF72FFD08B1FDF77BFC4FF480500790C2
:102F200007A91448FEF7C8FD08B1FDF771FC114868
:102F3000FFF710F808B1FDF76BFC0B940BA90D48D7
:102F40000D94FEF7C9FC08B1FDF762FC602000900B
:102F50000A20CDE901040422694606480494FEF7DC
:102F60005EFF08B1FDF754FC0248FEF731FF0EB0DA
:102F700010BD00008C00002010B588B00024174858
:102F800000940194029403940494059412490694C5
:102F900001604F21C0E9011442F20F71C0E903142E
:102FA0008461FEF7E6FC08B1FDF732FC4FF4805077
:102FB000009069460948FEF77FFD08B1FDF728FC3F
:102FC000049404A905480694FEF786FC002801D065
:102FD000FDF71EFC08B010BD00080040D80000201E
:102FE000184810B5164901604FF416514160002190
:102FF00081600C22C160C0E904128161C16101627B
:1030000041628162FFF7E2FA08B1FDF701FC00219D
:103010000C48FFF713F908B1FDF7FAFB0021094846
:10302000FFF7E6F808B1FDF7F3FB0648FFF7BFF836
:10303000002803D0BDE81040FDF7EABB10BD00003A
:103040000038014024010020FEE77047704700006F
:103050001049C86800F00302C868C0F30310401CA0
:10306000032A0ED00C4AB2FBF0F0CA68C2F3062263
:103070005043C968C1F34161491C4900B0FBF1F0FC
:103080007047064AB2FBF0F0CA68C2F3062250430A
:10309000EFE70000001002400024F40000366E014B
:1030A00030B501210020FFF759FE4FF47A70FDF78B
:1030B000A1FB00210120FFF751FE41F29071102089
:1030C000FFF74CFE4FF41C516020FFF747FE012133
:1030D0006120FFF743FE02214620FFF73FFE48F242
:1030E00010011320FFF73AFE48F2FE011220FFF70D
:1030F00035FE4FF4A0610220FFF730FE41F23001AF
:103100000320FFF72BFE40F2033421463020FFF767
:1031100025FE21463120FFF721FE21463220FFF710
:103120001DFEE51E29463320FFF718FE032134203B
:10313000FFF714FE21463520FFF710FE142136203C
:10314000FFF70CFE21463720FFF708FE2146382006
:10315000FFF704FE21463920FFF700FE29463A20FA
:10316000FFF7FCFD03213B20FFF7F8FD21463C2043
:10317000FFF7F4FD4FF4A0513D20FFF7EFFD4FF4B2
:1031800000719220FFF7EAFD21469320FFF7E6FD4C
:1031900040F60D019020FFF7E1FD41F218010320F8
:1031A000FFF7DCFDBDE8304040F273110720FFF768
:1031B000D5BD10B543F20801E320FFF7CFFD122182
:1031C000E720FFF7CBFD41F23121EF20FFF7C6FDED
:1031D00000210120FFF7C2FD4FF4E0610220FFF75C
:1031E000BDFD41F230010320FFF7B8FD00210420AE
:1031F000FFF7B4FD40F207210820FFF7AFFD0021E3
:103200000920FFF7ABFD00210A20FFF7A7FD0021F1
:103210000C20FFF7A3FD00210D20FFF79FFD0021EB
:103220000F20FFF79BFD00211020FFF797FD0721DE
:103230001120FFF793FD00211220FFF78FFD0021E1
:103240001320FFF78BFDC820FDF770FB41F2906162
:103250001020FFF783FD40F227211120FFF77EFDAC
:103260003220FDF763FB1D211220FFF777FD32208E
:10327000FDF75CFB4FF400611320FFF76FFD142195
:103280002920FFF76BFD0B212B20FFF767FD322074
:10329000FDF74CFB00212020FFF760FD00212120DD
:1032A000FFF75CFD07213020FFF758FD40F2077162
:1032B0003120FFF753FD06213220FFF74FFD40F28A
:1032C00004713520FFF74AFD41F604713620FFF7FF
:1032D00045FD04213720FFF741FD00213820FFF78D
:1032E0003DFD40F206713920FFF738FD40F20171D3
:1032F0003C20FFF733FD0F213D20FFF72FFD00217C
:103300005020FFF72BFDEF215120FFF727FD002173
:103310005220FFF723FD40F23F115320FFF71EFD1F
:103320004FF41C516020FFF719FD01216120FFF7C8
:1033300015FD00216A20FFF711FD00218020FFF715
:103340000DFD00218120FFF709FD00218220FFF7FC
:1033500005FD00218320FFF701FD00218420FFF7F8
:10336000FDFC00218520FFF7F9FC10219020FFF7DC
:10337000F5FC00219220FFF7F1FC03219320FFF7D9
:10338000EDFC4FF488719520FFF7E8FC00219720B1
:10339000FFF7E4FC00219820FFF7E0FC41F2180160
:1033A0000320FFF7DBFCBDE8104040F2731107205B
:1033B000FFF7D4BC70B5214C207800283CD00728FA
:1033C00001D01FA124E0214A21A12248FCF76CFF73
:1033D0001E49081D0B78027893420ED14D7846782D
:1033E000B5420AD18D788678B54206D102461AA137
:1033F0001848FCF759FF1BA10AE0934207D14A780D
:1034000043789A4203D18978807881420CD01DA1FB
:10341000214801F0A1F82048FCF73FFF82B2322397
:103420001D491E48FFF796F900202070BDE8704046
:103430001E210848FCF726BF70BD000007000020D1
:103440004572726F722121210D0A000012000020C6
:10345000253373004E000020252A5B5E2D5D2D254F
:10346000730000006368616E676520706173737735
:103470006F7264207375636365737366756C0D0A90
:103480000000000070617373776F72642045727280
:103490006F720D0A000000006C0000202401002063
:1034A0007047FDF779BB10B594B038216846FCF73A
:1034B000E9FE14210EA8FCF7E5FE4FF40070FDF7BD
:1034C00015FC012000900004019002200324CDE9A6
:1034D00007041421CDE90A100C900D900994684658
:1034E000FDF74EFF0F20CDE90E0400201090119043
:1034F000129002210EA8FDF7DBFD14B010BD0000F4
:103500000548016841F47001016003494FF0006013
:10351000803908607047000088ED00E00148FEF740
:1035200052BB00008C0000200148FEF74CBB00009D
:10353000D80000202DE9F0010268234C234BDFF86E
:103540009080DFF890C0A04208D0B0F1804F05D045
:10355000984203D0404501D0604503D122F070026B
:103560004D682A431C4D1D4E1D4FA0420ED0B0F198
:10357000804F0BD0984209D0404507D0604505D018
:10358000A84203D0B04201D0B84203D122F4407225
:10359000CB681A434B6922F080021A4302608A68A2
:1035A000C2620A688262A04207D0604505D0A84284
:1035B00003D0B04201D0B84201D1096901630121B1
:1035C0004161BDE8F0017047002C0140000400405B
:1035D0000008004000340140004001400044014028
:1035E0000048014001F01F0101238B40D0F820C0AA
:1035F0002CEA03030362036A02FA01F11943016230
:103600007047D0F808C02CF47F4C42EA03221143E3
:1036100041EA0C0181607047826822F0700222F456
:103620004012114341F00701816070472DE9F0031A
:10363000026A22F001020262026A4368D0F818C0EE
:103640002CF0700C2CF4803C2CF0030C0C6844EA39
:103650000C0C22F002028C682243194C194D1A4EB0
:103660001A4FDFF86C80A04207D0A84205D0B042C4
:1036700003D0B84201D0404507D122F00802D1F86A
:103680000C9049EA020222F00402A04207D0A842AC
:1036900005D0B04203D0B84201D0404507D123F451
:1036A000807323F400734C6923438C692343436084
:1036B000C0F818C0496841630262BDE8F003704772
:1036C000002C014000340140004001400044014012
:1036D0000048014070B4026A22F010020262036ADC
:1036E0004268D0F818C02CF4E04C2CF0807C2CF40C
:1036F000407C0C684CEA042C23F020038C6843EADD
:103700000413194C194DA04201D0A84206D123F050
:103710008003CE6843EA061323F04003A04210D092
:10372000A8420ED0A0F18044B4F5A03409D0A0F195
:103730008044B4F5A23404D0A0F18044B4F5A4349C
:1037400009D122F4806222F400624C6942EA8402C8
:103750008C6942EA84024260C0F818C049688163FB
:10376000036270BC70470000002C0140003401402F
:1037700070B4026A22F480720262036A4268D0F86E
:103780001CC02CF0700C2CF4803C2CF0030C0C684A
:1037900044EA0C0C23F400738C6843EA0423194CAC
:1037A000194DA04201D0A84206D123F40063CE688F
:1037B00043EA062323F48063A04210D0A8420ED02F
:1037C000A0F18044B4F5A03409D0A0F18044B4F550
:1037D000A23404D0A0F18044B4F5A43409D122F479
:1037E000805222F400524C6942EA04128C6942EA87
:1037F00004124260C0F81CC04968C163036270BC17
:1038000070470000002C01400034014070B4026A8F
:1038100022F480520262036A4268D0F81CC02CF481
:10382000E04C2CF0807C2CF4407C0C684CEA042C9E
:1038300023F400538C6843EA0433194C194DA04219
:1038400001D0A84206D123F40043CE6843EA0633F0
:1038500023F48043A04210D0A8420ED0A0F18044AF
:10386000B4F5A03409D0A0F18044B4F5A23404D05A
:10387000A0F18044B4F5A43409D122F4804222F4AA
:1038800000424C6942EA84128C6942EA8412426026
:10389000C0F81CC049680164036270BC7047000036
:1038A000002C01400034014010B4026A22F480323E
:1038B0000262D0F820C04268036D23F0700323F445
:1038C00080330C6823432CF4003C0C894CEA044CF4
:1038D000A0F18044B4F5963413D0A0F18044B4F53F
:1038E0009A340ED0A0F18044B4F5A03409D0A0F1F0
:1038F0008044B4F5A23404D0A0F18044B4F5A434DB
:1039000004D122F480324C6942EA04224260036509
:1039100049688164C0F820C010BC704710B4026AC6
:1039200022F480120262D0F820C04268036D23F4B2
:10393000E04323F080730C6843EA04232CF4001C5A
:103940000C894CEA045CA0F18044B4F5963413D0A1
:10395000A0F18044B4F59A340ED0A0F18044B4F5BF
:10396000A03409D0A0F18044B4F5A23404D0A0F171
:103970008044B4F5A43404D122F480224C6942EA94
:103980008422426003654968C164C0F820C010BC4D
:103990007047036AD0F820C02CF0010CC0F820C09A
:1039A000D0F818C02CF0F00C4CEA021223F00A03F5
:1039B0001943826101627047036A23F010030362B6
:1039C000D0F818C0036A2CF4704C4CEA023223F091
:1039D000A00343EA011182610162704710B4416E95
:1039E00000291CD002689168C1F342619268520FAD
:1039F0000E4B13F802C04FEACC0403F1080C1CF87C
:103A00000220B4FBF2F2A0F86A205A5C1CF8011004
:103A1000D200B2FBF1F1A0F8681010BC7047012190
:103A2000A0F86A10A0F8681010BC7047145B00087A
:103A300090F8281011F0010F06D001684A68C36A97
:103A400022F400321A434A6090F8281011F0020F55
:103A500006D001684A68036B22F480321A434A6038
:103A600090F8281011F0040F06D001684A68436BE3
:103A700022F480221A434A6090F8281011F0080FAF
:103A800006D001684A68836B22F400421A434A60F8
:103A900090F8281011F0100F06D001688A68C36BE7
:103AA00022F480521A438A6090F8281011F0200FF7
:103AB00006D001688A68036C22F400521A438A60B7
:103AC00090F8281011F0400F11D001684A68436C3B
:103AD00022F480121A434A60416CB1F5801F06D16E
:103AE00001684A68836C22F4C0021A434A6090F865
:103AF000281011F0800F06D001684A68C06C22F4CB
:103B00000022104348607047F8B504460025C4F809
:103B10008C50FDF73BF80746206800686FF07E4642
:103B200010F0080F0AD03B4600224FF40011204647
:103B3000009600F097FC08B10320F8BD20680068EB
:103B400010F0040F0AD03B4600224FF480012046BB
:103B5000009600F087FC08B10320F8BD2020C4F8CF
:103B60008400C4F88800E56684F880500020F8BD21
:103B700010B5806A0021A0F85E10A0F85610FEF77C
:103B800085FB10BD016851E8002F22F4907241E8D6
:103B90000023002BF6D10168083151E8002F22F0F4
:103BA000010222F0805241E80023002BF3D1C16EC4
:103BB000012908D1016851E8002F22F0100241E8E4
:103BC0000023002BF6D12021C0F888100021C16607
:103BD0000167704710B5016851E8002F22F04002DC
:103BE00041E80023002BF6D12021C0F884100021E9
:103BF0004167FEF71AFE10BD10B5B0F86020D0F88E
:103C000088300168222B04D0886940F00800886160
:103C100010BD496A836D11401980816D891C8165D1
:103C2000B0F85E10491EA0F85E10B0F85E100029D2
:103C3000EED1016851E8002F22F4907241E8002390
:103C4000002BF6D10168083151E8002F22F0010263
:103C500041E80023002BF5D12021C0F88810002175
:103C60000167C26E012A02D0FEF75EFD10BDC1667B
:103C7000016851E8002F22F0100241E80023002BD8
:103C8000F6D10168CA6912F0100F01D010220A6241
:103C9000B0F85C10FEF7AAFA10BD00002DE9F05F45
:103CA0000446B4F860702068C569D0F80090866852
:103CB000D4F88810222905D0816941F0080181617A
:103CC000BDE8F09FB4F868804FF0000A4FF0010B98
:103CD00068E02068406AA16D38400880A06D801CB3
:103CE000A065B4F85E00401EA4F85E002068C569B7
:103CF00015F0070F33D015F0010F0AD019F4807FAB
:103D000007D0C0F820B0D4F88C0040F00100C4F80F
:103D10008C0015F0020F0BD016F0010F08D02168AF
:103D200002200862D4F88C0040F00400C4F88C0033
:103D300015F0040F0BD016F0010F08D021680420F5
:103D40000862D4F88C0040F00200C4F88C00D4F86B
:103D50008C0020B12046FEF799FAC4F88CA0B4F884
:103D60005E00F8B9206850E8001F21F4807140E837
:103D70000012002AF6D12068083050E8001F21F018
:103D8000010121F0805140E80012002AF3D12020E7
:103D9000C4F88800C4F870A0E06E012828D020463E
:103DA000FEF7C2FCB8F1000F02D015F0200F90D141
:103DB000B4F85E00002883D0B4F8681081427FF622
:103DC0007FAF2068083050E8001F21F0805140E8A4
:103DD0000012002AF5D112482067206850E8001F21
:103DE00041F0200140E80012002AF6D1BDE8F09F22
:103DF000C4F86CA0206850E8001F21F0100140E8D2
:103E00000012002AF6D12068C16911F0100F01D00C
:103E100010210162B4F85C102046FEF7E7F9C1E713
:103E2000F93B000810B5B0F86020D0F88830016880
:103E3000222B04D0886940F00800886110BD496ACF
:103E40001140826D1170816D491C8165B0F85E1062
:103E5000491EA0F85E10B0F85E100029EED101688E
:103E600051E8002F22F4907241E80023002BF6D194
:103E70000168083151E8002F22F0010241E80023D7
:103E8000002BF5D12021C0F8881000210167C26EF7
:103E9000012A02D0FEF748FC10BDC166016851E856
:103EA000002F22F0100241E80023002BF6D1016818
:103EB000CA6912F0100F01D010220A62B0F85C102B
:103EC000FEF794F910BD00002DE9F05F0446B4F848
:103ED00060702068C569D0F800908668D4F88810B2
:103EE000222905D0816941F008018161BDE8F09F78
:103EF000B4F868804FF0000A4FF0010B68E02068CA
:103F0000406AA16D38400870A06D401CA065B4F8EF
:103F10005E00401EA4F85E002068C56915F0070F1A
:103F200033D015F0010F0AD019F4807F07D0C0F804
:103F300020B0D4F88C0040F00100C4F88C0015F0DB
:103F4000020F0BD016F0010F08D021680220086282
:103F5000D4F88C0040F00400C4F88C0015F0040F75
:103F60000BD016F0010F08D0216804200862D4F8A5
:103F70008C0040F00200C4F88C00D4F88C0020B112
:103F80002046FEF783F9C4F88CA0B4F85E00F8B9B7
:103F9000206850E8001F21F4807140E80012002AD8
:103FA000F6D12068083050E8001F21F0010121F00F
:103FB000805140E80012002AF3D12020C4F8880084
:103FC000C4F870A0E06E012828D02046FEF7ACFBB4
:103FD000B8F1000F02D015F0200F90D1B4F85E00B8
:103FE000002883D0B4F8681081427FF67FAF206844
:103FF000083050E8001F21F0805140E80012002AEC
:10400000F5D112482067206850E8001F41F02001D8
:1040100040E80012002AF6D1BDE8F09FC4F86CA079
:10402000206850E8001F21F0100140E80012002A2B
:10403000F6D12068C16911F0100F01D01021016282
:10404000B4F85C102046FEF7D1F8C1E7253E000821
:104050002DE9F04104460025AF4B20682269A16894
:10406000D4F81CC01143626942EA0C021143026891
:10407000DFF8A8C202EA0C0211430160206841681F
:10408000E26821F4405111434160A06921689942DE
:1040900001D0226A10438A6822F4306222F06E4214
:1040A000104388602068C16A626A21F00F011143E1
:1040B000C16222689A48A2F18041B1F59C3120D0BA
:1040C000A2F18041B1F5884130D0A2F18041B1F533
:1040D000904140D0A2F18041B1F5984150D09A4230
:1040E0006BD1D0F8880010F440605ED0B0F5806FDE
:1040F0005FD0B0F5006F5AD0B0F5406F5BD01021A3
:104100005CE0D0F8880010F0030007D0012809D047
:10411000022805D0032807D010214FE001214DE0EF
:1041200002214BE0042149E0082147E0D0F8880053
:1041300010F00C0007D0042809D0082805D00C285E
:1041400007D010213AE0002138E0022136E00421B6
:1041500034E0082132E0D0F8880010F0300007D0B9
:10416000102809D0202805D0302807D0102125E0BC
:10417000002123E0022121E004211FE008211DE0AD
:10418000D0F8880010F0C00007D0402809D080285F
:1041900005D0C02807D0102110E000210EE0022138
:1041A0000CE004210AE0082108E0002106E00221D9
:1041B00004E0042102E0082100E0102159485A4F90
:1041C00000269A423BD1B9B1022905D0042916D064
:1041D000082917D00020012570B3616A37F8112033
:1041E000B0FBF2F1676807EB47038B4202D8B1EBF3
:1041F000073F0AD9012585E0FDF762F8ECE7FDF7F6
:1042000083F8E9E74FF40040E6E700231946FCF79E
:1042100001F8090241EA106201027808081842EB2D
:1042200006013A460023FBF7F5FF404AA0F540712E
:10423000914202D82168C86064E0012562E0E26929
:104240004FF6EF78B2F5004F08D0092944D2DFE8E5
:1042500001F0373A45433D4343434000092912D218
:10426000DFE801F0050813110B1111110E00FDF725
:1042700027F80AE0FDF736F807E0FDF745F804E017
:104280004FF4004001E000200125C8B3616A37F80F
:104290001110B0FBF1F04100606801EB5001B1FB7F
:1042A000F0F0A0F11001414508D84FF6F07101403F
:1042B000C0F3420008432168C86023E0012521E0E3
:1042C000FCF7FEFF0AE0FDF70DF807E0FDF71CF82C
:1042D00004E04FF4004001E00020012580B1616A54
:1042E00037F81110B0FBF1F1606801EB5001B1FB40
:1042F000F0F0A0F11001414503D8216880B2C860F8
:1043000000E001250120A4F86A00A4F868002667EF
:1043100066672846BDE8F08100800040F369FFCF62
:10432000001002400024F400FC5A0008FFFC0F00BB
:1043300010B48165A0F85C20A0F85E20002404671A
:104340008168FF23B1F5805F1CD04FF07F0C19B35B
:10435000B1F1805F28D0A0F86040C0F88C402221E5
:10436000C0F888100168083151E8003F43F00103AC
:1043700041E8003CBCF1000FF4D1416EB1F1005FA7
:104380001BD041E0016911B1A0F86030E5E740F2CF
:10439000FF11A0F86010E0E7016911B1A0F860C05A
:1043A000DBE7A0F86030D8E7016919B13F21A0F838
:1043B0006010D2E7A0F860C0CFE7B0F86810914273
:1043C00022D88168B1F5805F01D10169C9B1214965
:1043D000016780F88040016941B1016851E8002F10
:1043E00042F4807241E80023002BF6D101680831C5
:1043F00051E8002F42F0805241E80023002BF5D114
:1044000024E015490167E4E78168B1F5805F01D1D7
:10441000016979B11149016780F88040016961B192
:10442000016851E8002F42F4907241E80023002B0C
:10443000F6D10BE00A490167EEE7016851E8002F69
:1044400042F0200241E80023002BF6D110BC0020EE
:1044500070470000C93E00089D3C0008253E00084A
:10446000F93B00082DE9F0470446089D884691462F
:104470009A462068C06938EA000039D000204845D3
:104480005CD100272026B5F1FF3F4FD0FCF77EFB23
:10449000A0EB0A00A8422DD865B32068016811F08E
:1044A000040F43D0C06910F4006F3FD021684FF46F
:1044B00000600862206850E8001F21F4D07140E8D5
:1044C0000012002AF6D12068083050E8001F21F0C1
:1044D000010140E80012002AF5D1C4F88460C4F854
:1044E0008860C4F88C6084F880700320BDE8F08791
:1044F0000120C4E7206850E8001F21F4D07140E893
:104500000012002AF6D12068083050E8001F21F080
:10451000010140E80012002AF5D1C4F88460C4F813
:10452000886084F880700320BDE8F0872068C06947
:1045300038EA000005D000204845A4D00020BDE89E
:10454000F0870120F8E700000148FDF7A1BE000058
:1045500024010020FEE700000FB4084B10B504A9A9
:1045600002AA039800F01BF8044602A9002000F0FC
:1045700081F8204610BC5DF814FB00007546000869
:1045800002E008C8121F08C1002AFAD1704770471C
:10459000002001E001C1121F002AFBD170472DE964
:1045A000F84F9946924688460546002706E025289A
:1045B0000AD051464A4690476D1C7F1C2878002837
:1045C000F5D13846BDE8F88F002315F8011F1846CD
:1045D0002E2915D115F8011F04232A290DD06FF0BB
:1045E0002F022978A1F13004092C09D800EB8000B2
:1045F00002EB400008446D1CF3E758F8040B6D1CF7
:104600002A78002ADDD0632A07D0732A0FD01046FB
:1046100051464A4690477F1C2AE018F8042B8DF833
:10462000002000218DF801106E46012103E058F8AA
:10463000046B4FF0FF315A074FF0000401D409E03A
:10464000641C84420BDA8C42FADB325D002AF7D11B
:1046500005E0641C8C42FCDB305D0028F9D1274466
:1046600004E016F8010B51464A469047641EF8D202
:104670006D1CA3E70A68531C0B60107070470000A4
:10468000FCF792FAFEF70FFFFEF7BEFBFEF7A8FC61
:10469000FEF724FCFEF770FC3E48FDF7CDF904213F
:1046A0003D48FDF78BFC3C4F4FF4FA783968C1F870
:1046B00038800120FEF788FBFEF780FA0020FEF725
:1046C000E5F84FF6FF70FEF7E7FA0020FEF7D0FAA4
:1046D000012232493248FDF7F7FF3223012231A18E
:1046E0002F48FEF737F8DFF8C090304E304D4FF0CE
:1046F000000B00BFFEF724F900F05EF800F086F82A
:1047000099F8000060B1DFF894A001209AF8004009
:10471000FCF70CF99AF80000844201D1FEF74AFE3A
:10472000E878012812D1234800880A2801D80220FD
:1047300000E00020FEF748FB3078012806D15C46F7
:1047400085F803B00020FEF73FFB34706878C8B1ED
:104750000120FEF739FB3968322088633078012860
:10476000C8D15C4685F801B00020FEF72DFB10484B
:1047700034700C302C70047044708470C4700471F8
:104780004471B7E7E8780228B4D03968C1F83880B6
:10479000B0E70000D80000208C00002008000020B6
:1047A0002401002047000000070000200600002030
:1047B0000E0000200A0000201349002001EB4002F7
:1047C00052780B2A0CD2DFE802F00B06080F111307
:1047D0001517191B1D00302200E0312201F81020AE
:1047E000401C0328EADB70473222F7E73322F5E763
:1047F0003422F3E73522F1E73622EFE73722EDE7FF
:104800003822EBE73922E9E71A0000202DE9F04FC2
:104810003C4CDFF8F4900123257899F80020002122
:1048200009F10C00012D08D132B945786D1CEDB2AB
:1048300045700B2D00D143702170A579012D08D151
:1048400032B9C5786D1CEDB2C5700B2D00D1C370A7
:10485000A171257B012D08D132B945796D1CEDB2CE
:1048600045710B2D00D143712173A246A47C012C0C
:1048700045D1254C90F800C00834251D94F80080DF
:10488000AF786678DFF884B02D79A478C4451AD162
:10489000B74218D1A54216D189F801301C4B521CE1
:1048A000D2B21970ABF800104C4689F80020022AE9
:1048B00023D1217089F80110017041708170C1709D
:1048C0000171417119E0C44503D1B74201D1A5423C
:1048D00013D0017041708170C1700171417199F8FC
:1048E00002204846521CD2B289F80220032A04D181
:1048F000817089F80330ABF800108AF81210BDE817
:10490000F08F0000300000200E0000200C0000207E
:104910000600002000000000000000000000000071
:104920000000000000000000000000000000000087
:104930000000000000000000000000000000000077
:1049400000000000000080018001800180018001E2
:10495000800180018001800180018001800180014F
:104960000000000080018001000000000000000045
:104970000000000000000000CC00CC00CC00CC0007
:10498000CC00CC000000000000000000000000008F
:104990000000000000000000000000000000000017
:1049A0000000000000000000000000000000000007
:1049B000600C600C600C30063006FE1FFE1F3006D7
:1049C00038071803FE1FFE1F180318038C018C0103
:1049D0008C01000000008000E003F80F9C0E8C1C8E
:1049E0008C188C009800F801E007800E801C8C1851
:1049F0008C189C18B80CF00FE003800080000000B9
:104A0000000000000000000000000E181B0C110C3C
:104A100011061106110311039B018E01C038C06CF1
:104A200060446044304430441844186C0C38000032
:104A3000000000000000E001F00338071806180627
:104A40003003F001F000F8009C310E33061E061C06
:104A5000061C063FFC73F02100000000000000006F
:104A600000000000000000000C000C000C000C0016
:104A70000C000C000000000000000000000000001E
:104A80000000000000000000000000000000000026
:104A9000000000000000000200038001C000C00010
:104AA0006000600030003000300030003000300026
:104AB0003000300060006000C000C00080010003D2
:104AC00000020000000020006000C00080018001A2
:104AD00000030003000600060006000600060006AC
:104AE000000600060003000380018001C000600092
:104AF0002000000000000000000000000000000096
:104B0000C000C000D806F807E001300338070000F5
:104B10000000000000000000000000000000000095
:104B20000000000000000000000000000000000085
:104B300080018001800180018001FC3FFC3F8001F9
:104B40008001800180018001000000000000000061
:104B50000000000000000000000000000000000055
:104B60000000000000000000000000000000000045
:104B700000000000000080018001000100018000B1
:104B80000000000000000000000000000000000025
:104B9000000000000000000000000000E007E00747
:104BA0000000000000000000000000000000000005
:104BB00000000000000000000000000000000000F5
:104BC00000000000000000000000000000000000E5
:104BD000000000000000C000C00000000000000055
:104BE000000000000000000C000C0006000600069B
:104BF0000003000300038003800180018001C000E6
:104C0000C000C00060006000000000000000000064
:104C1000000000000000E003F007380E180C0C182C
:104C20000C180C180C180C180C180C180C180C1864
:104C3000180C380EF007E003000000000000000030
:104C400000000000000000018001C001F001980197
:104C50008801800180018001800180018001800144
:104C60008001800180018001000000000000000040
:104C7000000000000000E003F80F180C0C180C18DE
:104C800000180018000C000600038001C00060003E
:104C900030001800FC1FFC1F000000000000000096
:104CA000000000000000E001F807180E0C0C0C0CCE
:104CB000000C0006C003C007000C001800180C18F8
:104CC0000C18180CF807E0030000000000000000BA
:104CD000000000000000000C000E000F000F800D0F
:104CE000C00C600C600C300C180C0C0CFC3FFC3F32
:104CF000000C000C000C000C000000000000000084
:104D0000000000000000F80FF80F180018000C0059
:104D1000EC03FC071C0E001C0018001800180C18EF
:104D20001C0C180EF807E003000000000000000053
:104D3000000000000000C007F00F381C1818180011
:104D40000C00CC03EC0F3C0E1C1C0C180C180C189F
:104D5000181C380EF007E0030000000000000000FF
:104D6000000000000000FC1FFC1F000C00060006F5
:104D7000000380038001C001C000E000600060000B
:104D80007000300030003000000000000000000023
:104D9000000000000000E003F007380E180C180CAB
:104DA000180C3806F007F007180C0C180C180C1823
:104DB0000C18380CF80FE0030000000000000000A1
:104DC000000000000000E003F007380E1C0C0C1877
:104DD0000C180C181C1C381EF81BE0190018000CCD
:104DE000000C1C0EF807F00100000000000000009D
:104DF00000000000000000000000000000000000B3
:104E000080018001000000000000000000000000A0
:104E10000000000080018001000000000000000090
:104E20000000000000000000000000000000000082
:104E30008001800100000000000000000000000070
:104E400000000000800180010001000180000000DE
:104E50000000000000000000000000000000000052
:104E6000000000000010001C800FE003F800180094
:104E7000F800E003800F001C00100000000000009C
:104E80000000000000000000000000000000000022
:104E900000000000F81F000000000000F81F0000E4
:104EA0000000000000000000000000000000000002
:104EB00000000000000000000000000000000000F2
:104EC0000000000008003800F001C007001F0018B3
:104ED000001FC007F00138000800000000000000BB
:104EE000000000000000E003F80F180C0C180C186C
:104EF0000018000C000600038001C000C000C000C4
:104F000000000000C000C000000000000000000021
:104F10000000000000000000E00718180420C2296B
:104F2000224A114409440944094409221113E20C9C
:104F3000024004201818E0070000000000000000F4
:104F400000000000000080038003C006C006C00609
:104F5000600C600C301830183018F83FF83F1C70A7
:104F60000C600C6006C006C00000000000000000DD
:104F7000000000000000FC03FC0F0C0C0C180C18C7
:104F80000C180C0CFC07FC0F0C180C300C300C30FF
:104F90000C300C18FC1FFC07000000000000000093
:104FA000000000000000C007F01F38381C300C70F3
:104FB0000660060006000600060006000600066001
:104FC0000C701C30F01FE007000000000000000023
:104FD000000000000000FE03FE0F060E0618061873
:104FE0000630063006300630063006300630061829
:104FF0000618060EFE0FFE03000000000000000071
:10500000000000000000FC3FFC3F0C000C000C0006
:105010000C000C00FC1FFC1F0C000C000C000C0012
:105020000C000C00FC3FFC3F0000000000000000F2
:10503000000000000000F83FF83F180018001800BA
:1050400018001800F81FF81F1800180018001800A2
:1050500018001800180018000000000000000000F0
:10506000000000000000E00FF83F3C780E6006E012
:1050700007C00300030003FE03FE03C007C006C011
:105080000EC03CF0F83FE00F000000000000000000
:105090000000000000000C300C300C300C300C30E4
:1050A0000C300C30FC3FFC3F0C300C300C300C3022
:1050B0000C300C300C300C30000000000000000000
:1050C000000000000000800180018001800180015B
:1050D00080018001800180018001800180018001C8
:1050E00080018001800180010000000000000000BC
:1050F0000000000000000006000600060006000692
:105100000006000600060006000600060006180657
:1051100018063807F003E00100000000000000005E
:1051200000000000000006300618060C0606060304
:105130008601C60066007600DE008E0106030606C4
:10514000060C061806300660000000000000000093
:1051500000000000000018001800180018001800D7
:10516000180018001800180018001800180018007F
:1051700018001800F81FF81F0000000000000000D1
:105180000000000000000EE01EF01EF01EF036D8F9
:1051900036D836D836D866CC66CC66CCC6C6C6C637
:1051A000C6C6C6C686C386C3000000000000000055
:1051B0000000000000000C301C303C303C306C30F3
:1051C0006C30CC30CC308C310C330C330C360C368C
:1051D0000C3C0C3C0C380C300000000000000000BF
:1051E000000000000000E007F81F1C380E70066089
:1051F00003C003C003C003C003C003C003C00660F4
:105200000E701C38F81FE0070000000000000000CE
:10521000000000000000FC0FFC1F0C380C300C30AC
:105220000C300C300C18FC1FFC070C000C000C00A0
:105230000C000C000C000C0000000000000000003E
:10524000000000000000E007F81F1C380E70066028
:1052500003E003C003C003C003C003C007E006634C
:105260000E3F1C3CF83FE0F700C0000000000000CB
:10527000000000000000FE0FFE1F0638063006305A
:1052800006300638FE1FFE0706030606060C061843
:10529000061806300630066000000000000000001E
:1052A000000000000000E003F80F1C0C0C180C18A4
:1052B0000C001C00F803E00F001E0038063006301A
:1052C0000E301C1CF80FE00700000000000000007A
:1052D000000000000000FE7FFE7F80018001800151
:1052E00080018001800180018001800180018001B6
:1052F00080018001800180010000000000000000AA
:105300000000000000000C300C300C300C300C3071
:105310000C300C300C300C300C300C300C300C30AD
:105320000C301818F81FE007000000000000000013
:1053300000000000000003600630063006300C1844
:105340000C180C18180C180C380E300630067007A4
:1053500060036003C001C001000000000000000005
:105360000000000000000360C361C361C3616633D5
:10537000663366336633663366336C1B6C1B6C1B9B
:105380002C1A3C1E380E380E0000000000000000F1
:105390000000000000000FE00C7018303018700C96
:1053A000600EC00780038003C003E006700C301C51
:1053B00018180C300E6007E000000000000000002C
:1053C00000000000000003C006600C301C383818D4
:1053D000300C6006E007C00380018001800180017D
:1053E00080018001800180010000000000000000B9
:1053F000000000000000FC7FFC7F0060003000180F
:10540000000C000600038001C0006000300018009E
:105410000C000600FE7FFE7F000000000000000080
:10542000000000000000E003E00360006000600096
:10543000600060006000600060006000600060006C
:105440006000600060006000600060006000E003D9
:10545000E0030000000030003000600060006000E9
:10546000C000C000C000C0018001800180010003B5
:10547000000300030006000600000000000000001A
:10548000000000000000E003E0030003000300034D
:1054900000030003000300030003000300030003F4
:1054A0000003000300030003000300030003E00304
:1054B000E003000000000000C001C00160036003C1
:1054C000600330063006180C180C000000000000C5
:1054D00000000000000000000000000000000000CC
:1054E00000000000000000000000000000000000BC
:1054F00000000000000000000000000000000000AC
:10550000000000000000FFFFFFFF0000000000009F
:105510000000000000000C000C000C000C000C004F
:105520000C0000000000000000000000000000006F
:10553000000000000000000000000000000000006B
:10554000000000000000000000000000000000005B
:10555000F003F8071C0C0C0C000FF00FF80C0C0CEF
:105560000C0C1C0FF80FF0180000000000000000E9
:1055700000000000000018001800180018001800B3
:10558000D803F80F380C1818181818181818181805
:105590001818380CF80FD8030000000000000000B5
:1055A00000000000000000000000000000000000FB
:1055B000C003F007300E180C18001800180018006F
:1055C000180C300EF007C0030000000000000000BF
:1055D0000000000000000018001800180018001853
:1055E000C01BF01F301C1818181818181818181895
:1055F0001818301CF01FC01B000000000000000045
:10560000000000000000000000000000000000009A
:10561000C003F00F300C1818F81FF81F18001800FE
:105620003818301CF00FC007000000000000000018
:10563000000000000000800FC00FC000C000C000CC
:10564000F007F007C000C000C000C000C000C000EC
:10565000C000C000C000C00000000000000000004A
:10566000000000000000000000000000000000003A
:10567000E00DF80F180E0C0C0C0C0C0C0C0C0C0C98
:105680000C0C180EF80FE00D000C0C0C1C06F807A3
:10569000F0010000000018001800180018001800A1
:1056A000D807F80F381C18181818181818181818D0
:1056B000181818181818181800000000000000002A
:1056C000000000000000C000C0000000000000005A
:1056D000C000C000C000C000C000C000C000C000CA
:1056E000C000C000C000C0000000000000000000BA
:1056F000000000000000C000C0000000000000002A
:10570000C000C000C000C000C000C000C000C00099
:10571000C000C000C000C000C000C000C000F80051
:105720007800000000000C000C000C000C000C00C5
:105730000C0C0C060C038C01CC006C00FC009C01D2
:105740008C030C030C060C0C000000000000000091
:10575000000000000000C000C000C000C000C00089
:10576000C000C000C000C000C000C000C000C00039
:10577000C000C000C000C000000000000000000029
:105780000000000000000000000000000000000019
:105790007C3CFF7EC7E383C183C183C183C183C1D6
:1057A00083C183C183C183C10000000000000000E9
:1057B00000000000000000000000000000000000E9
:1057C0009807F80F381C18181818181818181818EF
:1057D0001818181818181818000000000000000009
:1057E00000000000000000000000000000000000B9
:1057F000C003F00F300C18181818181818181818BB
:105800001818300CF00FC00300000000000000006A
:105810000000000000000000000000000000000088
:10582000D803F80F380C1818181818181818181862
:105830001818380CF80FD8031800180018001800B2
:105840001800000000000000000000000000000040
:10585000C01BF01F301C1818181818181818181822
:105860001818301CF01FC01B001800180018001872
:105870000018000000000000000000000000000010
:10588000B007F0037000300030003000300030000E
:105890003000300030003000000000000000000048
:1058A00000000000000000000000000000000000F8
:1058B000E003F003380E180C3800F003C007000CAA
:1058C000180C380EF007E003000000000000000094
:1058D00000000000000000008000C000C000C00008
:1058E000F007F007C000C000C000C000C000C0004A
:1058F000C000C000C00780070000000000000000DA
:105900000000000000000000000000000000000097
:105910001818181818181818181818181818181807
:105920001818381CF01FE0190000000000000000EB
:105930000000000000000000000000000000000067
:105940000C18180C180C180C3006300630066003C2
:1059500060036003C001C0010000000000000000FF
:105960000000000000000000000000000000000037
:10597000C141C141C36163636363636336363636D5
:1059800036361C1C1C1C1C1C000000000000000003
:105990000000000000000000000000000000000007
:1059A0001C38381C300C6006600360036003600321
:1059B0006006300C381C1C3800000000000000009D
:1059C00000000000000000000000000000000000D7
:1059D0001830301830187018600C600CE00CC006DD
:1059E000C00680038003800380018001C001F000B5
:1059F0007000000000000000000000000000000037
:105A0000FC1FFC1F000C000600038001C0006000AA
:105A100030001800FC1FFC1F000000000000000008
:105A200000000000000000038001C000C000C000B2
:105A3000C000C000C0006000600030006000400096
:105A4000C000C000C000C000C000C0008001000352
:105A500000000000000080018001800180018001C1
:105A6000800180018001800180018001800180012E
:105A7000800180018001800180018001800180011E
:105A80008001000000006000C000C00180018001B2
:105A90008001800180010003000300060003000173
:105AA000800180018001800180018001C0006000D0
:105AB00000000000000000000000000000000000E6
:105AC00000000000F010F81F080F000000000000A8
:105AD00000000000000000000000000000000000C6
