:020000040800F2
:10000000201A00200D020008FF1500084115000805
:10001000FD15000843040008073100080000000037
:10002000000000000000000000000000AF19000800
:10003000B504000800000000AD190008B11900085F
:1000400027020008270200082702000827020008EC
:1000500027020008270200082702000827020008DC
:1000600027020008270200082702000827020008CC
:1000700027020008270200082702000827020008BC
:1000800027020008270200082702000827020008AC
:100090009130000827020008270200082702000804
:1000A000270200082702000827020008270200088C
:1000B000270200082702000827020008270200087C
:1000C000270200082702000827020008270200086C
:1000D000270200082702000827020008270200085C
:1000E000270200082702000827020008270200084C
:1000F000270200082702000827020008270200083C
:10010000270200082702000827020008270200082B
:10011000270200082702000827020008270200081B
:10012000270200082702000827020008270200080B
:1001300000F002F800F05AF80AA090E8000C82449F
:100140008344AAF10107DA4501D100F04FF8AFF27C
:10015000090EBAE80F0013F0010F18BFFB1A43F0A5
:10016000010318472C3000004C3000000A444FF0C7
:10017000000C10F8013B13F0070408BF10F8014B06
:100180001D1108BF10F8015B641E05D010F8016B4B
:10019000641E01F8016BF9D113F0080F1EBF10F8AF
:1001A000014BAD1C0C1B09D16D1E58BF01F801CBD2
:1001B000FAD505E014F8016B01F8016B6D1EF9D555
:1001C0009142D6D37047000000230024002500266A
:1001D000103A28BF78C1FBD8520728BF30C148BFAA
:1001E0000B6070471FB51FBD10B510BD00F0EFF8D4
:1001F0001146FFF7F7FF02F097FF00F00DF903B487
:10020000FFF7F2FF03BC00F015F900000948804732
:1002100009480047FEE7FEE7FEE7FEE7FEE7FEE7E8
:10022000FEE7FEE7FEE7FEE704480549054A064B00
:10023000704700002D1A000831010008201400202A
:10024000201A002020160020201600200FB41CB514
:10025000074B06AA7B4469460090059800F08BF88E
:100260000020694600F09AF81CBC5DF814FB000001
:100270004501000010B5431C02E010F8011B71B1EC
:100280008107FAD14FF0013202C88C1A8C4314EA6C
:10029000C211F9D0C01A0A0603D0C01E10BDC01A80
:1002A00010BD0A0401D0801E10BD0902FCD0401E02
:1002B00010BD10B5203AC0F00B80B1E81850203ABC
:1002C000A0E81850B1E81850A0E81850BFF4F5AFF6
:1002D0005FEA027C24BFB1E81850A0E8185044BF80
:1002E00018C918C0BDE810405FEA827C24BF51F8ED
:1002F000043B40F8043B08BF7047D20728BF31F8E1
:10030000023B48BF11F8012B28BF20F8023B48BF31
:1003100000F8012B70474FF0000200B513469446D9
:100320009646203922BFA0E80C50A0E80C50B1F14D
:100330002001BFF4F7AF090728BFA0E80C5048BF61
:100340000CC05DF804EB890028BF40F8042B08BFFF
:10035000704748BF20F8022B11F0804F18BF00F8FB
:10036000012B7047704770477047000001694A1CB5
:1003700002610878704700B58FB0CDE901310021E6
:10038000059105497944CDE903101146684600F00E
:100390000AF80FB000BD0000E5FFFFFF0A6802F891
:1003A000010B0A6070472DE9F04106460024D6E9AA
:1003B0000170F5688046304603E04146B847641C4A
:1003C0003046A8470028F8D12046BDE8F0817546A0
:1003D00000F02CF8AE4605006946534620F00700B1
:1003E000854618B020B5FFF71FFFBDE820404FF04D
:1003F00000064FF000074FF000084FF0000B21F00F
:100400000701AC46ACE8C009ACE8C009ACE8C009DB
:10041000ACE8C0098D46704710B50446AFF30080C4
:100420002046BDE81040FFF7EABE000000487047D4
:10043000BC13002001491820ABBEFEE726000200D5
:100440007047FEE7002070470020704710B500227B
:100450000449054801F0DEFB0449034801F0D4FBE0
:10046000002010BDAC0A0020E8010020AC060020EE
:1004700010B50146034801F0C7FB024801F0A8FB94
:10048000002010BDE8010020094A10B5D2F8B822BA
:10049000D2F814220AB1012010BD0A4601460448D0
:1004A00001F0B8FBBDE81040014801F011BC0000AC
:1004B000E8010020704772B6FEE7000070B5044600
:1004C00000F00EF80546601C02D004480078044491
:1004D00000F006F8401BA042FAD370BD6000002077
:1004E0000148806870470000600000200248816871
:1004F000027811448160704760000020074810B501
:10050000016841F010010160032000F075F80F2030
:1005100000F006F800F024F8002010BD0020024092
:1005200070B50D4D04464FF47A712878B1FBF0F0A8
:100530000A490968B1FBF0F000F0EEFF48B9102C51
:1005400007D200222146501E00F036F800206C60D1
:1005500070BD012070BD0000600000206C00002014
:100560000C4808B5816941F001018161816901F0A0
:1005700001010091C16941F08051C161C06900F081
:10058000805000900448416821F0E06141F0007122
:10059000416008BD0010024000000140002809DB56
:1005A00000F01F02012191404009800000F1E0208D
:1005B000C0F8001170470000F0B40E4B1B680C46E9
:1005C000C3F30223C3F10705042D00D90425191D27
:1005D000072901D2002300E0DB1E012606FA05F1FF
:1005E000491E214099409E40761E16403143F0BC82
:1005F00002F08ABD0CED00E0064900F00702086831
:100600004FF6FF03184040EA0220034A10430860F7
:10061000704700000CED00E00000FA0510B50C0674
:1006200007D501F0070101EB810100EBC100283083
:1006300005E001EB810100EBC10000F5B47099B257
:1006400032B1012202730181190C4181002010BDD9
:1006500000220273C180F9E7704701EB810200EBD1
:10066000C202D0F8EC02D26B01F0E1BC01EB8102D6
:1006700000EBC202D0F8EC02D2F87C2101F03ABDC6
:1006800070B504460B0601F0070000EB800104EB97
:10069000C1014FF001024FF0000503D581F8292078
:1006A000283103E081F8695101F5B471087094F8BC
:1006B000A802012808D084F8A822206802F07CF95A
:1006C00084F8A852002070BD022070BD70B50446A9
:1006D00001F00F006268904201D9012070BD0B0645
:1006E00001F0070000EB800104EBC1014FF00102B3
:1006F0004FF0000503D581F82920283103E081F867
:10070000695101F5B4718D70087094F8A802012840
:1007100008D084F8A822206802F0EBF984F8A852E7
:10072000002070BD022070BD2DE9F05F04685FEA13
:10073000424C0B788D69B4F850C04FF000064BF670
:100740008F7948F2800A48F68F7B48F2C00E4FF44A
:1007500080672AD54FF0020808EBC308C44407EBB2
:100760004C07E45BC4F30904A54203D32D1B8D6140
:1007700001D00BE08E61066836F8235005EA0905C2
:1007800085F4005545EA0A0526F82350520609D596
:100790000D78036833F8252002EA0B0242EA0E02C4
:1007A00023F8252084B30A8929E04FF0060808EBD6
:1007B000C308C44407EB4C07E45BC4F30904A54237
:1007C00003D32D1B8D6101D00BE08E61066836F8D6
:1007D000235005EA090585F4005545EA0A0526F87F
:1007E0002350520609D40B78056835F8232002EA15
:1007F0000B0242EA0E0225F823202CB14A894969EE
:100800000068234602F04EFC2046BDE8F09F2DE92B
:10081000F05F054600680C465FEA426C16468B693D
:100820002278B0F850C048F68F774CF280094FF428
:10083000004B4FF6FF7E4FF4806A4FF0000172D5F7
:100840004FF0020808EBC208E0440AEB480C30F80D
:100850000C00C0F30900834211D91B1AA3610FD009
:10086000730407D52E6836F822303B4043EA09036B
:1008700026F8223094F82420012A47D052E1A161C1
:10088000607810B1012813D01AE02868B0F8503011
:10089000184400EB0210B0F80424C2F30902A0F8D7
:1008A0000424B0F8042442F40042A0F8042407E031
:1008B0002868B0F85030184400EB0210A0F8041477
:1008C0006278286812B1012A11D018E0B0F85010EF
:1008D0000844217800EB0110B0F80C14C1F30901B1
:1008E000A0F80C14B0F80C1441F4004105E0B0F885
:1008F00050201044227800EB0210A0F80C1421784C
:100900002846FFF7AAFE700472D40BE16269024424
:100910006261E2690244E2612369226A9A4203D376
:100920001846111A04E03EE084F824100AB110467B
:100930002162617811B1012929D031E02968B1F82B
:1009400050201144227801EB0211B1F80424C2F3C3
:100950000902A1F8042401F204413E2807D9420902
:10096000C30600D1521E0B884BEA822207E048B131
:100970004208C30700D0521C0B880EEA82221343A0
:100980000B800DE00A8842F400420A8008E02968E2
:10099000B1F850201144227801EB0211A1F80404AF
:1009A00083B22289BAE04FF0060808EBC208E0449F
:1009B0000AEB480C30F80C00C0F30900834211D355
:1009C0001B1AA3610FD0730407D42E6836F82230A7
:1009D0003B4043EA090326F8223094F82420012AF8
:1009E00051D09FE0A161607818B1012814D01BE0BC
:1009F0003FE02868B0F85030184400EB0210B0F81F
:100A00000424C2F30902A0F80424B0F8042442F438
:100A10000042A0F8042407E02868B0F850301844D9
:100A200000EB0210A0F804146278286812B1012AC1
:100A300011D018E0B0F850100844217800EB0110F4
:100A4000B0F80C14C1F30901A0F80C14B0F80C14A0
:100A500041F4004105E0B0F850201044227800EB4A
:100A60000210A0F80C1421782846FFF7F6FD700458
:100A700058D42278296831F82200384040EA090029
:100A800021F822004EE0626902446261E269024498
:100A9000E2612369226A9A4203D31846111A21623D
:100AA00004E00AB11046216284F8241062782968B3
:100AB00012B1012A28D02FE0B1F850201144227839
:100AC00001EB0211B1F80C24C2F30902A1F80C24C5
:100AD00001F20C413E2807D94209C30600D1521E3B
:100AE0000B884BEA822207E048B14208C30700D0D6
:100AF000521C0B880EEA822213430B800CE00A88FA
:100B000042F400420A8007E0B1F8502011442278F4
:100B100001EB0211A1F80C04628983B261692868B3
:100B200002F0DEFA2278296831F8220048F6BF7315
:100B3000184080F0300048F28003184321F822006A
:100B40000020BDE8F09F01F0070101EB810100EBFF
:100B5000C100D0F8840170472DE9F04104460F062A
:100B600001F0070000EB800104EBC1014FF001062A
:100B70004FF0000503D581F82960283103E081F8A2
:100B8000695101F5B471022B08700A61CB7000D174
:100B90000D7194F8A802012809D084F8A862206891
:100BA00001F0BAFD284684F8A852BDE8F081022081
:100BB000FBE710B501F0070404EB840100EBC10171
:100BC000C1E95F230022C1F8842181F8692181F8FD
:100BD0006841006801F5B47101F0E0FF002010BD2C
:100BE00070B504460D4601F007006168884201D9DE
:100BF000012070BD29064FF000064FF0010207D515
:100C000000EB800104EBC10181F82920283107E0C5
:100C100005EB850104EBC10181F8696101F5B4714F
:100C20008A70087094F8A802012807D084F8A822D6
:100C3000206801F09AFF680702D006E0022070BD2C
:100C400004F52C71206801F052FF84F8A86200209E
:100C500070BD10B501F0070404EB840100EBC10185
:100C6000C1E90F23012281F84C208B6400234B64DF
:100C700081F8292001F8284F006801F08FFF00203B
:100C800010BD00001FB50446006802F007FA010419
:100C900003D5204600F0B4FC1FBD41050DD52068EA
:100CA00030F8441F21F480610180204600F010F9E3
:100CB0000021204600F027F91FBD410405D520681A
:100CC00030F8441F21F4804174E0810405D5206888
:100CD00030F8441F21F400516CE0C10414D52068A1
:100CE00030F8401F21F004010180206830F8401FD7
:100CF00021F008010180204600F0FDF8206830F85E
:100D0000441F21F4805155E0010540D5D4F800205E
:100D10000020694632F8203021F81030401CC0B263
:100D20000828F7D332F8400F40F001001080206807
:100D300030F8402F22F0010202802068B0F84420F1
:100D40005205FBD530F8442F22F480620280002047
:100D5000236831F8102023F82020401CC0B2082856
:100D6000F6D3206830F8401F41F008010180206868
:100D700030F8441F21F400610180206830F8401FE2
:100D800041F004010180204600F0F2F81FBD81050A
:100D900009D5206830F8441F21F4007101802046F5
:100DA00000F0ADF81FBDC005FCD5206830F8441F29
:100DB00021F4807101801FBD2DE9F04186B004004F
:100DC00004D094F8A902002520B108E0012006B063
:100DD000BDE8F08184F8A852204600F05BF80320BB
:100DE00084F8A902206801F07BFE04F110011422AE
:100DF00088466846FFF75DFA94E80F0001F0DAFDD7
:100E00000227D0BB0021206802F062F900200126F1
:100E10000EE000BF00EB800104EBC10181F8296006
:100E200001F8280F401CCD700D614D61C0B28D617D
:100E300061688142EED8002012E000BF00EB800123
:100E400004EBC10181F8695181F8680181F86B51A7
:100E5000C1F87851C1F87C51401CC0B2C1F8805132
:100E600061688142EAD8142241466846FFF721FAB8
:100E700094E80F0001F02BFE10B184F8A972A5E7E9
:100E800084F8245084F8A962206801F01EFE002036
:100E90009DE7000008B500680B49884212D10B4855
:100EA000C16941F40001C161C069002200F4000081
:100EB000009011461420FFF77FFBBDE80840142086
:100EC000FFF76CBB08BD0000005C00400010024052
:100ED00070B5044680680125022801D0FFF7EBFABF
:100EE0002946D4F8EC0201F0EEF9D4F8EC02BDE8A2
:100EF000704001F0AAB9D0F8EC0201F0CEB9D0F8F8
:100F0000EC0201F0D4B910B5044690F8A80201280B
:100F10000BD0012084F8A80284F82410206802F085
:100F2000D9F8002084F8A80210BD022010BDD0F826
:100F3000EC2200F52C71104601F0D1B910B5044631
:100F400090F8A802012810D0012084F8A802206897
:100F500002F095F801212046FFF77EFB206801F0A2
:100F6000B2FD002084F8A80210BD022010BD0000D0
:100F700010B50446D0F8EC0201F0F0F9A0690028A1
:100F800004D00348016841F00601016010BD000073
:100F900010ED00E02DE9F84305460078354CC00718
:100FA00054D0E0690026C00008D4E06940F08050C9
:100FB000E061E069012600F0805000902E48016851
:100FC000C90512D40168804641F480710160FFF7C1
:100FD00087FA074605E000BFFFF782FAC01B6428C6
:100FE00023D8D8F80000C005F6D5206A10F4407068
:100FF00021D0A98801F4407181421CD0206A1F4988
:10100000012220F440700A6000220A602062C007BA
:1010100011D0FFF765FA074641F2883808E000BFB3
:10102000FFF75EFAC11B414502D90320BDE8F883F2
:10103000206A8007F4D5206A696820F4407008436C
:1010400020621EB1E06920F08050E06128788007BE
:1010500005D56068A96820F440400843606028789E
:10106000C00605D56068696920F4800008436060A7
:101070000020DBE7001002400070004040044242C4
:101080002DE9F0470F46050061D0434E306800F06F
:101090000700B84209D2306820F0070038433060BA
:1010A000306800F00700B84251D128683B4C8107F6
:1010B00012D5400703D5606840F4E060606028788E
:1010C000000703D5606840F4605060606068A968FC
:1010D00020F0F000084360602878C00728D06868D6
:1010E000012810D02168022810D0890700292EDAA3
:1010F000616821F0030101436160FFF7F1F9804667
:1011000041F288390DE021688903EFE78901EDE7B5
:10111000FFF7E6F9A0EB0801494502D90320BDE835
:10112000F0876068696800F00C00B0EB810FEFD1C8
:10113000306800F00700B8420BD9306820F0070093
:1011400038433060306800F00700B84201D0012019
:10115000E5E72878400705D56068E96820F4E06095
:10116000084360602878000706D56068296920F484
:10117000605040EAC100606000F018F86168084AF9
:10118000C1F30311515CC840064908600648006875
:10119000FFF7C6F90020C2E700200240001002401D
:1011A0007E3100086C000020640000200E4A516867
:1011B0000E4801F00C03042B11D0082B0FD10C4862
:1011C000C1F38343C903C05C0AD55168084AC1F31F
:1011D0004041921E515C054A5043B0FBF1F070470C
:1011E00004494843704700000010024000127A0092
:1011F0006E31000800093D002DE9F84F040070D061
:101200002078C04DC00749D06868C0F3810001282C
:1012100007D06868C0F38100022809D16868C0035C
:1012200006D52868800339D560680028E7D035E006
:101230006068B0F5803F0BD010B1B0F5A02F11D091
:10124000286820F480302860286820F4802002E09C
:10125000286840F480302860606890B1FFF740F95A
:1012600006460AE0286840F480202860F0E700BFC6
:10127000FFF736F9801B642873D828688003F7D5F8
:101280000CE0FFF72DF9064605E000BFFFF728F94F
:10129000801B6428F0D828688003F7D420789A4E01
:1012A00080074FF001094FF0000839D5686810F049
:1012B0000C0F07D06868C0F38100022809D1686864
:1012C000C00306D42868800714D52069012808D1F6
:1012D00010E02069B0B1C6F80090FFF701F90746A9
:1012E00005E00AE1FFF7FCF8C01B0228C4D8286813
:1012F0008007F7D52868616920F0F80040EAC1004E
:1013000028600DE0C6F80080FFF7EAF8074604E021
:10131000FFF7E6F8C01B022823D828688007F7D417
:10132000207800072CD57948A169D9B1C0F8009080
:10133000FFF7D6F8074604E0FFF7D2F8C01B0228F3
:101340000FD8686A8007F7D571484FF4FA510068E2
:10135000B0FBF1F0009000BF0098411E0091FAD25E
:101360000EE080E0C0F80080FFF7BAF8074604E01E
:10137000FFF7B6F8C01B022875D8686A8007F7D453
:101380002078400760D5E8690027C00008D4E869E4
:1013900040F08050E861E869012700F0805000903B
:1013A0005C480168C90513D40168834641F4807123
:1013B0000160FFF795F8824606E000BFFFF790F85E
:1013C000A0EB0A0064284ED8DBF80000C005F5D574
:1013D000E06801280AD008B1052813D0286A20F057
:1013E00001002862286A20F0040002E0286A40F028
:1013F00001002862E06841F2883B98B1FFF770F87D
:1014000082460BE0286A40F004002862EEE700BF45
:10141000FFF766F8A0EB0A0159455AD8286A8007F9
:10142000F6D50CE0FFF75CF8824605E0FFF758F8C8
:10143000A0EB0A0159454CD8286A8007F6D41FB1A1
:10144000E86920F08050E861E06988B36968C1F319
:101450008101022944D00228C6F8608004D0FFF739
:101460003FF8044638E034E0FFF73AF8074604E076
:10147000FFF736F8C01B02282BD828688001F7D464
:10148000206AB0F5803F05D16868A16820F400307B
:1014900008436860D4E908010843696821F47411BD
:1014A00008436860C6F86090FFF71AF8044606E043
:1014B00025E000BFFFF714F8001B022809D82868B0
:1014C0008001F7D51BE000BFFFF70AF8001B0228D8
:1014D00002D90320BDE8F88F28688001F4D40EE01B
:1014E0000128F7D06868226A00F48031914204D163
:1014F000616A00F47010884201D00120EAE7002000
:10150000E8E700000010024000004242800442422E
:101510006C0000200070004010B5401EB0F1807FCC
:1015200001D3012010BD4FF0E02460610F2160174E
:1015300001F0EAFD0020A06107202061002010BD1D
:10154000FEE70000F0B500230A24302537261F46A9
:1015500011E000BFB4EB107F02D905EB107C01E075
:1015600006EB107C01F813C001EB430C00015B1C7F
:101570008CF80170DBB29342ECD3F0BD094808B59A
:10158000816941F004018161816901F004010091E8
:10159000816941F008018161806900F008000090D4
:1015A00008BD00000010024010B500220F4910488D
:1015B00000F016FD08B1FEF77EFF0E490C4800F062
:1015C000F3FE08B1FEF777FF0B49094800F014FB62
:1015D00008B1FEF770FF064800F03CFF002803D07A
:1015E000BDE81040FEF767BF10BD000000000020FE
:1015F000E80100204C01002050000020FEE7FEE73B
:101600002DE9F84F044640F68F7B48F60F794FF4EA
:1016100080684FF0000AC0E1B0F8441011F00F05E7
:1016200039D030F8256031047ED530F8251001EA34
:101630000B0141F0800120F8251005EB850004EB3B
:10164000C00797F8740107F5B47700286DD0F878D3
:1016500002286BD03978226832F8210048F68F735F
:10166000184048F2C003184322F821003978206856
:1016700030F82120B0F8503052047DD5022202EB20
:10168000C1015A1808EB4201415A8905890D0091A0
:1016900073D03A89DFE0C9062DD4018801EA090137
:1016A00041F400410180206804F12805B0F8503071
:1016B0002978022202EBC1015A1808EB4201405A74
:1016C000C0F309006064E16B0844E0630021204638
:1016D000FEF7C3FF94F8240000289CD0A8690028D6
:1016E00099D194F82400216840F08000A1F84C00C2
:1016F00084F824A051E1018804F5B4750A0521D5C8
:10170000B0F850202B78062101EBC3010A4408EB06
:101710004201405A04F52C71C0F30903EB61EA88D9
:10172000206801F0BFFC02E0B0E070E080E02068DB
:10173000018801EA0B0141F0800101802046FFF79A
:10174000F6FB2AE10904D5D5018801EA0B0141F035
:10175000800101802068B0F850202B78062101EB31
:10176000C3010A4408EB4201405A83059B0DEB611B
:1017700010D0696971B101E061E05FE0EA8820683A
:1017800001F090FCE969686908446861002120461D
:10179000FEF76CFF216808880205ABD4C0F3013066
:1017A0000328A7D0B1F850000844B0F80C14C1F3D6
:1017B0000901A0F80C142A6900F20C403E2A09D94C
:1017C0005109D20600D1491E02884FF4004343EA72
:1017D000812109E0B2B15108D20700D0491C02882A
:1017E0004FF6FF7303EA81210A43028021680888CB
:1017F0004BF68F72104080F4405048F28002104344
:101800000880CAE0018841F400410180EEE72068C9
:10181000B0F850203B78062101EBC3010A4408EBE5
:101820004201415A8905890D009118D0FA8812E0C9
:10183000324639462046FEF777FF00900FE0062239
:1018400002EBC1015A1808EB4201415A8905890D82
:10185000009104D07A897969009B01F023FCF86932
:1018600000990844F8617969009808447861B8697A
:1018700018B139690098814204D939782046FEF7B9
:10188000F5FE03E03946206801F088F930062FD5CF
:1018900005EB850004EBC001206830F8252002EA42
:1018A000090242F4004220F8252091F82B0028314B
:1018B00001281ED0F0056CD42068B0F850300D78A7
:1018C000022202EBC5021A4408EB4202805A8A69DE
:1018D000C0F30900824255D9121A8A6154D04A696C
:1018E00002444A61CA691044C861206801F056F98F
:1018F00053E0C1F818A0087B524608B3700620D503
:10190000487810B1012812D03AE02068B0F8502091
:1019100010440A7800EB0210B0F80424C2F3090264
:10192000A0F80424B0F8042442F4004206E0206841
:10193000B0F8503018440B7800EB0310A0F80424E2
:101940001EE04B78206813B1012B11D018E0B0F8DD
:10195000502010440A7800EB0210B0F80C24C2F3B7
:101960000902A0F80C24B0F80C2442F4004205E06F
:10197000B0F8503018440B7800EB0310A0F80C249A
:10198000097802E0C1F818A0E9B22046FEF765FE2A
:1019900003E032462046FEF73AFF2068B0F84410D4
:1019A00009043FF539AE0020BDE8F88F7047704755
:1019B000FEF79CBD30B595B028216846FEF7ABFC1C
:1019C00014210AA8FEF7A7FC18210FA8FEF7A3FC14
:1019D00001210804CDE9001000240294022504919D
:1019E000CDE907504FF4E01009906846FFF704FC7A
:1019F00008B172B6FEE70F20CDE90A054FF480600A
:101A0000CDE90C4002210AA80E94FFF739FB08B17A
:101A100072B6FEE7102014940F900FA8FFF7BAFAE1
:101A2000002801D072B6FEE715B030BD70472DE931
:101A3000F041D0F8C032D0F8B822CAB101EB81052C
:101A400000EB85040026E7693FB103EBC5039B6B00
:101A5000B7FBF3F503FB157323B1C2F81462002042
:101A6000BDE8F08100231A46E66100F080FCF6E74D
:101A70000220F5E770B50546D0F8B84200F07BFBD0
:101A8000C4F80C02D5F8B80248B1D5F8BC12D4F8A5
:101A90000402CA6804F503719047002070BD02205B
:101AA00070BD70B504460026812100F0B7FA00250C
:101AB00001212046E56200F0B1FA82212046C4F8F7
:101AC0006C5100F0ABFA2564D4F8B80248B1D4F8F0
:101AD000BC0204F52E7440688047206800F017FEB1
:101AE0002560304670BD10B5D0E9AE4159B194F8CB
:101AF0000002FF2807D08B6894F8012221469847FE
:101B0000FF2084F80002002010BD00000A2101809F
:101B1000004870477400002043210180004870474E
:101B2000C40000204321018000487047800000204D
:101B30004321018000487047080100202DE9F04151
:101B400004460026007C4FF40077012590B3402323
:101B500002228121204600F063FB4023E56202223D
:101B60000121204600F05CFB08230322822120464D
:101B7000C4F86C5100F054FB4FF40770256400F07A
:101B8000C7FDC4F8B802F8B10546D4F8BC02006835
:101B900080470020C5F81402C5F81802207CD5F84B
:101BA000042298B140230121204600F045FB304635
:101BB000BDE8F081FFE73B4602228121204600F08C
:101BC0002FFB3B46E562CAE70126F0E73B46EAE722
:101BD00010B5D0F8B81269B1027C002AD1F80422FD
:101BE00005D04023012100F027FB002010BD4FF459
:101BF0000073F7E7022010BD02460220002902D040
:101C00000020C2F8BC127047D0F8B802C0F8041225
:101C100000207047D0F8B802C0F81022C0F80812AF
:101C2000002070472DE9FC410546D0F8B87200202D
:101C30008DF80000ADF80400064608780C4610F058
:101C4000600121D020293BD1E288AAB1000660784A
:101C500007D5D5F8BC128B6839469847E2883946D3
:101C600026E087F80002A07987F80102E288394669
:101C7000284600F06AF828E0D5F8BC126078002207
:101C80008B682146984720E0607820B10A2809D067
:101C90000B2815D110E095F89C02032810D10222E0
:101CA00001A905E095F89C02032809D101226946A3
:101CB000284600F064F808E095F89C02032804D058
:101CC0002146284600F036F802263046BDE8FC8161
:101CD00010B5D0F8B812A1B1D1F814220AB1012080
:101CE00010BD0122C1F81422D1F810220263B1F80C
:101CF000102293B2D1F80822812100F038FB002095
:101D000010BD022010BD10B5D0F8B4225268904723
:101D1000002010BD134610B50A46002100F08CFAD1
:101D2000002010BD134610B50A46002100F01FFB2D
:101D3000002010BD10B50446802100F0FDFA2046B9
:101D4000BDE81040002100F0F7BA10B50323C0F839
:101D50005C21C0F89432C0F8602113460A46002185
:101D600000F06AFA002010BD10B505210023C0F86C
:101D700094121A46194600F05FFA002010BD10B503
:101D80000223C261C0F89432026213460A4600215F
:101D900000F0EDFA002010BD10B504210023C0F8BA
:101DA00094121A46194600F0E2FA002010BD000015
:101DB00010B50A46024903A000F0E2F8004810BD41
:101DC000AC04002043444320436F6E666967000003
:101DD00012200880004870472000002010B50A46F5
:101DE000024903A000F0CCF8004810BDAC0400206C
:101DF00043444320496E7465726661636500000068
:101E000004200880004870471C00002010B50A46D6
:101E1000024903A000F0B4F8004810BDAC04002053
:101E200053544D6963726F656C656374726F6E694C
:101E30006373000010B50A46024903A000F0A0F841
:101E4000004810BDAC04002053544D333220566975
:101E5000727475616C20436F6D506F727400000076
:101E600010B51A2008800A480168001D0468001D8A
:101E70000068081809D008220649FFF763FB0549E6
:101E8000042210312046FFF75DFB0248801E10BD82
:101E9000E8F7FF1F36000020F8B504460020ADF833
:101EA000000048880D46010A082948D2DFE801F001
:101EB0004704091747473C45D4F8B012207C0A680C
:101EC00019E0207C02260028D4F8B40205D0C16AAB
:101ED00068468847014646703EE0816AF8E7C0B22E
:101EE00006282CD2DFE800F0030A1014181CD4F8DE
:101EF000B002426805E0694690471CE0D4F8B002A1
:101F00008268E2B1207CF6E7D4F8B002C268F8E754
:101F1000D4F8B0020269F4E7D4F8B0024269F0E7FD
:101F2000D4F8B0028269ECE7207C40B9D4F8B4025E
:101F3000416B6846884701460EE0207C20B1294667
:101F40002046FFF7F7FEF8BDD4F8B402016B6846EF
:101F50008847014607204870BDF8000048B1EA886C
:101F600052B1824200D90246ADF800202046FFF768
:101F700006FFE8880028E6D12046FFF70DFFF8BDF0
:101F800070B5002300281ED00446002502E06D1C19
:101F9000EDB2641C2678002EF9D1022404EB45042E
:101FA00014801278CA545B1C0322CA5400245B1CA0
:101FB00006E0CA545B1CDAB28C54521CD3B2401CEB
:101FC0000278002AF5D170BD01004FF0000004D066
:101FD000012901D0022901D0022070470120704759
:101FE00010B580B1D0F8B43213B10023C0F8B432C8
:101FF00009B1C0F8B012012180F89C12027000F003
:10200000BFF8002010BD022010BD10B5D0F8C002EE
:10201000FEF75CFBBDE81040FFF7D6BF10B5D0F867
:10202000C002FEF72DFBBDE81040FFF7CDBF2DE944
:10203000F0411746044651B1D4F8B40242691AB1CE
:1020400094F89C02032851D00220BDE8F081D4F816
:102050009432002504F11400022B03D0042B3AD053
:10206000C3B33CE0D0E903639E4207D9F11AC160D3
:102070008AB239462046FFF755FE12E08068B0FB71
:10208000F3F103FB110199B9984211D3D4F89812D6
:1020900088420DD2002211462046FFF743FEC4F8C5
:1020A000985200231A461946204600F0C5F816E05B
:1020B000D4F8B402C16829B194F89C02032801D174
:1020C000204688478021204600F036F92046FFF759
:1020D0004BFE04E0FFE78021204600F02DF994F844
:1020E000A002012804D184F8A05201E020469047C4
:1020F0000020AAE770B51546044649B1D4F8B402E9
:1021000082691AB194F89C02032830D0022070BD75
:10211000D4F8941204F5AA70032902D005291ED020
:1021200027E0D0E903218A420BD9531AC36008463D
:10213000834200D303469AB229462046FFF7EAFDC0
:1021400017E0D4F8B402016929B194F89C0203287D
:1021500001D1204688472046FFF71EFE09E00020F7
:102160000146C4F89402204600F0E6F801E020465B
:102170009047002070BDD0F8C002FEF7E4BC00001C
:1021800010B504461C481D49C0F8EC42C4F8C00212
:102190000160082141600221816000218161C161EB
:1021A0000162FEF709FE08B1FEF785F90022D4F8B6
:1021B000C0021823114604F53074FEF72FFA582395
:1021C000002280212068FEF729FAC0230022812105
:1021D0002068FEF723FA4FF488730022012120685B
:1021E000FEF71CFA4FF48073002282212068FEF76C
:1021F00015FA002010BD0000CC100020005C00404B
:102200000A0601F07F01D0F8C00201EB810100EB6A
:10221000C10002D590F82A00704790F86A01704713
:1022200010B51C461346D0F8C0022246FEF794FCB7
:10223000BDE81040FFF7C8BE10B5D0F8C002FEF7E9
:10224000B8FCBDE81040FFF7BFBE70B500220446E1
:1022500040231146FFF7E4FF40260125C4F86461DE
:102260003346002280212046C4F85851FFF7D8FF9A
:102270006662A56184F89C520020C4F894026060F4
:10228000C4F8A402D4F8B80228B1D4F8B4020021EA
:10229000426820469047002070BD90F89C120429A7
:1022A00003D190F89D1280F89C120020704710B561
:1022B00090F89C12032904D1D0F8B412C96901B175
:1022C0008847002010BD01740020704710B5D0F879
:1022D000C002FEF718FEBDE81040FFF775BE70B5EE
:1022E000044600F52A70054600F04AF80120C4F8BB
:1022F0009402B4F8AE02C4F8980294F8A80210F060
:102300001F010AD001290DD0022910D000F0800150
:10231000204600F011F8002070BD2946204600F04C
:102320009EF8F8E72946204600F0CAF9F3E7294667
:10233000204600F01DF9EEE710B5D0F8C002FEF718
:102340004FFCBDE81040FFF73FBE10B5D0F8C0020B
:10235000FEF7F4FDBDE81040FFF736BE90F89C1282
:1023600080F89D12042180F89C120020704710B55F
:10237000D0F8C002FEF76DFCBDE81040FFF724BEA8
:102380000A7802704A7842708A78CB7802EB03228E
:1023900042800A794B7902EB032282808A79C979DB
:1023A00002EB0121C18070470246002011B1C2F842
:1023B000B41270470220704710B5D0F8B42202243E
:1023C0001AB11268904700B90024204610BD0000E1
:1023D00070B50E461E4D897804462970012931D802
:1023E00094F89C0202280BD003280FD031462046D7
:1023F000FFF7A0FC29782046BDE87040FFF783BCBA
:10240000D9B10320616084F89C0209E071B1606871
:10241000884212D0C1B22046FFF775FC297861606E
:102420002046FFF7C9FF02280CD006E0022084F8FE
:102430009C0220466160FFF766FC2046BDE87040C4
:10244000FFF7AABC31462046BDE87040FFF772BCDA
:102450007000002010B5FFF778FF002010BD2DE9B7
:10246000F0410A78002612F0600208D0202A01D03C
:10247000402A70D1D0F8B422926890476DE04B7832
:10248000002201250A2B66D2DFE803F0405D655784
:10249000650805652C29FFF7FFFC5EE00446888887
:1024A000D8B9C888C8B94888802816D200F07F07F4
:1024B00094F89C02032810D084F89E723946204676
:1024C000FFF704FF2046FFF767FC1FB1022084F8E6
:1024D0009C0242E084F89C523FE020463BE0FFF73C
:1024E00077FF3AE0CB88012B35D190F89C32012B55
:1024F00004D0022B02D0032B2DD104E082600122F4
:1025000000F1080116E00122011D13E090F89C2261
:10251000012A03D0022A01D0032A1CD1CA88022A28
:1025200019D1C560D0F8A41209B10321C1600222FB
:1025300000F10C01FFF723FC0FE0498801290CD1C1
:10254000C0F8A45211E090F89C32012B08D0022B65
:1025500006D0032B04D0FFF7EDFB3046BDE8F08139
:1025600049880129F9D1C0F8A422FFF715FCF4E746
:102570002DE9F0410A46044610780027097910F049
:1025800060030AD0202B01D0402B50D1D4F8B402E4
:1025900011468368204698478FE0C0F34110012818
:1025A00006D05078D0B301282AD003283FD107E0C5
:1025B000D4F8B402114683682046BDE8F0411847BC
:1025C00094F89C02022802D0032872D10AE071B369
:1025D00080296ED02046FFF7AFFE80212046FFF70E
:1025E000ABFE6AE0508838B931B1802904D0D08878
:1025F00010B92046FFF7A0FE2046FFF7CDFB5CE0B8
:1026000094F89C020228E2D0032852D1508898BB4B
:102610004806F1D02046FFF7F8FCEDE7FFE794F815
:102620009C020026022803D0032842D112E040E099
:1026300009B180293DD1080601F07F0000EB800040
:1026400004EB800101D5143101E001F5AA710222E9
:102650000E602AE0080601F00F0000EB800004EB9A
:1026600080000AD5806920B301F07F0000EB800074
:1026700004EB800514350BE01FE0D0F85801C0B121
:1026800001F07F0000EB800004EB800505F5AA75E2
:1026900041B1802906D02046FFF7B2FD10B10120DC
:1026A000286000E02E60022229462046FFF767FBE3
:1026B00003E011462046FFF73DFB3846BDE8F081B8
:1026C00070B5054608780C4610F0600003D020284D
:1026D00001D0402816D195F89C02012803D0022889
:1026E00001D003280ED1207901280BD8D5F8B402E7
:1026F000826828469047E188014306D12846FFF7C3
:102700004BFB02E02846FFF715FB002070BD704729
:1027100000487047AC0E00202DE9F0470C780026E9
:1027200030F8243048F68F121340CA78002A78D047
:10273000012A7CD0022A02D0032A75D0012648F251
:102740008002134320F824300D7830F8253048F605
:102750008F7423402B43134320F825300D7B48F220
:10276000C00948F6BF734CF2800A4BF68F77EDB381
:10277000CD7891F800C0022D30F82C507DD048F66D
:102780008F6805EA0805154320F82C50B0F8505022
:1027900091F800C0054405EB0C15B1F808C02CF009
:1027A000010CA5F800C4B0F8505091F800C00544E1
:1027B00005EB0C15B1F80AC02CF0010CA5F808C403
:1027C0004D78002D7ED00D7830F825C05FEA4C4C56
:1027D00007D530F825C00CEA040C4CEA0A0C20F8A6
:1027E00025C091F800C030F82C5000E022E06D06C2
:1027F00006D530F82C50254045EA090520F82C5024
:10280000CC780D78012C30F8254004EA03047CD004
:1028100084F02003134320F82530C1E001E006E0F6
:1028200002E043F400738AE743F4C06387E743F4AC
:10283000806384E74D784DB3B0F850500F7805446D
:1028400005EB0715CF8827F00107A5F800740F786E
:1028500030F827506D0606D530F82750254045EA58
:10286000090520F82750CC78012C07D00C7830F8D7
:102870002410194081F0200104E064E00C7830F865
:1028800024101940114320F8241090E0B0F8503083
:102890000D78034403EB0513CD8825F00105A3F85B
:1028A0000854B0F850300D78034403EB0513B3F827
:1028B0000C54C5F30905A3F80C540D6903F20C433D
:1028C0003E2D00E045E00BD94FEA551CED0601D145
:1028D000ACF1010C1D884FF4004848EA8C2C0BE049
:1028E00035B34FEA550CED0701D00CF1010C1D88F2
:1028F0004FF6FF7808EA8C2C45EA0C051D800D7810
:1029000030F825305B0408D500E046E030F825308B
:10291000234043EA0A0320F82530097861B130F8F2
:1029200021303B4083F40053134320F821303EE034
:102930001D8845F40045E1E70188394081F44051A4
:102940001143018033E0254048F2801845EA08052C
:102950001AE791F800C030F82C506D0406D530F815
:102960002C50254045EA0A0520F82C5091F800C06B
:1029700030F82C506D0606D530F82C50254045EA2D
:10298000090520F82C500D7830F825403C4084F49F
:102990004054144320F8254070E7144320F82540A4
:1029A0000B7830F823103940114320F823103046BB
:1029B000BDE8F087002070472DE9F04391F80C80C6
:1029C0004F780A7848F6BF7C4BF68F7948F280033F
:1029D00048F2C0054CF2800648F68F74B8F1000F3B
:1029E00028D0002F30F822704FEA474748D0002FF8
:1029F00005DA30F822702740374320F822700A7831
:102A000030F822707F0605D530F8227027402F431A
:102A100020F822700D7830F825202240324320F82B
:102A200025200C7830F8242002EA0C021A4320F802
:102A300024201AE07FB130F82260760605D530F800
:102A4000226026402E4320F822600A7830F82210B7
:102A500001EA0C010EE030F822506D0405D530F883
:102A600022502540354320F822500A7830F82210B1
:102A700001EA0901194320F822100020BDE8F08383
:102A8000002F05DA30F822702740374320F82270F3
:102A90000A7830F82260760605D530F822602640A4
:102AA0002E4320F822600E7830F8262022402A4358
:102AB00020F826200C7830F8242002EA09021A4374
:102AC00020F82420C1E70020704700207047012132
:102AD00020F8401F00210180818001820846704754
:102AE00030F8401F21F43F41018000207047002052
:102AF000704730B50A7BB2BB4A7848F68F7548F20A
:102B00008004C2B10B7830F82320520607D530F884
:102B100023202A4048F2C0052A4320F82320CA78FF
:102B2000012A20D00A7830F8221048F6BF731940E5
:102B300081F0200114E00A7830F822305B0407D5D8
:102B400030F822302B404CF280052B4320F8223005
:102B50000A7830F822104BF68F73194081F44051F7
:102B6000214320F82210002030BD10B54A780978A2
:102B7000002A48F2800330F8212005D048F6BF74BF
:102B8000224082F0100204E04BF68F74224082F45F
:102B900080521A4320F82120002010BD2DE9F04773
:102BA0000D464B78097B04464FF0000948F68F72BA
:102BB00048F2800A4FF400474FF6FF78012B09D006
:102BC00000296FD0E87802286DD001286CD0012050
:102BD000BDE8F087AE692869864200D9064691B102
:102BE000E97802291ED0286A801B2862287834F8E8
:102BF00020104906B4F85010214401EB001073D5A1
:102C0000A0F80C6416E1B3B2EA882046696900F0C6
:102C100067FAB4F850002978204400EB0110A0F8BE
:102C200004640DE1296A814277D9297834F82100BA
:102C3000104048F28012104324F82100286A801BBB
:102C40002862287834F820104906697871D511B1C6
:102C500001292AD030E0B4F85010214401EB0010D3
:102C6000B0F80C14C1F30901A0F80C1400F20C40E8
:102C70003E2E07D97109F20600D1491E028847EAA3
:102C8000812107E04EB17108F20700D0491C02888B
:102C900008EA81210A4302800EE0018841F40041E4
:102CA000018009E0F1E020E195E1B4F8502011192C
:102CB00001EB0010A0F80C646A89B3B22046696980
:102CC00000F00EFA6869304468612969286A884210
:102CD00002D9801B286202E00646C5F82090687879
:102CE00018B101282BD032E02FE0B4F85000297839
:102CF000204400EB0110B0F80414C1F30901A0F85E
:102D0000041400F204403E2E08D97109F20600D1E5
:102D1000491E028847EA812108E0A1E056B1710806
:102D2000F20700D0491C028808EA81210A43028088
:102D30000DE00EE0018841F40041018007E0B4F8A5
:102D400050002978204400EB0110A0F804642A897F
:102D500071E011B1012927D02DE0B4F850102144C1
:102D600001EB0010B0F80414C1F30901A0F8041439
:102D700000F204403E2E07D97109F20600D1491E27
:102D8000028847EA812107E04EB17108F20700D0BE
:102D9000491C028808EA81210A4302800BE001886D
:102DA00041F40041018006E0B4F85010214401EBE9
:102DB0000010A0F804642A89B3B22046696900F0C3
:102DC0008FF96869304468612969286A884202D9A4
:102DD000801B286202E00646C5F82090687810B192
:102DE000012836D026E0B4F850002978204400EBC2
:102DF0000110B0F80C14C1F30901A0F80C1400F292
:102E00000C403E2E07D97109F20600D1491E0288F6
:102E100047EA812107E04EB17108F20700D0491C52
:102E2000028808EA81210A43028003E0018841F414
:102E3000004101806A89B3B22046696900F050F907
:102E4000297834F8210048F6BF72104080F0300035
:102E50000FE1B4F850100819297800EB0110CFE603
:102E60002A7834F8220048F68F63184040EA0A00B6
:102E700024F82200B4F850002A78204400EB021015
:102E80008BB2A0F804342A89D6E7A969286981425F
:102E900002D9091AA96102E00846C5F81890B4F8E9
:102EA00050102A78214401EB0211B1F80C24C2F32E
:102EB0000902A1F80C2401F20C413E287DD94209F7
:102EC000C00600D1521E088847EA82220AE008881C
:102ED00040F4004007E04208C00700D0521C0888B8
:102EE00008EA822210430880BBE033BBB4F85000EC
:102EF0002978204400EB0110B0F80414C1F3090153
:102F0000A0F80414296900F204403E2907D94B09AE
:102F1000C90600D15B1E018847EA832307E041B15F
:102F20004B08C90700D05B1C018808EA83231943BA
:102F300002E0018841F400410180687810B1012865
:102F400028D030E0B4F850002978204400EB01107C
:102F5000B0F80C14C1F30901A0F80C14296900F2AF
:102F60000C403E2907D94B09C90600D15B1E0188D8
:102F700047EA832307E041B14B08C90700D05B1C37
:102F8000018808EA8323194302E0018841F40041E3
:102F9000018008E0B4F850100819297800EB0110FE
:102FA000298AA0F80C14E869C0B3297834F8210004
:102FB000430401D5430605D400E046E044F2400353
:102FC00018424ED134F82100104048F2C00210439C
:102FD00024F8210045E0A9692869814202D9091A2B
:102FE000A96102E00846C5F8189013BBB4F8501068
:102FF0002A78214401EB0211B1F80424C2F309023A
:10300000A1F8042401F204413E2808D94209C3066C
:1030100000D1521E0B8847EA822208E021E078B1F5
:103020004208C30700D0521C0B8808EA82221343CF
:103030000B80697800293FF42EAF012909D010E0F8
:103040000A8842F400420A80F3E700287FF443AF85
:103050003DE7B4F8502011192A7801EB0211A1F8CC
:103060000C04297834F821004BF68F72104080F45C
:10307000405040EA0A0024F821000020A8E5002181
:10308000A0F844104FF43F41A0F8401000207047D2
:103090000148FDF7F7BD0000CC100020B0F8440057
:1030A0007047000010B500EB42005C0800F580603E
:1030B00009D000BF30F8042B01F8012B120A01F8E7
:1030C000012B641EF6D1DA0701D00088087010BD0C
:1030D0000020704711B98021A0F84C1000207047E3
:1030E00010B55B1C00EB42005B0800F5806009D066
:1030F00011F8012B11F8014B42EA042220F8042BAD
:103100005B1EF5D110BDFEE70907090E002804DBA0
:1031100000F1E02080F80014704700F00F0000F18B
:10312000E02080F8141D7047FDF7E8F9FEF742FC37
:10313000FEF724FAFEF738FA08A10B48FDF786F8E7
:103140004FF4FA740848FDF795F881B20648FDF788
:103150009BF92046FDF7B2F9F4E7000048656C6C76
:103160006F20576F726C640084010020010202031B
:103170000405060708090A0B0C0D0E0F10100000BD
:103180000000000000000102030406070809000017
:10319000B031000800000020840100006C0100082C
:1031A00070320008840100209C180000C80100084B
:1031B00013D11D1408011E1B080D041A35041A61D1
:1031C000041AB1141ADD04170403090412011402CD
:1031D0000202164083044057260201020301031A2B
:1031E0001A03134D041B0849041A45041A710419E3
:1031F0002F1182105324F4130A0632022A401C1C99
:10320000090243571125C03209041B01020B1305A3
:1032100024161001052401100901042402020524CA
:1032200006170107058203081C1009048D320A1DC8
:1032300007050102432C070581070938442A400786
:103240002A8107112B0907440A3B0444133D1B1430
:1032500008A31A1408251C42081AE70C1A2F041A8E
:103260007504C11A25281A19041A31041A0D04000C
:0400000508000131BD
:00000001FF
