:020000040800F2
:10000000580A0020050100082B250008AF2300082E
:1000100029250008B9110008252D0008000000005E
:10002000000000000000000000000000B5250008EE
:10003000FD1200080000000051250008712800088A
:100040001F0100081F0100081F0100081F01000810
:100050001F010008532500081F0100081F010008A8
:100060001F0100081F0100081F0100081F010008F0
:100070001F0100081F0100081F0100081F010008E0
:100080001F0100081F0100081F0100081F010008D0
:100090001F0100081F0100081F0100081F010008C0
:1000A0001F0100081F0100081F0100081F010008B0
:1000B0001F0100081F010008000000001F010008C8
:1000C0001F01000800000000000000001F010008E0
:1000D00000000000192D00081F01000800000000AA
:1000E0001F0100081F0100081F010008DFF810D0E1
:1000F00000F09EFE00480047353A0008AFF300804C
:10010000580A00200648804706480047FEE7FEE7F9
:10011000FEE7FEE7FEE7FEE7FEE7FEE7FEE7FEE7B7
:10012000D3280008ED000008202A04DB203A21FA39
:1001300002F00021704721FA02F3D040C2F1200200
:100140009140084319467047D2B201E000F8012BF4
:10015000491EFBD270470022F6E710B513460A4647
:1001600004461946FFF7F0FF204610BD421C10F868
:10017000011B0029FBD1801A704700000FB400B5A5
:100180008DB010A909900B9000914FF0FF300A90AC
:1001900000200C9005480690054807906A4609A87B
:1001A0000F9900F00DFD0DB05DF814FBDD0B00089C
:1001B000FB0B00082DE9FF4F087883B09946FF2814
:1001C00005D0491C2D2804D00024002008E0002080
:1001D0000BE00124F9E700EB800003EB4000491C31
:1001E0000B78FF2BF7D104B140420023029314781F
:1001F00019461D462D2C01D02B2C04D1521C2D2C20
:1002000013D000240294AA461478FF2C0FD00A259C
:10021000A3FB057801FB05814FF0000C03FB0C11DB
:10022000521CE3194AEB0101EEE70124EAE781449D
:1002300053EA010002D019F5C87F06DA03980021BD
:10024000C0E9001107B0BDE8F08F0025AE4E2F4683
:10025000DFF8B882184600F0C6FDCDE90001B9F11B
:10026000000002DAC9F1000400E004460023A74AB6
:100270001AEB030B42EB045A12E0E00707D02A46C0
:1002800033463846414600F0B4FA074688462A46C7
:1002900033461046194600F0ACFA05460E46641087
:1002A000002CEAD1DDE90001B9F1000F5A465346AE
:1002B00006DA00F010FB3A46434600F00CFB05E07E
:1002C00000F097FA3A46434600F093FA029A0AB1D0
:1002D00081F00041039AC2E90001B3E72DE9FF4F25
:1002E0001F468DB0D7E901464FF0FF382E20454616
:1002F0004FF000090B90B9696D1C0E988847396A58
:10030000824688470028F6D1BAF1FF3F0AD024F48C
:10031000D064002E11DDBAF12B0F08D0BAF12D0FE9
:100320000BD102E0404611B08DE744F48064B96916
:100330006D1C0E9888478246761E6946600501D579
:100340002D2000E02B208DF8000001F1010B0DF1B4
:10035000200809E0B9696D1C0E98884782460F98FD
:1003600044F40074761E0560002E02DDBAF1300FF1
:10037000F0D00B998A453ED144F0800406E00F99F5
:10038000681CA9F1010944F400740860B9696D1C86
:10039000761E0E98884782463028F0D02BE00B99C5
:1003A0008A4505D1200603D444F08004761E18E067
:1003B000504602F02FFE08B30DF11301761E44F4EF
:1003C00000748B4508D2AAF130000BF8010B20060F
:1003D00007D5A9F1010003E0200602D409F10100CC
:1003E0008146A00502D50F99681C0860B9696D1C8B
:1003F0000E9888478246002ED1DC53E0002E51DD56
:10040000BAF1650F02D0BAF1450F4BD1A00549D51D
:10041000B9696D1C24F44074761E0E988847824694
:10042000002E0CDD2B2804D0BAF12D0F07D144F497
:100430008074B9696D1C0E9888478246761EE00567
:1004400001D52D2100E02B2108F8011BCDF82C80CF
:1004500021E00DF12901761E44F4007488450CD288
:10046000AAF1300010F0FF0088F8000002D10B99CB
:10047000884509D908F1010806E0E00501D52448BE
:1004800001E042F20F708146B9696D1C0E988847F1
:1004900082460F980560002E04DD504602F0BAFD3A
:1004A0000028D6D1F9690E988847FF208BF8000004
:1004B00088F800000020069007904B466A4608A97D
:1004C00006A8FFF777FEA00502D46FF001002AE727
:1004D00014F0240F0AD0E00714D1DDE906123868C1
:1004E000031D3B600068C0E900120BE0DDE9060176
:1004F00000F0DCFA0146E00704D13868021D3A60DA
:100500000068016028460EE7000014400000F03F3C
:10051000F1D8FFFFF0B480EA0102D40F4200B2EB41
:10052000410F02D20246084611464A0042D0C30D8E
:10053000DDB2C1F3C752AD1A202D35DAC1F3160171
:1005400041F4000204B15242C5F1200602FA06F15C
:100550002A411044B3EBD05F23D0C4B1012DA0EBEE
:10056000C35009DCF0BC4FF0004202EAC352DBB2D8
:1005700000F5000000F05BBB400000F1807000EB74
:10058000C350A0F1807040EAD170490009E04908E9
:1005900041EAC071A0EBC35000F50000400800EB39
:1005A000C350F0BC00F03ABB6142012202EB4101B2
:1005B000001BF6E7F0BC704781F00041AAE780F02D
:1005C0000040A7E780EA010210B502F000434000B6
:1005D00022D04A001FD0010E01EB1261C0F3560079
:1005E000C2F3560240F4000042F40002A0FB0220D5
:1005F00000047F39140400D0401C50EA124001D49A
:100600004000491EC2B20C0604EBD010401C40084A
:10061000802A02D003E0002010BD20F00100002954
:1006200000DA0020184310BD30B480EA010202F065
:10063000004530F0004221F0004013D090B1C30DCE
:10064000D40DC2F31601C0F31600E41A41F4000100
:1006500040F400027D34914201D3641C00E0490063
:10066000002C02DA30BC002070474FF40000002359
:10067000914201D3891A034340084FEA4101F7D15F
:1006800051B1914202D14FF0004105E002D24FF04A
:10069000010101E06FF0010103EBC450284430BCBC
:1006A00000F0BCBA2DE9FE4F804681EA0300C00F7E
:1006B0000C46009021F0004123F00045B8EB020009
:1006C000A94105D24046214690461C460B460246AB
:1006D00023F00040104347D0270DC7F30A00C3F3AF
:1006E0000A510290401A019040286BDAC3F31300BC
:1006F00040F4801B0098924620B10023D2EB030AFD
:1007000063EB0B0B01985946C0F14002504600F0D4
:1007100030FA06460D4650465946019A00F038FA1E
:1007200010EB08006141002487EA115284EAE77364
:100730001A4340D0009A62B3019A012A4FEA075245
:1007400015DC001B61EB02014FF0004202EA075288
:10075000CDE90042001C41F5801132462B4600F0E5
:10076000A3FA03B0BDE8F08F40462146F9E7001B2D
:1007700061EB0201001C41F5801300185B41201859
:10078000A2F5001747EB030140EAD570B6196D4199
:1007900011E06D084FEA360645EAC0754FEA075288
:1007A000001B61EB0201001C41F5801149084FEA72
:1007B00030000019514132462B4603B0BDE8F04FDE
:1007C00000F063BA0098012240000023D0EB02023F
:1007D00063EBE073009821464FEAE074B8EB000049
:1007E00061EB0401E9E783F000435BE781F000413E
:1007F00058E72DE9FE4F81EA030404F0004421F09C
:10080000004100944FF0000B23F0004350EA010434
:100810005ED052EA03045BD0C3F30A54C1F30A5515
:100820002C44A4F2F3340194A0FB0254C1F313014D
:1008300041F48011C3F3130343F4801301FB02441A
:1008400000FB034E840A970A44EA815447EA83571F
:10085000A4FB076802958D0A05FB07854FEA932CD8
:1008600004FB0C542705029D4FEA065847EA163749
:10087000B5EB08056EEB070C870E920E47EA811761
:1008800042EA8312A7FB0201B6EB0B0164EB000402
:100890002B0D43EA0C335E1844EB1C50DA465146EC
:1008A000E7FB0201C5F313044FEA0B3343EA145389
:1008B0004FEA0432019C43EA0603A4F10C040294BB
:1008C000009CCDE900B400F0EFF903B0BDE8F08F73
:1008D00000200146F9E72DE9F04D81EA030404F018
:1008E000004B21F0004514464FF0000A23F0004170
:1008F00050EA050220D054EA01021DD0C5F30A5780
:100900000246C5F31303C1F31300C1F30A5640F4C2
:10091000801543F48013A7EB0608101BD64608F297
:10092000FD3873EB050002D308F1010801E09218CD
:100930005B41B8F1000F03DA00200146BDE8F08DFD
:1009400000204FF48011064684460EE0171B73EB1F
:10095000050705D3121B63EB050306434CEA010CA4
:1009600049084FEA300092185B4150EA0107EDD187
:1009700052EA030012D082EA040083EA0501084328
:1009800005D0101BAB4106D20122002306E0002255
:100990004FF0004302E06FF0010253101AEB060023
:1009A0004CEB085110EB0A0041EB0B01BDE8F04D98
:1009B00000F06BB970B521F0004303430CD0C1F3D4
:1009C0000A550024D5EB040564EB0403D617AD1AD1
:1009D000B34102DB0020014670BD201841EB0251FB
:1009E00070BDC10F80EAE0700844CA079623002159
:1009F00000F01DB900F0004220F00040C10DC0F32E
:100A0000160040F400007F2901DA00207047962983
:100A100003DCC1F19601C84001E096398840002A04
:100A2000F4D04042704700F0004230F000400AD05D
:100A3000C10D01F56071C0F3160042EA0151C20810
:100A400040071143704700200146704730B5041E2F
:100A500071F1000404DB4FF00044404264EB0101FB
:100A6000141E73F1000405DB1C464FF00043524294
:100A700063EB04038B4208BF824230BD30B5041ED5
:100A800071F1000404DB4FF00044404264EB0101CB
:100A9000141E73F1000405DB1C464FF00043524264
:100AA00063EB0403994208BF904230BD01F000435C
:100AB00030B421F0004150EA010206D00A0DA2F53F
:100AC0006072C1F31301002A02DC30BC00207047C1
:100AD000440F44EAC104C100E01830BC00EBC2502E
:100AE00000F09CB830B50B460146002020220124BE
:100AF00009E021FA02F59D4205D303FA02F5491BEC
:100B000004FA02F52844151EA2F10102F1DC30BD01
:100B10002DE9F05F0546002092469B468846064632
:100B2000814640241BE02846414647462246FFF7BF
:100B3000FBFA53465A46C01A914110D31146184643
:100B4000224600F016F82D1A67EB01084F462246A0
:100B50000120002100F00DF817EB00094E41201E86
:100B6000A4F10104DFDC484631462A464346BDE88D
:100B7000F09F202A04DB203A00FA02F1002070479F
:100B80009140C2F1200320FA03F3194390407047CB
:100B9000202A06DBCB17203A41FA02F043EAE07341
:100BA00006E041FA02F3D040C2F12002914008432E
:100BB000194670470268114413780160184670475F
:100BC000D16004495161044911620021116111464B
:100BD00000F046B9B50B0008550E0008426842B156
:100BE000016811F8013B23B1521EC0E900121846FA
:100BF00070470121C160881E704742685AB1C368BE
:100C0000016843B983688B4205D0491E521CC0E974
:100C10000012002070474FF0FF3070470029A8BF36
:100C20007047401C490008BF20F00100704710B415
:100C3000B0FA80FC00FA0CF050EA010404BF10BCCA
:100C4000704749B1CCF1200421FA04F411FA0CF1F7
:100C500018BF012121430843A3EB0C01CB1D4FEA30
:100C600000614FEA102042BF002010BC704700EB2B
:100C7000C35010440029A4BF10BC7047401C490059
:100C800008BF20F0010010BC704710B5141E73F1AE
:100C9000000408DA401C41F1000192185B411A433C
:100CA00001D120F0010010BD2DE9F04D92469B4688
:100CB00011B1B1FA81F202E0B0FA80F2203290462E
:100CC000FFF757FF04460F4640EA0A0041EA0B01CE
:100CD00053465A46084313D0114653EA010019D02F
:100CE000C8F140025046FFF71FFA05460E4650462F
:100CF00059464246FFF73DFF084305D0012004E076
:100D000020463946BDE8F08D0020054346EAE076EE
:100D10002C4337430A986305E40AA0EB080000223D
:100D2000FD0A44EA47540A3002D500200146E9E7AB
:100D3000010510196941DDE9084500196941BDE85F
:100D4000F04DA2E72DE9F04D00231A461B1A8A4107
:100D500003DB00200146BDE8F08DC1F30A52C1F368
:100D6000130141F480154FF0000BD10702D1001898
:100D70006D41521E0027044640F2FF11384601EB38
:100D8000620A3E468046024600204FF48011FFF77B
:100D9000CBF9C2197141BB1846EB0100B4EB030C4F
:100DA00075EB000C04D3E41A65EB000517460E46FC
:100DB000241908F101006D4180463428E3DDF9195A
:100DC00046EB0600091BA84103D24FF0FF32134641
:100DD00001E0002213461BEB070046EB0A51BDE879
:100DE000F04DFFF752BF0EB540F23342029200229F
:100DF000CDE900221346FFF757FF03B000BDC1F352
:100E00000A52C1F3130140F2FF3341F480119A42B8
:100E100002DA00200146704740F233439A42A2F2C0
:100E2000334202DC5242FFF77FB9FFF7A2BE000057
:100E3000064C074D06E0E06840F0010394E8070027
:100E400098471034AC42F6D3FFF754F9E03C000861
:100E5000003D0008C0B24FF4F05100F099B9000015
:100E60002DE9F34F8BB04FF0000801F10C000C4658
:100E70004FF0010B46460DF1080A0190626901210D
:100E800001989047051E2DD0252D2CD0216A88472A
:100E9000C0B16269012101989047216A8847002802
:100EA000F7D1411E62690198904700E0761CA16964
:100EB0000B988847216A88470028F7D1E1690B9889
:100EC0008847DBE7A1690B9888470746A84201D10C
:100ED000761CD3E7E1690B9888477F1C02D1B8F1F3
:100EE000000F6FD047E1002762693D4639460198FF
:100EF00090472A2804D16269012101989047012571
:100F0000DFF888926269012101989047A0F13001D1
:100F10000A290AD24F45E5DC07EB870100EB4107C0
:100F2000303FDFD445F01005ECE7E90601D46FF05F
:100F300000476C280AD04C2814D0682815D06A289D
:100F40000DD074281CD07A281AD01DE062690121C6
:100F5000019890476C2802D045F0040514E045F054
:100F600002050DE045F020050AE0626901210198C3
:100F70009047682802D045F0080505E045F4006573
:100F80006269012101989047C4E9015765283DD065
:100F900019DC58287AD00CDC452837D004DC252809
:100FA00026D0412831D131E046282FD047282CD1F6
:100FB0002CE05B2877D0612828D063287CD0642877
:100FC00023D15AE0D1E06F2848D008DC66281DD034
:100FD00067281BD0692821D06E2816D127E07028F9
:100FE00045D0732868D0752847D078280DD14DE0BA
:100FF000A1690B988847054625283FF469AFE16948
:101000000B9888476D1C3FF46AAFB4E023466A46EC
:101010006FF001000B99FFF761F99FE045F0400088
:101020006060A80723464FF0000236D43EE0E80790
:101030007FF447AF2068011D21600068290501D5B4
:1010400006701BE7290701D5068017E7A90703D516
:10105000F117C0E9006111E706600FE745F04000B5
:101060006060A80723464FF0080216D41EE040F641
:101070000E0125EA0100606016E045F04000606066
:10108000A80723464FF00A0207D40FE045F04000BE
:101090006060A80708D5234610226FF001000B9965
:1010A000AFF300805AE007E0234610226FF0010002
:1010B0000B99AFF3008051E04FF000094F464B46CB
:1010C000632802D05B2807D041E02079C00601D414
:1010D0000120A06001273AE0626901210198904750
:1010E0005E2805D14FF00109626949460198904791
:1010F000216939B900210A46534643F82120491C89
:101100000829FADBB0B3216969B9C11700EBD162D4
:1011100053110AEB830122F01F02821A01200B688F
:10112000904003430B6062690121019890475D285C
:10113000E8D1B9F1000F09D00020514651F8202024
:10114000D24341F82020401C0828F7DB02AB22469E
:1011500000976FF001000B99AFF3008000280CDAC4
:10116000401C08D1BBF1000F05D04FF0FF300DB08F
:10117000BDE8F08FFFE74046F9E7E90701D108F144
:10118000010806444FF0000B78E60000CCCCCC0CF4
:101190007F2801D9002208E0064A02EB5002C0076E
:1011A000127800D1120902F00F020120904008408D
:1011B00070470000A03C0008FEE700002DE9FF4F4B
:1011C00097B014461D4681F00040FFF72CFC064600
:1011D0000F462046FFF727FC8046894685F00040F1
:1011E000FFF721FC0D4687F0004104460F91B346FE
:1011F0003D4A3E4B40464946FFF7F5FACDE90C0122
:101200004FF0FF3240464946FFF7D4FB8146384A4B
:10121000384B0391FFF7EDFACDE904018246884689
:101220004FF0FF3230463946FFF7C4FB06465246C0
:1012300043460191FFF736FACDE908014F463046A3
:101240002B4A2C4BDDF80CA00199FFF7D2FA3A4655
:101250005346FFF7C8FA244A244BFFF7C4FACDE9F6
:101260000601DDE904210B4630460199FFF7BBFA80
:101270008A46049030461E4A1F4BDDF80C800199C7
:10128000FFF7B7FA43463A46FFF7ADFA164A174B4F
:10129000FFF7A9FADDE90C2380460F46CDE90045AA
:1012A00058460F9901F0EEF9FFF700FC8146CDE9B1
:1012B0000045DDE90801DDE9062301F0E3F9FFF768
:1012C000F5FB064642463B46CDE9004551460498AB
:1012D00001F0D8F9FFF7EAFB179AC2F80090C2E9CB
:1012E00001601BB0BDE8F08FD70DDFA8763C32401F
:1012F000AA4C58E87AB6FB3F7AB6FBBF704772B685
:10130000FEE710B590F821100022022905D0042133
:10131000816380F82020012010BD01680B6823F054
:101320000E030B6001680B6823F001030B6090F85B
:101330004030C46B012101FA03F3636080F821108F
:1013400080F82020104610BD10B590F82110002420
:10135000022903D00421816301243DE001680A6869
:1013600022F00E020A6001680A6822F001020A6097
:101370001A4A0168914201D1012121E0174A143231
:10138000914201D110211BE0144A2832914201D12F
:10139000891515E0114A3C32914201D189140FE0C0
:1013A0000E4A5032914202D14FF4803108E00B4A8C
:1013B0006432914202D14FF4801101E04FF080710C
:1013C000064A083A5160012180F82110002180F876
:1013D0002010416B01B18847204610BD0800024033
:1013E00070B5044600F0F4F80546601C02D00448CD
:1013F0000078044400F0ECF8401BA042FAD370BD22
:10140000240000202DE9F84FDFF89C910024A9F179
:10141000040B23460F2709F1040AABF1040EBBE0CD
:101420000125A5402A40AA4276D1DFF880C14E6846
:10143000A6EB0C0866452BD00DDC032E34D005DC62
:1014400036B3012E19D0022E2FD11BE0112E16D04B
:10145000122E2AD119E0B8F5881F19D006DCB8F58C
:10146000803F15D0B8F5801F1FD111E0B8F5001FDF
:101470000ED0B8F5041F18D10AE0CB6815E0CB6890
:101480001B1D12E0CB6808330FE0CB680C330CE077
:101490008B682BB1012B4FF0080303D0456104E0AA
:1014A000042302E0056100E00023FF2A01D806467C
:1014B00001E000F104064FEA840501D9A5F12005F9
:1014C000D6F8008007FA05FC28EA0C0803FA05F5AF
:1014D00048EA0508C6F800804D68ED005BD5344D3C
:1014E000AE6946F00106AE61AD6924F0030605F071
:1014F000010500952F4D06EB050CDCF80850A607FA
:10150000360F07FA06F825EA0805DFF8AC804045F3
:1015100003D14FF0000810E03DE0DFF8A080404527
:1015200002D14FF0010808E0DFF89480404502D175
:101530004FF0020801E04FF0030808FA06F848EA05
:101540000508CCF808804D68D9F80060ED024D46DA
:1015500001D5164300E096432E604D68DAF800602E
:10156000AD02554601D5164300E096432E604D6806
:10157000DBF80060AD035D4601D5164300E09643FD
:101580002E604D68DEF80060ED03754601D5164308
:1015900000E096432E60641C0A6832FA04F57FF47A
:1015A0003FAFBDE8F88F00000804014000001110B3
:1015B000001002400000014000080140000C014002
:1015C000001001400AB1016170470904FBE7000007
:1015D00001488068704700002400002002488168AC
:1015E000027811448160704724000020074810B53C
:1015F000016841F010010160032000F07DF80F2028
:1016000000F006F800F024F8002010BD0020024091
:1016100070B50D4D04464FF47A712878B1FBF0F0A7
:101620000A490968B1FBF0F000F0E4FA48B9102C5F
:1016300007D200222146501E00F03EF800206C60C8
:1016400070BD012070BD00002400002000000020BB
:10165000104808B5816941F001018161816901F09B
:1016600001010091C16941F08051C161C06900224E
:1016700000F0805000901146052000F01DF8052074
:1016800000F00CF80448416821F0E06141F000717D
:10169000416008BD0010024000000140002809DB45
:1016A00000F01F02012191404009800000F1E0207C
:1016B000C0F8001170470000F0B40E4B1B680C46D8
:1016C000C3F30223C3F10705042D00D90425191D16
:1016D000072901D2002300E0DB1E012606FA05F1EE
:1016E000491E214099409E40761E16403143F0BC71
:1016F00001F048BB0CED00E0064900F00702086865
:101700004FF6FF03184040EA0220034A10430860E6
:10171000704700000CED00E00000FA052DE9F047ED
:101720000F46050061D0434E306800F00700B84214
:1017300009D2306820F0070038433060306800F08C
:101740000700B84251D128683B4C810712D54007A9
:1017500003D5606840F4E06060602878000703D536
:10176000606840F4605060606068A96820F0F00034
:10177000084360602878C00728D06868012810D026
:101780002168022810D0890700292EDA616821F02B
:10179000030101436160FFF71BFF804641F2883976
:1017A0000DE021688903EFE78901EDE7FFF710FFFE
:1017B000A0EB0801494502D90320BDE8F087606825
:1017C000696800F00C00B0EB810FEFD1306800F0D9
:1017D0000700B8420BD9306820F00700384330606A
:1017E000306800F00700B84201D00120E5E7287812
:1017F000400705D56068E96820F4E0600843606050
:101800002878000706D56068296920F4605040EA0E
:10181000C100606000F038F86168084AC1F3031144
:10182000515CC8400649086006480068FFF7F0FEB2
:101830000020C2E70020024000100240D83B000810
:10184000000000202800002004480549006849687D
:10185000044AC1F30221515CC840704700000020D7
:1018600000100240E83B0008044805490068496848
:10187000044AC1F3C221515CC840704700000020F7
:1018800000100240E83B00080E4A51680E4801F083
:101890000C03042B11D0082B0FD10C48C1F3834348
:1018A000C903C05C0AD55168084AC1F34041921E81
:1018B000515C054A5043B0FBF1F07047044948437E
:1018C000704700000010024000127A00F23B00084E
:1018D00000093D002DE9F84F040070D02078C04D7C
:1018E000C00749D06868C0F38100012807D0686844
:1018F000C0F38100022809D16868C00306D52868B2
:10190000800339D560680028E7D035E06068B0F51D
:10191000803F0BD010B1B0F5A02F11D0286820F473
:1019200080302860286820F4802002E0286840F495
:1019300080302860606890B1FFF74AFE06460AE0F2
:10194000286840F480202860F0E700BFFFF740FEE1
:10195000801B642873D828688003F7D50CE0FFF754
:1019600037FE064605E000BFFFF732FE801B642805
:10197000F0D828688003F7D420789A4E80074FF07B
:1019800001094FF0000839D5686810F00C0F07D036
:101990006868C0F38100022809D16868C00306D4D2
:1019A0002868800714D52069012808D110E0206933
:1019B000B0B1C6F80090FFF70BFE074605E00AE15C
:1019C000FFF706FEC01B0228C4D828688007F7D599
:1019D0002868616920F0F80040EAC10028600DE045
:1019E000C6F80080FFF7F4FD074604E0FFF7F0FDBE
:1019F000C01B022823D828688007F7D42078000766
:101A00002CD57948A169D9B1C0F80090FFF7E0FD65
:101A1000074604E0FFF7DCFDC01B02280FD8686A08
:101A20008007F7D571484FF4FA510068B0FBF1F028
:101A3000009000BF0098411E0091FAD20EE080E0B5
:101A4000C0F80080FFF7C4FD074604E0FFF7C0FDC3
:101A5000C01B022875D8686A8007F7D42078400731
:101A600060D5E8690027C00008D4E86940F08050DC
:101A7000E861E869012700F0805000905C48016847
:101A8000C90513D40168834641F480710160FFF7F2
:101A90009FFD824606E000BFFFF79AFDA0EB0A001B
:101AA00064284ED8DBF80000C005F5D5E0680128B1
:101AB0000AD008B1052813D0286A20F00100286256
:101AC000286A20F0040002E0286A40F00100286241
:101AD000E06841F2883B98B1FFF77AFD82460BE05F
:101AE000286A40F004002862EEE700BFFFF770FDAF
:101AF000A0EB0A0159455AD8286A8007F6D50CE0B0
:101B0000FFF766FD824605E0FFF762FDA0EB0A01E4
:101B100059454CD8286A8007F6D41FB1E86920F0EF
:101B20008050E861E06988B36968C1F381010229E6
:101B300044D00228C6F8608004D0FFF749FD04466F
:101B400038E034E0FFF744FD074604E0FFF740FDCE
:101B5000C01B02282BD828688001F7D4206AB0F572
:101B6000803F05D16868A16820F4003008436860B0
:101B7000D4E908010843696821F4741108436860D6
:101B8000C6F86090FFF724FD044606E025E000BF9C
:101B9000FFF71EFD001B022809D828688001F7D531
:101BA0001BE000BFFFF714FD001B022802D9032031
:101BB000BDE8F88F28688001F4D40EE00128F7D042
:101BC0006868226A00F48031914204D1616A00F4AD
:101BD0007010884201D00120EAE70020E8E7000009
:101BE00000100240000042428004424200000020F7
:101BF0000070004010B5401EB0F1807F01D301207D
:101C000010BD4FF0E02460610F21601701F0BAF8B9
:101C10000020A06107202061002010BD10B590F8C1
:101C20003C20012A22D0012280F83C20CA688C681E
:101C300022F4407222434C6822F4806222430C68F2
:101C400022F4006222430C6922F4805222434C6940
:101C500022F400522243C969002322F480420A433D
:101C600001684A6480F83C30002010BD022010BD9D
:101C700070B590F83C20012A23D0012480F83C4024
:101C8000022280F83D2003685A689D6822F07006A1
:101C90000A6832435A600C4B02689A4205D0B2F18E
:101CA000804F02D0094B9A4204D1496825F0800345
:101CB0001943916080F83D40002180F83C100846AF
:101CC00070BD022070BD0000002C014000040040E7
:101CD00000B585B000210091019102910391006847
:101CE0000B49884212D10B48816941F0040181619E
:101CF0008069694600F0040004904FF4E0600090B1
:101D00000220019003900448FFF77CFB05B000BD62
:101D1000002C0140001002400008014070B504464C
:101D200090F83C0000260D4601280FD0012084F8D1
:101D30003C006AB1042A1DD0082A2FD00C2A3FD0BB
:101D40000126002084F83C00304670BD022070BDA2
:101D5000206800F0FBFD2068816941F00801816185
:101D60002068816921F004018161206881692A6904
:101D7000114311E0206800F011FE2068816941F4F0
:101D8000006181612068816921F48061816120683E
:101D900081692A6941EA02218161D2E7206800F065
:101DA00029FE2068C16941F00801C1612068C1694C
:101DB00021F00401C1612068C1692A69114311E061
:101DC000206800F043FE2068C16941F40061C161F0
:101DD0002068C16921F48061C1612068C1692A69F4
:101DE00041EA0221C161ACE710B5040003D094F8C8
:101DF0003D0010B107E0012010BD002084F83C0038
:101E0000204600F01FF8022084F83D00211D2068C4
:101E100000F060FD012084F8460084F83E0084F85C
:101E20003F0084F8400084F8410084F8420084F8C0
:101E3000430084F8440084F8450084F83D00002005
:101E400010BD000008B500680649884208D1064860
:101E5000816941F400618161806900F40060009053
:101E600008BD0000002C01400010024010B50446DF
:101E7000022249B104290ED0082913D094F8410058
:101E8000012816D0012010BD94F83E000128F9D198
:101E900084F83E200FE094F83F000128F2D184F846
:101EA0003F2008E094F840000128EBD184F840205E
:101EB00001E084F841200122206800F039FD0E493C
:101EC0002068884203D1426C42F400424264206898
:101ED000884205D0B0F1804F02D00849884204D131
:101EE000816801F00701062903D0016841F0010172
:101EF0000160002010BD0000002C014000040040E3
:101F0000406B704718B5034690F84200202801D076
:101F1000022018BD61B15AB1012018630020586336
:101F2000184600F0A1FE0028F3D1196B012901D059
:101F3000012018BD19680A684968009119680C31B8
:101F400051E8002F42F0100241E80024002CF5D1A6
:101F500018BD000010B50C46114988421ED1FFF78C
:101F6000CFFF00281AD0012818D0022816D10D4B17
:101F70000D495868021988185A6010F8014C3B2C1A
:101F800006D00146BDE8104032220548FFF7BABF2F
:101F900001201870002088545860F3E710BD00003D
:101FA0007C00002004000020C400002070470000D6
:101FB000F8B5016804460868CA684B6910F00F0F4D
:101FC0004FF0000559D003F0010602F49077374333
:101FD00065D0C10705D0D10503D5616C41F0010181
:101FE0006164410705D5D90703D0616C41F0020156
:101FF0006164810705D5D90703D0616C41F0040104
:102000006164010707D502F02001314303D0616C00
:1020100041F008016164616C00293AD0800604D562
:10202000900602D5204600F062FD20684069616C90
:10203000C0F38010090700D460B3204600F030FDE3
:1020400020684069400621D52068143050E8001F00
:1020500021F0400140E80012002AF5D1E06BA8B160
:102060006D494163E06BFFF76FF9002811D0E06B19
:10207000416B01B0BDE8F040084783060FD59306D9
:102080000DD52046BDE8F84000F031BD2046FFF7F1
:102090008DFFF8BD2046FFF789FF6564F8BD266B0C
:1020A0002023012E7CD1C6067AD5D60678D50868BD
:1020B0004868009048694FF00206400640D5E16B41
:1020C000086840680004000CE8D0A28D8242E5D97F
:1020D000E085886920282DD020680C3050E8001F4A
:1020E00021F4807140E80012002AF5D120681430F4
:1020F00050E8001F21F0010140E80012002AF5D14C
:102100002068143050E8001F21F0400140E8001220
:10211000002AF5D184F84230256320680C3050E85D
:10212000001F21F0100140E80012002AF5D1E06BF9
:10213000FFF7E7F86663A08DE18D401A81B22AE0CF
:10214000A08DE18D401A81B2E08D0028A6D0002933
:10215000A4D022680C3252E8000F20F4907042E8BC
:102160000007002FF5D12068143050E8002F22F02E
:10217000010240E80027002FF5D184F842302563A2
:1021800020680C3050E8002F22F0100240E80023B5
:10219000002BF5D166632046FFF7DCFEF8BDFFE7B4
:1021A00005062BD5150629D594F841002128F5D12F
:1021B000A068B0F5805F01D12069B0B1206A411CF0
:1021C0002162216800784860E08C401E0004000C09
:1021D000E084E3D12068C16821F08001C1602068FB
:1021E000C16841F04001C160D8E7206A0088C0F3AF
:1021F00008004860206A801C2062E5E74006CDD5D3
:102200005006CBD5CA68204622F04002CA6084F846
:10221000413000F0CBF8C1E7912A000870B5040006
:1022200004D094F84100002510B106E0012070BDF3
:1022300084F84050204600F023F8242084F8410020
:102240002068C16821F40051C160204600F0B0FC54
:102250002068016921F4904101612068416921F001
:102260002A0141612068C16841F40051C160656480
:10227000202084F8410084F842006563002070BD8E
:1022800030B585B000240094019402940394006852
:102290001B49884232D11B48816941F480418161E8
:1022A000816901F480410491816941F008018161F3
:1022B0008069154D00F00800049040200090022035
:1022C00001900320039069462846FFF79BF8802081
:1022D000CDE90004694628460294FFF793F80B48BD
:1022E000416841F0E06141F0040141600022114683
:1022F0002520FFF7E1F92520FFF7D0F905B030BD23
:102300000038014000100240000C01400000014074
:1023100070472DE9F843044690F841001F461646E1
:102320000D46202802D00220BDE8F8837DB176B1A9
:1023300000206064212084F84100FFF749F9A68459
:102340008046E684A068B0F5805F02D003E00120FB
:10235000EAE7206910B12E4600250EE000260CE0C9
:102360008021204600F09BFCA0B9AEB116F8010B0D
:1023700021684860E08C401EE084E08C43464FF0CA
:10238000000200970028EBD14FF04001204600F0FA
:1023900086FC30B10320C7E735F8020BC0F3080014
:1023A000E6E7202084F841000020BDE77047FEE703
:1023B00070B586B000241C480094019402940394E4
:1023C000816941F010018161816901F0100104917E
:1023D000816941F020018161816901F0200104914E
:1023E000816941F004018161816901F00401049176
:1023F000816941F00801816180690C4E00F008009C
:102400004FF400550490002229463046FFF7DAF8D1
:1024100001200095CDE90104022003906946304671
:10242000FEF7F0FF06B070BD001002400010014042
:1024300010B592B000240F941C2168461094FDF74B
:102440008AFE202107A8FDF786FE2848264901605C
:102450004721C0E9011440F69F71C0E903144461AB
:102460008461FFF7C1FC08B1FEF749FF0F940FA983
:102470001E481094FFF7FCFB08B1FEF740FF6020F8
:10248000CDE9000402940394049405940022694663
:1024900016480694FFF742FC08B1FEF730FF04220D
:1024A00069461248FFF73AFC08B1FEF728FF0822F8
:1024B00069460E48FFF732FC08B1FEF720FF07948B
:1024C000089409944FF400500A94CDE90B4007A9F1
:1024D00006480E94FFF7A2FB08B1FEF710FF034871
:1024E000FFF7F6FB12B010BD002C014034000020B5
:1024F0000C4810B50A4901604FF4E13141600021F8
:1025000081600C22C160C0E904128161C161FFF7E2
:1025100085FE002803D0BDE81040FEF7F0BE10BDD8
:10252000003801407C000020FEE7FEE710B50021E6
:102530000648FFF79BFC04210448FFF797FCBDE821
:10254000104008210148FFF791BC00003400002032
:1025500070477047AFF300802DE9FC41134ECDE981
:1025600000120C4606F1080115460746034607C946
:1025700001F012FAB760C6E9034501F0F1F90C4D1C
:10258000002400BF04EB440005EB800155F8200057
:102590008A68496800F010F80A20FEF721FF641CE1
:1025A00064B2332CEEDBBDE8FC81000004000020A7
:1025B0008C030020704700002DE9F05F8A469346A7
:1025C0002849FDF7A7FF284D2946FDF7F5FF274EBF
:1025D0003146FDF7F7FF264F3946FEF725F8DFF8BD
:1025E00094804146FDF796FF4FF07E594946FDF72E
:1025F000E3FFFEF7FFF9204C00B2216848631F4952
:102600005046FDF787FF2946FDF7D6FF3146FDF717
:10261000D9FF3946FEF708F84146FDF77BFF4946EA
:10262000FDF7CAFFFEF7E6F9216800B28863144996
:102630005846FDF76FFF2946FDF7BEFF3146FDF70F
:10264000C1FF3946FDF7F0FF4146FDF763FF4946FC
:10265000FDF7B2FFFEF7CEF9216800B2C863BDE80E
:10266000F09F0000000060C10000B4C20000FA4406
:10267000000034430000FA4334000020000098C1F9
:10268000000090C12DE9F04F8BB01646DDE91445EE
:10269000834688461F46012220462946FEF78AF9CE
:1026A0008246894622462B4610461946FEF7A1F877
:1026B000CDE9011032463B4610461946FEF799F81F
:1026C000CDE905105A46434610461946FEF791F8E3
:1026D000DDE90532FDF7E6FFDDE90132FDF7E2FF56
:1026E0000022574BFDF7DEFF0022564BFEF77BF82A
:1026F000554A564BFEF777F852464B46FEF7EBF835
:1027000032463B46524E534F81468A463046394602
:10271000FEF769F822462B46FEF7DDF804460D4623
:1027200032463B46FEF765F84A465346FDF7BAFF88
:1027300002460B46FEF75DF8DFF81CB106460F4671
:1027400000225B4620462946FEF753F822462B46D8
:10275000FEF74FF800225B46FDF7A4FF00225B4620
:10276000FEF747F832463B46FEF73DF800220646A4
:102770000F461346FEF76AF904D2384900200BB021
:10278000BDE8F08F22462B4610461946FEF731F879
:102790000022334BFDF786FF80468B463046394694
:1027A00001F0C2F907460E4622462B4648465146DE
:1027B000FEF71FF8264A274BFEF718F83A4633462D
:1027C000FEF711F842465B46FEF785F806460F46CF
:1027D00022462B46FEF70DF84A465346FDF762FFA8
:1027E00004460D4632463B4619481A49FDF7FBFFA1
:1027F00002460B46204685F00041FEF76CF800F0DB
:102800009FFFDFF8608000224346FDF7F2FF164A83
:10281000164BFEF760F804460D460D4A0D4B304648
:102820003946FEF72BF907D20022434620462946B7
:10283000FDF738FF04460D46204629469FE7000075
:102840000062C9408084CE40476E6085EE96884025
:10285000FFA8D385170D3CC000805C4000C056C067
:102860000000F03F008066404AD8124DFB2109402D
:10287000FEF7B4BE30B58FB028216846FDF76BFC7B
:1028800014210AA8FDF767FC01210804CDE9001016
:102890000024029402250491CDE907504FF4E01082
:1028A00009906846FFF716F808B172B6FEE70F20E8
:1028B000CDE90A054FF48060CDE90C4002210AA859
:1028C0000E94FEF72BFF002801D072B6FEE70FB082
:1028D00030BD704770B50268134B144C4FF0804602
:1028E000984203D0B04201D0A04203D122F070053B
:1028F0004A682A43984203D0B04201D0A04203D193
:1029000022F44074CA6822434C6922F080022243B8
:1029100002608A68C2620A688262984201D10969CB
:1029200001630121416170BD002C014000040040A1
:1029300010B501F01F030121046A99408C43046221
:10294000016A9A401143016210BD000030B5036A6C
:10295000026A22F0010202624268846924F073056F
:102960000C682C4323F002058B682B430A4DA842C8
:102970000BD123F00805CB6822F440722B434D693C
:1029800023F0040315438A692A434260846149683D
:102990004163036230BD0000002C014030B5026A83
:1029A000036A23F010030362436884690D6824F40A
:1029B000E64444EA05248D6822F0200242EA05122A
:1029C0000B4DA8420ED1CD6822F0800242EA0512DA
:1029D0004D6923F4406343EA85038D6922F0400288
:1029E00043EA85034360846149688163026230BDC4
:1029F000002C014030B5036A026A22F48072026240
:102A00004268C46923F4007324F073050C682C43F6
:102A10008D6843EA05230C4DA8420ED1CD6823F4FE
:102A2000006343EA05234D6922F4405242EA05124D
:102A30008D6923F4806342EA05124260C4614968EB
:102A4000C163036230BD0000002C014030B5046A50
:102A5000026A22F4805202624268C3690D6823F45C
:102A6000E64343EA05238D6824F4005444EA053420
:102A7000064DA84204D14D6922F4804242EA8512F3
:102A80004260C36149680164046230BD002C0140AA
:102A900010B5406A0021C185C184FFF787FA10BDD7
:102AA00001680C3151E8002F22F4907241E80023B4
:102AB000002BF5D10168143151E8002F22F00102FA
:102AC00041E80023002BF5D1016B012909D10168F0
:102AD0000C3151E8002F22F0100241E80023002BB6
:102AE000F5D1202180F8421000210163704708B51C
:102AF00090F84210222901D0022008BD82684FF4CC
:102B000080539A4201D1016921B1816A9A421BD056
:102B10004AB10AE00268816A5268C2F308020A8078
:102B2000816A891C08E0026972B10268526802F089
:102B30007F020A70816A491C8162C18D491E0904A5
:102B4000090CC18503D01BE002685268F1E70168F7
:102B5000CA6822F02002CA600168CA6822F4807242
:102B6000CA6001684A6922F001024A61202180F8A6
:102B7000421000214163026B012A03D0FFF7C8FB1A
:102B8000002008BD016301680C3151E8002F22F0DC
:102B9000100241E80023002BF5D101680A68D20633
:102BA00002D50A6849680091818DFFF7D3F9E7E7FC
:102BB00070B5044600680169E26821F44051114390
:102BC00001612169A0680843616908432168CA68F6
:102BD00041F20C639A430243CA6020684169A269CA
:102BE00021F44071114341611E492068884202D19D
:102BF000FEF73AFE01E0FEF727FE00EBC00101EB15
:102C00000012606864218000B2FBF0F3B3FBF1F3C3
:102C10006FF018067343B2FBF0F5B2FBF0F605EB6C
:102C20008305322303EB0515B5FBF1F5B6FBF1F691
:102C300005F0F00505EB0615B2FBF0F6B2FBF0F07F
:102C4000B0FBF1F06FF01802504306EB800003EB8D
:102C50000010B0FBF1F0216800F00F0028448860FC
:102C600070BD00000038014081628285C28500216C
:102C70004164222180F84210016921B10168CA68CB
:102C800042F48072CA6001684A6942F001024A61F6
:102C90000068C16841F02001C160002070472DE943
:102CA000F041984617460E460446069D27E0681CEC
:102CB00025D02DB1FEF78CFCA0EB0800A8421ED950
:102CC00020680C3050E8001F21F4D07140E8001259
:102CD000002AF5D12068143050E8001F21F00101CE
:102CE00040E80012002AF5D1202084F8410084F841
:102CF0004200002084F840000320BDE8F0812068F5
:102D0000006836EA000004D00020B842CFD000208E
:102D1000F3E70120F9E700000148FFF749B9000097
:102D20007C000020FEE700007CB50C001D46164626
:102D3000014601D0601E00E00020CDE90010064BE6
:102D40006A462946304600F06DF9002C02D0009A00
:102D5000002111707CBD00002B370008490050EAAB
:102D6000C12018BF04204A0D18BF40F0010040F2F6
:102D7000FF72B2EB515F08BF40F00200012808BFAC
:102D8000052070470907090E002804DB00F1E02048
:102D900080F80014704700F00F0000F1E02080F888
:102DA000141D70472DE9F0414F1E00EBC70104468A
:102DB000D1E9000115461E4637F006020DD02A461D
:102DC0003346FDF716FD7F1E04EBC703D3E900234E
:102DD000FDF768FC37F00602F1D1022F25D0042F51
:102DE00013D0062F18BFBDE8F0812A463346FDF701
:102DF00000FDD4E90A23FDF755FC2A463346FDF7CA
:102E0000F8FCD4E90823FDF74DFC2A463346FDF7CC
:102E1000F0FCD4E90623FDF745FC2A463346FDF7CE
:102E2000E8FCD4E90423FDF73DFC2A463346FDF7D0
:102E3000E0FCD4E90223FDF735FC2A463346FDF7D2
:102E4000D8FCD4E90023BDE8F041FDF72BBC0122FA
:102E5000FDF7B0BD024A00201107FDF7ABBD000031
:102E600001FDFFFF02E008C8121F08C1002AFAD1C5
:102E700070477047002001E001C1121F002AFBD1FA
:102E800070470000014908607047000030000020D2
:102E90002DE9FF5F82B00021DDE90430020DDDF88D
:102EA00040B0034318D044F61050A2F2FF32424320
:102EB0001514119801281FD0A5EB0B00401C5FEAE8
:102EC000000A4FF000064E4FDFF83891B0465046EA
:102ED00015D5CAF1000413E0119801244AA3012872
:102EE00001D16FEA0B010298119AC0E90031C0E9E3
:102EF000024206B0BDE8F09FCBF10000DFE70446D8
:102F00000021404A491842EB0450CDE9001012E07C
:102F1000E00707D032463B4640464946FDF769FC8C
:102F20008046894632463B4610461946FDF761FC0D
:102F300006460F466410002CEAD1DDE90401DDE904
:102F40000023BAF1000F06DAFDF753FC42464B4668
:102F5000FDF74FFC05E0FDF7BEFC42464B46FDF792
:102F6000BAFC04460E460022284BFDF787FD03D825
:102F70004FF0FF30014607E00022254B2046314646
:102F8000FDF790FBFDF73BFF102409E0002C0ADB66
:102F90000A220023FDF7BCFD039B30321A55641E44
:102FA00050EA0102F2D1641C039AC4F111031444E3
:102FB000119A012A03D0012208430DD10AE00843E7
:102FC00004D000204FF0110B119072E7A3EB0B051A
:102FD0006D1E0DE05B4504DD4FF0000205F10105BB
:102FE00004E003DA4FF00002A5F10105002AECD05D
:102FF00002981199C0E90231C0E9004579E7000063
:10300000000014400000F03F300000000000F043DA
:103010000000E03F30380A2801D20120704700202C
:10302000704700002DE9FF4F95B09A468846064646
:103030000025EEE1252877D100242746F94A012111
:10304000039400E0044316F8013F203B01FA03F02B
:103050001042F7D130782A2811D06FF02F03307842
:10306000A0F13002092A16D8039A44F0020402EBB8
:10307000820203EB42021044761C0390EFE758F8FB
:10308000042B0392002A03DA504244F400540390C4
:1030900044F00204761C30782E2816D116F8010F61
:1030A00044F004042A280DD06FF02F023078A0F1EC
:1030B0003003092B09D807EB870302EB4303C7183A
:1030C000761CF3E758F8047B761C30786C280FD018
:1030D00006DC4C2817D068280DD06A2814D104E0EB
:1030E000742810D07A280FD10DE044F400140AE0BF
:1030F00044F4801401E044F440147278824202D116
:1031000004F58014761C761C307866280BD013DC0E
:10311000582877D009DC002875D04528F6D04628F5
:10312000F4D047281AD193E118E0632835D06428F9
:1031300079D0652812D18BE1702873D008DC67281C
:10314000F1D069286FD06E280DD06F2806D1ACE081
:1031500073282CD0752874D0782853D052461799EC
:1031600090476D1C54E1C4F30250022809D0032893
:103170000DD0D8F8001004280DD00D6008F1040817
:1031800046E1D8F80010EA17C1E90052F6E7D8F88E
:1031900000100D80F2E70D70F0E718F8041B8DF8B1
:1031A000001000208DF80100EB46012003E058F8E4
:1031B00004BB4FF0FF3061074FF0000102D40DE077
:1031C00009F101018946B9420FDA8145F8DB1BF8A4
:1031D00009100029F4D108E009F101018946814272
:1031E000FADB1BF809100029F6D103985346A0EB2F
:1031F000090721463846179A00F080FA284400EB68
:10320000090507E044E008E10DE01BF8010B524618
:1032100017999047B9F10109F7D25346214638462C
:10322000179AF2E039E00A21C4F302524FF0000B82
:103230000091022A06D058F8040BC117032A09D0BE
:103240000AE023E008F1070020F00702F2E802019B
:10325000904605E000B2C117042A01D140B2C1175F
:10326000002906DA0A460021404261EB02012D22C4
:1032700002E0220504D52B228DF80420012203E070
:10328000E20701D02022F7E7914657E00A2100E04B
:1032900010214FF0000B00910BE010214FF0000BBC
:1032A00044F004040827009103E008204FF0000BCD
:1032B0000090C4F30252022A05D058F8040B0021F2
:1032C000032A08D008E008F1070020F00702F2E81E
:1032D0000201904603E080B2042A00D1C0B24FF050
:1032E000000922072AD53278702A07D0DDF800C0FD
:1032F0008CF0100C5CEA0B0C05D00EE040228DF82F
:103300000420012208E050EA010306D030238DF8A2
:1033100004308DF8052002229146009B83F00803BB
:1033200053EA0B030AD150EA010201D1620705D525
:1033300030228DF804204FF001097F1E3278582A80
:1033400004D039A20C920CAA02920BE03BA2F9E73E
:103350005B46009AFDF7DCFB0C9B9B5C029A521EBD
:103360000292137050EA0102F2D1029804A9081ADD
:1033700000F1200B600702D524F4803400E001271F
:103380005F4502DDA7EB0B0000E0002000EB0B0126
:10339000009003984944401A0390E00306D4534632
:1033A0002146179A039800F0A9F90544002706E082
:1033B00001A85246C05D179990476D1C7F1C4F4570
:1033C000F6DBE0030CD553462146179A039800F02C
:1033D00095F9054404E030205246179990476D1C3A
:1033E0000099481E00900029F5DC08E00298029937
:1033F00052460078491C0291179990476D1CBBF109
:103400000001ABF1010BF1DC5BE100F065F9054473
:10341000761C307800287FF40DAE19B02846BDE840
:10342000F08F00000928010030313233343536374F
:103430003839616263646566000000003031323300
:1034400034353637383941424344454600000000A0
:10345000600700D4062708F1070020F00700F0E815
:103460000223804603F0004C5FEA0C0001D097A0D5
:1034700009E0200501D596A005E0E00701D095A060
:1034800001E0AFF24C001390307823F00043652840
:103490000CD006DC452809D046281DD047287FD10E
:1034A0003BE0662818D067287AD136E00021112F3A
:1034B00001DB112000E0781CCDE9000104A90CA873
:1034C000FFF7E6FCDDE90D010C9A4FF0000B07F168
:1034D0000109109200914EE04FF000400097CDE9B5
:1034E000011004A90CA8FFF7D3FCDDE90D020C9B29
:1034F0000F994FF0000B91461093009211B9791C6F
:1035000000EB0109B7EB090003D4C0F1FF3B07F161
:103510000109A9EB0700019042E0012F00DA012721
:103520000021112F01DD112000E03846CDE9000116
:1035300004A90CA8FFF7ACFCDDE90D010C9A009181
:103540004FF0000BB946109221070FD4009A4A455C
:1035500003DA914601E0A9F10109B9F1010F05DD96
:10356000109AA9F10101515C3029F4D0B84202DA75
:1035700010F1040F03DA0121CDE9011010E0002859
:1035800003DC8344A9EB000102E0411C494500DD56
:103590008946A0EB0B00401C01904FF000400290C8
:1035A000200705D40198484502DB4FF0FF30019019
:1035B00000208DF84B0002980DF14B07B0F1004F41
:1035C00025D002200C902B200D90029800280CDAB8
:1035D000404202902D200D9007E00A210298FDF74D
:1035E00081FA3031029007F8011D0C99481E0C90A9
:1035F0000029F2DC02980028EFD1791E0D9808709E
:10360000307800F0200040F0450007F8020D11A8C6
:10361000C01BC01D02901398007800B1012000EB80
:103620000901019801EBE071029801440398401AE6
:10363000401E0390E00306D453462146179A039890
:1036400000F05CF805441398007818B152461799B9
:1036500090476D1CE00323D553462146179A0398E3
:1036600000F04CF805441BE0BBF1000F07DB0098AD
:10367000584504DD1098179910F80B0001E01799D0
:1036800030205246904701980BF1010B401E05F186
:103690000105019004D12E205246179990476D1CC8
:1036A000B9F10001A9F10109DEDC05E017F8010B11
:1036B0005246179990476D1C0299481E02900029A6
:1036C000F4DC53462146179A03989EE62D0000002D
:1036D0002B000000200000002DE9F04104460025E9
:1036E0001E461746880404D405E039462020B0471A
:1036F0006D1C641EF9D52846BDE8F0812DE9F04126
:10370000044600251E469046C80301D5302700E038
:103710002027880404D505E041463846B0476D1C93
:10372000641EF9D52846BDE8F0814A68002A06D013
:103730000A68531C0B6010704868401E4860704750
:103740002DE9F84F04460D4621F0004000917349E1
:10375000814211DC7249884201DC06D12CB120463D
:103760002946BDE8F84FFFF772BB6E48002DCCBF6D
:103770006D496E49BDE8F88F6D49814211DD6D4993
:103780008142D8BF4FF0FF366DDD20462946FFF756
:10379000E5FA042808BFFFF75DFB20462946BDE88F
:1037A000F88F6549654F25F00045814233DD644956
:1037B000814219DD002632464FF0804320462946DB
:1037C000FCF770FF80468A46012220462946FDF715
:1037D000F1F800223B46FDF706F842465346FDF756
:1037E0007AF804460D463EE001260022BA463B46E2
:1037F00020462946FCF756FF80460F4600225346D6
:1038000020462946FCF7EFFF42463B46FDF763F8AA
:1038100004460D4627E04B4981421BDDDFF828A115
:1038200002260022534620462946FCF7E2FF0022EA
:103830003B46FCF737FF80460F46002253462046A2
:103840002946FCF7D0FF42463B46FDF744F80446C4
:103850000D4608E0032622462B4600203B49FDF793
:103860003AF804460D4622462B4610461946FCF708
:10387000C0FF8B46824602460B46FCF7BAFF07465E
:103880000246334888460B4606217844FFF78AFAF9
:1038900052465B46FCF7ADFF82462E488B463A46C1
:1038A000434605217844FFF77DFA3A464346FCF744
:1038B000A0FF02460B46002E504659460CDAFCF794
:1038C000F1FE22462B46FCF794FF01B022462B4620
:1038D000BDE8F04FFCF78ABFFCF7E4FE22462B461A
:1038E000FCF787FF1C4A7A4402EBC603D3E90023A6
:1038F000FCF779FF22462B46FCF775FF174A7A44FE
:1039000002EBC603D3E90023FCF770FF009A002AFC
:10391000B8BF81F00041BDE8F88F000000001044FE
:103920000000F07F182D4454FB21F93FFB21F9BF23
:103930000000DC3F0000203E0000F33F0000F03FAD
:103940000000E63F008003400000F83F0000F0BFA9
:10395000E2030000A00300003E0300000603000095
:10396000FEB50C4E002406F5197700BF04EB4405A4
:1039700006EB850090E80E006846FDF71FFC9DE809
:103980000E0007EB8500641C80E80E0064B2332C47
:10399000ECDBFEBD280100200FB42DE9F05F9A4654
:1039A000834600242046FDF71CF8204F0646394682
:1039B000FCF705FE3946FCF737FE81465946FCF711
:1039C00001FE054630463946FCF72EFE804651463C
:1039D000FCF7F8FD2946FCF79DFD154E04EB440766
:1039E00046F8270048460B99FCF7ECFD0546404693
:1039F0000E99FCF7E7FD2946FCF78CFD06EB8706E0
:103A0000706048460C99FCF7DDFD054640460F996D
:103A1000FCF7D8FD2946FCF77DFD641C64B2B0605C
:103A2000332CBFDBBDE8F01F5DF814FB00004842FB
:103A3000280100201CB5FDF7D9FDFEF71BFFFEF79E
:103A4000B7FCFEF7F5FCFEF753FDFEF76FFDDFF860
:103A5000A880002142460846FEF77CFD27A000F022
:103A600089F8402227492848FEF74CFA5220254D74
:103A7000264C8DF80400002620780028FCD02878F9
:103A8000532801D02670F7E73223012201A91E48EE
:103A9000FEF73FFC002142460846FEF75BFD1C4F47
:103AA000DFF87090DFF870A0267020780028FCD036
:103AB0002878442802D0532811D01BE0154B164A11
:103AC00016A110480097FCF759FB0328EDD13A687E
:103AD000D9F80010DAF80000FEF73CFD0AE00021FA
:103AE00042460846FEF736FD3223012201A9064868
:103AF000FEF70FFC2670D8E7000016437465737458
:103B00002E0A0000C40000207C00002004000020D9
:103B1000200000201C000020180000204425662CF6
:103B200025662C25663B00002DE9F04106460F4630
:103B3000FDF708F9041E0D4618BF0120284320F0A8
:103B40000040C0F17F6000F1E040C00F0ED0301C9B
:103B500018BF0120384320F00040C0F17F6000F121
:103B6000E040C00F04BF0120FFF78CF92046294632
:103B7000BDE8F0810FB410B50298FCF7F7FA64289D
:103B800003D932231C220AA10BE003AB64211048A5
:103B9000029AFFF7C9F80E48FCF7E8FA0C4982B21E
:103BA00032230C48FEF7B5FB10BC5DF814FB000097
:103BB000537472696E67206C656E677468206973F0
:103BC000206E6F7420656E6F7567682E00000000B0
:103BD000F00500207C000020000000000000000034
:103BE00001020304060708090000000001020304A3
:103BF000010202030405060708090A0B0C0D0E0F4B
:103C000010100000000000004FBB610567ACDD3FF5
:103C1000182D4454FB21E93F9BF681D20B73EF3FF3
:103C2000182D4454FB21F93FE2652F227F2B7A3C6B
:103C3000075C143326A6813CBDCBF07A8807703C24
:103C4000075C143326A6913CC4EB98999999C9BF97
:103C5000711623FEC671BCBF6D9A74AFF2B0B3BFCC
:103C60009AFDDE522DDEADBF2F6C6A2C44B4A2BF8C
:103C70000D5555555555D53FFF8300922449C23FF8
:103C80006E204CC5CD45B73F513DD0A0660DB13F2C
:103C9000EB0D76244B7BA93F11DA22E33AAD903F3E
:103CA000DDDDDDDDDCBBBBDDDDDDDDDDDDDDDDDD89
:103CB00098888888888888887777777777888888C9
:103CC0008555555666666666666666666668888861
:103CD0008333333222222222222222222228888D5A
:103CE000003D00080000002034000000642E0008A1
:103CF000343D000834000020240A0000742E00081F
:103D00000024F4000000000000000000000000009B
:103D1000000000000000164300000000000000004A
:103D20000000000001000000100000000000000082
:043D3000000000008F
:04000005080000ED02
:00000001FF
