:020000040800F2
:1000000028080020790200084D3D00086D350008E1
:10001000493D0008E5150008853E00080000000085
:10002000000000000000000000000000553D000836
:10003000E915000800000000513D0008593D000886
:10004000930200089302000893020008930200083C
:10005000930200089302000893020008930200082C
:10006000930200089302000893020008930200081C
:10007000930200089302000893020008930200080C
:1000800093020008930200089302000893020008FC
:1000900093020008930200089302000893020008EC
:1000A00093020008930200089302000893020008DC
:1000B00093020008930200089302000893020008CC
:1000C00093020008930200089302000893020008BC
:1000D00093020008793E000893020008930200088A
:1000E000930200089302000893020008930200089C
:1000F000930200089302000893020008930200088C
:10010000930200089302000893020008930200087B
:100110009302000893020008613D00089302000862
:10012000930200089302000893020008930200085B
:1001300000F002F800F090F80AA090E8000C824469
:100140008344AAF10107DA4501D100F085F8AFF246
:10015000090EBAE80F0013F0010F18BFFB1A43F0A5
:1001600001031847D89C0000F89C0000103A24BFF7
:1001700078C878C1FAD8520724BF30C830C144BF0C
:1001800004680C607047000000230024002500264E
:10019000103A28BF78C1FBD8520728BF30C148BFEA
:1001A0000B6070476E2900F04F82702900F0938336
:1001B000662908F0E685652908F0E385672908F0D7
:1001C000E085612908F0DF8503681B0A28BF41F03C
:1001D0008001692900F0FC81642900F0F98175290A
:1001E00000F0F6816F2900F02183782900F05F8309
:1001F000E92900F0BB82E42900F0B882F52900F07B
:10020000B582EF2900F01E83F82900F05E830368B1
:10021000DB0928BF41F08001632901F06380732965
:1002200001F06880E32901F07380F32901F0788000
:10023000002070471FB501F0CDF804000020002118
:1002400007F064FC401C60600020002107F048FCBF
:10025000E0601FBD10B510BD01F08EF81146FFF72C
:10026000E9FF04F025FE01F06BF903B4FFF7F2FF9C
:1002700003BC01F0AFF90000094880470948004776
:10028000FEE7FEE7FEE7FEE7FEE7FEE7FEE7FEE746
:10029000FEE7FEE704480549054A064B70470000A3
:1002A0005D3D0008310100082802002028080020D8
:1002B000280400202804002053EA020C23D010B5A3
:1002C0004C1084EA530404D54042C1F1000138BF08
:1002D000491E1B4204D55242C3F1000338BF5B1EC6
:1002E00000F090F814F0804F04D04042C1F10001BA
:1002F00038BF491E14F0004F04D05242C3F100032E
:1003000038BF5B1E10BD13B540424FF0000070EBCC
:100310000104B8BF012001F0004100281CBF6FF0AC
:1003200000414FF0FF30AFF300801CBD7CB51D468F
:1003300016460C00009007D04142A14202D320444F
:10034000401E01E04FF0FF30064B7B442A466946D1
:100350000190304600F091F9002C02D0009A002163
:1003600011707CBD5303000040EA010310B59B07E8
:100370000FD1042A0DD310C808C9121F9C42F8D00F
:1003800020BA19BA884201D9012010BD4FF0FF30C0
:1003900010BD1AB1D30703D0521C07E0002010BDD6
:1003A00010F8013B11F8014B1B1B07D110F8013B62
:1003B00011F8014B1B1B01D1921EF1D1184610BD43
:1003C00010B5431C02E010F8011B71B18107FAD18E
:1003D0004FF0013202C88C1A8C4314EAC211F9D0D2
:1003E000C01A0A0603D0C01E10BDC01A10BD0A04F0
:1003F00001D0801E10BD0902FCD0401E10BD704708
:100400007047704753EA020C00F069802DE9F04B09
:100410004FF00006002B1FBFB3FA83F503FA05F473
:1004200024FA05F65E4012BF1643B2FA82F502FACC
:1004300005F4C5F120051EBF22FA05FC44EA0C04B0
:10044000203556EA044C4FEA144418BF641C4FF0A0
:1004500000084FF00009904271EB030C39D30029DA
:1004600019BFB1FA81F701FA07F6B0FA80F700FA7E
:1004700007F6C7F120071EBF20FA07FC46EA0C0664
:100480002037B6FBF4FCA7EB0507103F07F01F0B66
:10049000CBF120062CFA06F60CFA0BFB44BFB34650
:1004A0000026202FA4BF5E464FF0000B5BEA060C2F
:1004B00008BF4FF0010B19EB0B0948EB0608ABFB2B
:1004C000027C06FB02CC0BFB03CCC01B71EB0C01C6
:1004D000C1E70B46024641464846BDE8F08B13B5DE
:1004E000084318BF4FF0FF300146AFF30080BDE86E
:1004F0001C40704710B500F0BDFA006810BD10B583
:10050000044600F0B7FA046010BD70B50446856972
:100510000068C10601D5302600E02026C00707D0BC
:1005200070BDD4E9012130469047206A401C20620A
:100530006D1EF6D570BD70B5044685690078C0079C
:1005400007D170BDD4E9012120209047206A401CCA
:1005500020626D1EF6D570BD09684A0501D540B20E
:100560007047C905FCD500B2704709684A0501D536
:10057000C0B27047C905FCD580B2704770B50C4653
:100580000546012A05D02878800600D5EA690023AF
:1005900002E0012305E05B1C934202D2E05C0028EC
:1005A000F9D1A869E618C01AA861286A1844286217
:1005B0002846FFF7AAFF04E0D5E9012114F8010B52
:1005C0009047B442F8D32846FFF7B5FF70BD00004E
:1005D0002DE9F0410646002410687529314616A51C
:1005E00010D0FFF7B9FF002802DA404213A507E058
:1005F00031688A0701D512A502E0490704D511A583
:10060000012401E0FFF7B1FF00210A2206F12407CF
:1006100009E0B0FBF2FCB0FBF2F302FB1C0030304F
:1006200078541846491C0028F3D123462A46304600
:10063000BDE8F04100F067BA000000002D000000A6
:100640002B0000002000000011680268006A5305BA
:1006500001D508700AE0D30501D5088006E013062D
:1006600003D5C217C1E9000200E00860012070470D
:1006700001694A1C02610878704700B58FB0CDE966
:1006800001310021059105497944CDE90310114656
:10069000684600F02BF90FB000BD0000E5FFFFFF3A
:1006A000D1E900239A4202D2531C0B6010707047AC
:1006B0002DE9FF5F15468A460446DFF8AC80F84412
:1006C0000027D8E900103E46CDE9001010E03AF8C6
:1006D00016106A4602A800F027FE411C07D02178B8
:1006E000890603D5E269391891420DD80744761C72
:1006F0002078800602D5E069B84205DDAE42E6DB2F
:100700003AF816000028E2D1A069C01BA06120467B
:10071000FFF7FBFED8E90010CDE90010002017E03C
:100720003AF818106A4602A800F0FEFDB0F1FF3F4B
:1007300081460BD000250DF1080B05E0D4E901211D
:100740001BF8050090476D1C4D45F7D308F10100DB
:10075000B0428046E4DB206A384420622046FFF73E
:10076000EAFEBDE8FF9F00000E8800002DE9F04181
:100770008046D21D22F007020025D2E90002F529A9
:1007800015A614D0011E72F1000106DA0023D0EB89
:10079000030063EB020211A608E0D8F800108B07F3
:1007A00001D50FA602E0490701D50EA60125114685
:1007B000002408F1240704E000F060F930323A55D3
:1007C000641C50EA0102F7D12B46324621464046CE
:1007D000BDE8F04100F097B9000000002D000000D6
:1007E0002B0000002000000030B4002100F12404A0
:1007F00008E002F00705D208303542EA4372DB0810
:100800006554491C52EA0305F3D10468002310A281
:10081000250708D504F020040C4304D0C469012343
:100820000CA2641EC46130BC00F06DB910B5044662
:1008300021461068FFF799FE02462046BDE81040A9
:100840000023D1E7D21D22F00701D1E90023CBE735
:100850000000000030000000F0B40D4601880905DA
:1008600002D5214C7C4402E01F4C7C440E34002114
:1008700000F1240608E002F00F071209E75D42EAE2
:1008800003721B097754491C52EA0307F3D102781B
:100890000023120704D5702D06D009B102231134AC
:1008A0002246F0BC00F02FB901231034F8E770B5F0
:1008B00004460D4621461068FFF757FE02462946BA
:1008C0002046BDE870400023C6E7D21D22F0070392
:1008D000D3E90023C0E70368126843F020030360F4
:1008E0000823C3610023B7E7708600002DE9F05F9D
:1008F000894604464FF0000ADFF874B1FB44C0F8A3
:1009000020A02046E1688847002874D0252806D01A
:10091000D4E901219047206A401C2062F1E70026BB
:100920005F462046E16888472028054607DB312DD1
:1009300005D2781910F8200C08B10643F1E7B0078A
:1009400001D526F00406C4F81CA00027C4F818A09E
:100950002A2D09D0284606F07FFD38B304EB87081E
:10096000303DC8F8185019E059F8041B204604EB34
:1009700087029161E1688847012F054618D1E06937
:10098000002820DA26F020061DE0D8F8180000EB39
:10099000800005EB40003038C8F818002046E168B8
:1009A0008847054606F058FD0028EED1012F0AD0F1
:1009B0002E2D08D12046E16888477F1C0546022F6E
:1009C00046F02006C4DBA069002803DA404246F066
:1009D0000106A061F00701D026F010066C2D0BD0A7
:1009E000682D09D04C2D39D06A2D35D0742D35D0D5
:1009F0007A2D33D016E038E0E1682F46204688474C
:100A0000B842054609D16C2F26D04FF48060E168CA
:100A1000064320468847054604E06C2F1AD04FF461
:100A2000807006430DB3A5F14100192802D8203586
:100A300046F400664A462946204626604E46FFF7A1
:100A4000B1FB80B101280BD0F61D26F0070000F1A4
:100A5000080956E74020E4E78020D8E70020D6E7E1
:100A600006F104094DE7284652E7206ABDE8F09FE9
:100A700000860000004870473800002030B5B0F113
:100A80000A0271F100034FEA900E4EEA817EB0EB4C
:100A90000E0061EB91014FEA101E4EEA017E10EB51
:100AA0000E0041EB11114FEA102E4EEA016E10EBD1
:100AB0000E0041EB11214FEA104E4EEA014E10EBB1
:100AC0000E0041EB1141401841F100014FEAD00006
:100AD00040EA41704FEAD1014FEA810444EA907440
:100AE00010EB800544EB01046D1944EB0404521B28
:100AF000A3414FF0000348BF0A3200D530BD401C6F
:100B000041F1000130BD2DE9F0470D46994692466E
:100B1000044600F124080168880604D5E06921F044
:100B20001001216000E00120A84201DD471B00E028
:100B30000027A1697A1902EB0900081AA061207840
:100B4000C00602D42046FFF7E0FC002608E0D4E906
:100B500001211AF806009047206A401C761C20628A
:100B60004E45F4DB2078C0060AD52046FFF7CDFCC1
:100B700006E0D4E9012130209047206A401C206221
:100B8000381EA7F10107F4DC07E0D4E9012118F8C9
:100B900005009047206A401C2062281EA5F101052F
:100BA000F3DC2046FFF7C7FC2078000602D50220C0
:100BB000BDE8F0870120FBE72DE9FF4F0C461E46FC
:100BC0004FF0FF378BB0D2E90001DDF860800A906A
:100BD0008A46C1F30A5505B93D46002108464FF043
:100BE0000000BAF1000F00F4400005DA00EB8000CD
:100BF0004FF4400101EA50004FEA9059B9F1010F5A
:100C000000DDB9460A9850EA4A000ED044F610506A
:100C1000A5F2FF3545432F14B8F1000F1ED07542E1
:100C2000291E1EDDC9F100021CE0B8F1010F4FF0D2
:100C3000000001D0302103E0F24305E02154401CC4
:100C4000B042FBDB30460022002121540B99C1F851
:100C50000880C1E900200FB0BDE8F08FBD1B6D1CFE
:100C6000DEE74A4600DA694206A800F0F7FB06AB69
:100C700093E8070003AB83E8070050460A9905F0A4
:100C8000A6FF8DE80700A0F500501F3800900398DC
:100C9000002D0ADD42F21F014A460844002303A941
:100CA0000390684606F010FA09E0A0F500504A46A5
:100CB0001F38002303A90390684606F01AFA8DE84E
:100CC00007000004000C03D04FF0FF30410800E0A3
:100CD0001046B8F1000F03D00022009215461EE026
:100CE000751E05D4FFF7CAFE303262556D1EF9D568
:100CF000B3460122084302D000227F1C04E0207882
:100D0000302801D100227F1E002A099784D01DE0DF
:100D1000112D07DAFFF7B2FE303262556D1C50EA32
:100D20000102F5D1084302D00098C8B10EE00021BD
:100D3000681E05E0235C625C63542254401E491C1B
:100D40008142F7DBAB46A81B401E0990002004F847
:100D50000B000B98099AC0F80880C0E9002B7AE7CD
:100D600011264FF0000857E72DE9F04F884604465A
:100D7000D21D22F0070191B0D1E90001CDE90A01AD
:100D800006F0EEFA02460B98C00F01D02D2007E0C6
:100D90002068810701D52B2002E0202101EAC00054
:100DA000032A099001D0072A05DB03464146204665
:100DB00000F014FB0BE12078800601D5E06900E02B
:100DC0000620B8F1650F814606D0B8F1660F18D03D
:100DD000B8F1670F70D131E00020B9F1110F009028
:100DE00001DB112301E009F101030AAA01A90CA802
:100DF000FFF7E2FEDDE90C70002609F101058346EC
:100E000047E001204B4600904FF000470AAA01A995
:100E10000CA8FFF7D1FEDDE90DB00C995D46002668
:100E200010B909F101000D18B9EB050003D4C0F1A8
:100E3000FF3609F10105A5EB09002BE0B9F1010F1F
:100E400001DA4FF001090020B9F1110F0090484676
:100E500001DD112300E003460AAA01A90CA8FFF74F
:100E6000ABFEDDE90C704D46002683462078000776
:100E70000AD4AB4500DA5D4601A8012D04DD411915
:100E800011F8011C302907D04F4502DA17F1040F81
:100E900004DA012082460FE06D1EEEE7002F02DC2F
:100EA000ED1B3E4403E0781CA84200DD7D1CB81B0E
:100EB00000F1010A4FF000472078000703D4AA454B
:100EC00001DB4FF0FF3A0021B7F1004F0DF143086D
:100ED0008DF8431024D002202B23002F01DA7F420B
:100EE0002D230A21021EA0F1010000DC5FB197FB57
:100EF000F1FC97FBF1F201FB1C7C17460CF1300C66
:100F000008F801CDEEE7A8F101000370218809057A
:100F100001D5452100E06521A0F1010800F8011C80
:100F200009980FA9A1EB0807FF1D00B10120411985
:100F300001EBEA70A1693844081A401EA0612078CC
:100F4000C00602D42046FFF7E0FA099828B1D4E998
:100F500001219047206A401C20622078C00622D5DB
:100F60002046FFF7D2FA1EE0002E04DBB34502DD77
:100F700001A8805D00E03020D4E901219047206A7B
:100F8000401C2062761CAAF101005FEA000A0AD127
:100F900000F020FAC0680168405CD4E90121904764
:100FA000206A401C2062281EA5F10105DCDC07E058
:100FB000D4E9012118F8010B9047206A401C2062F7
:100FC000381EA7F10107F3DC2046FFF7B4FA03202F
:100FD00011B041E62DE9F04F04460D46D21D22F036
:100FE000070089B0D0E900974846394606F0B8F9BD
:100FF0000246F80F01D02D2307E02068810701D5B4
:101000002B2302E0202101EAC0038DF820300BB130
:10101000012000E00020032A824601D0072A04DBD9
:101020002946204600F0DAF93FE12078800601D415
:101030000D2500E0E569C7F30A560D2D49DA0021B8
:101040004FEA175B08464FF00000002F00F4400005
:1010500007DA00EB80004FF4400100EBD07001EAAA
:1010600060008115012901DD4FF0FF3100224FEAB8
:10107000850CBCF1180F06D31346ACF118004FF0E5
:101080008052C24003E04FF4801323FA0CF30CF1BA
:101090000C0CBCF1200F04D3ACF1200C09FA0CF0BD
:1010A00001E007FA0CF000294FF0004801DD18B903
:1010B0000FE00ED140450CD319EB02095F4121B975
:1010C000404502D19F4329EA0209BBEB175F00D0DC
:1010D000761C2088000502D57B48784402E07A48D7
:1010E0007844193808AA302302F80A30037C0AF140
:1010F0000101002E0AF1020A53546A4602DC4FF045
:10110000300101E04FF031014FF001088DF800107F
:1011100002D0A6F2FF3603E059EA470100D06B4E39
:10112000002D02DC2178090704D54FF002082E219A
:101130008DF80110C44600210BE0C7F303433F01C3
:10114000C35C491C6D1E02F80830052908F101082E
:1011500001DA002DF1DC00210CE000EB1973491CD1
:101160001B786D1E082902F808304FEA091908F1AA
:10117000010801DA002DF0DC21688B0602D516E0AB
:10118000A8F10108E04505DD02EB080313F8013C76
:10119000302BF5D0B8F1000F09DD02EB080313F88E
:1011A000013C2E2B03D1090701D4A8F10108002D21
:1011B00005DD3E2102F808106D1E08F10108407C93
:1011C000002E02F8080008F1010804DA2D2076420A
:1011D00002F8080002E02B2002F808000A214FF470
:1011E0007A70864208F101080BDB96FBF0F330338E
:1011F00002F8083096FBF0F308F1010800FB1366D3
:1012000001E0642E0CDB642096FBF0F3303302F82F
:10121000083096FBF0F308F1010800FB136601E0CB
:101220000A2E06DB96FBF1F0303002F8080008F1D8
:10123000010896FBF1F001FB1060303002F8080065
:10124000A16908F1010808EB050202EB0A00081A7F
:10125000A0612078C00602D42046FFF756F9216A23
:1012600008AE01EB0A00206204E0D4E9012116F87F
:10127000010B9047BAF1010AF7D22078C00602D5D7
:101280002046FFF742F96E4609E016F8010B3E28AA
:101290000FD0D4E901219047206A401C2062B8F1A8
:1012A0000108F2D22046FFF746F909B00320BDE855
:1012B000F08F206A2844206203E0D4E90121302025
:1012C00090476D1EEBD3F8E7ED7E000002FCFFFFB8
:1012D00010B5436913B1AFF3008001E0FFF74EF999
:1012E000012010BD127800F124010A7000224A701A
:1012F0000122EDE711684FF0FF32E9E710B54369CD
:1013000013B1AFF3008001E0FFF7D2F9012010BD67
:10131000128800F1240182840022C2840122EDE7B8
:1013200011684FF0FF32E9E72DE9F04116460C460F
:10133000054600F047F8036893F80101012807D03B
:10134000FF2C12D8185D80B101202C70BDE8F0810F
:10135000D3F807013246214603F20713C71828467F
:10136000BC46BDE8F041002360474FF0FF30EDE799
:1013700000487047380000207546FFF7F9FFAE4679
:1013800005006946534620F00700854618B020B591
:10139000FEF780FFBDE820404FF000064FF0000749
:1013A0004FF000084FF0000BAC46ACE8C009ACE8C9
:1013B000C009ACE8C009ACE8C00921F007018D46BE
:1013C0007047000010B500F005F8001D10BD00BF0B
:1013D0003D67000000487047580000202DE9F041AB
:1013E0001F46044603260168072A01F4006004DB57
:1013F00008B116A505E016A503E008B115A500E0A3
:1014000015A521F010002060A069C01EA0610FB1D9
:10141000401EA0612046FFF778F84FB1D4E90121C2
:1014200038469047206A401C2062C01C206206E0BB
:10143000206AFAE7D4E9012115F8010B9047761EDE
:10144000F8D22046FFF777F8BDE8F0814E414E0014
:101450006E616E00494E4600696E66002DE9F047E8
:10146000814616468AB0354878440DC88DE80D008F
:1014700032487844801C03AC0DC884E80D0041F666
:101480009B300844372190FBF1F290FBF1F5A5F178
:10149000800501FB12041B3C02D56442012000E0E0
:1014A0000020DFF898A080460027FA44AAF1BE0A7F
:1014B0000EE0E0070AD03246684607EB47010123F9
:1014C0000AEB810105F015FE8DE8070064107F1C12
:1014D000002CEED1194F7F44AE3F19E0E80715D03C
:1014E00007EB04100DF1180A90E80E008AE80E00D0
:1014F000C068F04201D1981908903246012306A92C
:1015000003A805F0F6FD03AB83E807006D10641C2B
:10151000002DE3D14FF0010332466946B8F1000FC8
:1015200003A802D005F0D0FD01E005F0E2FDC9E915
:101530000001C9F808200AB0BDE8F087F07B000080
:1015400010B50446AFF300802046BDE81040FEF71A
:101550008CBE00004FF0013C50F8042B51F8043BC6
:101560009A4221D1A2EB0C03934313EACC1317D177
:1015700050F8042B51F8043B9A4215D1A2EB0C030E
:10158000934313EACC130BD150F8042B51F8043BCE
:101590009A4209D1A2EB0C03934313EACC13DBD09C
:1015A0004FF00000704700BFD01A01BAB1FA81F1C4
:1015B00001F0180122FA01F0CB40DBB2C0B2C01A30
:1015C000C1F120012CFA01F3D11A914311EAC311A0
:1015D000E6D1704701491820ABBEFEE726000200A5
:1015E00070470000FEE7000070470000EFF3108036
:1015F00072B600BFFEE70000014690F82100022805
:1016000016D10868D1E90FC3026822F00E02026009
:10161000026822F001020260012000FA03F2CCF815
:10162000042081F821000020002281F8202070474A
:10163000042088630120002281F8202070470000E8
:1016400080B590F82110022928D1026840F2040CDC
:101650001368C4F2020C23F00E03136013680CF13C
:101660007C018A4223F0010111601BD940F208413C
:10167000C4F202018A4249D040F21C41C4F2020184
:101680008A4247D040F23041C4F202018A4245D139
:101690004FF48073CCF800345DE000BF0421816317
:1016A000012080BD4321C4F202018A420EDD6B217C
:1016B000C4F202018A421BDC4421C4F202018A42C4
:1016C0003CD05821C4F202018A4233E00821C4F21E
:1016D00002018A4236D01C21C4F202018A4237D06C
:1016E0003021C4F202018A4224D14FF4807230E0EA
:1016F0006C21C4F202018A4226D08021C4F2020188
:101700008A4217D14FF0807223E000BF0123CCF84A
:10171000003420E01023CCF800341CE00CF5886184
:101720004FF480338A4208BF4FF48053CCF8003422
:1017300011E000BF4FF480320BE000BF4FF4805245
:1017400007E000BF012204E04FF4801201E000BF77
:101750001022CCF80020012180F82110426B0021DA
:1017600080F820100AB190470021084680BD000093
:10177000B0B5044600F014F9054640F20000C2F28C
:1017800000000078611C18BF044400BF00F008F995
:10179000401BA042FAD3B0BD2DE9F04F82B0D1F882
:1017A00000C0BCF1000F00F0F180A0F1804241F6D2
:1017B0000045A2F58432C4F2010540F2004E4FEA22
:1017C000B2240627A842C4F2010E08BF0527052C43
:1017D0004FF000044FF001084FF00F034FF0000AE4
:1017E0004FF0000B38BF4FEAB22700970AE000BF66
:1017F000D1F800C00AF1010A3CFA0AF204F104042B
:1018000000F0C48008FA0AF91CEA090FF0D04E680B
:101810004FF6FF72C1F21002964211DC122E55D81B
:10182000DFE806F0340A4448545454545454545491
:1018300054545454544C5000D1F80CB046E000BFFE
:101840004FF6FF72C1F2210296420FDC0022C1F274
:10185000110296421AD00022C1F21202964215D00D
:101860000022C1F22102964210D02FE00022C1F2E4
:10187000220296420AD00022C1F23102964205D0DD
:101880000022C1F23202964220D100BF8A684AB1DA
:10189000012A14BFC0F81490C0F810904FF0080B44
:1018A00014E000BF4FF0040B10E000BFCA6802F163
:1018B000080B0BE04FF0000B08E000BFCA6802F114
:1018C000040B03E0CA6802F10C0B00BF2246064677
:1018D000BAF1080F24BF203A0436376803FA02F53C
:1018E000AF430BFA02F23A433260CA79D2067FF56F
:1018F0007FAF41F21807C4F202073A684FF6084377
:1019000042F001023A603A68CFF6FF7302F001023A
:101910000192019A2AF0030272440F25D75804F06D
:101920000C06B540AF43009D05FA06F63743D75085
:101930004E6840F20C45F202DEF8082054BF22EA5D
:10194000090242EA0902CEF80820C4F201052A6819
:10195000B70254BF22EA090242EA09022A60DEF80D
:101960000420B70354BF22EA090242EA0902CEF872
:1019700004200F23DEF80020F70354BF22EA0902F7
:1019800042EA0902CEF8002032E700BF02B0BDE80B
:10199000F08F0000002A08BF0904016170470000B1
:1019A00040F22420C2F200000068704770B5B8B35E
:1019B000044690F83D0028B9002084F83C002046F9
:1019C00000F002FB242084F83D002068016821F02B
:1019D00001010160016841F400410160016821F4E6
:1019E0000041016000F0B2FC48F28041C0F21E01EB
:1019F00040F60013D4F804E088424FF00001C0F232
:101A00003D0348F2A16C4FF0000238BF012198421B
:101A1000C0F2010C38BF0122E64538BF0A460AB1C0
:101A2000012070BD4DF68361C4F21B31A0FB011291
:101A30002168950C4B684FF4967623F03F0343EAF8
:101A40009243754344F6D3564B60C1F262060B6A6B
:101A5000A5FB0656B50923F03F03E64538BF950CB4
:101A60006A1C1A430A62CA6948F2A0664CF6FF7300
:101A7000C0F20106B64522EA03020BD801384FEA4C
:101A80004E03B0FBF3F001306FF31F30042898BF12
:101A900004201EE0A368013863B119230EFB03F391
:101AA000B0FBF3F001306FF31F3078B100F58040E8
:101AB00008E000BF0EEB4E03B0FBF3F001306FF314
:101AC0001F3028B100F5004003E000BF012000E016
:101AD00001201043C8610868D4E9072320F0C00042
:101AE000104318430860886848F2FF3204F10C067E
:101AF00090434CCE18431043A5698860C86820F015
:101B0000FF0030432843C860086840F001000860C7
:101B100000202021206484F83D10206384F83E00DA
:101B200070BD00002DE9F04F85B0044600209946B5
:101B300016460F460490FFF733FF94F83D10202916
:101B400027D10546206800BF816989071CD5FFF7AA
:101B500027FF411B20681A29F6D381698907F3D52D
:101B600000202021206384F83D1084F83E00206C82
:101B700004F13C0A40F020002064022000218AF891
:101B8000001005B0BDE8F08FA2461AF83C1F0129ED
:101B900004D1022005B0BDE8F08F00BF01228AF811
:101BA00000200368DDE90F180E9ADB0703D10368F4
:101BB00043F001030360036823F400630360222001
:101BC00084F83D00402084F83E00002020646262DA
:101BD0006185608D394620850020CFF6FF70E06278
:101BE000204632464B46CDF80080019501F0C0FCFE
:101BF00020B1012005B0BDE8F08F00BF208D022884
:101C000010D0012824D0002838D10020039020686B
:101C100041690391816903910399016841F400715D
:101C2000016037E02068016841F400610160EFF372
:101C3000108072B600200390206841690391816989
:101C400003910399016821F48061016062B621E08B
:101C50002068016821F480610160EFF3108072B6A2
:101C600000200390206841690391816903910399E1
:101C7000016841F40071016062B60BE02068016800
:101C800041F4806101600021039141690391806901
:101C900003900398208D002800F0CA80042740F2AA
:101CA00008094BF2895BC0F20107C2F20009C1F2D8
:101CB000F84B232617E000BF204641462A4601F094
:101CC00001FF002895D12068616A00690870606A88
:101CD000218D01306062481E2085618D013961854A
:101CE000010400F0A58080B2032865D8022800F026
:101CF0007F800128E0D020463946002243460095E7
:101D000001F086FD00287FF474AF2068016821F49B
:101D100080610160EFF3108072B62068616A00692B
:101D20000870606A218D0130013960622185618D02
:101D300001396185D9F80010C908A1FB0B12110AFD
:101D4000714304910499013904910499002900F028
:101D50007B8021684A6952071DD404990139049196
:101D60000499002970D021684A69520713D4049954
:101D7000013904910499002966D021684A69520703
:101D800009D4049901390491049900295CD021688F
:101D90004A695207D6D50A6842F400720A60096996
:101DA0000170606A218D01306062481E2085608D5F
:101DB0000138608562B686E7204641462A4601F032
:101DC00081FE00287FF415AF2068616A0069087001
:101DD000606A2268411C208D616201382085638D14
:101DE000013B638553695B077FF57AAF10696DE747
:101DF0002046394600224346009501F009FD00289F
:101E00007FF4F7AEEFF3108072B62068616A026863
:101E100042F40072026000690870606A218D01302E
:101E20006062481E2085608D0138608562B64AE791
:101E3000202084F83D00002084F83E0000218AF82C
:101E4000001005B0BDE8F08F00202021206384F849
:101E50003D1084F83E00206C40F02000206462B603
:101E6000012000218AF8001005B0BDE8F08F0000C5
:101E70002DE9F04383B0994616460F460446FFF716
:101E80008FFD94F83D10202920D10546206800BF21
:101E90008169890716D5FFF783FD411B20681A2940
:101EA000F6D381698907F3D500202021206384F8C7
:101EB0003D1084F83E00216C41F02001216484F83B
:101EC0003C0003E094F83C10012903D1022003B048
:101ED000BDE8F083012284F83C200368DDE90B189B
:101EE0000A9ADB0703D1036843F001030360036828
:101EF00023F400630360212084F83D00402084F82F
:101F00003E000020206462626185608D3946208534
:101F10000020CFF6FF70E062204632464B46CDF8F7
:101F20000080019501F0B0FB20B1012003B0BDE8B5
:101F3000F08300BF208D98B9204641462A4601F023
:101F400007FC88B3206C0428EFD12068016841F4B5
:101F500000710160012003B0BDE8F0830004EBD004
:101F6000204641462A4601F0F5FD0028EAD1616A83
:101F70002268084610F8013B1361238D6062581EE9
:101F80002085678D013F678557697F07E6D5070480
:101F9000E4D048781061881C6062981E2085618DAD
:101FA00001396185DAE700BF2068016841F40071FA
:101FB0000160202084F83D00002084F83E0084F871
:101FC0003C0003B0BDE8F08310B586B045F2004197
:101FD0000068C4F2000100228842049202D006B0D8
:101FE00010BD00BF41F21804C4F20204206840F0A2
:101FF00008002060206800F0080001900198C020CF
:102000000290122003900320059001F5384002A9A8
:10201000FFF7C2FB606840F400106060606800F485
:1020200000100190019806B010BD000040F20000C1
:1020300040F22421C2F20000C2F2000100780A68D6
:10204000104408607047000080B542F20000C4F2FE
:102050000200016841F010010160032000F086F8E1
:102060000F2000F005F800F027F8002080BD0000E8
:1020700070B540F20006C2F2000640F20801327864
:10208000C2F200014FF47A730968B3FBF2F204461E
:10209000B1FBF2F1084600F05BFB0F2C4FF001059D
:1020A00008D838B94FF0FF3021460022002500F053
:1020B00031F87460284670BD82B041F21800C4F255
:1020C0000200016841F001010160016801F00101B5
:1020D00001910199416841F080514160406800F0F0
:1020E00080500090009802B070470000002848BF60
:1020F0007047C1B200F01F00012202FA00F04EF258
:102100000012CEF2000242EAD10121F00301086080
:102110007047000010B54EF60C5CCEF2000CDCF8F7
:102120000030C3F3022E8EF00704042C28BF0424D1
:10213000BEF103034FF0FF3E0EFA04F438BF002354
:10214000A14399400EFA03F39A43114300F00F02A2
:1021500000F160430901043A03F564436244002836
:1021600048BF02F10C03197010BD00004EF60C516F
:10217000CEF200010A684FF6FF031A4060F30A220C
:1021800042F0806040F0FD70086070472DE9F04338
:1021900081B0002800F0858042F20008C4F20208F5
:1021A0000446D8F800000D4600F0070088420CD223
:1021B000D8F8000020F007002843C8F80000D8F83D
:1021C000000000F00700A8426BD1206841F204092A
:1021D0008107C4F2020917D5410705D5D9F80010C7
:1021E00041F4E061C9F80010010705D5D9F80010E5
:1021F00041F46051C9F80010D9F80010A26821F02C
:10220000F0011143C9F80010C00741D1D8F800000F
:1022100000F00700A8420CD9D8F8000020F0070011
:102220002843C8F80000D8F8000000F00700A842D2
:1022300037D12068410707D5D9F80010E26821F4AA
:10224000E0611143C9F80010000708D5D9F8000073
:10225000216920F4605040EAC100C9F80000D9F8B3
:10226000002002F00C00082841F20020C0F27A00A1
:1022700050D149F29403C2F38341C0F60003595C84
:10228000D2033BD440F60010C0F23D00484341E089
:10229000606802280AD001282AD159F8041C890351
:1022A00008D4012001B0BDE8F08300BF59F8041C38
:1022B0008901F6D5D9F8001021F003010843C9F8C7
:1022C0000000FFF76DFB064641F28837D9F80000A1
:1022D000616800F00C00B0EB810F97D0FFF760FB56
:1022E000801BB842F2D9032001B0BDE8F08300BFE3
:1022F00059F8041C8907D4D5DCE700BFD9F80020C1
:1023000049F29203C2F34042C0F600039A5C48438C
:10231000B0FBF2F0D9F8001049F27A02C1F30311D0
:10232000C0F60002515C40F2080220FA01F140F2CE
:102330000400C2F200000068C2F200021160FFF760
:1023400097FE002001B0BDE8F083000040F20800D5
:1023500041F20401C2F20000C4F2020100680968FF
:1023600049F28A02C1F30221C0F60002515CC84062
:102370007047000040F2080041F20401C2F2000080
:10238000C4F202010068096849F28A02C1F3C2215D
:10239000C0F60002515CC840704700002DE9F041D2
:1023A00082B0002868D00446007841F20006C007D9
:1023B000C4F2020625D0706800F00C0004281BD07F
:1023C000706800F00C00082802D17068C00313D4B4
:1023D0006068002800F06881B0F5A02F00F07C81D3
:1023E000B0F5803F00F07C81306820F480303060B0
:1023F000306820F4802076E13068800301D5606881
:10240000D0B32078800718D5706810F00C0F07D073
:10241000706800F00C0008286ED17068C0036BD49F
:102420003068800702D52069012825D130686169AC
:1024300020F0F80040EAC1003060207800071FD487
:102440002078400732D4E56995B1706800F00C003F
:10245000082840F08F80012D0ED07068216A00F4AA
:1024600080328A4208D1616A00F47010884203D138
:10247000002002B0BDE8F081012002B0BDE8F0818B
:10248000A069002862D00020C4F242200121C0F8D7
:102490008014FFF785FA0546706A800700F18C808A
:1024A000FFF77EFA401B0228F6D92AE1F06910F006
:1024B000805808D1F06940F08050F061F06900F078
:1024C00080500090009847F20007C4F20007386877
:1024D000C00529D4386840F480703860FFF760FA8E
:1024E000054600BF3868C0051ED4FFF759FA401BE7
:1024F0006428F7D905E100BF2069002840F20000F8
:10250000C4F2422000F0828001210160FFF748FA06
:10251000054600BF306880073FF588AFFFF740FAF7
:10252000401B0228F6D9ECE0E068002800F080802B
:10253000052800F09780012800F09880306A20F08C
:1025400001003062306A20F0040092E00020C4F202
:1025500042200021C0F88014FFF722FA054600BF90
:10256000706A80077FF56CAFFFF71AFA401B0228EC
:10257000F6D9C6E00027C4F2422700203866FFF7EC
:102580000FFA022D05460BD13068800140F1BE8064
:10259000FFF706FA401B02284FF00300F4D968E762
:1025A000306880017FF564AFFFF7FAF9401B02281D
:1025B0004FF00300F4D95CE740F20800C2F20000DB
:1025C000006844F6D351C1F26201A0FB0101480A40
:1025D000019000BF00BF0198411E002801913FF407
:1025E0002FAF00BF0198411E002801913FF428AF92
:1025F00000BF0198411E002801913FF421AF00BFA8
:102600000198411E00280191E4D119E700210160E1
:10261000FFF7C6F9054600BF306880077FF50DAFAC
:10262000FFF7BEF9401B02284FF00300F4D920E762
:10263000306A20F001003062306A20F0040030621D
:10264000FFF7AEF9054641F2883700BF306A8007D0
:1026500020D5FFF7A5F9401BB8424FF00300F5D98C
:1026600007E700BF306A40F004003062306A40F093
:1026700001003062FFF794F9054641F2883700BF48
:10268000306A800706D4FFF78BF9401BB842F7D9B0
:1026900037E000BFB8F1000F7FF4D5AEF06920F04D
:1026A0008050F061CFE600BF306820F480303060A9
:1026B000306820F480203060FFF772F9054600BFD3
:1026C000306880037FF59DAEFFF76AF9401B6428F0
:1026D0004FF00300F4D9CCE6306840F4802030603D
:1026E000306840F480303060FFF75AF9054600BF8B
:1026F000306880033FF585AEFFF752F9401B642830
:10270000F6D9032002B0BDE8F08100BF206AB0F521
:10271000803F05D17168A26821F4003111437160D6
:102720007168626A21F474111143084370600120DA
:102730003866FFF735F90446306880013FF598AEFA
:10274000FFF72EF9001B02284FF00300F4D990E6A2
:10275000411E0020B0EB116F1CBF012070474EF2EC
:102760001002CEF2000251604EF62351CEF200016B
:10277000F0230B70072190601160704770470000D4
:102780007047000010B590F83C20012A4FF002027B
:102790003FD080F83D200268D2F804E0D2F808C0AB
:1027A0000C682EF07003234340F6FF34C4F200049B
:1027B000A242536010DCB2F1804F1FD040F20043C0
:1027C000C4F200039A4219D040F60003C4F2000399
:1027D0009A4213D017E000BF40F60043C4F2000352
:1027E0009A420BD043F20043C4F201039A4205D04F
:1027F00042F60043C4F201039A4204D149682CF026
:102800008003194391600121002280F83D1080F877
:102810003C20104610BD0000002804BF0120704776
:1028200010B5044690F83D0028B9002084F83C001B
:10283000204600F085F8022084F83D00206840F62C
:10284000FF330268C4F2000343F2004C9842C4F222
:10285000010C21DCB0F1804F2CD040F20041C4F2D9
:102860000001884226D040F60001C4F200018842EF
:1028700020D0984224DCB0F1804F2FD040F20041AC
:10288000C4F20001884229D040F60001C4F20001E0
:10289000884223D026E000BF40F60041C4F2000188
:1028A000884207D0604505D042F60041C4F20101DC
:1028B0008842DED1A16822F070020A439842DADD34
:1028C00040F60041C4F20001884207D0604505D0BF
:1028D00042F60041C4F20101884203D1216922F489
:1028E00040720A43A36922F08001D4F804E0E26850
:1028F000194360450160C262C0F828E005D042F685
:102900000041C4F20101884201D1616901630121E2
:102910004161002084F8461084F83E1084F83F108E
:1029200084F8401084F8411084F8421084F8431071
:1029300084F8441084F8451084F83D1010BD000060
:1029400080B582B0006841F20001C4F20001884203
:102950001CBF02B080BD41F21C00C4F2020001683D
:10296000002241F0100101600068002100F0100019
:10297000019001983620FFF7CDFB362002B0BDE86C
:102980008040FFF7B3BB000090F83D1001291CBF49
:1029900001207047022180F83D10006840F6FF32A8
:1029A000C168C4F20002904241F00101C1600FDC35
:1029B000B0F1804F1ED040F20041C4F200018842C5
:1029C00018D040F60001C4F20001884212D018E08D
:1029D00040F60041C4F2000188420BD043F20041AE
:1029E000C4F20101884205D042F60041C4F201015F
:1029F000884206D1816801F00701062904BF002042
:102A00007047016841F0010101600020704700003B
:102A10000146006841F21113C26822F00102C2604F
:102A2000026A1A4204D00122002081F83D2070473A
:102A3000026A40F244431A42F5D1026822F00102D0
:102A400002600122002081F83D207047704700009D
:102A500010B5016804460869800744BFC8685FEA8A
:102A6000807039D40869400744BFC8685FEA407085
:102A70003ED40869000744BFC8685FEA007045D4C7
:102A80000869C00644BFC8685FEAC0604AD40869E4
:102A9000C0071CBFC8685FEAC07051D10869000652
:102AA00044BFC8685FEA006052D40869400644BF6A
:102AB000C8685FEA406053D40869800646BFC868AA
:102AC0005FEA806010BD6FF0200220460A61BDE819
:102AD0001040FFF755BE00BF6FF0020008610120F3
:102AE00020778869800743D02046FFF7AFFF45E095
:102AF0006FF00400086102202077886910F4407F9D
:102B000040D02046FFF7A2FF42E000BF6FF0080070
:102B1000086104202077C86980073DD02046FFF770
:102B200095FF3FE06FF01000086108202077C8692A
:102B300010F4407F3AD02046FFF788FF3CE000BF0A
:102B40006FF001000861204600F03EF82168A5E71B
:102B50006FF0800008612046FFF710FE2168A4E7AF
:102B60006FF040000861204600F052F82168A3E7AA
:102B7000204600F025F8204600F024F821680020C7
:102B800020776FE7204600F01BF8204600F01AF887
:102B90002168002020776CE7204600F011F82046DD
:102BA00000F010F821680020207769E7204600F047
:102BB00007F8204600F006F821680020207766E735
:102BC000704700007047000080B540F23011C2F23B
:102BD0000001884218BF80BD40F2AC0040F2B8014D
:102BE000C2F20000C2F2000103F0AEFD50B106A037
:102BF00003F0DAFE40F23010C2F20000BDE880407F
:102C0000FFF706BF80BD00BF4661696C65640A00BE
:102C1000704700007047000070470000B0B582B0F8
:102C2000044600680168C368426901F02F05202D41
:102C300003F0200506D12DB1204602B0BDE8B0401A
:102C400001F09AB85FEA017C1EBF02F0010E03F4A6
:102C5000907212EB0E0253D1226B012A05D111F0B2
:102C6000100218BF13F0100236D10A0622D513F055
:102C700080021FD094F8411021293FD1A168B1F5FD
:102C8000805F03D12169002900F07082216A4A1C0B
:102C9000226209784160E18C01390A04E1842DD176
:102CA000C16821F08001C160C16841F04001C1608C
:102CB00002B0B0BD490621D513F040011ED0C16855
:102CC00021F04001C1602021204684F8411002B06B
:102CD000BDE8B04000F048BC0021019101680191BD
:102CE0004168019101994069400613D4A08DE18D9E
:102CF000E28D002A18BF884240F0BA8102B0B0BD10
:102D0000CA0718BF13F4807240F0B6804A0700F17A
:102D1000B980BEE0E06B016849688AB2002AEDD054
:102D2000A38D9A42EAD2E1858069202800F09C8038
:102D3000206850E8030F216820F4807041E8030206
:102D4000DAB1206850E8030F216820F4807041E870
:102D5000030292B1206850E8030F216820F48070CC
:102D600041E803024AB1206850E8030F216820F4CB
:102D7000807041E80302002ADAD1206850E8050F8C
:102D8000216820F0010041E80502DAB1206850E82E
:102D9000050F216820F0010041E8050292B120688A
:102DA00050E8050F216820F0010041E805024AB112
:102DB000206850E8050F216820F0010041E8050275
:102DC000002ADAD1206850E8050F216820F0400081
:102DD00041E80502DAB1206850E8050F216820F0CB
:102DE000400041E8050292B1206850E8050F2168D3
:102DF00020F0400041E805024AB1206850E8050F84
:102E0000216820F0400041E80502002ADAD12020A4
:102E100084F8420000202063206850E8030F2168F6
:102E200020F0100041E80302DAB1206850E8030FF7
:102E3000216820F0100041E8030292B1206850E8B8
:102E4000030F216820F0100041E803024AB1206816
:102E500050E8030F216820F0100041E80302002A27
:102E6000DAD1E06BFEF7C8FB02206063A08DE18D34
:102E7000401A81B2204674E1626C42F00102626441
:102E80004A0706D5BEF1000F03D0626C42F0020281
:102E900062648A0706D5BEF1000F03D0626C42F06F
:102EA00004026264BCF1000F09D545EA0E02B2FAD1
:102EB00082F2520903D1626C42F008026264626CD1
:102EC000002A3FF41BAF11F0200118BF002D03D0E2
:102ED000204600F051FF20684069616C00F040001E
:102EE00001F00801401800F0B58000BF206850E8EC
:102EF000030F216820F4907041E80302BAB3206800
:102F000050E8030F216820F4907041E8030272B387
:102F1000206850E8030F216820F4907041E8030214
:102F20002AB3206850E8030F216820F4907041E82C
:102F30000302002ADAD11AE0206850E8050F216860
:102F400020F0010041E80502DAB1206850E8050FE1
:102F5000216820F0010041E8050292B1206850E8A4
:102F6000050F216820F0010041E805024AB1206800
:102F700050E8050F216820F0010041E80502002A11
:102F8000DAD1206B012824D1206850E8030F216892
:102F900020F0100041E80302DAB1206850E8030F86
:102FA000216820F0100041E8030292B1206850E847
:102FB000030F216820F0100041E803024AB12068A5
:102FC00050E8030F216820F0100041E80302002AB6
:102FD000DAD1202084F84200002020632068406974
:102FE00040063FD5206850E8050F216820F04000DA
:102FF00041E80502DAB1206850E8050F216820F0A9
:10300000400041E8050292B1206850E8050F2168B0
:1030100020F0400041E805024AB1206850E8050F61
:10302000216820F0400041E80502002ADAD1E06B77
:10303000C0B143F66D51C0F600014163FEF700FBDD
:1030400000283FF45BAEE06B416B02B0BDE8B040DE
:10305000084700BF2046FFF7DFFD0020606402B094
:10306000B0BD00BF204602B0BDE8B040FFF7D4BD00
:10307000401A216851E8031F226821F4907142E848
:103080000313DBB1216851E8031F226821F490711A
:1030900042E8031393B1216851E8031F226821F429
:1030A000907142E803134BB1216851E8031F226875
:1030B00021F4907142E80313002BDAD1216851E822
:1030C000051F226821F0010142E80513DBB12168E8
:1030D00051E8051F226821F0010142E8051393B170
:1030E000216851E8051F226821F0010142E805131B
:1030F0004BB1216851E8051F226821F0010142E827
:103100000513002BDAD1202184F84210002121631D
:10311000216851E8031F226821F0100142E80313DF
:10312000DBB1216851E8031F226821F0100142E859
:10313000031393B1216851E8031F226821F01001A5
:1031400042E803134BB1216851E8031F226821F0C4
:10315000100142E80313002BDAD1022281B220468B
:10316000626302B0BDE8B040FFF754BD216A31F898
:10317000022B6FF35F22426021628CE5002804BFBE
:103180000120704710B5044690F8410028B900208E
:1031900084F84000204600F063F8242084F84100C1
:1031A0002068D4E90212C36823F40053C3600369A2
:1031B00023F440531A430261D4E904231143C26843
:1031C000194341F20C639A431143C1604169A269FA
:1031D00021F44071114343F60002C4F2010290420F
:1031E000416103D0FFF7B2F802E000BFFFF7C2F879
:1031F0006268192148439100B0FBF1F048F21F5179
:10320000C5F2EB11A0FB01235A094FF69C73C0F6DF
:10321000FF7302FB0300322303EB0010A0FB01014C
:10322000F02303EA5113206803EB0212C1F34311A8
:1032300011448160016921F490410161416921F0EB
:103240002A014161C16841F40051C1600020202180
:10325000606484F8411084F84210606310BD00007F
:1032600070B586B040F60004C4F20104006804F5AD
:10327000405100268842049602D006B070BD00BFBF
:1032800041F21800C4F20200016802AD41F480412D
:103290000160016801F4804101910199016841F0E8
:1032A000040101600068294600F0040001900198C3
:1032B0004FF40070029002200390032005902046F6
:1032C000FEF76AFA4FF48060CDE9020620462946EF
:1032D0000496FEF761FA252000210022FEF71AFF6E
:1032E0002520FEF703FF06B070BD00007047000008
:1032F0002DE9F04381B0044690F84100202840F0C9
:10330000B180884600294FF0010000F0D6801646B3
:10331000002A00F0D2800020606421201D4684F83D
:103320004100FEF73DFBA684E684A1680646B1F5A0
:10333000805F03D12069002800F0988047464FF055
:103340000008E18C2068002900F0968005F1010951
:103350000BE000BF47B317F8011B4160E18C013956
:10336000E184E18C002900F0878001680906F1D42E
:10337000B9F1000F0AD0EDB1FEF712FB801BA84295
:1033800018D8206801680906F6D5E3E70168090640
:10339000E0D4016809065CBF01685FEA0161D9D425
:1033A00001680906F2D5D5E738F8021B00276FF34C
:1033B0005F21D2E7206850E8030F216820F4D07025
:1033C00041E80302BAB3206850E8030F216820F4F3
:1033D000D07041E8030272B3206850E8030F2168FF
:1033E00020F4D07041E803022AB3206850E8030FAC
:1033F000216820F4D07041E80302002ADAD11AE0F3
:10340000206850E8050F216820F0010041E805021E
:10341000DAB1206850E8050F216820F0010041E88A
:10342000050292B1206850E8050F216820F00100E4
:1034300041E805024AB1206850E8050F216820F0F4
:10344000010041E80502002ADAD1202084F8410079
:1034500084F84200002084F84000032001B0BDE859
:10346000F08300BF022001B0BDE8F0830027E18CAB
:10347000206800297FF46AAF0168490619D4FDB1BC
:10348000691C0DD10168490613D4016849065CBF67
:1034900001685FEA41610CD401684906F2D508E091
:1034A000FEF77EFA801BA8420AD820680068400612
:1034B000F6D5202084F84100002001B0BDE8F0835B
:1034C000206850E8030F216820F4D07041E803021F
:1034D000002A3ED0206850E8030F216820F4D07005
:1034E00041E80302AAB3206850E8030F216820F4E2
:1034F000D07041E8030262B3206850E8030F2168EE
:1035000020F4D07041E80302002AD9D121E000BFA5
:10351000206850E8050F216820F0010041E805020D
:10352000002A3FF492AF206850E8050F216820F090
:10353000010041E80502002A3FF487AF206850E807
:10354000050F216820F0010041E80502002A3FF440
:103550007CAF206850E8050F216820F0010041E8A9
:103560000502002AD4D170E770470000FEE7000092
:103570002DE9F04782B0044600680E460168DDF888
:1035800028A041F4806101600168DDF82C9041F4CD
:1035900080711D461746016020464FF00111002240
:1035A0005346CDF8009000F033F958B12068006818
:1035B000C00544BF4FF400702064032002B0BDE892
:1035C000F08700BF40F202082068C0F2010806F050
:1035D000FE0606612046414652464B4600F002FA7E
:1035E00020B1012002B0BDE8F08700BF00200190AB
:1035F00020684A46416901918069514601900198CD
:10360000204600F0A7FA98B92068012D08D0390AA1
:103610000161204651464A4600F09CFA40B92068B4
:10362000F9B20161204651464A4600F093FA58B17A
:10363000206C0428D5D12068016841F40071016034
:10364000012002B0BDE8F0872068002201685346DF
:1036500041F48071016020464FF00111CDF80090D7
:1036600000F0D6F80028A1D1206846F001010161E0
:103670002046414652464B4600F0B4F9002818BF98
:10368000012002B0BDE8F0872DE9F04383B0044685
:1036900000680D4601680A9F0B9E41F480719946AF
:1036A0009046016020464FF0011100223B460096F3
:1036B00000F0AEF850B120680068C00544BF4FF478
:1036C00000702064032003B0BDE8F083206805F09B
:1036D000FE0101610221C0F2010120463A46334653
:1036E00000F080F920B1012003B0BDE8F08300BFF5
:1036F0000020029020683246416902918069394673
:1037000002900298204600F025FA58B1206C042857
:10371000E9D12068016841F400710160012003B023
:10372000BDE8F0832068B9F1010F0AD04FEA1821F3
:10373000016120463946324600F00CFA0028E5D1F6
:1037400020685FFA88F10161002003B0BDE8F083D2
:1037500070B50368044653F8140F400711D40E46A1
:10376000481C29D086BB00BF1868400527D4FEF747
:1037700017F9236853F8140F400739D51868400724
:10378000F2D5002070BD00BF18684007F9D4186852
:10379000400514D418684007F3D4186840050ED4C7
:1037A00018684007EDD41868400508D41868400729
:1037B0004FF0000048BF70BD18684005E4D56FF4B5
:1037C00080601860042014E0154603E053F8140FDD
:1037D0004007D6D418684005F1D4FEF7E1F8401B45
:1037E0002368B042F2D958694007EFD4202000E0A6
:1037F000202000212022216384F83D2084F83E10FF
:10380000226C10432064012084F83C1070BD00003D
:103810002DE9F041054600681E46144601F47F027A
:1038200001338FB242D0DDF81880B2F5803F40F00E
:10383000878040693840C01BB0FA80F04009A04240
:1038400040F0C8804EB924E040693840C01BB0FA4F
:1038500080F04009A04240F0BD80FEF7A1F8A0EB47
:1038600008012868B142EFD941693940C91BB1FA52
:1038700081F14909A142E7D19BE000BF406938408E
:10388000C01BB0FA80F04009A0424FF0000040F0A9
:10389000A680FEF785F8286841693940C91BB1FA4E
:1038A00081F14909A142E9D183E000BFB2F5803F2F
:1038B00024D100BF41693940C91BB1FA81F14909DE
:1038C000A14240F0878041693940C91BB1FA81F1BA
:1038D0004909A14240F07E8041693940C91BB1FAD3
:1038E00081F14909A14275D141693940C91BB1FA39
:1038F00081F14909A142DDD06CE000BF8169394006
:10390000C91BB1FA81F14909A14263D181693940EA
:10391000C91BB1FA81F14909A1425BD181693940E2
:10392000C91BB1FA81F14909A14253D181693940DA
:10393000C91BB1FA81F14909A142DFD04AE000BFB9
:1039400080693840C01BB0FA80F04009A04241D1E4
:1039500046B923E080693840C01BB0FA80F04009C6
:10396000A0423BD1FEF71CF8A0EB08012868B14249
:10397000F0D981693940C91BB1FA81F14909A142E5
:10398000E8D116E080693840C01BB0FA80F04009E9
:10399000A0424FF0000018BFBDE8F081FEF700F82C
:1039A000286881693940C91BB1FA81F14909A142EE
:1039B000E8D100202021286385F83D1085F83E00DD
:1039C000296C41F02001296485F83C000120BDE804
:1039D000F08100BF0020BDE8F08100BF0020BDE8FD
:1039E000F0810000F0B581B0044600681D464369CF
:1039F0008FB203EA0701B94202D1002001B0F0BD45
:103A000041691646013201F4806125D0002940D178
:103A1000CEB100BFFDF7C4FF411B2068B14203D9FE
:103A200041693940B9424BD141693940B942E4D08A
:103A300041694905EED52CE041693940B942DCD0F5
:103A40004169490525D4FDF7ABFF2068416939403C
:103A5000B942F1D0202024E0D9B941693940B942B6
:103A6000CBD04169490514D441693940B942C4D029
:103A7000416949050DD441693940B942BDD0416918
:103A8000490506D441693940B942B6D04169490572
:103A9000E3D5016841F4007101606FF48061416118
:103AA000042000212022216384F83D2084F83E1068
:103AB000226C1043206484F83C10012001B0F0BD5A
:103AC0002020EEE770B504460068154650F8143F14
:103AD0005A063DD40E4629B926E000BF50F8141FFF
:103AE000490635D40168C90621D4FDF759FF411BA9
:103AF0002068B142F2D941694906EFD40020202163
:103B0000206384F83D1084F83E00206C40F02000D3
:103B100018E000BFFDF744FF206850F8141F490665
:103B2000ECD50168490613D40168C906F2D56FF0D7
:103B30001001016000202021206384F83D1084F8EA
:103B40003E00206C2064002084F83C00012070BD01
:103B5000002070BD70B50368044653F8140F0006CA
:103B600011D40E46481C29D086BB00BF18684005FA
:103B700027D4FDF715FF236853F8140F000639D535
:103B800018680006F2D5002070BD00BF1868000656
:103B9000F9D41868400514D418680006F3D41868DE
:103BA00040050ED418680006EDD41868400508D406
:103BB000186800064FF0000048BF70BD1868400547
:103BC000E4D56FF480601860042014E0154603E02B
:103BD00053F8140F0006D6D418684005F1D4FDF749
:103BE000DFFE401B2368B042F2D958690006EFD4CB
:103BF000202000E0202000212022216384F83D20A5
:103C000084F83E10226C10432064012084F83C109C
:103C100070BD000070B584B041F21800C4F202001B
:103C2000016840F6004441F0080101600168C4F2F7
:103C3000010401F00801009100990168002241F09F
:103C40000401016000684FF4406100F0040000903E
:103C5000009820464FF440650026FDF79BFE11209A
:103C6000CDE9010602200390694620460095FDF744
:103C700093FD04B070BD000080B540F2DC0045F259
:103C80000041C2F20000C4F2000141F6802200238C
:103C90004FF4804CC0F2060280E80E00C0E9033CFD
:103CA000C0E90533C0E90733FDF780FE002808BFEF
:103CB00080BDBDE88040FDF799BC000080B582B0B2
:103CC00040F2301041F200020021C2F20000C4F2C2
:103CD0000002472342F20F7CCDE90011C0E9002326
:103CE000C0E9021C8161FEF797FD002818BFFDF7AF
:103CF0007DFC40F23010C2F200006946FEF742FD42
:103D0000002818BFFDF772FC02B080BD80B540F2FC
:103D1000781043F60001C2F20000C4F20101002352
:103D20004FF00C0C4FF4E13280E80E00C0E9033391
:103D3000C0E905C3C361FFF721FA002808BF80BDB1
:103D4000BDE88040FDF752BCFEE70000FEE7000042
:103D50007047000070470000FEF768B97047000028
:103D600040F23010C2F20000FEF772BE406A00213D
:103D7000C185C184FEF750BF81B090F8421022295E
:103D800021D183680246B3F5805F09D152F8281F1C
:103D900052F8183C002B63D003685B680AE000BF50
:103DA00052F8281F13B90369002BF5D003685B682C
:103DB00003F07F030B70116801311160C18D01396F
:103DC0000A04C18502D001B0704700BF0168CA680B
:103DD00022F02002CA60CA6822F48072CA604A696E
:103DE00022F001024A61202180F842100021416343
:103DF000026B012A3CD10163016851E8031F02688C
:103E000021F0100142E80313DBB1016851E8031F00
:103E1000026821F0100142E8031393B1016851E8F0
:103E2000031F026821F0100142E803134BB101683F
:103E300051E8031F026821F0100142E80313002B30
:103E4000DAD101680A68D20606D5002200920A6813
:103E50000092496800910099818D01B0FEF7DABEA9
:103E6000026852686FF35F2221F8022B8162A5E796
:103E700001B0FFF73BBA000040F27810C2F2000038
:103E8000FEF7CCBEFEE700004EF60C50BFF34F8F9E
:103E9000CEF200000168042201F4E061C0F2FA529F
:103EA00011430160BFF34F8F00BF00BF00BF00BFD1
:103EB000FAE700002DE9F04186B004464CF60220F6
:103EC000C0F6E3100DF10205CDF8020068200421D0
:103ED0002A4602F005FCA3206FF03F018DF8020096
:103EE00014F0400608BF6FF05C016FF037026FF00E
:103EF0003D0308BF6FF05C0208BF6FF05C038DF8F4
:103F000003106FF03B018DF804208DF8053014F498
:103F1000C07708BF6FF05C016FF033026FF03903B8
:103F200008BF6FF05C0208BF6FF05C038DF80610ED
:103F30004AF2A3318DF80720ADF809108DF80B0077
:103F400040F6A7200A212A468DF8083002F0C8FB67
:103F5000202014F0030808BF6FF027008DF802003E
:103F600040F6B62001212A4602F0BAFBA0060BD487
:103F7000C720059048F6B000CCF2C35004904AF632
:103F8000B820CAF6AA200AE05D20059049F6B400E0
:103F9000C3F20D5004904AF6B820C8F6B35003900F
:103FA00003AA4FF49760092102F09AFB2FB36FF038
:103FB0004D016FF0740214F4807008BF6FF04F0170
:103FC00008BF6FF07F026FF049036FF0640508BF10
:103FD0006FF04B03002808BF6FF06F058DF80210DB
:103FE0008DF803200DF1020240F6A22004218DF885
:103FF00004308DF8055002F073FBE00708D1D8209B
:104000008DF802000DF102024FF40B60012150E027
:10401000F8208DF802000DF102024FF40B6001212F
:1040200002F05EFB0720FA2100F00EFD3F208DF824
:104030000C0003AA4FF4A470012102F051FB0020F0
:104040008DF80C0003AA40F24F10012102F048FB4A
:104050004FF4A050ADF80C0003AA4FF4EF7002210A
:1040600002F03EFB4FF4C840ADF80C0003AA4FF439
:10407000ED70022102F034FB48F60060C9F2F9004D
:10408000039003AA4FF4AE70042102F029FB4FF411
:104090000060ADF80C0003AA4FF4AD70022102F0ED
:1040A0001FFB4FF40070ADF80C0003AA4FF4AC7086
:1040B000022102F015FBA0076FF0260058BF6FF039
:1040C00027008DF802000DF1020240F23D7001213F
:1040D00002F006FB600752BF4FF08B304CF2C0205D
:1040E000CCF2C460039003AA40F69820042102F0A9
:1040F000F7FA01F0FDFAE00652BF4FF0A33042F6A6
:104100002000C3F63000039003AA40F69E2004214D
:1041100002F0E6FA01F0ECFA40F2980544F00800EB
:10412000C2F20005A88001F0E3FA002E18BF0626AF
:10413000002F18BF063614F0140F18BF46F01006F3
:10414000B8F1000F18BF043600202E7006B0BDE88D
:10415000F081000080B584B094460A4601464FF4D1
:104160007A70029040F2DC000093C2F2000001235A
:10417000CDF804C0FDF7D6FC04B080BD80B584B096
:1041800094460A4601464FF4FA70029040F2DC0071
:104190000093C2F200000123CDF804C0FDF768FED1
:1041A00004B080BD2DE9F04F8DB000208DF81500D2
:1041B00001200DF11501CDE9001040F2DC004FF4B3
:1041C0007A77C2F20000D121752201230297FDF710
:1041D000A9FC0120FDF7CCFA9DF81510BEA002F055
:1041E000E3FB0120FDF7C4FA9DF81500682840F0B4
:1041F000718100F087FF18B10DB0BDE8F08F00BFEE
:10420000782002F0F9F949F6805149F61164C0F6B8
:104210000001C0F60004002808BF2146084602F04D
:10422000C3FB782000F0B0FE49F65B51C0F60001F8
:10423000002808BF2146084602F0B6FB642002F0C1
:1042400039F949F61151C0F60001002808BF21468E
:10425000084602F0A9FB00F085F949F6A151C0F625
:104260000001002808BF2146084602F09DFB882077
:1042700000F076FB9DA1002808BF2146084602F009
:1042800093FB40F27310FFF715FEA2A1002808BFB0
:104290002146084602F088FB642000F0B9FAA7A185
:1042A000002808BF2146084602F07EFB0AA807A99D
:1042B00001F0E0FA03283DD106A800F0FBFEDDE99D
:1042C0000A060C9C04F088FB069D0146284604F073
:1042D00017FC04F065FB0A90304604F07DFB0146B4
:1042E000284604F00DFC04F05BFB0B90204604F024
:1042F00073FB0146284604F003FC04F051FB0C90CC
:104300000AA800F0BDFA0DF1160000F0B1FE07ABEF
:10431000BDF816000ECB4143079102FB00F1584354
:10432000099007A8089100F013FA49F61160C0F649
:10433000000003E049F6CC50C0F6000002F034FB68
:10434000012001F0F9FF49F63751C0F6000184A2BF
:10435000002808BF1146084602F026FB1420FDF78E
:1043600007FA40F2A80BC2F2000B0BF104080BF1A4
:1043700010094046494602F0E7F90BF10407C1CFA6
:1043800004F054F9824630460D4604F04FF90646D3
:1043900038460C4604F04AF9029049F6F550C0F64A
:1043A000000052462B46CDE90064039102F0FCFA6E
:1043B0001420FDF7DDF94046494602F0C5F90BF13E
:1043C000040531CD04F032F9074620468A4604F050
:1043D0002DF9044628460E4604F028F9029049F6C5
:1043E000F550C0F600003A465346CDE90046039129
:1043F00002F0DAFA1420FDF7BBF94046494602F014
:10440000A3F90BF1040531CD04F010F982462046E2
:104410000F4604F00BF9044628460E4604F006F950
:10442000029049F6F550C0F6000052463B46CDE9F1
:104430000046039102F0B8FA1420FDF799F94046BE
:10444000494602F081F90BF1040531CD04F0EEF894
:10445000824620460F4604F0E9F8044628460E46F8
:1044600004F0E4F8029049F6F550C0F60000524618
:104470003B46CDE90046039102F096FA1420FDF781
:1044800077F94046494602F05FF90BF1040531CD5A
:1044900004F0CCF8804620460F4604F0C7F80446E6
:1044A00028460E4604F0C2F8029049F6F550C0F6D0
:1044B000000042463B46CDE90046039102F074FA03
:1044C0001420FDF755F90A20FDF752F90DB0BDE8AB
:1044D000F08F00BFFFF7D8FC4465766963655F49DC
:1044E000443A307825780D0A000000000D0A646D0A
:1044F000705F7365745F6F7269656E746174696F04
:104500006E206661696C6564202E2E2E2E2E2E0D77
:104510000A0000000D0A646D705F656E61626C6573
:104520005F66656174757265206661696C6564209B
:104530002E2E2E2E2E2E0D0A000000000D0A646D68
:10454000705F7365745F6669666F5F726174652022
:104550006661696C6564202E2E2E2E2E2E0D0A00AB
:104560002E0D0A0049F2A401C0F6000140F6F63013
:104570004FF48062C82300F0A9BE00002DE9F04F7F
:1045800089B01446DDE912A20F46002140F29809D5
:10459000AAF80010C2F2000999F800100DF1040BFE
:1045A0008046084659461E4601F042F820B14FF0B9
:1045B000FF3009B0BDE8F08FB9F804C01CF0140F4B
:1045C00052D09DF80520B6469DF80410BDF806604F
:1045D00012049DF8095042EA016132BA9DF8083090
:1045E00041EA1242BDF80A6022602A0442EA0362EC
:1045F00033BA42EA134363609DF80D309DF80C60B6
:10460000BDF80E501B0443EA06632EBA43EA164671
:104610001214A6609DF81160091452439DF81050C1
:1046200001FB012136041A1446EA056602FB021159
:10463000321402FB0211BDF812006FF088521144CF
:104640004FF6FE7200BACFF6FF5246EA1040914292
:10465000E06071D801F04CF80020AAF800004FF09B
:10466000FF3009B0BDE8F08F00215FEA4C6026D52D
:1046700041F001021BF801001BF8022041F0030386
:1046800042EA002041F002021BF802201BF803302E
:10469000388043EA022041F0040241F005031BF890
:1046A00002201BF80330788043EA0220B880BAF871
:1046B000000041F0060140F00800AAF800001CF4D8
:1046C000C07F18D03BF801000BEB010200BA538801
:1046D000000CA8F8000018BA9288000CA8F8020094
:1046E00010BA000CA8F80400BAF80000063140F037
:1046F0007000AAF800005FEA8C7016D00BEB010581
:104700006878EC78C10709D0D9F8082032B104F0F4
:104710000700411CC4F3C20090476878000704D525
:10472000D9F80C1009B1A0098847304600F020FAEA
:10473000002009B0BDE8F08FBAF80000102140F465
:1047400080707646AAF800005FEA4C6090D4B6E725
:1047500010B584B004460DF1020000F089FC40F26F
:10476000D400C2F200000088BDF802C000F00302CD
:10477000430754F822204FF00C0348BF524203EA8B
:1047800050038106E358C0F3811148BF5B4254F8DF
:104790002110C00548BF49424FEACC3080FB02C41B
:1047A00080FB03E280FB01014FEA9C73800F43EA28
:1047B000840C4FEA9E7340EA810EA00D8DF8040030
:1047C000A00B8DF80500A0098DF80600900D8DF85E
:1047D0000800900B8DF8090090098DF80A00880DEB
:1047E0008DF80C00880B8DF80D00880943EA8203D0
:1047F0008DF80E0001AA4FF425700C218DF807C02A
:104800008DF80B308DF80FE001F06AFF04B010BD99
:1048100010B586B004464AF6BB70CDF6DF70059041
:104820004FF2AA10CDF6DF7004904FF2FE20CCF2CA
:10483000AB40C82C039017D8E0B2C821B1FBF0F010
:10484000002101388DF804108DF8050001AA40F20E
:104850001620022101F044FF30B903AA40F6C1201E
:104860000C2101F03DFF18B14FF0FF3006B010BD34
:1048700040F2D800C2F200000480002006B010BD53
:10488000F0B581B040F2D401C2F200010E880C23D1
:1048900006F003014EF2093450F8211003EA5603E2
:1048A000C0F2CA24720748BF4942C758C6F38113F1
:1048B00081FB041250F82350F0054FEA91704FEA43
:1048C000925148BF6D428DF80010910B40EA820072
:1048D0008DF8011091098DF802108DF803006A46D9
:1048E0004FF47470042101F0FBFEE0B9B00648BF3C
:1048F0007F42A7FB0401FA1702FB0411800F8A0D07
:1049000040EA81008DF800208A0B89098DF801208A
:104910008DF802108DF803006A464FF4757004217B
:1049200001F0DEFE20B14FF0FF3001B0F0BD00BF5E
:1049300085FB0401800F40EA8100010E8DF8001014
:10494000010C8DF80110010A8DF802108DF803009A
:104950006A464FF47670042101F0C2FE01B0F0BD4A
:10496000B0B582B0054649F27701C0F60001C5F343
:10497000C10300F00300CC5C0A5C8DF8054049F2ED
:1049800074048DF80420C5F38112C0F60004895C1C
:10499000205C8DF806108DF80000E05CA15C8DF8BD
:1049A00001008DF8021001AA40F22640032101F017
:1049B00097FE50BB6A4640F22A40032101F090FE68
:1049C00018BB45F23660C0F27600019044F22660D2
:1049D000C0F26600690700901CD4A80622D4E8053E
:1049E00005D577208DF8060067208DF8020001AA12
:1049F0004FF48860032101F073FE30B96A4640F23B
:104A00003140032101F06CFEB0B14FF0FF3002B035
:104A1000B0BD00BF37208DF8040027208DF80000BE
:104A2000A806DCD557208DF8050047208DF8010039
:104A3000E805D6D4DBE700BF40F2D400C2F20000A4
:104A40000580002002B0B0BDF0B583B00446B1F5DA
:104A5000C86F4FF0FF3055D814F0070252D0084607
:104A600003F0D2FF0021C4F2483103F0A3FE054653
:104A70000DF1070000F0DEFA9DF8070002384FEA5A
:104A80007002072A4FF0FF303CD80026C4F240667F
:104A90004FF08D41DFE802F01504360A3636361045
:104AA0000026C4F2C0564FF08C410AE00026C4F242
:104AB00040564FF08B4104E00026C4F2C0464FF050
:104AC0008A41284604F01CF807462846314604F07F
:104AD00017F803F065FF0646384603F061FF010A48
:104AE0008DF808108DF80900300A02A98D1C8DF888
:104AF0000A00E0078DF80B6006D1A00714D4600708
:104B000022D4002003B0F0BD02AA4FF4EA700221C3
:104B100001F0E6FD38BB4FF4927002212A4601F005
:104B2000DFFD00BBE9E700BF02AA4FF4EC700221F1
:104B300001F0D6FDB8B94FF4947002212A4601F075
:104B4000CFFD80B9DBE700BF02AA4FF4EE7002216F
:104B500001F0C6FD38B94FF4967002212A4601F0E3
:104B6000BFFD0028CDD04FF0FF3003B0F0BD0000F6
:104B700010B50446FCF714FF206010BD2DE9F04F7E
:104B800085B040F20C0705460120C2F200070C4632
:104B9000ADF80800D7E9001016460078497D02AB51
:104BA0000222FFF7EBFA002840F0C280C82001F093
:104BB000C9FD00208DF80800D7E9001002AB00788D
:104BC000497C0122FFF7DAFA002840F0B180D7E9EA
:104BD000001002AB007849790122FFF7CFFA0028D4
:104BE00040F0A680D7E9001002AB0078497D012291
:104BF000FFF7C4FA002840F09B80D7E9001002AB11
:104C00000078897E0122FFF7B9FA002840F09080F1
:104C1000D7E9001002AB007809790122FFF7AEFA5C
:104C2000002840F085800C208DF80800D7E900109E
:104C300002AB007809790122FFF7A0FA002877D1AA
:104C40000F2001F07FFDB86A3968407A7A688DF8E4
:104C500008001078897802AB0122FFF78FFA00284C
:104C600066D1B86A3968007A7A688DF808001078D9
:104C7000497802AB0122FFF781FA002858D1B86ABF
:104C8000D7E90012807A002E18BF40F0E0008DF8BE
:104C900008001078897902AB0122FFF76FFA00282B
:104CA00046D12EB1B86AC07A60F01F0001E000BFA3
:104CB00018208DF80800D7E9001002AB0078C979F8
:104CC0000122FFF75BFA98BB16B1C82001F03AFD4C
:104CD00040208DF80800D7E9001002AB0078097970
:104CE0000122FFF74BFA18BB78208DF80800D7E9AE
:104CF000001002AB007849790122FFF73FFAB8B9FA
:104D0000322001F01FFD00208DF80800D7E90010C7
:104D100002AB007849790122FFF730FA40B9D7E9B0
:104D2000001002AB0078097B0222FFF713FA28B1CA
:104D30004FF0FF37384605B0BDE8F08FBDF80800EA
:104D40004AF6AB2100BA000C4843C0F3C742002129
:104D5000002AC5E90011A960C4E900110192A1600F
:104D600044D0C00C00260DF108095FFA80F8D7E99D
:104D700000100C220078497B4B46FFF7EBF9002826
:104D8000D6D1BDF80800BDF80C20BDF80A1090FA85
:104D900080FC92FA82FED4E90030A26809BA00EBE6
:104DA000214002EB2E4103EB2C43A160BDF8101013
:104DB000C4E90030BDF81220BDF80E0091FA81FE62
:104DC000A96892FA82FCD5E90032013600BA01EBFB
:104DD0002C4AF1B203EB204002EB2E4B4145C5E9D2
:104DE000000BC5F808A0C2D304E000BFD5E9000B52
:104DF000D5F808A0C117090441EA10410004832234
:104E000000230027FBF758FADDF804800023424610
:104E1000FBF752FA28604FEAEB70000440EA1B41AE
:104E20004FEA0B4083220023FBF746FA4246002359
:104E3000FBF742FA68604FEAEA70000440EA1A4160
:104E40004FEA0A4083220023FBF736FA424600234A
:104E5000FBF732FAA860D4E90006A568C11749013A
:104E600041EAD061400142460023FBF725FA206069
:104E7000F017400140EAD661700142460023FBF77B
:104E80001BFA6060E817400140EAD56168014246BC
:104E90000023FBF711FA4FF480310028C4BF002132
:104EA000CFF6FF710844A060384605B0BDE8F08F2A
:104EB00094B0FDF7C9F800240120CDE90F44CDE9F5
:104EC0000D440A900E904FF4E0104FF4803102250B
:104ED00013900AA8CDE90B14CDE91151FDF75EFA44
:104EE00020B1EFF3108072B6FEE700BF0F20CDE9CE
:104EF00005054FF48060CDE9080405A80221079458
:104F0000FDF744F920B1EFF3108072B6FEE700BF61
:104F1000FEF780FEFEF7FAFEFEF7AEFEFEF7CEFECF
:104F200001F082FDFFF73EF940F23010C2F20000BE
:104F3000FDF72AFD40F2B80AC2F2000A0FF2380863
:104F40009AE8610003F072FB07462846894603F0A1
:104F50006DFB054630460C4603F068FB0290404668
:104F60003A464B46CDE90054039101F01DFDC8209F
:104F7000FCF7FEFBE4E700BF252E32662C252E321F
:104F8000662C252E32660A00F0B581B040F20C0581
:104F9000C2F2000595F8241021B10024204601B08A
:104FA000F0BD00BFA97A59B300F0FE0739402E7C4E
:104FB000CC1B287D18BF4FF0FF34002F297408BF89
:104FC000002823D0687C78B901208DF80200D5E94B
:104FD00000100DF102030078497C0122FFF7CEF8A2
:104FE00010B99DF802006874002FD7D000F080FB44
:104FF00000281CBF2E744FF0FF34204601B0F0BDD6
:105000004FF0FF34204601B0F0BD00BF00208DF806
:105010000300D5E900100DF103030078497C01225B
:10502000FFF7ACF80028B9D19DF80300687420465A
:1050300001B0F0BD40F20C01C2F200014A7A032A2D
:1050400084BF4FF0FF30704740F20243D200C1F2FC
:105050000803D3400370C97C002904BF00207047B7
:1050600040F60401C2F21001D140017000207047E7
:1050700040F20C02C2F20002517A032984BF4FF0C1
:10508000FF30704707A3D27C33F81130002A038029
:1050900004BF0020704705A232F8111001800020E3
:1050A000704700BF00409C1F001000080020CE0F7A
:1050B0000008000440F20C01C2F200010A7A032A3F
:1050C00084BF4FF0FF3070470021C4F20331DFE8A6
:1050D00002F00603091100BF0021C4F28321016020
:1050E0000020704743F23331C4F2032101600020F5
:1050F000704700BF43F23331C4F2831101600020D6
:105100007047000010B582B040F20C048020C2F25B
:1051100000048DF80100D4E900100DF101030078BE
:10512000497D0122FFF72AF8C8B9642001F00AFB83
:1051300000208DF80100D4E900100DF10103007882
:10514000497D0122FFF71AF848B9D4E900100DF1A2
:1051500001030078497E0622FEF7FCFF20B14FF0E4
:10516000FF34204602B010BD9DF806209DF80200D5
:105170009DF80410042303EA820261F3410200F067
:105180000100111806D001292DD0022920D10020BC
:105190002AE000BFD4E900100DF101030078C978BE
:1051A0000122FEF7D7FF0028D9D19DF8010000F0B9
:1051B0000F00042814D00028E9D149F6C440C0F6F5
:1051C000000001F0F1FB4FF0FF34204602B010BDAB
:1051D0002CA001F0E9FB4FF0FF34204602B010BDD7
:1051E00032A001F0E1FB0120E0744FF6FF70E08196
:1051F000FF202074A0744FF0FF30A0600020C4E9AD
:105200000500E0612084C4F8230084F827001820FA
:105210008DF80700D4E90010012200788979227303
:1052200084F822200DF107030122FEF7A7FF0028D2
:1052300095D19DF80700C0082072022000F0B6FF4B
:1052400000288CD12A2001F0E7F800287FF487AFEE
:10525000322001F02FF900287FF481AF0020FFF702
:1052600093FE00287FF47BAF002000F0EDFF0028C4
:105270007FF475AF0020002401F0BEF9204602B093
:1052800010BD00BF556E737570706F7274656420C9
:10529000736F6674776172652070726F6475637482
:1052A000207265762025642E0A00000048616C6635
:1052B0002073656E736974697669747920706172A0
:1052C0007420666F756E642E0A0000002DE9F04FA1
:1052D0008BB0044600294FF0FF3000F0928040F27E
:1052E0000C09C2F20009884699F82510002940F0FF
:1052F0008880002CCDE9013268D04FF0000ACDE95A
:1053000003481FFA8AF6A4EB060B99F80A00BBF1D2
:10531000100FA8BF4FF0100B002865D0D9F804007B
:105320005FFA8AF11FFA8BF342895F189AFA8AF1C1
:1053300097424FEA11410593ADF82A1054D8D9F895
:1053400000100078C97E02220DF12A03FEF716FF35
:10535000002849D1D9E9001008EB06040078097E3D
:105360005FFA8BF8424623464D46FEF707FFD8BB4F
:10537000A87AC8B368682B464289310A97428DF8EB
:105380002A108DF82BA02FD819680078C97E022228
:105390000DF12A03FEF7F2FE30BBD9E900100DF142
:1053A0001A050078097E42462B46FEF7D3FED8B98F
:1053B000059A20462946FAF7D7FF28BBDA44039C12
:1053C0001FFA8AF0DDF81080A0429AD302980DF1FE
:1053D0002A0340BAADF82A00D9E900100222007869
:1053E000497FFEF7CBFE28B14FF0FF300BB0BDE890
:1053F000F08F00BF012089F825000198A9F8260048
:1054000000200BB0BDE8F08F6FF001000BB0BDE8DD
:10541000F08F000070B584B0282800F2E08040F2E0
:105420000C0504460028C2F2000543D095F823007D
:1054300001281FD0A87C95F822103222002808BF2E
:1054400030228DF80A2039B16FF04D01002808BFD5
:105450006FF04F018DF80A10D5E900100DF10A0325
:105460000078C97D01220126FEF788FE002808BFCA
:1054700085F823602020012C8DF8070052D1A87AEE
:1054800000218DF8081090B1E87A062106288DF8E1
:105490000B100CD0D5E900100DF10B0300788978C2
:1054A0000122FEF76BFE10B99DF80B00E872072091
:1054B00089E000BF95F8230000B3A87C95F822107E
:1054C0000246002818BF012252008DF8092039B188
:1054D0006FF07D01002808BF6FF07F018DF8091083
:1054E000D5E900100DF109030078C97D0122FEF70E
:1054F00045FE002804BF002085F823004FF4E0603B
:10550000ADF80700D5E900100DF107030078497DDB
:105510000222FEF733FE002861D10020287504B076
:1055200070BD00BF052C19D8A87A01218DF808108C
:1055300088B1E87A062106288DF80C100BD0D5E941
:10554000001003AB007889780122FEF717FE10B92E
:105550009DF80C00E872472035E000BF142C19D8E4
:10556000A87A02218DF8081090B1E87A0521052863
:105570008DF80D100CD0D5E900100DF10D03007859
:1055800089780122FEF7FAFD10B99DF80D00E87246
:10559000872018E0A87A03218DF8081090B1E87AE6
:1055A000042104288DF80E100CD0D5E900100DF15F
:1055B0000E03007889780122FEF7E0FD10B99DF80E
:1055C0000E00E872C7208DF80800D5E900100DF133
:1055D00007030078497D0222FEF7D0FD20B14FF08D
:1055E000FF3004B070BD00BF95F824100820A872E9
:1055F000002000294FF001012873297502D004B062
:1056000070BD00BF697C287479B901208DF80F0046
:10561000D5E900100DF10F030078497C0122FEF757
:10562000ADFD10B99DF80F006874002004B070BD86
:105630002DE9F04182B040F20C07C2F200070E469D
:1056400097F82410054600294FF0FF3044D0B97A6E
:10565000002941D0D7E9001014460078097B0DF1EC
:1056600006030222FEF776FD20B14FF0FF3002B0B4
:10567000BDE8F081BDF8061008BAB5EB104F07D9A8
:10568000002020704FF0FF3002B0BDE8F08100BF75
:10569000786891FA91F84288B8EB520F0ED93968C0
:1056A0000078C97C0DF106030122FEF753FD0028A6
:1056B000DBD19DF80600C00612D4786839680078FE
:1056C000497BEAB23346FEF745FD0028CDD1B8FB51
:1056D000F5F001382070002002B0BDE8F08100BF75
:1056E00000F006F86FF0010002B0BDE8F0810000A4
:1056F00010B582B040F20C04C2F20004A07A00B3EC
:1057000000208DF80700D4E900100DF107030078A0
:10571000497C0122FEF732FD98B9D4E900100DF161
:105720000703007849790122FEF728FD48B9D4E93A
:1057300000100DF10703007809790122FEF71EFD24
:1057400020B14FF0FF3002B010BD00BF94F824002C
:10575000002845D00C208DF80700D4E900100DF189
:105760000703007809790122FEF708FD0028E8D137
:10577000322000F0E7FFA07A0DF10703C0076FF0B9
:105780001F0008BF6FF03F008DF80700D4E900103C
:10579000012200780979FEF7F1FC0028D1D1607C64
:1057A0000DF10703002818BF012040008DF8070005
:1057B000D4E9001001220078497CFEF7DFFC0028C4
:1057C000BFD100208DF80700D4E900100DF10703C8
:1057D000007849790122FEF7D1FC0028B1D145E0DB
:1057E00004208DF80700D4E900100DF107030078BC
:1057F00009790122FEF7C2FC0028A2D1A07AA17C7F
:10580000C0074FF0600008BF4020002918BF4020AB
:105810008DF80700D4E900100DF10703007809792D
:105820000122FEF7ABFC00288BD1322000F08AFF6A
:10583000607C0DF10703002818BF01208DF80700D8
:10584000D4E9001001220078497CFEF797FC00287B
:105850007FF477AFD4E9001004F1100300784979A0
:105860000122FEF78BFC00287FF46BAF002002B012
:1058700010BD00002DE9F04F93B040F20C0AC2F2C7
:10588000000A9AF824408946054614B1002000F029
:1058900053FD9AF8080003280CD8FA22DFE800F03C
:1058A000140212364FF4FA729AF809000B92032888
:1058B0000FD932E000229AF809000B92032808D988
:1058C0002BE000BF4FF47A729AF809000B9203287C
:1058D00023D80FF6C8029AF8133002EB80020FF6B5
:1058E000AC01002B08BF01EB800210680A909AF807
:1058F0000B00062817D900200990002007900020EF
:10590000069000200590002028E000BF4FF4FA62C6
:105910009AF809000B920328DBD900200A909AF824
:105920000B000628E7D800F07F00411EB1FA81F194
:10593000490909910621C14001F0010107910E2199
:10594000C14001F0010106911E21C14001F0010199
:1059500005913E2121FA00F000F001000490BAF810
:105960000E809AF80A709AF810602846494600227C
:10597000FFF704F948B12846494600224FF0000BD2
:10598000FFF7FCF8002840F04C830FA80CA9012277
:105990000895FFF7F3F848B10FA80CA90122FFF70B
:1059A000EDF818B14FF0000B3BE300BFDAF804004C
:1059B00012AB00780D2104220397CDE90164FEF7B4
:1059C000C9FBCDF8008058B3D9F800000C99401AF3
:1059D00048BF404203F000F84FF05E5103F090F8EA
:1059E00004462846002102F0AFFE002846D120469A
:1059F000294602F0DFFE0021CBF6807102F042FE64
:105A000045F6294120F00040C3F60F6102F0B8FED0
:105A100000280CBF4FF001084FF0000842E000BF23
:105A20009DF848009DF84B609DF849201C259DF885
:105A30004A3005EAD000C6F30111091805EAD20080
:105A4000C6F3810200EB020705EAD30B06F003045C
:105A500000F0D680B1F1010800F0E68018F00302F2
:105A6000A1F1020000F0EA80012A40F0F1804FF637
:105A7000AD75C3F6B3658046F9E000BF49F69A11EB
:105A8000C3F69961204602F082FE43F233310546A7
:105A9000C3F67371204602F065FE55EA000818BF90
:105AA0004FF00108D9F804000D99401A48BF404250
:105AB00002F092FF4FF05E5103F022F805463046A7
:105AC000002102F041FEA8B92846314602F072FEDC
:105AD0000021CBF6807102F0D5FD45F6294120F07A
