:020000040800F2
:1000000068070020D5010008351E0008351D0008CE
:10001000311E0008C5060008491E00080000000047
:100020000000000000000000000000003D1E00086D
:10003000C906000800000000391E0008411E000823
:10004000EF010008EF010008EF010008EF010008D0
:10005000EF010008EF010008EF010008EF010008C0
:10006000EF010008EF010008EF010008EF010008B0
:10007000EF010008EF010008EF010008EF010008A0
:10008000EF010008EF010008EF010008EF01000890
:10009000EF010008EF010008EF010008EF01000880
:1000A000EF010008EF010008EF010008EF01000870
:1000B000EF010008EF010008EF010008EF01000860
:1000C000EF010008EF010008EF010008EF01000850
:1000D000EF010008EF010008EF010008EF01000840
:1000E000EF010008EF010008EF010008EF01000830
:1000F000EF010008EF010008EF010008EF01000820
:10010000EF010008EF010008EF010008EF0100080F
:10011000EF010008EF010008EF010008EF010008FF
:10012000EF010008EF010008EF010008EF010008EF
:1001300000F002F800F03FF80AA090E8000C8244BA
:100140008344AAF10107DA4501D100F034F8AFF297
:10015000090EBAE80F0013F0010F18BFFB1A43F0A5
:1001600001031847381E0000581E0000103A24BF33
:1001700078C878C1FAD8520724BF30C830C144BF0C
:1001800004680C607047000000230024002500264E
:10019000103A28BF78C1FBD8520728BF30C148BFEA
:1001A0000B607047642900F07180002070471FB514
:1001B0001FBD10B510BD00F0C4F91146FFF7F7FFE1
:1001C00001F044FE00F0E2F903B4FFF7F2FF03BCD4
:1001D00000F0EAF90948804709480047FEE7FEE7D2
:1001E000FEE7FEE7FEE7FEE7FEE7FEE7FEE7FEE7E7
:1001F00004480549054A064B70470000451E0008A3
:100200003101000868010020680700206803002011
:10021000680300200FB41CB5074B06AA7B4469464F
:100220000090059800F075F90020694600F084F907
:100230001CBC5DF814FB00001903000070B50446F7
:1002400085690068C10601D5302600E02026C00778
:1002500007D070BDD4E9012130469047206A401C88
:1002600020626D1EF6D570BD70B5044685690078B4
:10027000C00707D170BDD4E9012120209047206A32
:10028000401C20626D1EF6D570BD00002DE9F041C6
:100290000646002410687529314616A510D0AFF324
:1002A0000080002802DA404213A507E031688A077F
:1002B00001D512A502E0490704D511A5012401E0EA
:1002C000AFF3008000210A2206F1240709E0B0FB09
:1002D000F2FCB0FBF2F302FB1C00303078541846FD
:1002E000491C0028F3D123462A463046BDE8F04198
:1002F00000F0B1B8000000002D0000002B0000004D
:10030000200000002DE9F0474FF0000A894604461E
:10031000C0F820A02046E1688847002876D025282C
:1003200006D0D4E901219047206A401C2062F1E701
:10033000E168204600258847C4F81CA0064600272F
:10034000C4F818A02A2E09D0304601F00BFE38B3AD
:1003500004EB8708303EC8F8186019E059F8041B10
:10036000204604EB87029161E1688847012F064629
:1003700018D1E069002820DA25F020051DE0D8F822
:10038000180000EB800006EB40003038C8F8180079
:100390002046E1688847064601F0E4FD0028EED1DA
:1003A000012F0AD02E2E08D12046E16888477F1CF5
:1003B0000646022F45F02005C4DBA069002803DAB9
:1003C000404245F00105A061E80701D025F0100585
:1003D000B6B1A6F14100192802D8203645F40065CF
:1003E0004A463146204625604D46FFF7DBFE58B1B0
:1003F000012806D0ED1D25F0070000F1080989E766
:1004000004E005F1040985E730468AE7206ABDE883
:10041000F08710B5431C02E010F8011B71B1810791
:10042000FAD14FF0013202C88C1A8C4314EAC2117F
:10043000F9D0C01A0A0603D0C01E10BDC01A10BDE4
:100440000A0401D0801E10BD0902FCD0401E10BD60
:100450007047704770472DE9F0470D469946924620
:10046000044600F124080168880604D5E06921F0FB
:100470001001216000E00120A84201DD471B00E0DF
:100480000027A1697A1902EB0900081AA0612078F7
:10049000C00602D42046FFF7D1FE002608E0D4E9CA
:1004A00001211AF806009047206A401C761C206241
:1004B0004E45F4DB2078C0060AD52046FFF7BEFE85
:1004C00006E0D4E9012130209047206A401C2062D8
:1004D000381EA7F10107F4DC07E0D4E9012118F880
:1004E00005009047206A401C2062281EA5F10105E6
:1004F000F3DC2046FFF7B8FE2078000602D5022084
:10050000BDE8F0870120FBE701694A1C0261087819
:10051000704700B58FB0CDE9013100210591054943
:100520007944CDE9031011466846FFF7EBFE0FB0A2
:1005300000BD0000E5FFFFFF0A6802F8010B0A603A
:100540007047754600F02CF8AE46050069465346E4
:1005500020F00700854618B020B5FFF749FEBDE83A
:1005600020404FF000064FF000074FF000084FF01A
:10057000000BAC46ACE8C009ACE8C009ACE8C00967
:10058000ACE8C00921F007018D46704710B504465C
:10059000AFF300802046BDE81040FFF715BE000015
:1005A000004870471000002001491820ABBEFEE74C
:1005B0002600020070470000B0B50446006881685C
:1005C000C90709D0816821F00101816000F0F2FCC7
:1005D00021688968C90701D10020B0BD054602E045
:1005E0008068C007F8D000F0E5FC411B20680329B3
:1005F000F6D38168C907F3D0A06A40F01000A0626A
:10060000E06A40F00100E0620120B0BDB0B582B008
:1006100004460020019021688A68D2074FD188687B
:1006200040F00100886040F20800C2F2000000685B
:100630004DF68361C4F21B31A0FB0101880C0190CF
:100640000198A0B1019801380190019878B1019802
:1006500001380190019850B101980138019001983A
:1006600028B101980138019001980028EAD100F0E2
:10067000A1FC21688968C9071CD1054603E000BFB9
:100680008068C0071AD100F095FC411B206803293F
:10069000F6D38168C907F3D1A06A40F01000A062C8
:1006A000E06A40F00100E062002084F824000120AC
:1006B00002B0B0BD002002B0B0BD00BF002002B04B
:1006C000B0BD0000FEE7000070470000EFF31080AF
:1006D00072B600BFFEE7000070B582B0044600208D
:1006E000019094F82400012804D10225284602B084
:1006F00070BD00BF012084F824002046FFF75CFF96
:100700002046FFF783FF0546002867D1A06A41F223
:10071000021188430230A06240F20800C2F20000D9
:100720000668022000F0E8FCB6FBF0F04000019003
:100730000198A0B1019801380190019878B1019811
:1007400001380190019850B1019801380190019849
:1007500028B101980138019001980028EAD1206859
:10076000816841F00801816000F024FC21688A68FA
:1007700012070DD4886840F00400886000F01AFC6D
:1007800021688968490713D401206FF0030121E033
:10079000064602E088680007ECD500F00BFC801BE1
:1007A00021680B28F6D388680007F3D50EE000BF58
:1007B000064602E080684007E6D500F0FBFB811B9F
:1007C00020680B29F6D381684907F3D5012510204D
:1007D0006FF01201A26A11400843A062002084F861
:1007E0002400284602B070BD10B581B000220092EE
:1007F00090F82420012A03D10221084601B010BD3F
:100800004B680122062B80F8242017D8D0F800C0AE
:1008100003EB83035A1F1F23DCF834E003FA02F4CE
:100820000B682EEA040403FA02F22243CCF83420C7
:10083000092B03EB430219D936E000BFD0F800C002
:100840000C2B03EB83021DD8233A1F23DCF830E086
:1008500003FA02F40B682EEA040403FA02F22243BC
:10086000CCF83020092B03EB43021DD8DCF8103004
:10087000072489689440A34391401943CCF8101091
:10088000002130E0413A1F23DCF82CE003FA02F4A7
:100890000B682EEA040403FA02F22243CCF82C205F
:1008A000092B03EB4302E1D9DCF80CE01E3A0724E4
:1008B000896894402EEA0404914023F00102214308
:1008C000102ACCF80C100DD142F20841C4F20101FB
:1008D000A1F1080294450DD0816A41F020018162A6
:1008E000012100E00021002280F82420084601B008
:1008F00010BD00BF0A68120230D40A68102B42F4FF
:1009000000020A602CD140F20801C2F2000109681D
:100910004DF68362C4F21B32A1FB0212910C01EB73
:100920008101490000910099E1B1009901390091DC
:100930000099C9B10099013900910099B1B10099AC
:1009400001390091009999B10099013900910099FC
:1009500000294FF00001E8D1C5E700BF0021C2E740
:100960000021C0E70021BEE70021BCE70021BAE773
:100970000021B8E70068C06C70470000B0B50028DF
:1009800000F0B2800446806A20B121688868C00700
:100990000BD114E00020E06284F82400204600F02F
:1009A000A5F821688868C00709D0886820F0010090
:1009B000886000F0FFFA21688A68D20730D1A06A07
:1009C000C00644D4A06A41F2021290430230A062F1
:1009D000E36981F0804080F49E3083F4402210432C
:1009E00008BF4FF40023D4E9010243EA000C531E70
:1009F000B3FA83F35D091346B2F5807F18BF2B026B
:100A0000207D257B01284CEA450030D135B3A56A0D
:100A100045F02005A562E56A45F00105E56226E09E
:100A2000054602E08868C007C9D000F0C3FA401B41
:100A300021680328F6D38868C007F3D0A06A40F085
:100A40001000A062E06A40F00100E062A06AA06AC3
:100A500040F01000A0620120B0BD00BFD4F818C063
:100A60004EF60005CFF6FF7505EB4C352B434D6870
:100A7000B2F5807F25F4694543EA05034B608B6836
:100A80004FF2FD75CFF6E17503EA050343EA000373
:100A90008B6001D0012A07D122690023CFF6F073C1
:100AA00003EB025201E000BF0022CB6A23F4700383
:100AB0001A43CA62896840F6FE62CFF61F7211407F
:100AC000814207D10020E062A16A012262F30101A4
:100AD000A162B0BDA06A40F0100020F00200A06248
:100AE000E06A40F00100E0620120B0BD80B586B050
:100AF000014640F60000C4F20100096800F5E0522A
:100B000091424FF00001CDE9041101D006B080BD43
:100B100041F21801C4F202010A6842F400720A604C
:100B20000A6802F400720192019A0A6842F0040213
:100B30000A60096801F00401019101990221029102
:100B40000321039102A900F037F906B080BD00002F
:100B500010B5044690F82400012804BF022010BDFF
:100B6000012084F824002046FFF750FD20B1002129
:100B700084F8241010BD00BF42F2044C2068A16A22
:100B8000C4F2010C40F2013291430CF57F7201F581
:100B900080719042A16233D0A16A21F48011A162D8
:100BA0004168490504D5A16A012363F30D31A162AF
:100BB000A16A0023C9044FF0000144BFE16A21F09B
:100BC0000601E1626FF0020184F82430016081685F
:100BD00001F46021B1F5602F06D190420AD1DCF812
:100BE000001011F4702F05D0816841F480118160EC
:100BF000002010BD816841F4A0018160002010BD7B
:100C0000DCF8001011F4702FC6D0A16A41F48011F5
:100C1000A162DCF800104905C5D4C9E710B5002869
:100C20004FF0010318BF002902D1184610BD00BFC4
:100C30004379012B4FF00203F7D00371036802F0F0
:100C4000100ED3F800C0D1E9004140F6FE7202FA5E
:100C50000EF221432CEA020201FA0EF1114319604F
:100C6000C0211A6801FA0EF122EA0101196001217E
:100C7000002301714371184610BD0000002804BF15
:100C80000120704710B50446007920B9002060713A
:100C9000204600F007F80220207100200121206189
:100CA000217110BD80B586B047F200410068C4F2E2
:100CB0000001002288420592049201D006B080BD56
:100CC00041F21800C4F20200426842F00052426051
:100CD000426802F000520192019A026842F0040256
:100CE0000260006800F0040001900198102002905A
:100CF0000320039001F5144002A900F05DF806B04E
:100D000080BD000081B04FF0000CCDF800C068B18C
:100D10000068002900900098104414BF1430083077
:100D2000009000980360002001B07047012001B0DE
:100D30007047000010B5D8B14279012A4FF0020285
:100D400024D00271026801F0100E4FF0010C1468FB
:100D50000CFA0EF323431360D2F800C051B13C23C8
:100D60000CF4701103FA0EF399420BD1022106E044
:100D7000012010BD0CF03C013C2903D10121536836
:100D8000194351600121002201714271104610BDCA
:100D9000B0B5044600F00EF9054640F20000C2F27C
:100DA00000000078611C18BF044400BF00F002F985
:100DB000401BA042FAD3B0BD2DE9F04F82B0D1F86C
:100DC00000C0BCF1000F00F0F180A0F1804241F6BC
:100DD0000045A2F58432C4F2010540F2004E4FEA0C
:100DE000B2240627A842C4F2010E08BF0527052C2D
:100DF0004FF000044FF001084FF00F034FF0000ACE
:100E00004FF0000B38BF4FEAB22700970AE000BF4F
:100E1000D1F800C00AF1010A3CFA0AF204F1040414
:100E200000F0C48008FA0AF91CEA090FF0D04E68F5
:100E30004FF6FF72C1F21002964211DC122E55D805
:100E4000DFE806F0340A444854545454545454547B
:100E500054545454544C5000D1F80CB046E000BFE8
:100E60004FF6FF72C1F2210296420FDC0022C1F25E
:100E7000110296421AD00022C1F21202964215D0F7
:100E80000022C1F22102964210D02FE00022C1F2CE
:100E9000220296420AD00022C1F23102964205D0C7
:100EA0000022C1F23202964220D100BF8A684AB1C4
:100EB000012A14BFC0F81490C0F810904FF0080B2E
:100EC00014E000BF4FF0040B10E000BFCA6802F14D
:100ED000080B0BE04FF0000B08E000BFCA6802F1FE
:100EE000040B03E0CA6802F10C0B00BF2246064661
:100EF000BAF1080F24BF203A0436376803FA02F526
:100F0000AF430BFA02F23A433260CA79D2067FF558
:100F10007FAF41F21807C4F202073A684FF6084360
:100F200042F001023A603A68CFF6FF7302F0010224
:100F30000192019A2AF0030272440F25D75804F057
:100F40000C06B540AF43009D05FA06F63743D7506F
:100F50004E6840F20C45F202DEF8082054BF22EA47
:100F6000090242EA0902CEF80820C4F201052A6803
:100F7000B70254BF22EA090242EA09022A60DEF8F7
:100F80000420B70354BF22EA090242EA0902CEF85C
:100F900004200F23DEF80020F70354BF22EA0902E1
:100FA00042EA0902CEF8002032E700BF02B0BDE8F5
:100FB000F08F000040F26410C2F200000068704739
:100FC00040F2000040F26411C2F20000C2F20001DF
:100FD00000780A68104408607047000080B542F24B
:100FE0000000C4F20200016841F01001016003201A
:100FF00000F072F80F2000F005F800F027F800204C
:1010000080BD000070B540F20006C2F2000640F25A
:1010100008013278C2F200014FF47A730968B3FB19
:10102000F2F20446B1FBF2F1084600F081FC0F2C0D
:101030004FF0010508D838B94FF0FF3021460022A3
:10104000002500F01DF87460284670BD82B041F2A2
:101050001800C4F20200016841F00101016001685A
:1010600001F0010101910199416841F08051416015
:10107000406800F080500090009802B07047000077
:1010800010B54EF60C5CCEF2000CDCF80030C3F369
:10109000022E8EF00704042C28BF0424BEF10303A3
:1010A0004FF0FF3E0EFA04F438BF0023A1439940ED
:1010B0000EFA03F39A43114300F00F0200F160436C
:1010C0000901043A03F564436244002848BF02F171
:1010D0000C03197010BD00004EF60C51CEF2000149
:1010E0000A684FF6FF031A4060F30A2242F080605C
:1010F00040F0FD700860704780B5411E0F294FF029
:10110000000039D8DFE801F00C2A380838383808F0
:10111000383838383838383ABDE8804000F002BAFC
:1011200041F20400C4F20200C16940F202320A40F6
:10113000B2F5817F04BF4FF4004080BD01F44071DF
:10114000B1F5407F4CD0B1F5007F51D1006A49F62E
:101150004041800701EAE07080BD00BF00F0CEF999
:1011600041F20401C4F2020109680222C1F3813193
:1011700002EB4101B0FBF1F080BD00BF41F2040180
:10118000C4F202010A6851F8040CC0015CBF0020DF
:1011900080BDC2F3834017A3185CD20306D440F687
:1011A0000012C0F23D0250430CE000BF0A6815A3D4
:1011B000C2F340429A5C41F20023C0F27A03B3FBCF
:1011C000F2F250430968490248BF80BD4AF6AB219C
:1011D0004000CAF6AA21A0FB0101480880BD00BF5B
:1011E00050F8040C4FF22441800301EAE07080BD06
:1011F000002080BD02030405060708090A0B0C0D38
:101200000E0F1010010200002DE9F04182B00446DB
:10121000007841F21C06C007C4F202064AD03068CA
:1012200010F0805808D1306840F08050306030684D
:1012300000F080500190019847F20007C4F20007C7
:101240003868C00512D4386840F480703860FFF701
:10125000B1FE05463868C00508D4FFF7ABFE401B59
:101260006428F7D9032002B0BDE8F081706810F45B
:10127000407012D0616801F4407188420DD07068EE
:1012800040F24042C4F24222012320F44071136034
:101290000023C007136071602AD17068616820F470
:1012A00040700843B8F1000F706003D1306820F03F
:1012B000805030602068810707D556F8181CA26856
:1012C00021F44041114346F8181CC00604D4002004
:1012D00002B0BDE8F08100BF56F8180C616920F437
:1012E0008000084346F8180C002002B0BDE8F081E9
:1012F000FFF760FE054641F2883700BF706880073F
:10130000CBD4FFF757FE401BB8424FF00300F5D98E
:10131000EBE700002DE9F04381B0002800F0858064
:1013200042F20008C4F202080446D8F800000D4654
:1013300000F0070088420CD2D8F8000020F0070027
:101340002843C8F80000D8F8000000F00700A842C1
:101350006BD1206841F204098107C4F2020917D554
:10136000410705D5D9F8001041F4E061C9F8001033
:10137000010705D5D9F8001041F46051C9F80010F3
:10138000D9F80010A26821F0F0011143C9F800104B
:10139000C00741D1D8F8000000F00700A8420CD9DE
:1013A000D8F8000020F007002843C8F80000D8F85B
:1013B000000000F00700A84237D12068410707D598
:1013C000D9F80010E26821F4E0611143C9F8001077
:1013D000000708D5D9F80000216920F4605040EAE0
:1013E000C100C9F80000D9F8002002F00C0008285C
:1013F00041F20020C0F27A0050D141F68C73C2F362
:101400008341C0F60003595CD2033BD440F6001080
:10141000C0F23D00484341E0606802280AD001283C
:101420002AD159F8041C890308D4012001B0BDE871
:10143000F08300BF59F8041C8901F6D5D9F80010D3
:1014400021F003010843C9F80000FFF7B3FD064689
:1014500041F28837D9F80000616800F00C00B0EB69
:10146000810F97D0FFF7A6FD801BB842F2D9032069
:1014700001B0BDE8F08300BF59F8041C8907D4D53A
:10148000DCE700BFD9F8002041F68A73C2F340427E
:10149000C0F600039A5C4843B0FBF2F0D9F80010A4
:1014A00041F67272C1F30311C0F60002515C40F2C2
:1014B000080220FA01F140F20400C2F200000068C4
:1014C000C2F200021160FFF79DFD002001B0BDE8EF
:1014D000F083000040F2080041F20401C2F2000073
:1014E000C4F202010068096841F68272C1F3022168
:1014F000C0F60002515CC8407047000040F208008E
:1015000041F20401C2F20000C4F20201006809685D
:1015100041F68272C1F3C221C0F60002515CC8409C
:101520007047000041F2040CC4F2020CDCF80030F9
:1015300003F00C00082841F20020C0F27A0018BF26
:10154000704741F68C71C3F38342C0F600018A5C98
:10155000D90305D440F60010C0F23D005043704757
:10156000DCF8001041F68A73C1F34041C0F6000375
:10157000595C5043B0FBF1F0704700002DE9F04199
:1015800082B0002868D00446007841F20006C00707
:10159000C4F2020625D0706800F00C0004281BD0AD
:1015A000706800F00C00082802D17068C00313D4E2
:1015B0006068002800F06881B0F5A02F00F07C8101
:1015C000B0F5803F00F07C81306820F480303060DE
:1015D000306820F4802076E13068800301D56068AF
:1015E000D0B32078800718D5706810F00C0F07D0A2
:1015F000706800F00C0008286ED17068C0036BD4CE
:101600003068800702D52069012825D130686169DA
:1016100020F0F80040EAC1003060207800071FD4B5
:101620002078400732D4E56995B1706800F00C006D
:10163000082840F08F80012D0ED07068216A00F4D8
:1016400080328A4208D1616A00F47010884203D166
:10165000002002B0BDE8F081012002B0BDE8F081B9
:10166000A069002862D00020C4F242200121C0F805
:101670008014FFF79FFC0546706A800700F18C809C
:10168000FFF798FC401B0228F6D92AE1F06910F018
:10169000805808D1F06940F08050F061F06900F0A6
:1016A00080500090009847F20007C4F200073868A5
:1016B000C00529D4386840F480703860FFF77AFCA0
:1016C000054600BF3868C0051ED4FFF773FC401BF9
:1016D0006428F7D905E100BF2069002840F2000026
:1016E000C4F2422000F0828001210160FFF762FC19
:1016F000054600BF306880073FF588AFFFF75AFC0A
:10170000401B0228F6D9ECE0E068002800F0808059
:10171000052800F09780012800F09880306A20F0BA
:1017200001003062306A20F0040092E00020C4F230
:1017300042200021C0F88014FFF73CFC054600BFA2
:10174000706A80077FF56CAFFFF734FC401B0228FE
:10175000F6D9C6E00027C4F2422700203866FFF71A
:1017600029FC022D05460BD13068800140F1BE8076
:10177000FFF720FC401B02284FF00300F4D968E774
:10178000306880017FF564AFFFF714FC401B02282E
:101790004FF00300F4D95CE740F20800C2F2000009
:1017A000006844F6D351C1F26201A0FB0101480A6E
:1017B000019000BF00BF0198411E002801913FF435
:1017C0002FAF00BF0198411E002801913FF428AFC0
:1017D00000BF0198411E002801913FF421AF00BFD6
:1017E0000198411E00280191E4D119E70021016010
:1017F000FFF7E0FB054600BF306880077FF50DAFBF
:10180000FFF7D8FB401B02284FF00300F4D920E774
:10181000306A20F001003062306A20F0040030624B
:10182000FFF7C8FB054641F2883700BF306A8007E2
:1018300020D5FFF7BFFB401BB8424FF00300F5D99E
:1018400007E700BF306A40F004003062306A40F0C1
:1018500001003062FFF7AEFB054641F2883700BF5A
:10186000306A800706D4FFF7A5FB401BB842F7D9C2
:1018700037E000BFB8F1000F7FF4D5AEF06920F07B
:101880008050F061CFE600BF306820F480303060D7
:10189000306820F480203060FFF78CFB054600BFE5
:1018A000306880037FF59DAEFFF784FB401B642802
:1018B0004FF00300F4D9CCE6306840F4802030606B
:1018C000306840F480303060FFF774FB054600BF9D
:1018D000306880033FF585AEFFF76CFB401B642842
:1018E000F6D9032002B0BDE8F08100BF206AB0F550
:1018F000803F05D17168A26821F400311143716005
:101900007168626A21F47411114308437060012008
:101910003866FFF74FFB0446306880013FF598AE0C
:10192000FFF748FB001B02284FF00300F4D990E6B4
:10193000411E0020B0EB116F1CBF012070474EF21A
:101940001002CEF2000251604EF62351CEF2000199
:10195000F0230B700721906011607047002804BFCE
:101960000120704710B5044690F8410028B90020C6
:1019700084F84000204600F063F8242084F84100F9
:101980002068D4E90212C36823F40053C3600369DA
:1019900023F440531A430261D4E904231143C2687B
:1019A000194341F20C639A431143C1604169A26932
:1019B00021F44071114343F60002C4F20102904247
:1019C000416103D0FFF786FD02E000BFFFF796FDFF
:1019D0006268192148439100B0FBF1F048F21F51B1
:1019E000C5F2EB11A0FB01235A094FF69C73C0F618
:1019F000FF7302FB0300322303EB0010A0FB010185
:101A0000F02303EA5113206803EB0212C1F34311E0
:101A100011448160016921F490410161416921F023
:101A20002A014161C16841F40051C16000202021B8
:101A3000606484F8411084F84210606310BD0000B7
:101A400070B586B040F60004C4F20104006804F5E5
:101A5000405100268842049602D006B070BD00BFF7
:101A600041F21800C4F20200016802AD41F4804165
:101A70000160016801F4804101910199016841F020
:101A8000040101600068294600F0040001900198FB
:101A90004FF400700290022003900320059020462E
:101AA000FFF78AF94FF48060CDE902062046294607
:101AB0000496FFF781F906B070BD00002DE9F043F0
:101AC00081B0044690F84100202840F0B18088465B
:101AD00000294FF0010000F0D6801646002A00F0E1
:101AE000D2800020606421201D4684F84100FFF769
:101AF00061FAA684E684A1680646B1F5805F03D149
:101B00002069002800F0988047464FF00008E18CDB
:101B10002068002900F0968005F101090BE000BF64
:101B200047B317F8011B4160E18C0139E184E18C76
:101B3000002900F0878001680906F1D4B9F1000F8F
:101B40000AD0EDB1FFF736FA801BA84218D82068FA
:101B500001680906F6D5E3E701680906E0D40168E3
:101B600009065CBF01685FEA0161D9D40168090612
:101B7000F2D5D5E738F8021B00276FF35F21D2E7D3
:101B8000206850E8030F216820F4D07041E8030278
:101B9000BAB3206850E8030F216820F4D07041E800
:101BA000030272B3206850E8030F216820F4D0705C
:101BB00041E803022AB3206850E8030F216820F4AB
:101BC000D07041E80302002ADAD11AE0206850E818
:101BD000050F216820F0010041E80502DAB1206814
:101BE00050E8050F216820F0010041E8050292B19C
:101BF000206850E8050F216820F0010041E8050247
:101C00004AB1206850E8050F216820F0010041E842
:101C10000502002ADAD1202084F8410084F842002D
:101C2000002084F84000032001B0BDE8F08300BF2D
:101C3000022001B0BDE8F0830027E18C2068002974
:101C40007FF46AAF0168490619D4FDB1691C0DD152
:101C50000168490613D4016849065CBF01685FEA60
:101C600041610CD401684906F2D508E0FFF7A2F9FA
:101C7000801BA8420AD8206800684006F6D52020BC
:101C800084F84100002001B0BDE8F083206850E8EE
:101C9000030F216820F4D07041E80302002A3ED0EF
:101CA000206850E8030F216820F4D07041E8030257
:101CB000AAB3206850E8030F216820F4D07041E8EF
:101CC000030262B3206850E8030F216820F4D0704B
:101CD00041E80302002AD9D121E000BF206850E882
:101CE000050F216820F0010041E80502002A3FF4B9
:101CF00092AF206850E8050F216820F0010041E80C
:101D00000502002A3FF487AF206850E8050F2168DC
:101D100020F0010041E80502002A3FF47CAF206872
:101D200050E8050F216820F0010041E80502002A73
:101D3000D4D170E7FEE7000010B584B040F2D800BF
:101D400042F20041C2F20000C4F2010100224FF44D
:101D50006023012402730275C361C0E9001282602E
:101D60000461FEF70BFE002818BFFEF7AFFC05204C
:101D7000039040F2D800C2F2000001A9CDE901446D
:101D8000FEF732FD002818BFFEF7A0FC04B010BD1E
:101D900080B582B00020CDE9000040F2081047F283
:101DA0000041C2F20000C4F200010160FEF766FFCC
:101DB000002818BFFEF78AFC40F20810C2F20000AB
:101DC00069460022FEF72AFF002818BFFEF77EFCB6
:101DD00002B080BD81B041F21800C4F20200016877
:101DE00041F004010160006800F0040000900098D8
:101DF00001B0704780B540F21C1043F60001C2F2FA
:101E00000000C4F2010100234FF00C0C4FF4E1324A
:101E100080E80E00C0E90333C0E905C3C361FFF7E2
:101E20009DFD002808BF80BDBDE88040FEF74EBC88
:101E3000FEE70000FEE7000070470000704700006A
:101E4000FFF7BEB870470000FEE7000096B0FFF74E
:101E5000C5F800240120CDE91144CDE90F440C90D0
:101E600010904FF4E0104FF48031022515900CA82B
:101E70000694CDE90444CDE90244CDE90D14CDE941
:101E80001351FFF77BFB28B1EFF3108072B600BF50
:101E9000FEE700BF0F20CDE907054FF48060CDE9D4
:101EA0000A0407A802210994FFF734FA20B1EFF3DE
:101EB000108072B6FEE700BF022001904FF4004090
:101EC000039001A8FFF7A0F920B1EFF3108072B6DC
:101ED000FEE700BFFFF77EFFFFF72EFFFFF758FF7B
:101EE000FFF788FF40F2D804C2F200042046FEF754
:101EF000F3FB40F20815C2F200052846002100223B
:101F00004FF4FA73FEF7FEFE28460021FEF712FF9B
:101F100040F2700840F21C16C2F200080FA5C2F28F
:101F2000000600BF2046FEF713FE2046FEF722FD06
:101F3000474627F8020B82B238462946FEF76AF96F
:101F40003846FEF766FA82B2304639463223FFF74A
:101F5000B5FD4FF4FA70FEF71BFFE3E72534640A82
:101F60000000000030380A2801D20120704700200C
:101F70007047000000000000000001020304060793
:101F80000809000000000102030401020203040525
:101F9000060708090A0B0C0D0E0F1010C01F0008D1
:101FA00000000020100000006C010008D01F000895
:101FB0001000002058070000880100080000000001
:101FC00001000000100000000024F40000000000E8
:0400000508000131BD
:00000001FF
