:020000040800F2
:1000000060070020E5010008412C00084D2B000886
:100010003D2C0008690C00086D2D00080000000050
:10002000000000000000000000000000492C000853
:100030006D0C000800000000452C00084D2C000845
:10004000FF010008FF010008FF010008FF01000890
:10005000FF010008FF010008FF010008FF01000880
:10006000FF010008FF010008FF010008FF01000870
:10007000FF010008FF010008FF010008FF01000860
:10008000FF010008FF010008FF010008FF01000850
:10009000FF010008FF010008FF010008FF01000840
:1000A000FF010008FF010008FF010008FF01000830
:1000B000FF010008FF010008FF010008FF01000820
:1000C000FF010008FF010008FF010008FF01000810
:1000D000FF010008612D0008FF010008FF01000872
:1000E000FF010008FF010008FF010008FF010008F0
:1000F000FF010008FF010008FF010008FF010008E0
:10010000FF010008FF010008FF010008FF010008CF
:10011000FF010008FF010008FF010008FF010008BF
:10012000FF010008FF010008FF010008FF010008AF
:1001300000F002F800F047F80AA090E8000C8244B2
:100140008344AAF10107DA4501D100F03CF8AFF28F
:10015000090EBAE80F0013F0010F18BFFB1A43F0A5
:1001600001031847C03E0000E03E0000103A24BFE3
:1001700078C878C1FAD8520724BF30C830C144BF0C
:1001800004680C607047000000230024002500264E
:10019000103A28BF78C1FBD8520728BF30C148BFEA
:1001A0000B607047662903F0CD86002070471FB5AD
:1001B00000F05EFB04000020002103F0ABFAE060D9
:1001C0001FBD10B510BD00F053FC1146FFF7EFFF47
:1001D00002F0CEFD00F071FC03B4FFF7F2FF03BCA8
:1001E00000F0B4FC0948804709480047FEE7FEE7F5
:1001F000FEE7FEE7FEE7FEE7FEE7FEE7FEE7FEE7D7
:1002000004480549054A064B70470000512C000878
:100210003101000860010020600700206003002019
:10022000600300200FB41CB5074B06AA7B44694647
:100230000090059800F003FB0020694600F012FBD7
:100240001CBC5DF814FB00003506000070B50446C8
:1002500085690068C10601D5302600E02026C00768
:1002600007D070BDD4E9012130469047206A401C78
:1002700020626D1EF6D570BD70B5044685690078A4
:10028000C00707D170BDD4E9012120209047206A22
:10029000401C20626D1EF6D570BD00002DE9F05F98
:1002A000894604464FF0000ADFF824B1FB44C0F849
:1002B00020A02046E168884700287DD0252806D068
:1002C000D4E901219047206A401C2062F1E7002513
:1002D0005F462046E16888472028064607DB312E26
:1002E00005D2B81910F8200C08B10543F1E7A807AA
:1002F00001D525F00405C4F81CA00027C4F818A0F7
:100300002A2E09D0304603F0FDF938B304EB8708F4
:10031000303EC8F8186019E059F8041B204604EB79
:1003200087029161E1688847012F064618D1E0698C
:10033000002820DA25F020051DE0D8F8180000EB91
:10034000800006EB40003038C8F818002046E1680D
:100350008847064603F0D6F90028EED1012F0AD0CF
:100360002E2E08D12046E16888477F1C0646022FC2
:1003700045F02005C4DBA069002803DA404245F0BF
:100380000105A061E80701D025F01005A6B1A6F18E
:100390004100192802D8203645F400654A46314606
:1003A000204625604D46FFF7FDFE60B1012807D0CD
:1003B000ED1D25F0070000E007E000F1080978E7EF
:1003C00005F1040975E730467AE7206ABDE8F09F39
:1003D000983C000010B5431C02E010F8011B71B1FD
:1003E0008107FAD14FF0013202C88C1A8C4314EA0B
:1003F000C211F9D0C01A0A0603D0C01E10BDC01A1F
:1004000010BD0A0401D0801E10BD0902FCD0401EA0
:1004100010BD7047704770472DE9FF4F0C461E46D0
:100420004FF0FF378BB0D2E90001DDF860800A9011
:100430008A46C1F30A5505B93D46002108464FF0EA
:100440000000BAF1000F00F4400005DA00EB800074
:100450004FF4400101EA50004FEA9059B9F1010F01
:1004600000DDB9460A9850EA4A000ED044F6105012
:10047000A5F2FF3545432F14B8F1000F1ED0754289
:10048000291E1EDDC9F100021CE0B8F1010F4FF07A
:10049000000001D0302103E0F24305E02154401C6C
:1004A000B042FBDB30460022002121540B99C1F8F9
:1004B0000880C1E900200FB0BDE8F08FBD1B6D1CA6
:1004C000DEE74A4600DA694206A800F05BFA06ABAE
:1004D00093E8070003AB83E8070050460A9902F04F
:1004E00035FD8DE80700A0F500501F3800900398F7
:1004F000002D0ADD42F21F014A460844002303A9E9
:100500000390684602F09EFF09E0A0F500504A46BD
:100510001F38002303A90390684602F0A8FF8DE866
:1005200007000004000C03D04FF0FF30410800E04A
:100530001046B8F1000F03D00022009215461EE0CD
:10054000751E05D400F098F9303262556D1EF9D54C
:10055000B3460122084302D000227F1C04E0207829
:10056000302801D100227F1E002A099784D01DE087
:10057000112D07DA00F080F9303262556D1C50EA17
:100580000102F5D1084302D00098C8B10EE0002165
:10059000681E05E0235C625C63542254401E491CC3
:1005A0008142F7DBAB46A81B401E0990002004F8EF
:1005B0000B000B98099AC0F80880C0E9002B7AE775
:1005C00011264FF0000857E72DE9F04F8846044602
:1005D000D21D22F0070191B0D1E90001CDE90A0155
:1005E00003F07CF802460B98C00F01D02D2007E0E5
:1005F0002068810701D52B2002E0202101EAC000FC
:10060000032A099001D0072A05DB0346414620460C
:1006100000F078F90BE12078800601D5E06900E070
:100620000620B8F1650F814606D0B8F1660F18D0E4
:10063000B8F1670F70D131E00020B9F1110F0090CF
:1006400001DB112301E009F101030AAA01A90CA8A9
:10065000FFF7E2FEDDE90C70002609F10105834693
:1006600047E001204B4600904FF000470AAA01A93D
:100670000CA8FFF7D1FEDDE90DB00C995D46002610
:1006800010B909F101000D18B9EB050003D4C0F150
:10069000FF3609F10105A5EB09002BE0B9F1010FC7
:1006A00001DA4FF001090020B9F1110F009048461E
:1006B00001DD112300E003460AAA01A90CA8FFF7F7
:1006C000ABFEDDE90C704D4600268346207800071E
:1006D0000AD4AB4500DA5D4601A8012D04DD4119BD
:1006E00011F8011C302907D04F4502DA17F1040F29
:1006F00004DA012082460FE06D1EEEE7002F02DCD7
:10070000ED1B3E4403E0781CA84200DD7D1CB81BB5
:1007100000F1010A4FF000472078000703D4AA45F2
:1007200001DB4FF0FF3A0021B7F1004F0DF1430814
:100730008DF8431024D002202B23002F01DA7F42B2
:100740002D230A21021EA0F1010000DC5FB197FBFE
:10075000F1FC97FBF1F201FB1C7C17460CF1300C0D
:1007600008F801CDEEE7A8F1010003702188090522
:1007700001D5452100E06521A0F1010800F8011C28
:1007800009980FA9A1EB0807FF1D00B1012041192D
:1007900001EBEA70A1693844081A401EA061207874
:1007A000C00602D42046FFF751FD099828B1D4E9CC
:1007B00001219047206A401C20622078C00622D583
:1007C0002046FFF743FD1EE0002E04DBB34502DDAB
:1007D00001A8805D00E03020D4E901219047206A23
:1007E000401C2062761CAAF101005FEA000A0AD1CF
:1007F00000F03EF8C0680168405CD4E901219047F0
:10080000206A401C2062281EA5F10105DCDC07E0FF
:10081000D4E9012118F8010B9047206A401C20629E
:10082000381EA7F10107F3DC2046FFF725FD032062
:1008300011B041E601694A1C02610878704700B5B1
:100840008FB0CDE901310021059105497944CDE909
:10085000031011466846FFF721FD0FB000BD0000F0
:10086000E5FFFFFF0A6802F8010B0A60704700000D
:10087000004870473000002030B5B0F10A0271F135
:1008800000034FEA900E4EEA817EB0EB0E0061EB62
:1008900091014FEA101E4EEA017E10EB0E0041EB73
:1008A00011114FEA102E4EEA016E10EB0E0041EBD3
:1008B00011214FEA104E4EEA014E10EB0E0041EBB3
:1008C0001141401841F100014FEAD00040EA417067
:1008D0004FEAD1014FEA810444EA907410EB80059D
:1008E00044EB01046D1944EB0404521BA3414FF087
:1008F000000348BF0A3200D530BD401C41F1000161
:1009000030BD00002DE9F0411F4604460326016872
:10091000072A01F4006004DB08B116A505E016A55E
:1009200003E008B115A500E015A521F01000206036
:10093000A069C01EA0610FB1401EA0612046FFF754
:1009400085FC4FB1D4E9012138469047206A401C0C
:100950002062C01C206206E0206AFAE7D4E9012187
:1009600015F8010B9047761EF8D22046FFF784FC5D
:10097000BDE8F0814E414E006E616E00494E46006A
:10098000696E66002DE9F047814616468AB0354803
:1009900078440DC88DE80D0032487844801C03ACC3
:1009A0000DC884E80D0041F69B300844372190FBC8
:1009B000F1F290FBF1F5A5F1800501FB12041B3C5F
:1009C00002D56442012000E00020DFF898A08046B4
:1009D0000027FA44AAF1BE0A0EE0E0070AD0324628
:1009E000684607EB470101230AEB810102F03FFD56
:1009F0008DE8070064107F1C002CEED1194F7F4456
:100A0000AE3F19E0E80715D007EB04100DF1180A06
:100A100090E80E008AE80E00C068F04201D19819F3
:100A200008903246012306A903A802F020FD03AB7B
:100A300083E807006D10641C002DE3D14FF0010323
:100A400032466946B8F1000F03A802D002F0FAFC62
:100A500001E002F00CFDC9E90001C9F808200AB064
:100A6000BDE8F087443600000048704710000020C1
:100A70007546FFF7F9FFAE4605006946534620F07C
:100A80000700854618B020B5FFF7BAFBBDE8204047
:100A90004FF000064FF000074FF000084FF0000B3A
:100AA000AC46ACE8C009ACE8C009ACE8C009ACE8A9
:100AB000C00921F007018D46704710B50446AFF319
:100AC00000802046BDE81040FFF786BB4FF0013C98
:100AD00050F8042B51F8043B9A4221D1A2EB0C03AD
:100AE000934313EACC1317D150F8042B51F8043B6D
:100AF0009A4215D1A2EB0C03934313EACC130BD10A
:100B000050F8042B51F8043B9A4209D1A2EB0C0394
:100B1000934313EACC13DBD04FF00000704700BFC3
:100B2000D01A01BAB1FA81F101F0180122FA01F0EC
:100B3000CB40DBB2C0B2C01AC1F120012CFA01F3E4
:100B4000D11A914311EAC311E6D170470149182027
:100B5000ABBEFEE72600020070470000B0B50446B9
:100B600000688168C90709D0816821F001018160AE
:100B700000F050FE21688968C90701D10020B0BD8E
:100B8000054602E08068C007F8D000F043FE411B34
:100B900020680329F6D38168C907F3D0A06A40F022
:100BA0001000A062E06A40F00100E0620120B0BDE8
:100BB000B0B582B004460020019021688A68D2074F
:100BC0004FD1886840F00100886040F20800C2F20E
:100BD000000000684DF68361C4F21B31A0FB0101E7
:100BE000880C01900198A0B10198013801900198FA
:100BF00078B1019801380190019850B101980138FD
:100C00000190019828B101980138019001980028BD
:100C1000EAD100F0FFFD21688968C9071CD10546AB
:100C200003E000BF8068C0071AD100F0F3FD411B4C
:100C300020680329F6D38168C907F3D1A06A40F080
:100C40001000A062E06A40F00100E062002084F839
:100C50002400012002B0B0BD002002B0B0BD00BF32
:100C6000002002B0B0BD0000FEE7000070470000A9
:100C7000EFF3108072B600BFFEE7000070B582B0DF
:100C800004460020019094F82400012804D1022594
:100C9000284602B070BD00BF012084F82400204621
:100CA000FFF75CFF2046FFF783FF0546002867D16A
:100CB000A06A41F2021188430230A06240F20800AB
:100CC000C2F200000668022000F062FEB6FBF0F0FF
:100CD000400001900198A0B101980138019001985D
:100CE00078B1019801380190019850B1019801380C
:100CF0000190019828B101980138019001980028CD
:100D0000EAD12068816841F00801816000F082FD2D
:100D100021688A6812070DD4886840F00400886052
:100D200000F078FD21688968490713D401206FF02D
:100D3000030121E0064602E088680007ECD500F0D8
:100D400069FD801B21680B28F6D388680007F3D55E
:100D50000EE000BF064602E080684007E6D500F0DE
:100D600059FD811B20680B29F6D381684907F3D50B
:100D7000012510206FF01201A26A11400843A06201
:100D8000002084F82400284602B070BD10B581B060
:100D90000022009290F82420012A03D10221084663
:100DA00001B010BD4B680122062B80F8242017D813
:100DB000D0F800C003EB83035A1F1F23DCF834E094
:100DC00003FA02F40B682EEA040403FA02F2224347
:100DD000CCF83420092B03EB430219D936E000BFCD
:100DE000D0F800C00C2B03EB83021DD8233A1F233D
:100DF000DCF830E003FA02F40B682EEA040403FA8C
:100E000002F22243CCF83020092B03EB43021DD819
:100E1000DCF81030072489689440A34391401943BB
:100E2000CCF81010002130E0413A1F23DCF82CE010
:100E300003FA02F40B682EEA040403FA02F22243D6
:100E4000CCF82C20092B03EB4302E1D9DCF80CE0B1
:100E50001E3A0724896894402EEA0404914023F046
:100E600001022143102ACCF80C100DD142F20841A6
:100E7000C4F20101A1F1080294450DD0816A41F04C
:100E800020018162012100E00021002280F824205D
:100E9000084601B010BD00BF0A68120230D40A68CB
:100EA000102B42F400020A602CD140F20801C2F279
:100EB000000109684DF68362C4F21B32A1FB0212E5
:100EC000910C01EB8101490000910099E1B1009979
:100ED000013900910099C9B1009901390091009937
:100EE000B1B1009901390091009999B10099013986
:100EF0000091009900294FF00001E8D1C5E700BF3B
:100F00000021C2E70021C0E70021BEE70021BCE7C5
:100F10000021BAE70021B8E70068C06C7047000004
:100F2000B0B5002800F0B2800446806A20B1216884
:100F30008868C0070BD114E00020E06284F8240028
:100F4000204600F0A5F821688868C00709D08868A5
:100F500020F00100886000F05DFC21688A68D207FB
:100F600030D1A06AC00644D4A06A41F20212904374
:100F70000230A062E36981F0804080F49E3083F407
:100F80004022104308BF4FF40023D4E9010243EA92
:100F9000000C531EB3FA83F35D091346B2F5807F4C
:100FA00018BF2B02207D257B01284CEA450030D15B
:100FB00035B3A56A45F02005A562E56A45F001054F
:100FC000E56226E0054602E08868C007C9D000F067
:100FD00021FC401B21680328F6D38868C007F3D0A2
:100FE000A06A40F01000A062E06A40F00100E062F8
:100FF000A06AA06A40F01000A0620120B0BD00BF4E
:10100000D4F818C04EF60005CFF6FF7505EB4C3549
:101010002B434D68B2F5807F25F4694543EA05030B
:101020004B608B684FF2FD75CFF6E17503EA05035F
:1010300043EA00038B6001D0012A07D12269002313
:10104000CFF6F07303EB025201E000BF0022CB6A3F
:1010500023F470031A43CA62896840F6FE62CFF631
:101060001F721140814207D10020E062A16A012273
:1010700062F30101A162B0BDA06A40F0100020F04F
:101080000200A062E06A40F00100E0620120B0BD11
:1010900081B0006842F20041C4F20101884201D0EF
:1010A00001B0704741F21800C4F20200016841F437
:1010B00000710160006800F400700090009801B0B9
:1010C00070470000F0B581B000270D460446009738
:1010D00000F0A0FB21688A68D20543D40646486820
:1010E000C00503D4C86A10F4700F45D040F2080060
:1010F000C2F200000768022000F04AFC216844F6B2
:1011000024130A69B7FBF0F0C2F292431A4206D1E7
:10111000CA6844F62413C0F292031A425ED00A69E8
:1011200042F29243C1F249231A4207D1CA6842F2FD
:101130009243C0F249031A4200F0C0800A6949F2A2
:101140004923C0F224031A424FF0FC0257D1CF6862
:101150001F4208BF5422009B02FB00F7BB4253D33F
:10116000C3E000BFA06A40F02000A06284F82470B1
:10117000012001B0F0BD00BF0868800700F1B58014
:10118000681C00F0A880FDB90868800772D508685F
:10119000800700F1AA80086880076BD5086880077F
:1011A00000F1A3800868800764D50868800700F113
:1011B0009C80086880075DD508688007E4D594E0C6
:1011C0000868800700F1918000F024FB801B2168F3
:1011D000A842F5D908688007F2D44BE00A6942F2C8
:1011E0009243C1F249231A424FF0290207D1CB683A
:1011F00042F29247C0F249073B4208BF1422009BCB
:1012000002FB00F7BB4270D2681C4FD055BB009860
:10121000B8422FD30098013000900098B84264D2B1
:101220000098B84226D30098013000900098B84248
:101230005BD20098B8421DD300980130009000980E
:10124000B84252D20098B84214D3009801300090AE
:101250000098B842DBD348E0009801300090009835
:10126000B84233D200F0D6FA801BA842F4D90098D5
:10127000B842F1D2A06A40F00400A062002084F8D5
:101280002400032001B0F0BD0098013000900098C8
:10129000B8422AD20098013000900098B84224D277
:1012A0000098013000900098B8421ED2009801309A
:1012B00000900098B842E7D317E000BF5422009B8B
:1012C00002FB00F7BB429FD30FE000BF21680CE098
:1012D0000868800709D40868800706D40868800772
:1012E0005CBF08685FEA8070F2D56FF0120008609A
:1012F000A06A40F40070A062886800F46020B0F535
:10130000602F01D1207B18B1002001B0F0BD00BFDB
:10131000A06A20F48070A062A06AC004F4D4A06A1D
:1013200040F00100A062002001B0F0BD10B50446FD
:1013300090F82400012804BF022010BD012084F889
:1013400024002046FFF734FC20B1002184F824104B
:1013500010BD00BF42F2044C2068A16AC4F2010C27
:1013600040F2013291430CF57F7201F58071904299
:10137000A16233D0A16A21F48011A16241684905BC
:1013800004D5A16A012363F30D31A162A16A002390
:10139000C9044FF0000144BFE16A21F00601E16297
:1013A0006FF0020184F824300160816801F460214B
:1013B000B1F5602F06D190420AD1DCF8001011F48B
:1013C000702F05D0816841F480118160002010BD2C
:1013D000816841F4A0018160002010BDDCF800109C
:1013E00011F4702FC6D0A16A41F48011A162DCF81B
:1013F00000104905C5D4C9E7B0B5044690F82400EB
:10140000012804BF0220B0BD0121206884F8241007
:101410008168C90709D0816821F00101816000F06D
:10142000F9F921688968C9070ED1214651F8280FBA
:1014300041F2011220EA0202002042F001020A6099
:10144000002184F82410B0BD054602E08068C00782
:10145000EBD000F0DFF9411B20680329F6D3816847
:10146000C907F3D0A06A214640F01000A06251F8ED
:101470002C2F0120E1E70000014690F8210002280E
:1014800016D10868D1E90FC3026822F00E0202608B
:10149000026822F001020260012000FA03F2CCF897
:1014A000042081F821000020002281F820207047CC
:1014B000042088630120002281F82020704700006A
:1014C00080B590F82110022928D1026840F2040C5E
:1014D0001368C4F2020C23F00E03136013680CF1BE
:1014E0007C018A4223F0010111601BD940F20841BE
:1014F000C4F202018A4249D040F21C41C4F2020106
:101500008A4247D040F23041C4F202018A4245D1BA
:101510004FF48073CCF800345DE000BF0421816398
:10152000012080BD4321C4F202018A420EDD6B21FD
:10153000C4F202018A421BDC4421C4F202018A4245
:101540003CD05821C4F202018A4233E00821C4F29F
:1015500002018A4236D01C21C4F202018A4237D0ED
:101560003021C4F202018A4224D14FF4807230E06B
:101570006C21C4F202018A4226D08021C4F2020109
:101580008A4217D14FF0807223E000BF0123CCF8CC
:10159000003420E01023CCF800341CE00CF5886106
:1015A0004FF480338A4208BF4FF48053CCF80034A4
:1015B00011E000BF4FF480320BE000BF4FF48052C7
:1015C00007E000BF012204E04FF4801201E000BFF9
:1015D0001022CCF80020012180F82110426B00215C
:1015E00080F820100AB190470021084680BD000015
:1015F000B0B5044600F00EF9054640F20000C2F214
:1016000000000078611C18BF044400BF00F002F91C
:10161000401BA042FAD3B0BD2DE9F04F82B0D1F803
:1016200000C0BCF1000F00F0F180A0F1804241F653
:101630000045A2F58432C4F2010540F2004E4FEAA3
:10164000B2240627A842C4F2010E08BF0527052CC4
:101650004FF000044FF001084FF00F034FF0000A65
:101660004FF0000B38BF4FEAB22700970AE000BFE7
:10167000D1F800C00AF1010A3CFA0AF204F10404AC
:1016800000F0C48008FA0AF91CEA090FF0D04E688D
:101690004FF6FF72C1F21002964211DC122E55D89D
:1016A000DFE806F0340A4448545454545454545413
:1016B00054545454544C5000D1F80CB046E000BF80
:1016C0004FF6FF72C1F2210296420FDC0022C1F2F6
:1016D000110296421AD00022C1F21202964215D08F
:1016E0000022C1F22102964210D02FE00022C1F266
:1016F000220296420AD00022C1F23102964205D05F
:101700000022C1F23202964220D100BF8A684AB15B
:10171000012A14BFC0F81490C0F810904FF0080BC5
:1017200014E000BF4FF0040B10E000BFCA6802F1E4
:10173000080B0BE04FF0000B08E000BFCA6802F195
:10174000040B03E0CA6802F10C0B00BF22460646F8
:10175000BAF1080F24BF203A0436376803FA02F5BD
:10176000AF430BFA02F23A433260CA79D2067FF5F0
:101770007FAF41F21807C4F202073A684FF60843F8
:1017800042F001023A603A68CFF6FF7302F00102BC
:101790000192019A2AF0030272440F25D75804F0EF
:1017A0000C06B540AF43009D05FA06F63743D75007
:1017B0004E6840F20C45F202DEF8082054BF22EADF
:1017C000090242EA0902CEF80820C4F201052A689B
:1017D000B70254BF22EA090242EA09022A60DEF88F
:1017E0000420B70354BF22EA090242EA0902CEF8F4
:1017F00004200F23DEF80020F70354BF22EA090279
:1018000042EA0902CEF8002032E700BF02B0BDE88C
:10181000F08F000040F25C10C2F2000000687047D8
:1018200040F2000040F25C11C2F20000C2F200017E
:1018300000780A68104408607047000080B542F2E2
:101840000000C4F20200016841F0100101600320B1
:1018500000F08EF80F2000F005F800F027F80020C7
:1018600080BD000070B540F20006C2F2000640F2F2
:1018700008013278C2F200014FF47A730968B3FBB1
:10188000F2F20446B1FBF2F1084600F09DFC0F2C89
:101890004FF0010508D838B94FF0FF30214600223B
:1018A000002500F039F87460284670BD82B041F21E
:1018B0001800C4F202000168022241F00101016037
:1018C000016801F0010101910199416841F08051E5
:1018D0004160406800F08050009000980420C4F2FD
:1018E0000100016862F31A61016002B070470000F4
:1018F000002848BF7047C1B200F01F00012202FA61
:1019000000F04EF20012CEF2000242EAD10121F0C4
:10191000030108607047000010B54EF60C5CCEF273
:10192000000CDCF80030C3F3022E8EF00704042C08
:1019300028BF0424BEF103034FF0FF3E0EFA04F467
:1019400038BF0023A14399400EFA03F39A43114391
:1019500000F00F0200F160430901043A03F564430B
:101960006244002848BF02F10C03197010BD00004A
:101970004EF60C51CEF200010A684FF6FF031A40F2
:1019800060F30A2242F0806040F0FD70086070470A
:1019900080B5411E0F294FF0000039D8DFE801F073
:1019A0000C2A380838383808383838383838383A4F
:1019B000BDE8804000F002BA41F20400C4F2020027
:1019C000C16940F202320A40B2F5817F04BF4FF490
:1019D000004080BD01F44071B1F5407F4CD0B1F5BD
:1019E000007F51D1006A49F64041800701EAE0706A
:1019F00080BD00BF00F0CEF941F20401C4F2020143
:101A000009680222C1F3813102EB4101B0FBF1F020
:101A100080BD00BF41F20401C4F202010A6851F81E
:101A2000040CC0015CBF002080BDC2F3834017A33B
:101A3000185CD20306D440F60012C0F23D025043B7
:101A40000CE000BF0A6815A3C2F340429A5C41F261
:101A50000023C0F27A03B3FBF2F250430968490253
:101A600048BF80BD4AF6AB214000CAF6AA21A0FBC0
:101A70000101480880BD00BF50F8040C4FF224411A
:101A8000800301EAE07080BD002080BD02030405F0
:101A9000060708090A0B0C0D0E0F101001020000BA
:101AA0002DE9F04182B00446007841F21C06C007DF
:101AB000C4F202064AD0306810F0805808D130686D
:101AC00040F080503060306800F080500190019804
:101AD00047F20007C4F200073868C00512D438681E
:101AE00040F480703860FFF795FE05463868C00501
:101AF00008D4FFF78FFE401B6428F7D9032002B0FB
:101B0000BDE8F081706810F4407012D0616801F493
:101B1000407188420DD0706840F24042C4F24222C7
:101B2000012320F4407113600023C007136071602B
:101B30002AD17068616820F440700843B8F1000F42
:101B4000706003D1306820F08050306020688107D9
:101B500007D556F8181CA26821F44041114346F8F5
:101B6000181CC00604D4002002B0BDE8F08100BFFC
:101B700056F8180C616920F48000084346F8180CE8
:101B8000002002B0BDE8F081FFF744FE054641F2B7
:101B9000883700BF70688007CBD4FFF73BFE401B3F
:101BA000B8424FF00300F5D9EBE700002DE9F04310
:101BB00081B0002800F0858042F20008C4F20208DB
:101BC0000446D8F800000D4600F0070088420CD209
:101BD000D8F8000020F007002843C8F80000D8F823
:101BE000000000F00700A8426BD1206841F2040910
:101BF0008107C4F2020917D5410705D5D9F80010AD
:101C000041F4E061C9F80010010705D5D9F80010CA
:101C100041F46051C9F80010D9F80010A26821F011
:101C2000F0011143C9F80010C00741D1D8F80000F5
:101C300000F00700A8420CD9D8F8000020F00700F7
:101C40002843C8F80000D8F8000000F00700A842B8
:101C500037D12068410707D5D9F80010E26821F490
:101C6000E0611143C9F80010000708D5D9F8000059
:101C7000216920F4605040EAC100C9F80000D9F899
:101C8000002002F00C00082841F20020C0F27A0087
:101C900050D144F20A03C2F38341C0F60003595CF9
:101CA000D2033BD440F60010C0F23D00484341E06F
:101CB000606802280AD001282AD159F8041C890337
:101CC00008D4012001B0BDE8F08300BF59F8041C1E
:101CD0008901F6D5D9F8001021F003010843C9F8AD
:101CE0000000FFF797FD064641F28837D9F800005B
:101CF000616800F00C00B0EB810F97D0FFF78AFD10
:101D0000801BB842F2D9032001B0BDE8F08300BFC8
:101D100059F8041C8907D4D5DCE700BFD9F80020A6
:101D200044F20803C2F34042C0F600039A5C484301
:101D3000B0FBF2F0D9F8001043F6F072C1F30311D2
:101D4000C0F60002515C40F2080220FA01F140F2B4
:101D50000400C2F200000068C2F200021160FFF746
:101D600081FD002001B0BDE8F083000040F20800D2
:101D700041F20401C2F20000C4F2020100680968E5
:101D800044F20002C1F30221C0F60002515CC840D7
:101D90007047000040F2080041F20401C2F2000066
:101DA000C4F202010068096844F20002C1F3C221D2
:101DB000C0F60002515CC8407047000041F2040CBC
:101DC000C4F2020CDCF8003003F00C00082841F2E9
:101DD0000020C0F27A0018BF704744F20A01C3F332
:101DE0008342C0F600018A5CD90305D440F6001096
:101DF000C0F23D0050437047DCF8001044F2080385
:101E0000C1F34041C0F60003595C5043B0FBF1F010
:101E1000704700002DE9F04182B0002868D00446E8
:101E2000007841F20006C007C4F2020625D07068AF
:101E300000F00C0004281BD0706800F00C0008288B
:101E400002D17068C00313D46068002800F0688174
:101E5000B0F5A02F00F07C81B0F5803F00F07C81D0
:101E6000306820F480303060306820F4802076E1E3
:101E70003068800301D56068D0B32078800718D51A
:101E8000706810F00C0F07D0706800F00C00082884
:101E90006ED17068C0036BD43068800702D52069AA
:101EA000012825D13068616920F0F80040EAC100BE
:101EB0003060207800071FD42078400732D4E569CD
:101EC00095B1706800F00C00082840F08F80012D5B
:101ED0000ED07068216A00F480328A4208D1616AAB
:101EE00000F47010884203D1002002B0BDE8F081F8
:101EF000012002B0BDE8F081A069002862D0002076
:101F0000C4F242200121C0F88014FFF783FC05468B
:101F1000706A800700F18C80FFF77CFC401B022870
:101F2000F6D92AE1F06910F0805808D1F06940F044
:101F30008050F061F06900F080500090009847F206
:101F40000007C4F200073868C00529D4386840F497
:101F500080703860FFF75EFC054600BF3868C0053A
:101F60001ED4FFF757FC401B6428F7D905E100BFDA
:101F70002069002840F20000C4F2422000F0828074
:101F800001210160FFF746FC054600BF306880076D
:101F90003FF588AFFFF73EFC401B0228F6D9ECE086
:101FA000E068002800F08080052800F09780012874
:101FB00000F09880306A20F001003062306A20F032
:101FC000040092E00020C4F242200021C0F88014F6
:101FD000FFF720FC054600BF706A80077FF56CAFF5
:101FE000FFF718FC401B0228F6D9C6E00027C4F210
:101FF000422700203866FFF70DFC022D05460BD165
:102000003068800140F1BE80FFF704FC401B0228CD
:102010004FF00300F4D968E7306880017FF564AFC2
:10202000FFF7F8FB401B02284FF00300F4D95CE7F0
:1020300040F20800C2F20000006844F6D351C1F239
:102040006201A0FB0101480A019000BF00BF019896
:10205000411E002801913FF42FAF00BF0198411E9F
:10206000002801913FF428AF00BF0198411E0028CD
:1020700001913FF421AF00BF0198411E002801915A
:10208000E4D119E700210160FFF7C4FB054600BF5A
:10209000306880077FF50DAFFFF7BCFB401B0228BF
:1020A0004FF00300F4D920E7306A20F001003062DD
:1020B000306A20F004003062FFF7ACFB054641F2C5
:1020C000883700BF306A800720D5FFF7A3FB401B8D
:1020D000B8424FF00300F5D907E700BF306A40F07F
:1020E00004003062306A40F001003062FFF792FB7A
:1020F000054641F2883700BF306A800706D4FFF7F3
:1021000089FB401BB842F7D937E000BFB8F1000F98
:102110007FF4D5AEF06920F08050F061CFE600BFCB
:10212000306820F480303060306820F480203060E7
:10213000FFF770FB054600BF306880037FF59DAE5A
:10214000FFF768FB401B64284FF00300F4D9CCE68E
:10215000306840F480203060306840F48030306077
:10216000FFF758FB054600BF306880033FF585AE9A
:10217000FFF750FB401B6428F6D9032002B0BDE8EE
:10218000F08100BF206AB0F5803F05D17168A26878
:1021900021F40031114371607168626A21F4741195
:1021A00011430843706001203866FFF733FB044693
:1021B000306880013FF598AEFFF72CFB001B02282A
:1021C0004FF00300F4D990E6411E0020B0EB116FF0
:1021D0001CBF012070474EF21002CEF20002516087
:1021E0004EF62351CEF20001F0230B7007219060D0
:1021F000116070477047000070470000B0B582B0B2
:10220000044600680168C368426901F02F05202D6B
:1022100003F0200506D12DB1204602B0BDE8B04044
:1022200000F01EBD5FEA017C1EBF02F0010E03F448
:10223000907212EB0E0253D1226B012A05D111F0DC
:10224000100218BF13F0100236D10A0622D513F07F
:1022500080021FD094F8411021293FD1A168B1F527
:10226000805F03D12169002900F07082216A4A1C35
:10227000226209784160E18C01390A04E1842DD1A0
:10228000C16821F08001C160C16841F04001C160B6
:1022900002B0B0BD490621D513F040011ED0C1687F
:1022A00021F04001C1602021204684F8411002B095
:1022B000BDE8B04000F048BC0021019101680191E7
:1022C0004168019101994069400613D4A08DE18DC8
:1022D000E28D002A18BF884240F0BA8102B0B0BD3A
:1022E000CA0718BF13F4807240F0B6804A0700F1A5
:1022F000B980BEE0E06B016849688AB2002AEDD07F
:10230000A38D9A42EAD2E1858069202800F09C8062
:10231000206850E8030F216820F4807041E8030230
:10232000DAB1206850E8030F216820F4807041E89A
:10233000030292B1206850E8030F216820F48070F6
:1023400041E803024AB1206850E8030F216820F4F5
:10235000807041E80302002ADAD1206850E8050FB6
:10236000216820F0010041E80502DAB1206850E858
:10237000050F216820F0010041E8050292B12068B4
:1023800050E8050F216820F0010041E805024AB13C
:10239000206850E8050F216820F0010041E805029F
:1023A000002ADAD1206850E8050F216820F04000AB
:1023B00041E80502DAB1206850E8050F216820F0F5
:1023C000400041E8050292B1206850E8050F2168FD
:1023D00020F0400041E805024AB1206850E8050FAE
:1023E000216820F0400041E80502002ADAD12020CF
:1023F00084F8420000202063206850E8030F216821
:1024000020F0100041E80302DAB1206850E8030F21
:10241000216820F0100041E8030292B1206850E8E2
:10242000030F216820F0100041E803024AB1206840
:1024300050E8030F216820F0100041E80302002A51
:10244000DAD1E06BFFF718F802206063A08DE18D10
:10245000401A81B2204674E1626C42F0010262646B
:102460004A0706D5BEF1000F03D0626C42F00202AB
:1024700062648A0706D5BEF1000F03D0626C42F099
:1024800004026264BCF1000F09D545EA0E02B2FAFB
:1024900082F2520903D1626C42F008026264626CFB
:1024A000002A3FF41BAF11F0200118BF002D03D00C
:1024B000204600F0D5FB20684069616C00F04000C8
:1024C00001F00801401800F0B58000BF206850E816
:1024D000030F216820F4907041E80302BAB320682A
:1024E00050E8030F216820F4907041E8030272B3B2
:1024F000206850E8030F216820F4907041E803023F
:102500002AB3206850E8030F216820F4907041E856
:102510000302002ADAD11AE0206850E8050F21688A
:1025200020F0010041E80502DAB1206850E8050F0B
:10253000216820F0010041E8050292B1206850E8CE
:10254000050F216820F0010041E805024AB120682A
:1025500050E8050F216820F0010041E80502002A3B
:10256000DAD1206B012824D1206850E8030F2168BC
:1025700020F0100041E80302DAB1206850E8030FB0
:10258000216820F0100041E8030292B1206850E871
:10259000030F216820F0100041E803024AB12068CF
:1025A00050E8030F216820F0100041E80302002AE0
:1025B000DAD1202084F8420000202063206840699E
:1025C00040063FD5206850E8050F216820F0400004
:1025D00041E80502DAB1206850E8050F216820F0D3
:1025E000400041E8050292B1206850E8050F2168DB
:1025F00020F0400041E805024AB1206850E8050F8C
:10260000216820F0400041E80502002ADAD1E06BA1
:10261000C0B142F65541C0F600014163FEF750FFDC
:1026200000283FF45BAEE06B416B02B0BDE8B04008
:10263000084700BF2046FFF7DFFD0020606402B0BE
:10264000B0BD00BF204602B0BDE8B040FFF7D4BD2A
:10265000401A216851E8031F226821F4907142E872
:102660000313DBB1216851E8031F226821F4907144
:1026700042E8031393B1216851E8031F226821F453
:10268000907142E803134BB1216851E8031F22689F
:1026900021F4907142E80313002BDAD1216851E84C
:1026A000051F226821F0010142E80513DBB1216812
:1026B00051E8051F226821F0010142E8051393B19A
:1026C000216851E8051F226821F0010142E8051345
:1026D0004BB1216851E8051F226821F0010142E851
:1026E0000513002BDAD1202184F842100021216348
:1026F000216851E8031F226821F0100142E803130A
:10270000DBB1216851E8031F226821F0100142E883
:10271000031393B1216851E8031F226821F01001CF
:1027200042E803134BB1216851E8031F226821F0EE
:10273000100142E80313002BDAD1022281B22046B5
:10274000626302B0BDE8B040FFF754BD216A31F8C2
:10275000022B6FF35F22426021628CE5002804BFE8
:102760000120704710B5044690F8410028B90020B8
:1027700084F84000204600F063F8242084F84100EB
:102780002068D4E90212C36823F40053C3600369CC
:1027900023F440531A430261D4E904231143C2686D
:1027A000194341F20C639A431143C1604169A26924
:1027B00021F44071114343F60002C4F20102904239
:1027C000416103D0FFF7D2FA02E000BFFFF7E2FA5F
:1027D0006268192148439100B0FBF1F048F21F51A3
:1027E000C5F2EB11A0FB01235A094FF69C73C0F60A
:1027F000FF7302FB0300322303EB0010A0FB010177
:10280000F02303EA5113206803EB0212C1F34311D2
:1028100011448160016921F490410161416921F015
:102820002A014161C16841F40051C16000202021AA
:10283000606484F8411084F84210606310BD0000A9
:1028400070B586B040F60004C4F20104006804F5D7
:10285000405100268842049602D006B070BD00BFE9
:1028600041F21800C4F20200016802AD41F4804157
:102870000160016801F4804101910199016841F012
:10288000040101600068294600F0040001900198ED
:102890004FF4007002900220039003200590204620
:1028A000FEF7BAFE4FF48060CDE9020620462946C5
:1028B0000496FEF7B1FE252000210022FFF72CF838
:1028C0002520FFF715F806B070BD00007047000026
:1028D0002DE9F04381B0044690F84100202840F0F3
:1028E000B180884600294FF0010000F0D6801646DE
:1028F000002A00F0D2800020606421201D4684F868
:102900004100FEF787FFA684E684A1680646B1F57C
:10291000805F03D12069002800F0988047464FF07F
:102920000008E18C2068002900F0968005F101097B
:102930000BE000BF47B317F8011B4160E18C013980
:10294000E184E18C002900F0878001680906F1D458
:10295000B9F1000F0AD0EDB1FEF75CFF801BA84271
:1029600018D8206801680906F6D5E3E7016809066A
:10297000E0D4016809065CBF01685FEA0161D9D44F
:1029800001680906F2D5D5E738F8021B00276FF376
:102990005F21D2E7206850E8030F216820F4D0704F
:1029A00041E80302BAB3206850E8030F216820F41D
:1029B000D07041E8030272B3206850E8030F216829
:1029C00020F4D07041E803022AB3206850E8030FD6
:1029D000216820F4D07041E80302002ADAD11AE01D
:1029E000206850E8050F216820F0010041E8050249
:1029F000DAB1206850E8050F216820F0010041E8B5
:102A0000050292B1206850E8050F216820F001000E
:102A100041E805024AB1206850E8050F216820F01E
:102A2000010041E80502002ADAD1202084F84100A3
:102A300084F84200002084F84000032001B0BDE883
:102A4000F08300BF022001B0BDE8F0830027E18CD5
:102A5000206800297FF46AAF0168490619D4FDB1E6
:102A6000691C0DD10168490613D4016849065CBF91
:102A700001685FEA41610CD401684906F2D508E0BB
:102A8000FEF7C8FE801BA8420AD8206800684006EE
:102A9000F6D5202084F84100002001B0BDE8F08385
:102AA000206850E8030F216820F4D07041E8030249
:102AB000002A3ED0206850E8030F216820F4D0702F
:102AC00041E80302AAB3206850E8030F216820F40C
:102AD000D07041E8030262B3206850E8030F216818
:102AE00020F4D07041E80302002AD9D121E000BFD0
:102AF000206850E8050F216820F0010041E8050238
:102B0000002A3FF492AF206850E8050F216820F0BA
:102B1000010041E80502002A3FF487AF206850E831
:102B2000050F216820F0010041E80502002A3FF46A
:102B30007CAF206850E8050F216820F0010041E8D3
:102B40000502002AD4D170E770470000FEE70000BC
:102B5000B0B584B040F2E400C2F2000042F200419D
:102B600001244FF46025C4F201014FF48072002368
:102B7000C0E90645022503730475C0E900138260AD
:102B80000561FEF7CDF9002818BFFEF771F8112096
:102B900001A931C140F2E400C2F2000001A9FEF730
:102BA000F5F8002818BFFEF763F810200190022006
:102BB000029040F2E400C2F2000001A9FEF7E6F83C
:102BC000002818BFFEF754F804B0B0BD82B041F23F
:102BD0001800C4F20200016841F0040101600168BC
:102BE00001F0040101910199016841F008010160BF
:102BF000006800F008000090009802B070470000E4
:102C000080B540F2141043F60001C2F20000C4F295
:102C1000010100234FF00C0C4FF4E13280E80E006C
:102C2000C0E90333C0E905C3C361FFF797FD00287E
:102C300008BF80BDBDE88040FEF71AB8FEE700007F
:102C4000FEE700007047000070470000FEF7E8BD97
:102C500070470000406A0021C185C184FFF7CCBAEB
:102C600081B090F84210222921D183680246B3F541
:102C7000805F09D152F8281F52F8183C002B63D00E
:102C800003685B680AE000BF52F8281F13B90369A4
:102C9000002BF5D003685B6803F07F030B701168AD
:102CA00001311160C18D01390A04C18502D001B022
:102CB000704700BF0168CA6822F02002CA60CA6873
:102CC00022F48072CA604A6922F001024A6120211E
:102CD00080F8421000214163026B012A3CD101635C
:102CE000016851E8031F026821F0100142E8031354
:102CF000DBB1016851E8031F026821F0100142E8CE
:102D0000031393B1016851E8031F026821F0100119
:102D100042E803134BB1016851E8031F026821F038
:102D2000100142E80313002BDAD101680A68D206C9
:102D300006D5002200920A68009249680091009925
:102D4000818D01B0FFF756BA026852686FF35F22B7
:102D500021F8022B8162A5E701B0FFF7B7BD0000A3
:102D600040F21410C2F20000FFF748BAFEE700007C
:102D700096B0FEF763FD00240120CDE91144CDE9B2
:102D80000F440C9010904FF4E0104FF48031022566
:102D900015900CA80694CDE90444CDE90244CDE990
:102DA0000D14CDE91351FFF735F828B1EFF310807A
:102DB00072B600BFFEE700BF0F20CDE907054FF454
:102DC0008060CDE90A0407A802210994FEF7EEFE0F
:102DD00020B1EFF3108072B6FEE700BF0220019031
:102DE0004FF40040039001A8FEF75AFE20B1EFF324
:102DF000108072B6FEE700BFFFF7E8FEFFF7A8FEFF
:102E0000FFF7FEFE40F2700A40F2E4044FF600685D
:102E100046F26669C2F2000A44F21A0540F214163C
:102E2000C2F20004C4F2AF08C4F20A090AF11007A2
:102E3000C0F60005C2F200060FF2081B2046FDF79F
:102E40001DFF2046FEF772FA20466421FEF73AF98C
:102E50002046FEF761F800F075FE0022434600F0C0
:102E600017FD4FF066324B4600F080FECAE90001C4
:102E70002046FEF75BFA20464FF4FA71FEF722F97E
:102E80002046FEF749F800F05DFE0022434600F0C0
:102E9000FFFC4FF066324B4600F068FECAE90201C3
:102EA0002046FEF7A9FADAE9002338462946FDF75D
:102EB000B9F93846FDF78EFA82B2304639463223E8
:102EC000FFF706FDDAE9022338462946FDF7AAF99D
:102ED0003846FDF77FFA82B2304639463223FFF793
:102EE000F7FCDAE9022347F6E1204EF24711CAF671
:102EF0001460C3F6F67100F037FF4FF6225249F620
:102F0000E043C7F2F652C3F6717300F0C1FC002330
:102F10000022C4F2390300F013FC02460B46384687
:102F20005946FDF77FF93846FDF754FA82B230462C
:102F300039463223FFF7CCFC4FF4FA70FEF758FB0A
:102F40007CE700BF2520352E32660A005FEA400C80
:102F500008BF91F0000F4FEA8C234FEAC12243EAE9
:102F600051514FEA1C5018BF00F5F0404FEA3000B5
:102F700018BF41F000415FEA6C5C00F02980BCF1B1
:102F8000FF3F08BF40F080407047130C06BF12049B
:102F90004FF0100C4FF0000C130E04BF12020CF196
:102FA000080C130F04BF12010CF1040C930F04BFA3
:102FB00092000CF1020CD30F04BF52000CF1010C73
:102FC00011464FF00002A0F11F00A0EB0C0070476B
:102FD00011F0004F08BF704731F000413FF4D5AF0A
:102FE0000B0C06BF09044FF0100C4FF0000C0B0E39
:102FF00004BF09020CF1080C0B0F04BF09010CF10E
:10300000040C8B0F04BF89000CF1020CCB0F04BF22
:1030100049000CF1010CCCF1200322FA03F341EA40
:10302000030102FA0CF2A0EB0C0000F10100704762
:1030300023F07F4720F07F4C80EA030000F000403F
:10304000ACEB070303F57C5303F1FF032DE9804943
:1030500009B44FEA144324EA03484FEA154B25EA22
:103060000B4E0FF2042606EB13273E7803FB066790
:10307000C7F5000707FB06F64FEAD64606F102063B
:103080004FEA543707FB066CCCF1005C4FEA1C4753
:103090002CEA074C0CFB06F507FB06F404EB15467F
:1030A0004FEA961649085FEA320234BF00204FF01B
:1030B00000404FEAD13706FB07FC4FEA1C4C0CFBE3
:1030C0000BF7D21B03FB0CF761EB07010CFB0EF7B0
:1030D000B0EB074072EB17420CFB08F734BFA2EBD2
:1030E0000742B2EB074261EB17414FEA0C444FEA4B
:1030F000910706FB07FC4FEA1C4C0CFB0BF7B0EBEF
:10310000C74072EB573203FB0CF734BFA2EBC74248
:10311000B2EBC74261EB57310CFB0EF7B0EBC700C7
:1031200072EB57720CFB08F734BFA2EBC702B2EB8D
:10313000C70261EB57714FEA816141EA92114FEA90
:10314000826242EA90124FEA806004EBCC04039F53
:103150004FEAD13706FB07FC4FEA1C4C0CFB0BF780
:10316000D21B03FB0CF761EB07010CFB0EF7B0EB76
:10317000074072EB17420CFB08F734BFA2EB074283
:10318000B2EB074261EB17414FEA8C5504EB9C24EC
:103190004FEA910706FB07FC4FEA1C4C0CFB0BF7B0
:1031A000B0EBC74072EB573203FB0CF734BFA2EB16
:1031B000C742B2EBC74261EB57310CFB0EF7B0EBE5
:1031C000C70072EB57720CFB08F734BFA2EBC702C3
:1031D000B2EBC70261EB57714FEA816141EA92118C
:1031E0004FEA826242EA90124FEA806015EB4C256A
:1031F00044F100044FEAD13706FB07FC4FEA1C4CB0
:103200000CFB0BF7D21B03FB0CF761EB07010CFB6C
:103210000EF7B0EB074072EB17420CFB08F734BF18
:10322000A2EB0742B2EB074261EB17414FEA813153
:1032300041EA92414FEA823242EA90424FEA8030BC
:103240004FEA0C7615EB1C1544F1000448EA0343E1
:103250004EEA0B484FF0000EB2EB080C71EB03077F
:1032600024BF624639464EEB0E0E4FF0000B00189D
:10327000524149414BEB0B0BB2EB080C71EB0307CE
:103280007BF1000B24BF624639464EEB0E0E4FF029
:10329000000B0018524149414BEB0B0BB2EB080CF1
:1032A00071EB03077BF1000B24BF624639464EEBFE
:1032B0000E0E51EA020718BF46F0010616EB0E7615
:1032C00055F1000254F1000103D5BDE88901BDE8C4
:1032D0000088BDE88901BDE80048B619524141EBBC
:1032E0000101A3F10103704780807F7E7D7C7B7AA2
:1032F0007978777676757473727171706F6E6E6DA2
:103300006C6C6B6A6A696868676666656464636347
:1033100062616160605F5F5E5E5D5D5C5C5B5B5ACD
:103320005A5959585857575656555555545453533A
:1033300052525251515050504F4F4F4E4E4D4D4D95
:103340004C4C4C4B4B4B4A4A4A49494948484847E0
:10335000474747464646454545444444444343431E
:1033600043424242424141419C46002B30D47700C7
:103370002BD04FEA37071CB503B44FF010004FF0C5
:103380001001BAF1000F06D0BCF1000FDCBF40F015
:10339000080040F008014FF000000FBCBDE81040ED
:1033A0000BF1010BBBF1010F08BF5FEA170722BF4A
:1033B00012F1010211F101014FF0004143F100034C
:1033C00000F0004043EA00007047F9D35708D0E707
:1033D00046EA06464FEA164613F1400F1FDD13F189
:1033E000200FDFBF16430A46002120335B42BED0C8
:1033F000C3F1200746EA06464FEA164602FA07F7E7
:1034000046EA070622FA03F2C3F1200701FA07F79A
:1034100042EA070221FA03F14FF00003A7E746EA68
:10342000020646EA06464FEA164646EA0106BCBFD1
:1034300046EA0646360C4FF000034FF000024FF00C
:10344000000194E72DE9804C70B49A46934691E8C8
:10345000380007C831EA400C48BF34EA430C03D5B2
:10346000FFF7E6FDFFF780FFF0BCBDE8008C2DE91B
:10347000804C70B49A46934691E8380007C810F023
:10348000804F08BF13F0804F03D100F005F8FFF71D
:103490006BFFF0BCBDE8008C20F07F4723F07F4C31
:1034A00080EA030000F0004007EB0C03A3F57C5317
:1034B000A3F1FE0392F0000F00F0B38095F0000F2F
:1034C00000F077802DE901494FEA114021EA0048D8
:1034D0004FEA144624EA064700FB06FC08FB06F602
:1034E00007FB08F818EB06484CEB164C00FB07F7F7
:1034F00018EB07484CEB17404FEA124B22EA0B4EF1
:103500004FEA154625EA06470BFB06FC0EFB06F6BE
:1035100007FB0EFE1EEB064E4CEB164C0BFB07F7A3
:103520001EEB074E4CEB174B18EB0B0840F100005D
:1035300018EB0E0B58EB000840F100008F1A4FF00B
:1035400000014FF000063CBFC943661B14BFB5EB3A
:10355000040C00213CBFC943F61B4FEA174427EA7D
:1035600004454FEA1C472CEA074C04FB076205FBA5
:1035700007F70CFB05F616EB074642EB174204FB78
:103580000CFC16EB0C4642EB1C421BEB060658EB00
:10359000020241414EEA8E0E46EA9E0601D5BDE882
:1035A0000189B619524141EB0101A3F10103BDE8C4
:1035B00001894FEA144524EA05464FEA114721EAFA
:1035C000074C05FB07F406FB07F70CFB06F111EBB4
:1035D000074144EB174405FB0CFC11EB0C4144EB99
:1035E0001C444FEA124722EA074C05FB07F206FB90
:1035F00007F70CFB06F616EB074642EB174205FBF6
:103600000CFC16EB0C4642EB1C456A1854F1000109
:1036100048BF7047B619524141EB0101A3F10103C4
:10362000704795F0000F37D04FEA114221EA024669
:103630004FEA144724EA074C02FB07F106FB07F7A1
:103640000CFB06F414EB074441EB174102FB0CFCA6
:1036500014EB0C4441EB1C414FEA154725EA074C9B
:1036600002FB07F506FB07F70CFB06F616EB074611
:1036700045EB174502FB0CFC16EB0C4645EB1C42D8
:10368000121951F1000148BF7047B619524141EB80
:103690000101A3F1010370474FEA144524EA0546EE
:1036A0004FEA114721EA074C05FB07F106FB07F734
:1036B0000CFB06F212EB074241EB174105FB0CFC39
:1036C00012EB0C4251EB1C414FF0000648BF704713
:1036D000921841EB0101A3F101037047490050EA40
:1036E000C12018BF04204A0D18BF40F0010040F26D
:1036F000FF72B2EB515F08BF40F00200012808BF23
:103700000520704730380A2801D201207047002078
:103710007047000010B500290AD00878002807D0AB
:1037200005487844FDF7D2F9002801D0002010BDEB
:103730000248784410BD0000220900001A09000068
:1037400010B591EA030F48BF83F0004300F11483E2
:10375000841A71EB030C05D2121943EB0C03001B06
:1037600061EB0C014FEA1154A4EB135CDFF81CE190
:103770001EEA430F18BF9EEA445F00F0748021EAFE
:10378000045123EA0E0343F48013DCF1200E32D3FC
:1037900022FA0CFE10EB0E0023FA0CFE41EB0E0198
:1037A000CCF1200E03FA0EFE10EB0E00CCF1200E31
:1037B00051F10001B1F5801F32D201EB045112FA30
:1037C0000EF2BDE8104058BF7047401C38BF5FEA9A
:1037D000420218BF7047002814BF20F0010041F1D9
:1037E00000014FEA410313F5001F38BF7047A1F1F4
:1037F000C04100F0B3BA012A43EB0302ACF1200C44
:10380000DCF11F0E32BF4FF0000E23FA0CF310EB69
:10381000030041EB0451B4EB115FD0D0A1EB045194
:1038200001F58011490801EB04515FEA30000ED325
:1038300050F1000038BF12FA0EFE08D1BDE810406A
:10384000C9E7401C38BF5FEA4202CAD1C3E7BDE8FE
:1038500010404FEA410313F5001F38BF7047A1F134
:10386000C04100F07BBA9EEA445F08D011EA5E0FC7
:10387000BDE8104004BF01F0004100207047BDE8E2
:10388000104070B500F01CFA64FBBE3E0000E0FF83
:103890002DE9C04130B4DFF8A4C23CEA111418BFCE
:1038A0003CEA131400F0ED801CEA111481EA0305D0
:1038B00044EAD57418BF1CEA131500F0C880A4EBC5
:1038C000050404F17F7404F500344FF0004545EA27
:1038D000C12145EAC32341EA505143EA52534FEA1A
:1038E000C0204FEAC222994208BF904200F09D805A
:1038F0004FEA13650FF24416765D4FEA134506FB57
:1039000005F7C7F1807706FB07F74FEAD737A7FB24
:1039100003687642A7FB06CEC8F5803838BFA8F109
:10392000010807FB08E6A6FB028C4FF0000EE6FB41
:1039300003CEDCF1000CCEF1004E38BFAEF1010E2B
:10394000A6FB0C584FF00007E6FB0E87A1FB08C64C
:10395000A0FB07CE16EB0E064FF0000545F1000563
:10396000E1FB076515F1E04E7EBFA4F580345FEA08
:1039700046066D4116F1800745F100054FEA17270D
:1039800047EA05674FEA15254FEA0666A6F1DE46C7
:10399000B6F1805F20D9384605EBC47124F0010CE4
:1039A00001EB0C11BCF1FE6F02D8F0BCBDE8008148
:1039B00024425CBF01F5801E9EEAC47F02D4F0BCA5
:1039C000BDE80081244200F13980A1F1C041F0BC82
:1039D000BDE8004100F0C2B94FEAD02040EA4150B2
:1039E0004FEAD1214FEAD22242EA43524FEAD3238F
:1039F000A7FB028607FB036605FB02661EEA0E0FA5
:103A000058BFA6EB0056B6EB00564FEA520E4EEAF0
:103A1000C37E18EB0E0E56EB530EBCD518EB020806
:103A20005E417F1C55F10005B5E74FF480154FF05E
:103A300000074FF000064FF00008ACE701F1C0416D
:103A400001F000414FF00000F0BCBDE800810CEA3D
:103A5000131511EA0C1F00D00CE013EA0C1F00F044
:103A600026804FF0000081EA030101F00041F0BC24
:103A7000BDE80081F0BCBDE8004181EA030100F02F
:103A80006DB9F0BCBDE8004170B500F019F900BF98
:103A9000097EFC3E00F007B84FF0000081EA030108
:103AA00001F00041704781EA030100F057B9F0BC12
:103AB000BDE8004122494FF000007047FFFDFBF9CF
:103AC000F7F5F4F2F0EEEDEBE9E8E6E4E3E1E0DE51
:103AD000DDDBDAD8D7D5D4D3D1D0CFCDCCCBCAC8C3
:103AE000C7C6C5C4C2C1C0BFBEBDBCBBBAB9B8B7EA
:103AF000B6B5B4B3B2B1B0AFAEADACABAAA9A8A8DD
:103B0000A7A6A5A4A3A3A2A1A09F9F9E9D9C9C9BAA
:103B10009A99999897979695959493939291919055
:103B20008F8F8E8E8D8C8C8B8B8A898988888787E6
:103B30008685858484838382828181800000FF075B
:103B40000000F87FB0FA80F310FA03F10AD0C3F155
:103B50001D0303F580634FEA03524FEA415002EB25
:103B6000D12170474FF000007047000070B5DFF8BA
:103B700048C11CEA111E1EBF1CEA13159EEA0C0F59
:103B800095EA0C0F00F06F8081EA03044EEAD47EC0
:103B9000AE4421EA4C1123EA4C1341F4801143F462
:103BA0008013AEF17F7EA1FB024CA0FB03653619AA
:103BB00055EB0C05A1FB034C4CF10003A0FB021CD0
:103BC00016EB0C06654153F10003094218BF46F09D
:103BD000010613F4007F0BD14FEA03314FEA0530A1
:103BE00041EA155140EA165034036FF003020AE02F
:103BF0004FEAC3214FEAC52041EA555140EA5650E9
:103C0000F4026FF0020202EB2E4201EB025585EA4C
:103C1000CE710AD05FEA440C18BF24F0004450F182
:103C2000000041F1000120EAD47040F2FE7C6245C0
:103C300000D270BDA84214BF4FF080444FF0404402
:103C4000002E08BF0024BEF1806FA8BFA1F1C041C3
:103C5000BDE8704080F2828001F1C04101F0004176
:103C60004FF0000070470CEA13159EEA0C0F18BFC6
:103C700095EA0C0F06D081EA030E4FF000000EF01B
:103C8000004170BD00F01CF88900013E00F007B84B
:103C900000F009B84FEA430C5FEA5C5C08D081EAA7
:103CA000030100F05BB84FEA410C5FEA5C5CF6D1BF
:103CB00002494FF0000070470000FF070000F87F46
:103CC0000EF1020E2EF0030E5EF8046B364205D4A0
:103CD000012A43EB030515F5001F12D8012841EB1B
:103CE000010C1CF5001F0CD80ED14FEAD17C0CEB57
:103CF0004C0C0CF1020C15F5001F08BF4CEBD37CEB
:103D000004E04FF0080C01E04FEAD37C0CEB4C05CB
:103D100026FA05F606F00706B6F1040C06D20EEBFD
:103D2000860CBDE870404CF0010C6047DFE80CF0F9
:103D3000090B02024FF00041A1F500214FF00000F5
:103D400070BD19461046012851EB010418BFD4F587
:103D5000001484BF002001F0004170BD0808A0F5E8
:103D600000114FEA3101704710B591EA030F48BFC7
:103D700083F000433FF5ECAC841A71EB030C07D2DF
:103D80008CF0004C121943EB0C03001B61EB0C018F
:103D90004FEA1154A4EB135CDFF8A4E11EEA430FD1
:103DA00018BF9EEA445F00F0B48021EA045123EA80
:103DB0006E035242C3EB6E0338BF5B1EDCF1200E74
:103DC00025D322FA0CFE10EB0E0043FA0CFE41EB59
:103DD0000E01CCF1200E03FA0EFE10EB0E00CCF11A
:103DE000200E51F1000129D401EB045112FA0EF218
:103DF000BDE8104058BF7047401C1CBFB2F1004FD7
:103E0000704700280CBF491C20F00100704712EBDE
:103E1000020E43EB030218BF4FF0010E4EEA4202BE
:103E2000ACF1200CDCF11E0E56D943FA0CFE10EB5F
:103E30000E00CCF11E0E51F1FF31D5D50EF1010E61
:103E400012FA0EFE404141EB010101EB445C5FEAD6
:103E50005C5C10D901EB045110EBDE7038BFBEF191
:103E6000004FBDE8104018BF704700280CBF491C28
:103E700020F00100704734D24FEAD42C24F40064BF
:103E800011F500111BD0B1FA81F20B3AA41AA41E4D
:103E9000D2F12003914030FA03F31943904001EB33
:103EA000CC7101EB0451002CBDE81040A8BF704755
:103EB00001F1C04101F000414FF000007047B0FA3D
:103EC00080F310FA03F102D1BDE810407047E41A04
:103ED000173C4805C90AE2E701EB0451BDE8104070
:103EE000704749104FEA300001EB0451BDE8104023
:103EF00002E04FF0000170474A0008BF0042F8D0CE
:103F0000B2F5001F28BF704701F000414FF00000DC
:103F100070479EEA445F07D011EA5E0FBDE810408B
:103F200004BF002100207047BDE8104070B5FFF7C6
:103F3000C7FE00BF40DFF63E104683F000417047E9
:103F40000000E0FFFCF740BB040000080000000098
:103F5000000000020001000010000000024000000C
:103F6000000000A00000000005400000000000C8A4
:103F7000000000000C4000000000409C0000000019
:103F8000194000000020BCBE0000000034400000CA
:103F9000BFC91B8E00000004B5400000504BCFD0BD
:103FA0006607E2CF010000006C4100003E8251AA8A
:103FB000DFEEA73401000000D9420000DCB5A0E22A
:103FC0003A301F97FFFFFFFFB4450000FD25A0C852
:103FD000E9A3C14FFFFFFFFFFF3F0000000000808B
:103FE00000000000FF3F0000000000800000000013
:103FF0000000000000000000010203040607080999
:104000000000000001020304010202030405060788
:1040100008090A0B0C0D0E0F10102520352E3266E4
:104020002C2000006040000800000020100000006C
:104030006C010008704000081000002050070000CC
:10404000880100081C00000043000000F8FFFFFF8B
:104050000C0000000E0000000F0000002E00000009
:1040600001000000100000000024F4000000000027
:0400000508000131BD
:00000001FF
